{
	"src/DollarCostAveraging.sol": {
		"DollarCostAveraging": {
			"abi": [
				{
					"inputs": [
						{
							"internalType": "address",
							"name": "_usdt",
							"type": "address"
						},
						{
							"internalType": "address",
							"name": "_uniswapRouter",
							"type": "address"
						},
						{
							"internalType": "address",
							"name": "_oracle",
							"type": "address"
						},
						{
							"internalType": "address",
							"name": "_vrfCoordinator",
							"type": "address"
						},
						{
							"internalType": "uint64",
							"name": "_subscriptionId",
							"type": "uint64"
						},
						{
							"internalType": "address",
							"name": "_link",
							"type": "address"
						},
						{
							"internalType": "bytes32",
							"name": "_keyHash",
							"type": "bytes32"
						},
						{
							"internalType": "uint256",
							"name": "_fee",
							"type": "uint256"
						}
					],
					"stateMutability": "nonpayable",
					"type": "constructor"
				},
				{
					"inputs": [
						{
							"internalType": "address",
							"name": "target",
							"type": "address"
						}
					],
					"name": "AddressEmptyCode",
					"type": "error"
				},
				{
					"inputs": [
						{
							"internalType": "address",
							"name": "account",
							"type": "address"
						}
					],
					"name": "AddressInsufficientBalance",
					"type": "error"
				},
				{
					"inputs": [],
					"name": "FailedInnerCall",
					"type": "error"
				},
				{
					"inputs": [
						{
							"internalType": "address",
							"name": "have",
							"type": "address"
						},
						{
							"internalType": "address",
							"name": "want",
							"type": "address"
						}
					],
					"name": "OnlyCoordinatorCanFulfill",
					"type": "error"
				},
				{
					"inputs": [
						{
							"internalType": "address",
							"name": "token",
							"type": "address"
						}
					],
					"name": "SafeERC20FailedOperation",
					"type": "error"
				},
				{
					"anonymous": false,
					"inputs": [
						{
							"indexed": true,
							"internalType": "address",
							"name": "user",
							"type": "address"
						},
						{
							"indexed": false,
							"internalType": "uint256",
							"name": "frequency",
							"type": "uint256"
						},
						{
							"indexed": false,
							"internalType": "uint256",
							"name": "amount",
							"type": "uint256"
						}
					],
					"name": "PlanCreated",
					"type": "event"
				},
				{
					"anonymous": false,
					"inputs": [
						{
							"indexed": true,
							"internalType": "address",
							"name": "user",
							"type": "address"
						}
					],
					"name": "PlanStarted",
					"type": "event"
				},
				{
					"anonymous": false,
					"inputs": [
						{
							"indexed": true,
							"internalType": "address",
							"name": "user",
							"type": "address"
						}
					],
					"name": "PlanStoped",
					"type": "event"
				},
				{
					"anonymous": false,
					"inputs": [
						{
							"indexed": true,
							"internalType": "address",
							"name": "user",
							"type": "address"
						},
						{
							"indexed": false,
							"internalType": "uint256",
							"name": "amount",
							"type": "uint256"
						},
						{
							"indexed": false,
							"internalType": "uint256",
							"name": "ethReceived",
							"type": "uint256"
						}
					],
					"name": "PlanTriggered",
					"type": "event"
				},
				{
					"anonymous": false,
					"inputs": [
						{
							"indexed": true,
							"internalType": "address",
							"name": "user",
							"type": "address"
						},
						{
							"indexed": false,
							"internalType": "uint256",
							"name": "frequency",
							"type": "uint256"
						},
						{
							"indexed": false,
							"internalType": "uint256",
							"name": "amount",
							"type": "uint256"
						}
					],
					"name": "PlanUpdated",
					"type": "event"
				},
				{
					"inputs": [
						{
							"internalType": "bytes",
							"name": "",
							"type": "bytes"
						}
					],
					"name": "checkUpkeep",
					"outputs": [
						{
							"internalType": "bool",
							"name": "upkeepNeeded",
							"type": "bool"
						},
						{
							"internalType": "bytes",
							"name": "performData",
							"type": "bytes"
						}
					],
					"stateMutability": "view",
					"type": "function"
				},
				{
					"inputs": [],
					"name": "coordinator",
					"outputs": [
						{
							"internalType": "contract VRFCoordinatorV2Interface",
							"name": "",
							"type": "address"
						}
					],
					"stateMutability": "view",
					"type": "function"
				},
				{
					"inputs": [
						{
							"internalType": "uint256",
							"name": "frequency",
							"type": "uint256"
						},
						{
							"internalType": "uint256",
							"name": "amount",
							"type": "uint256"
						}
					],
					"name": "createPlan",
					"outputs": [],
					"stateMutability": "nonpayable",
					"type": "function"
				},
				{
					"inputs": [
						{
							"internalType": "address",
							"name": "user",
							"type": "address"
						}
					],
					"name": "getAllowance",
					"outputs": [
						{
							"internalType": "uint256",
							"name": "",
							"type": "uint256"
						}
					],
					"stateMutability": "view",
					"type": "function"
				},
				{
					"inputs": [],
					"name": "link",
					"outputs": [
						{
							"internalType": "contract LinkTokenInterface",
							"name": "",
							"type": "address"
						}
					],
					"stateMutability": "view",
					"type": "function"
				},
				{
					"inputs": [
						{
							"internalType": "address",
							"name": "",
							"type": "address"
						}
					],
					"name": "nextTriggerTime",
					"outputs": [
						{
							"internalType": "uint256",
							"name": "",
							"type": "uint256"
						}
					],
					"stateMutability": "view",
					"type": "function"
				},
				{
					"inputs": [],
					"name": "nonce",
					"outputs": [
						{
							"internalType": "uint256",
							"name": "",
							"type": "uint256"
						}
					],
					"stateMutability": "view",
					"type": "function"
				},
				{
					"inputs": [],
					"name": "oracle",
					"outputs": [
						{
							"internalType": "contract AggregatorV2V3Interface",
							"name": "",
							"type": "address"
						}
					],
					"stateMutability": "view",
					"type": "function"
				},
				{
					"inputs": [
						{
							"internalType": "bytes",
							"name": "performData",
							"type": "bytes"
						}
					],
					"name": "performUpkeep",
					"outputs": [],
					"stateMutability": "nonpayable",
					"type": "function"
				},
				{
					"inputs": [
						{
							"internalType": "address",
							"name": "",
							"type": "address"
						}
					],
					"name": "plans",
					"outputs": [
						{
							"internalType": "uint256",
							"name": "index",
							"type": "uint256"
						},
						{
							"internalType": "uint256",
							"name": "frequency",
							"type": "uint256"
						},
						{
							"internalType": "uint256",
							"name": "amount",
							"type": "uint256"
						},
						{
							"internalType": "uint256",
							"name": "startAt",
							"type": "uint256"
						},
						{
							"internalType": "uint256",
							"name": "times",
							"type": "uint256"
						},
						{
							"internalType": "uint256",
							"name": "status",
							"type": "uint256"
						}
					],
					"stateMutability": "view",
					"type": "function"
				},
				{
					"inputs": [
						{
							"internalType": "uint256",
							"name": "requestId",
							"type": "uint256"
						},
						{
							"internalType": "uint256[]",
							"name": "randomWords",
							"type": "uint256[]"
						}
					],
					"name": "rawFulfillRandomWords",
					"outputs": [],
					"stateMutability": "nonpayable",
					"type": "function"
				},
				{
					"inputs": [],
					"name": "startPlan",
					"outputs": [],
					"stateMutability": "nonpayable",
					"type": "function"
				},
				{
					"inputs": [],
					"name": "stopPlan",
					"outputs": [],
					"stateMutability": "nonpayable",
					"type": "function"
				},
				{
					"inputs": [
						{
							"internalType": "address",
							"name": "user",
							"type": "address"
						}
					],
					"name": "triggerPlan",
					"outputs": [],
					"stateMutability": "nonpayable",
					"type": "function"
				},
				{
					"inputs": [],
					"name": "uniswapRouter",
					"outputs": [
						{
							"internalType": "contract IUniswapV2Router02",
							"name": "",
							"type": "address"
						}
					],
					"stateMutability": "view",
					"type": "function"
				},
				{
					"inputs": [
						{
							"internalType": "uint256",
							"name": "frequency",
							"type": "uint256"
						},
						{
							"internalType": "uint256",
							"name": "amount",
							"type": "uint256"
						}
					],
					"name": "updatePlan",
					"outputs": [],
					"stateMutability": "nonpayable",
					"type": "function"
				},
				{
					"inputs": [],
					"name": "usdt",
					"outputs": [
						{
							"internalType": "contract ERC20",
							"name": "",
							"type": "address"
						}
					],
					"stateMutability": "view",
					"type": "function"
				},
				{
					"inputs": [
						{
							"internalType": "uint256",
							"name": "",
							"type": "uint256"
						}
					],
					"name": "userRandomRequestId",
					"outputs": [
						{
							"internalType": "address",
							"name": "",
							"type": "address"
						}
					],
					"stateMutability": "view",
					"type": "function"
				},
				{
					"inputs": [
						{
							"internalType": "uint256",
							"name": "",
							"type": "uint256"
						}
					],
					"name": "users",
					"outputs": [
						{
							"internalType": "address",
							"name": "",
							"type": "address"
						}
					],
					"stateMutability": "view",
					"type": "function"
				},
				{
					"stateMutability": "payable",
					"type": "receive"
				}
			],
			"devdoc": {
				"errors": {
					"AddressEmptyCode(address)": [
						{
							"details": "There's no code at `target` (it is not a contract)."
						}
					],
					"AddressInsufficientBalance(address)": [
						{
							"details": "The ETH balance of the account is not enough to perform the operation."
						}
					],
					"FailedInnerCall()": [
						{
							"details": "A call to an address target failed. The target may have reverted."
						}
					],
					"SafeERC20FailedOperation(address)": [
						{
							"details": "An operation with an ERC20 token failed."
						}
					]
				},
				"kind": "dev",
				"methods": {
					"performUpkeep(bytes)": {
						"details": "The input to this method should not be trusted, and the caller of the method should not even be restricted to any single registry. Anyone should be able call it, and the input should be validated, there is no guarantee that the data passed in is the performData returned from checkUpkeep. This could happen due to malicious keepers, racing keepers, or simply a state change while the performUpkeep transaction is waiting for confirmation. Always validate the data passed in.",
						"params": {
							"performData": "is the data which was passed back from the checkData simulation. If it is encoded, it can easily be decoded into other types by calling `abi.decode`. This data should not be trusted, and should be validated against the contract's current state."
						}
					}
				},
				"version": 1
			},
			"evm": {
				"assembly": "    /* \"src/DollarCostAveraging.sol\":645:7292  contract DollarCostAveraging  is VRFConsumerBaseV2, AutomationCompatibleInterface {... */\n  mstore(0x40, 0xa0)\n    /* \"src/DollarCostAveraging.sol\":1782:2467  constructor(... */\n  callvalue\n  dup1\n  iszero\n  tag_1\n  jumpi\n  0x00\n  dup1\n  revert\ntag_1:\n  pop\n  mload(0x40)\n  sub(codesize, bytecodeSize)\n  dup1\n  bytecodeSize\n  dup4\n  codecopy\n  dup2\n  dup2\n  add\n  0x40\n  mstore\n  dup2\n  add\n  swap1\n  tag_2\n  swap2\n  swap1\n  tag_3\n  jump\t// in\ntag_2:\n    /* \"src/DollarCostAveraging.sol\":2043:2058  _vrfCoordinator */\n  dup5\n    /* \"@chainlink/contracts/src/v0.8/vrf/VRFConsumerBaseV2.sol\":5616:5631  _vrfCoordinator */\n  dup1\n    /* \"@chainlink/contracts/src/v0.8/vrf/VRFConsumerBaseV2.sol\":5599:5631  vrfCoordinator = _vrfCoordinator */\n  0xffffffffffffffffffffffffffffffffffffffff\n  and\n  0x80\n  dup2\n  0xffffffffffffffffffffffffffffffffffffffff\n  and\n  dup2\n  mstore\n  pop\n  pop\n    /* \"@chainlink/contracts/src/v0.8/vrf/VRFConsumerBaseV2.sol\":5556:5636  constructor(address _vrfCoordinator) {... */\n  pop\n    /* \"src/DollarCostAveraging.sol\":2080:2085  _usdt */\n  dup8\n    /* \"src/DollarCostAveraging.sol\":2067:2071  usdt */\n  0x04\n  0x00\n    /* \"src/DollarCostAveraging.sol\":2067:2086  usdt = ERC20(_usdt) */\n  0x0100\n  exp\n  dup2\n  sload\n  dup2\n  0xffffffffffffffffffffffffffffffffffffffff\n  mul\n  not\n  and\n  swap1\n  dup4\n  0xffffffffffffffffffffffffffffffffffffffff\n  and\n  mul\n  or\n  swap1\n  sstore\n  pop\n    /* \"src/DollarCostAveraging.sol\":2128:2142  _uniswapRouter */\n  dup7\n    /* \"src/DollarCostAveraging.sol\":2093:2106  uniswapRouter */\n  0x07\n  0x00\n    /* \"src/DollarCostAveraging.sol\":2093:2143  uniswapRouter = IUniswapV2Router02(_uniswapRouter) */\n  0x0100\n  exp\n  dup2\n  sload\n  dup2\n  0xffffffffffffffffffffffffffffffffffffffff\n  mul\n  not\n  and\n  swap1\n  dup4\n  0xffffffffffffffffffffffffffffffffffffffff\n  and\n  mul\n  or\n  swap1\n  sstore\n  pop\n    /* \"src/DollarCostAveraging.sol\":2183:2190  _oracle */\n  dup6\n    /* \"src/DollarCostAveraging.sol\":2150:2156  oracle */\n  0x08\n  0x00\n    /* \"src/DollarCostAveraging.sol\":2150:2191  oracle = AggregatorV2V3Interface(_oracle) */\n  0x0100\n  exp\n  dup2\n  sload\n  dup2\n  0xffffffffffffffffffffffffffffffffffffffff\n  mul\n  not\n  and\n  swap1\n  dup4\n  0xffffffffffffffffffffffffffffffffffffffff\n  and\n  mul\n  or\n  swap1\n  sstore\n  pop\n    /* \"src/DollarCostAveraging.sol\":2206:2207  1 */\n  0x01\n    /* \"src/DollarCostAveraging.sol\":2198:2203  nonce */\n  0x09\n    /* \"src/DollarCostAveraging.sol\":2198:2207  nonce = 1 */\n  dup2\n  swap1\n  sstore\n  pop\n    /* \"src/DollarCostAveraging.sol\":2224:2232  _keyHash */\n  dup2\n    /* \"src/DollarCostAveraging.sol\":2214:2221  keyHash */\n  0x0a\n    /* \"src/DollarCostAveraging.sol\":2214:2232  keyHash = _keyHash */\n  dup2\n  swap1\n  sstore\n  pop\n    /* \"src/DollarCostAveraging.sol\":2245:2249  _fee */\n  dup1\n    /* \"src/DollarCostAveraging.sol\":2239:2242  fee */\n  0x0b\n    /* \"src/DollarCostAveraging.sol\":2239:2249  fee = _fee */\n  dup2\n  swap1\n  sstore\n  pop\n    /* \"src/DollarCostAveraging.sol\":2284:2289  _link */\n  dup3\n    /* \"src/DollarCostAveraging.sol\":2258:2262  link */\n  0x05\n  0x00\n    /* \"src/DollarCostAveraging.sol\":2258:2290  link = LinkTokenInterface(_link) */\n  0x0100\n  exp\n  dup2\n  sload\n  dup2\n  0xffffffffffffffffffffffffffffffffffffffff\n  mul\n  not\n  and\n  swap1\n  dup4\n  0xffffffffffffffffffffffffffffffffffffffff\n  and\n  mul\n  or\n  swap1\n  sstore\n  pop\n    /* \"src/DollarCostAveraging.sol\":2337:2352  _vrfCoordinator */\n  dup5\n    /* \"src/DollarCostAveraging.sol\":2297:2308  coordinator */\n  0x06\n  0x00\n    /* \"src/DollarCostAveraging.sol\":2297:2353  coordinator = VRFCoordinatorV2Interface(_vrfCoordinator) */\n  0x0100\n  exp\n  dup2\n  sload\n  dup2\n  0xffffffffffffffffffffffffffffffffffffffff\n  mul\n  not\n  and\n  swap1\n  dup4\n  0xffffffffffffffffffffffffffffffffffffffff\n  and\n  mul\n  or\n  swap1\n  sstore\n  pop\n    /* \"src/DollarCostAveraging.sol\":2377:2392  _subscriptionId */\n  dup4\n    /* \"src/DollarCostAveraging.sol\":2360:2374  subscriptionId */\n  0x06\n  0x14\n    /* \"src/DollarCostAveraging.sol\":2360:2392  subscriptionId = _subscriptionId */\n  0x0100\n  exp\n  dup2\n  sload\n  dup2\n  0xffffffffffffffff\n  mul\n  not\n  and\n  swap1\n  dup4\n  0xffffffffffffffff\n  and\n  mul\n  or\n  swap1\n  sstore\n  pop\n    /* \"src/DollarCostAveraging.sol\":1782:2467  constructor(... */\n  pop\n  pop\n  pop\n  pop\n  pop\n  pop\n  pop\n  pop\n    /* \"src/DollarCostAveraging.sol\":645:7292  contract DollarCostAveraging  is VRFConsumerBaseV2, AutomationCompatibleInterface {... */\n  jump(tag_8)\n    /* \"#utility.yul\":88:205   */\ntag_10:\n    /* \"#utility.yul\":197:198   */\n  0x00\n    /* \"#utility.yul\":194:195   */\n  dup1\n    /* \"#utility.yul\":187:199   */\n  revert\n    /* \"#utility.yul\":334:460   */\ntag_12:\n    /* \"#utility.yul\":371:378   */\n  0x00\n    /* \"#utility.yul\":411:453   */\n  0xffffffffffffffffffffffffffffffffffffffff\n    /* \"#utility.yul\":404:409   */\n  dup3\n    /* \"#utility.yul\":400:454   */\n  and\n    /* \"#utility.yul\":389:454   */\n  swap1\n  pop\n    /* \"#utility.yul\":334:460   */\n  swap2\n  swap1\n  pop\n  jump\t// out\n    /* \"#utility.yul\":466:562   */\ntag_13:\n    /* \"#utility.yul\":503:510   */\n  0x00\n    /* \"#utility.yul\":532:556   */\n  tag_31\n    /* \"#utility.yul\":550:555   */\n  dup3\n    /* \"#utility.yul\":532:556   */\n  tag_12\n  jump\t// in\ntag_31:\n    /* \"#utility.yul\":521:556   */\n  swap1\n  pop\n    /* \"#utility.yul\":466:562   */\n  swap2\n  swap1\n  pop\n  jump\t// out\n    /* \"#utility.yul\":568:690   */\ntag_14:\n    /* \"#utility.yul\":641:665   */\n  tag_33\n    /* \"#utility.yul\":659:664   */\n  dup2\n    /* \"#utility.yul\":641:665   */\n  tag_13\n  jump\t// in\ntag_33:\n    /* \"#utility.yul\":634:639   */\n  dup2\n    /* \"#utility.yul\":631:666   */\n  eq\n    /* \"#utility.yul\":621:684   */\n  tag_34\n  jumpi\n    /* \"#utility.yul\":680:681   */\n  0x00\n    /* \"#utility.yul\":677:678   */\n  dup1\n    /* \"#utility.yul\":670:682   */\n  revert\n    /* \"#utility.yul\":621:684   */\ntag_34:\n    /* \"#utility.yul\":568:690   */\n  pop\n  jump\t// out\n    /* \"#utility.yul\":696:839   */\ntag_15:\n    /* \"#utility.yul\":753:758   */\n  0x00\n    /* \"#utility.yul\":784:790   */\n  dup2\n    /* \"#utility.yul\":778:791   */\n  mload\n    /* \"#utility.yul\":769:791   */\n  swap1\n  pop\n    /* \"#utility.yul\":800:833   */\n  tag_36\n    /* \"#utility.yul\":827:832   */\n  dup2\n    /* \"#utility.yul\":800:833   */\n  tag_14\n  jump\t// in\ntag_36:\n    /* \"#utility.yul\":696:839   */\n  swap3\n  swap2\n  pop\n  pop\n  jump\t// out\n    /* \"#utility.yul\":845:946   */\ntag_16:\n    /* \"#utility.yul\":881:888   */\n  0x00\n    /* \"#utility.yul\":921:939   */\n  0xffffffffffffffff\n    /* \"#utility.yul\":914:919   */\n  dup3\n    /* \"#utility.yul\":910:940   */\n  and\n    /* \"#utility.yul\":899:940   */\n  swap1\n  pop\n    /* \"#utility.yul\":845:946   */\n  swap2\n  swap1\n  pop\n  jump\t// out\n    /* \"#utility.yul\":952:1072   */\ntag_17:\n    /* \"#utility.yul\":1024:1047   */\n  tag_39\n    /* \"#utility.yul\":1041:1046   */\n  dup2\n    /* \"#utility.yul\":1024:1047   */\n  tag_16\n  jump\t// in\ntag_39:\n    /* \"#utility.yul\":1017:1022   */\n  dup2\n    /* \"#utility.yul\":1014:1048   */\n  eq\n    /* \"#utility.yul\":1004:1066   */\n  tag_40\n  jumpi\n    /* \"#utility.yul\":1062:1063   */\n  0x00\n    /* \"#utility.yul\":1059:1060   */\n  dup1\n    /* \"#utility.yul\":1052:1064   */\n  revert\n    /* \"#utility.yul\":1004:1066   */\ntag_40:\n    /* \"#utility.yul\":952:1072   */\n  pop\n  jump\t// out\n    /* \"#utility.yul\":1078:1219   */\ntag_18:\n    /* \"#utility.yul\":1134:1139   */\n  0x00\n    /* \"#utility.yul\":1165:1171   */\n  dup2\n    /* \"#utility.yul\":1159:1172   */\n  mload\n    /* \"#utility.yul\":1150:1172   */\n  swap1\n  pop\n    /* \"#utility.yul\":1181:1213   */\n  tag_42\n    /* \"#utility.yul\":1207:1212   */\n  dup2\n    /* \"#utility.yul\":1181:1213   */\n  tag_17\n  jump\t// in\ntag_42:\n    /* \"#utility.yul\":1078:1219   */\n  swap3\n  swap2\n  pop\n  pop\n  jump\t// out\n    /* \"#utility.yul\":1225:1302   */\ntag_19:\n    /* \"#utility.yul\":1262:1269   */\n  0x00\n    /* \"#utility.yul\":1291:1296   */\n  dup2\n    /* \"#utility.yul\":1280:1296   */\n  swap1\n  pop\n    /* \"#utility.yul\":1225:1302   */\n  swap2\n  swap1\n  pop\n  jump\t// out\n    /* \"#utility.yul\":1308:1430   */\ntag_20:\n    /* \"#utility.yul\":1381:1405   */\n  tag_45\n    /* \"#utility.yul\":1399:1404   */\n  dup2\n    /* \"#utility.yul\":1381:1405   */\n  tag_19\n  jump\t// in\ntag_45:\n    /* \"#utility.yul\":1374:1379   */\n  dup2\n    /* \"#utility.yul\":1371:1406   */\n  eq\n    /* \"#utility.yul\":1361:1424   */\n  tag_46\n  jumpi\n    /* \"#utility.yul\":1420:1421   */\n  0x00\n    /* \"#utility.yul\":1417:1418   */\n  dup1\n    /* \"#utility.yul\":1410:1422   */\n  revert\n    /* \"#utility.yul\":1361:1424   */\ntag_46:\n    /* \"#utility.yul\":1308:1430   */\n  pop\n  jump\t// out\n    /* \"#utility.yul\":1436:1579   */\ntag_21:\n    /* \"#utility.yul\":1493:1498   */\n  0x00\n    /* \"#utility.yul\":1524:1530   */\n  dup2\n    /* \"#utility.yul\":1518:1531   */\n  mload\n    /* \"#utility.yul\":1509:1531   */\n  swap1\n  pop\n    /* \"#utility.yul\":1540:1573   */\n  tag_48\n    /* \"#utility.yul\":1567:1572   */\n  dup2\n    /* \"#utility.yul\":1540:1573   */\n  tag_20\n  jump\t// in\ntag_48:\n    /* \"#utility.yul\":1436:1579   */\n  swap3\n  swap2\n  pop\n  pop\n  jump\t// out\n    /* \"#utility.yul\":1585:1662   */\ntag_22:\n    /* \"#utility.yul\":1622:1629   */\n  0x00\n    /* \"#utility.yul\":1651:1656   */\n  dup2\n    /* \"#utility.yul\":1640:1656   */\n  swap1\n  pop\n    /* \"#utility.yul\":1585:1662   */\n  swap2\n  swap1\n  pop\n  jump\t// out\n    /* \"#utility.yul\":1668:1790   */\ntag_23:\n    /* \"#utility.yul\":1741:1765   */\n  tag_51\n    /* \"#utility.yul\":1759:1764   */\n  dup2\n    /* \"#utility.yul\":1741:1765   */\n  tag_22\n  jump\t// in\ntag_51:\n    /* \"#utility.yul\":1734:1739   */\n  dup2\n    /* \"#utility.yul\":1731:1766   */\n  eq\n    /* \"#utility.yul\":1721:1784   */\n  tag_52\n  jumpi\n    /* \"#utility.yul\":1780:1781   */\n  0x00\n    /* \"#utility.yul\":1777:1778   */\n  dup1\n    /* \"#utility.yul\":1770:1782   */\n  revert\n    /* \"#utility.yul\":1721:1784   */\ntag_52:\n    /* \"#utility.yul\":1668:1790   */\n  pop\n  jump\t// out\n    /* \"#utility.yul\":1796:1939   */\ntag_24:\n    /* \"#utility.yul\":1853:1858   */\n  0x00\n    /* \"#utility.yul\":1884:1890   */\n  dup2\n    /* \"#utility.yul\":1878:1891   */\n  mload\n    /* \"#utility.yul\":1869:1891   */\n  swap1\n  pop\n    /* \"#utility.yul\":1900:1933   */\n  tag_54\n    /* \"#utility.yul\":1927:1932   */\n  dup2\n    /* \"#utility.yul\":1900:1933   */\n  tag_23\n  jump\t// in\ntag_54:\n    /* \"#utility.yul\":1796:1939   */\n  swap3\n  swap2\n  pop\n  pop\n  jump\t// out\n    /* \"#utility.yul\":1945:3391   */\ntag_3:\n    /* \"#utility.yul\":2077:2083   */\n  0x00\n    /* \"#utility.yul\":2085:2091   */\n  dup1\n    /* \"#utility.yul\":2093:2099   */\n  0x00\n    /* \"#utility.yul\":2101:2107   */\n  dup1\n    /* \"#utility.yul\":2109:2115   */\n  0x00\n    /* \"#utility.yul\":2117:2123   */\n  dup1\n    /* \"#utility.yul\":2125:2131   */\n  0x00\n    /* \"#utility.yul\":2133:2139   */\n  dup1\n    /* \"#utility.yul\":2182:2185   */\n  0x0100\n    /* \"#utility.yul\":2170:2179   */\n  dup10\n    /* \"#utility.yul\":2161:2168   */\n  dup12\n    /* \"#utility.yul\":2157:2180   */\n  sub\n    /* \"#utility.yul\":2153:2186   */\n  slt\n    /* \"#utility.yul\":2150:2270   */\n  iszero\n  tag_56\n  jumpi\n    /* \"#utility.yul\":2189:2268   */\n  tag_57\n  tag_10\n  jump\t// in\ntag_57:\n    /* \"#utility.yul\":2150:2270   */\ntag_56:\n    /* \"#utility.yul\":2309:2310   */\n  0x00\n    /* \"#utility.yul\":2334:2398   */\n  tag_58\n    /* \"#utility.yul\":2390:2397   */\n  dup12\n    /* \"#utility.yul\":2381:2387   */\n  dup3\n    /* \"#utility.yul\":2370:2379   */\n  dup13\n    /* \"#utility.yul\":2366:2388   */\n  add\n    /* \"#utility.yul\":2334:2398   */\n  tag_15\n  jump\t// in\ntag_58:\n    /* \"#utility.yul\":2324:2398   */\n  swap9\n  pop\n    /* \"#utility.yul\":2280:2408   */\n  pop\n    /* \"#utility.yul\":2447:2449   */\n  0x20\n    /* \"#utility.yul\":2473:2537   */\n  tag_59\n    /* \"#utility.yul\":2529:2536   */\n  dup12\n    /* \"#utility.yul\":2520:2526   */\n  dup3\n    /* \"#utility.yul\":2509:2518   */\n  dup13\n    /* \"#utility.yul\":2505:2527   */\n  add\n    /* \"#utility.yul\":2473:2537   */\n  tag_15\n  jump\t// in\ntag_59:\n    /* \"#utility.yul\":2463:2537   */\n  swap8\n  pop\n    /* \"#utility.yul\":2418:2547   */\n  pop\n    /* \"#utility.yul\":2586:2588   */\n  0x40\n    /* \"#utility.yul\":2612:2676   */\n  tag_60\n    /* \"#utility.yul\":2668:2675   */\n  dup12\n    /* \"#utility.yul\":2659:2665   */\n  dup3\n    /* \"#utility.yul\":2648:2657   */\n  dup13\n    /* \"#utility.yul\":2644:2666   */\n  add\n    /* \"#utility.yul\":2612:2676   */\n  tag_15\n  jump\t// in\ntag_60:\n    /* \"#utility.yul\":2602:2676   */\n  swap7\n  pop\n    /* \"#utility.yul\":2557:2686   */\n  pop\n    /* \"#utility.yul\":2725:2727   */\n  0x60\n    /* \"#utility.yul\":2751:2815   */\n  tag_61\n    /* \"#utility.yul\":2807:2814   */\n  dup12\n    /* \"#utility.yul\":2798:2804   */\n  dup3\n    /* \"#utility.yul\":2787:2796   */\n  dup13\n    /* \"#utility.yul\":2783:2805   */\n  add\n    /* \"#utility.yul\":2751:2815   */\n  tag_15\n  jump\t// in\ntag_61:\n    /* \"#utility.yul\":2741:2815   */\n  swap6\n  pop\n    /* \"#utility.yul\":2696:2825   */\n  pop\n    /* \"#utility.yul\":2864:2867   */\n  0x80\n    /* \"#utility.yul\":2891:2954   */\n  tag_62\n    /* \"#utility.yul\":2946:2953   */\n  dup12\n    /* \"#utility.yul\":2937:2943   */\n  dup3\n    /* \"#utility.yul\":2926:2935   */\n  dup13\n    /* \"#utility.yul\":2922:2944   */\n  add\n    /* \"#utility.yul\":2891:2954   */\n  tag_18\n  jump\t// in\ntag_62:\n    /* \"#utility.yul\":2881:2954   */\n  swap5\n  pop\n    /* \"#utility.yul\":2835:2964   */\n  pop\n    /* \"#utility.yul\":3003:3006   */\n  0xa0\n    /* \"#utility.yul\":3030:3094   */\n  tag_63\n    /* \"#utility.yul\":3086:3093   */\n  dup12\n    /* \"#utility.yul\":3077:3083   */\n  dup3\n    /* \"#utility.yul\":3066:3075   */\n  dup13\n    /* \"#utility.yul\":3062:3084   */\n  add\n    /* \"#utility.yul\":3030:3094   */\n  tag_15\n  jump\t// in\ntag_63:\n    /* \"#utility.yul\":3020:3094   */\n  swap4\n  pop\n    /* \"#utility.yul\":2974:3104   */\n  pop\n    /* \"#utility.yul\":3143:3146   */\n  0xc0\n    /* \"#utility.yul\":3170:3234   */\n  tag_64\n    /* \"#utility.yul\":3226:3233   */\n  dup12\n    /* \"#utility.yul\":3217:3223   */\n  dup3\n    /* \"#utility.yul\":3206:3215   */\n  dup13\n    /* \"#utility.yul\":3202:3224   */\n  add\n    /* \"#utility.yul\":3170:3234   */\n  tag_21\n  jump\t// in\ntag_64:\n    /* \"#utility.yul\":3160:3234   */\n  swap3\n  pop\n    /* \"#utility.yul\":3114:3244   */\n  pop\n    /* \"#utility.yul\":3283:3286   */\n  0xe0\n    /* \"#utility.yul\":3310:3374   */\n  tag_65\n    /* \"#utility.yul\":3366:3373   */\n  dup12\n    /* \"#utility.yul\":3357:3363   */\n  dup3\n    /* \"#utility.yul\":3346:3355   */\n  dup13\n    /* \"#utility.yul\":3342:3364   */\n  add\n    /* \"#utility.yul\":3310:3374   */\n  tag_24\n  jump\t// in\ntag_65:\n    /* \"#utility.yul\":3300:3374   */\n  swap2\n  pop\n    /* \"#utility.yul\":3254:3384   */\n  pop\n    /* \"#utility.yul\":1945:3391   */\n  swap3\n  swap6\n  swap9\n  pop\n  swap3\n  swap6\n  swap9\n  swap1\n  swap4\n  swap7\n  pop\n  jump\t// out\n    /* \"src/DollarCostAveraging.sol\":645:7292  contract DollarCostAveraging  is VRFConsumerBaseV2, AutomationCompatibleInterface {... */\ntag_8:\n  mload(0x80)\n  codecopy(0x00, dataOffset(sub_0), dataSize(sub_0))\n  0x00\n  assignImmutable(\"0x8586db4d455815a39f944c6482f8b7cc335b89167bd8c878a6c267d22cff219e\")\n  return(0x00, dataSize(sub_0))\nstop\n\nsub_0: assembly {\n        /* \"src/DollarCostAveraging.sol\":645:7292  contract DollarCostAveraging  is VRFConsumerBaseV2, AutomationCompatibleInterface {... */\n      mstore(0x40, 0x80)\n      jumpi(tag_1, lt(calldatasize, 0x04))\n      shr(0xe0, calldataload(0x00))\n      dup1\n      0x7dc0d1d0\n      gt\n      tag_22\n      jumpi\n      dup1\n      0xb197df54\n      gt\n      tag_23\n      jumpi\n      dup1\n      0xb197df54\n      eq\n      tag_17\n      jumpi\n      dup1\n      0xc440fa0f\n      eq\n      tag_18\n      jumpi\n      dup1\n      0xc966494e\n      eq\n      tag_19\n      jumpi\n      dup1\n      0xd930da60\n      eq\n      tag_20\n      jumpi\n      dup1\n      0xeb5a662e\n      eq\n      tag_21\n      jumpi\n      jump(tag_2)\n    tag_23:\n      dup1\n      0x7dc0d1d0\n      eq\n      tag_12\n      jumpi\n      dup1\n      0x83ceae8d\n      eq\n      tag_13\n      jumpi\n      dup1\n      0x86d86d84\n      eq\n      tag_14\n      jumpi\n      dup1\n      0xa63661a5\n      eq\n      tag_15\n      jumpi\n      dup1\n      0xaffed0e0\n      eq\n      tag_16\n      jumpi\n      jump(tag_2)\n    tag_22:\n      dup1\n      0x2f48ab7d\n      gt\n      tag_24\n      jumpi\n      dup1\n      0x2f48ab7d\n      eq\n      tag_7\n      jumpi\n      dup1\n      0x365b98b2\n      eq\n      tag_8\n      jumpi\n      dup1\n      0x4585e33b\n      eq\n      tag_9\n      jumpi\n      dup1\n      0x6e04ff0d\n      eq\n      tag_10\n      jumpi\n      dup1\n      0x735de9f7\n      eq\n      tag_11\n      jumpi\n      jump(tag_2)\n    tag_24:\n      dup1\n      0xe1801c\n      eq\n      tag_3\n      jumpi\n      dup1\n      0x0a009097\n      eq\n      tag_4\n      jumpi\n      dup1\n      0x1c4695f4\n      eq\n      tag_5\n      jumpi\n      dup1\n      0x1fe543e3\n      eq\n      tag_6\n      jumpi\n      jump(tag_2)\n    tag_1:\n      jumpi(tag_2, calldatasize)\n      stop\n    tag_2:\n      0x00\n      dup1\n      revert\n        /* \"src/DollarCostAveraging.sol\":3157:3553  function updatePlan(uint256 frequency, uint256 amount) public {... */\n    tag_3:\n      callvalue\n      dup1\n      iszero\n      tag_27\n      jumpi\n      0x00\n      dup1\n      revert\n    tag_27:\n      pop\n      tag_28\n      0x04\n      dup1\n      calldatasize\n      sub\n      dup2\n      add\n      swap1\n      tag_29\n      swap2\n      swap1\n      tag_30\n      jump\t// in\n    tag_29:\n      tag_31\n      jump\t// in\n    tag_28:\n      stop\n        /* \"src/DollarCostAveraging.sol\":1538:1582  VRFCoordinatorV2Interface public coordinator */\n    tag_4:\n      callvalue\n      dup1\n      iszero\n      tag_32\n      jumpi\n      0x00\n      dup1\n      revert\n    tag_32:\n      pop\n      tag_33\n      tag_34\n      jump\t// in\n    tag_33:\n      mload(0x40)\n      tag_35\n      swap2\n      swap1\n      tag_36\n      jump\t// in\n    tag_35:\n      mload(0x40)\n      dup1\n      swap2\n      sub\n      swap1\n      return\n        /* \"src/DollarCostAveraging.sol\":1503:1533  LinkTokenInterface public link */\n    tag_5:\n      callvalue\n      dup1\n      iszero\n      tag_37\n      jumpi\n      0x00\n      dup1\n      revert\n    tag_37:\n      pop\n      tag_38\n      tag_39\n      jump\t// in\n    tag_38:\n      mload(0x40)\n      tag_40\n      swap2\n      swap1\n      tag_41\n      jump\t// in\n    tag_40:\n      mload(0x40)\n      dup1\n      swap2\n      sub\n      swap1\n      return\n        /* \"@chainlink/contracts/src/v0.8/vrf/VRFConsumerBaseV2.sol\":6618:6874  function rawFulfillRandomWords(uint256 requestId, uint256[] memory randomWords) external {... */\n    tag_6:\n      callvalue\n      dup1\n      iszero\n      tag_42\n      jumpi\n      0x00\n      dup1\n      revert\n    tag_42:\n      pop\n      tag_43\n      0x04\n      dup1\n      calldatasize\n      sub\n      dup2\n      add\n      swap1\n      tag_44\n      swap2\n      swap1\n      tag_45\n      jump\t// in\n    tag_44:\n      tag_46\n      jump\t// in\n    tag_43:\n      stop\n        /* \"src/DollarCostAveraging.sol\":1481:1498  ERC20 public usdt */\n    tag_7:\n      callvalue\n      dup1\n      iszero\n      tag_47\n      jumpi\n      0x00\n      dup1\n      revert\n    tag_47:\n      pop\n      tag_48\n      tag_49\n      jump\t// in\n    tag_48:\n      mload(0x40)\n      tag_50\n      swap2\n      swap1\n      tag_51\n      jump\t// in\n    tag_50:\n      mload(0x40)\n      dup1\n      swap2\n      sub\n      swap1\n      return\n        /* \"src/DollarCostAveraging.sol\":1253:1293  mapping(uint256 => address) public users */\n    tag_8:\n      callvalue\n      dup1\n      iszero\n      tag_52\n      jumpi\n      0x00\n      dup1\n      revert\n    tag_52:\n      pop\n      tag_53\n      0x04\n      dup1\n      calldatasize\n      sub\n      dup2\n      add\n      swap1\n      tag_54\n      swap2\n      swap1\n      tag_55\n      jump\t// in\n    tag_54:\n      tag_56\n      jump\t// in\n    tag_53:\n      mload(0x40)\n      tag_57\n      swap2\n      swap1\n      tag_58\n      jump\t// in\n    tag_57:\n      mload(0x40)\n      dup1\n      swap2\n      sub\n      swap1\n      return\n        /* \"src/DollarCostAveraging.sol\":7050:7254  function performUpkeep(bytes calldata performData) external override {... */\n    tag_9:\n      callvalue\n      dup1\n      iszero\n      tag_59\n      jumpi\n      0x00\n      dup1\n      revert\n    tag_59:\n      pop\n      tag_60\n      0x04\n      dup1\n      calldatasize\n      sub\n      dup2\n      add\n      swap1\n      tag_61\n      swap2\n      swap1\n      tag_62\n      jump\t// in\n    tag_61:\n      tag_63\n      jump\t// in\n    tag_60:\n      stop\n        /* \"src/DollarCostAveraging.sol\":6547:7042  function checkUpkeep(... */\n    tag_10:\n      callvalue\n      dup1\n      iszero\n      tag_64\n      jumpi\n      0x00\n      dup1\n      revert\n    tag_64:\n      pop\n      tag_65\n      0x04\n      dup1\n      calldatasize\n      sub\n      dup2\n      add\n      swap1\n      tag_66\n      swap2\n      swap1\n      tag_62\n      jump\t// in\n    tag_66:\n      tag_67\n      jump\t// in\n    tag_65:\n      mload(0x40)\n      tag_68\n      swap3\n      swap2\n      swap1\n      tag_69\n      jump\t// in\n    tag_68:\n      mload(0x40)\n      dup1\n      swap2\n      sub\n      swap1\n      return\n        /* \"src/DollarCostAveraging.sol\":1613:1652  IUniswapV2Router02 public uniswapRouter */\n    tag_11:\n      callvalue\n      dup1\n      iszero\n      tag_70\n      jumpi\n      0x00\n      dup1\n      revert\n    tag_70:\n      pop\n      tag_71\n      tag_72\n      jump\t// in\n    tag_71:\n      mload(0x40)\n      tag_73\n      swap2\n      swap1\n      tag_74\n      jump\t// in\n    tag_73:\n      mload(0x40)\n      dup1\n      swap2\n      sub\n      swap1\n      return\n        /* \"src/DollarCostAveraging.sol\":1657:1694  AggregatorV2V3Interface public oracle */\n    tag_12:\n      callvalue\n      dup1\n      iszero\n      tag_75\n      jumpi\n      0x00\n      dup1\n      revert\n    tag_75:\n      pop\n      tag_76\n      tag_77\n      jump\t// in\n    tag_76:\n      mload(0x40)\n      tag_78\n      swap2\n      swap1\n      tag_79\n      jump\t// in\n    tag_78:\n      mload(0x40)\n      dup1\n      swap2\n      sub\n      swap1\n      return\n        /* \"src/DollarCostAveraging.sol\":1424:1474  mapping(address => uint256) public nextTriggerTime */\n    tag_13:\n      callvalue\n      dup1\n      iszero\n      tag_80\n      jumpi\n      0x00\n      dup1\n      revert\n    tag_80:\n      pop\n      tag_81\n      0x04\n      dup1\n      calldatasize\n      sub\n      dup2\n      add\n      swap1\n      tag_82\n      swap2\n      swap1\n      tag_83\n      jump\t// in\n    tag_82:\n      tag_84\n      jump\t// in\n    tag_81:\n      mload(0x40)\n      tag_85\n      swap2\n      swap1\n      tag_86\n      jump\t// in\n    tag_85:\n      mload(0x40)\n      dup1\n      swap2\n      sub\n      swap1\n      return\n        /* \"src/DollarCostAveraging.sol\":1211:1248  mapping(address => Plan) public plans */\n    tag_14:\n      callvalue\n      dup1\n      iszero\n      tag_87\n      jumpi\n      0x00\n      dup1\n      revert\n    tag_87:\n      pop\n      tag_88\n      0x04\n      dup1\n      calldatasize\n      sub\n      dup2\n      add\n      swap1\n      tag_89\n      swap2\n      swap1\n      tag_83\n      jump\t// in\n    tag_89:\n      tag_90\n      jump\t// in\n    tag_88:\n      mload(0x40)\n      tag_91\n      swap7\n      swap6\n      swap5\n      swap4\n      swap3\n      swap2\n      swap1\n      tag_92\n      jump\t// in\n    tag_91:\n      mload(0x40)\n      dup1\n      swap2\n      sub\n      swap1\n      return\n        /* \"src/DollarCostAveraging.sol\":3559:4038  function startPlan() public {    ... */\n    tag_15:\n      callvalue\n      dup1\n      iszero\n      tag_93\n      jumpi\n      0x00\n      dup1\n      revert\n    tag_93:\n      pop\n      tag_94\n      tag_95\n      jump\t// in\n    tag_94:\n      stop\n        /* \"src/DollarCostAveraging.sol\":1699:1719  uint256 public nonce */\n    tag_16:\n      callvalue\n      dup1\n      iszero\n      tag_96\n      jumpi\n      0x00\n      dup1\n      revert\n    tag_96:\n      pop\n      tag_97\n      tag_98\n      jump\t// in\n    tag_97:\n      mload(0x40)\n      tag_99\n      swap2\n      swap1\n      tag_86\n      jump\t// in\n    tag_99:\n      mload(0x40)\n      dup1\n      swap2\n      sub\n      swap1\n      return\n        /* \"src/DollarCostAveraging.sol\":2600:3151  function createPlan(uint256 frequency, uint256 amount) public {... */\n    tag_17:\n      callvalue\n      dup1\n      iszero\n      tag_100\n      jumpi\n      0x00\n      dup1\n      revert\n    tag_100:\n      pop\n      tag_101\n      0x04\n      dup1\n      calldatasize\n      sub\n      dup2\n      add\n      swap1\n      tag_102\n      swap2\n      swap1\n      tag_30\n      jump\t// in\n    tag_102:\n      tag_103\n      jump\t// in\n    tag_101:\n      stop\n        /* \"src/DollarCostAveraging.sol\":4591:6177  function triggerPlan(address user) public {... */\n    tag_18:\n      callvalue\n      dup1\n      iszero\n      tag_104\n      jumpi\n      0x00\n      dup1\n      revert\n    tag_104:\n      pop\n      tag_105\n      0x04\n      dup1\n      calldatasize\n      sub\n      dup2\n      add\n      swap1\n      tag_106\n      swap2\n      swap1\n      tag_83\n      jump\t// in\n    tag_106:\n      tag_107\n      jump\t// in\n    tag_105:\n      stop\n        /* \"src/DollarCostAveraging.sol\":1365:1419  mapping(uint256 => address) public userRandomRequestId */\n    tag_19:\n      callvalue\n      dup1\n      iszero\n      tag_108\n      jumpi\n      0x00\n      dup1\n      revert\n    tag_108:\n      pop\n      tag_109\n      0x04\n      dup1\n      calldatasize\n      sub\n      dup2\n      add\n      swap1\n      tag_110\n      swap2\n      swap1\n      tag_55\n      jump\t// in\n    tag_110:\n      tag_111\n      jump\t// in\n    tag_109:\n      mload(0x40)\n      tag_112\n      swap2\n      swap1\n      tag_58\n      jump\t// in\n    tag_112:\n      mload(0x40)\n      dup1\n      swap2\n      sub\n      swap1\n      return\n        /* \"src/DollarCostAveraging.sol\":4044:4212  function stopPlan() public {... */\n    tag_20:\n      callvalue\n      dup1\n      iszero\n      tag_113\n      jumpi\n      0x00\n      dup1\n      revert\n    tag_113:\n      pop\n      tag_114\n      tag_115\n      jump\t// in\n    tag_114:\n      stop\n        /* \"src/DollarCostAveraging.sol\":2473:2594  function getAllowance(address user) public view returns (uint256) {... */\n    tag_21:\n      callvalue\n      dup1\n      iszero\n      tag_116\n      jumpi\n      0x00\n      dup1\n      revert\n    tag_116:\n      pop\n      tag_117\n      0x04\n      dup1\n      calldatasize\n      sub\n      dup2\n      add\n      swap1\n      tag_118\n      swap2\n      swap1\n      tag_83\n      jump\t// in\n    tag_118:\n      tag_119\n      jump\t// in\n    tag_117:\n      mload(0x40)\n      tag_120\n      swap2\n      swap1\n      tag_86\n      jump\t// in\n    tag_120:\n      mload(0x40)\n      dup1\n      swap2\n      sub\n      swap1\n      return\n        /* \"src/DollarCostAveraging.sol\":3157:3553  function updatePlan(uint256 frequency, uint256 amount) public {... */\n    tag_31:\n        /* \"src/DollarCostAveraging.sol\":3260:3261  0 */\n      0x00\n        /* \"src/DollarCostAveraging.sol\":3234:3239  plans */\n      dup1\n        /* \"src/DollarCostAveraging.sol\":3234:3251  plans[msg.sender] */\n      0x00\n        /* \"src/DollarCostAveraging.sol\":3240:3250  msg.sender */\n      caller\n        /* \"src/DollarCostAveraging.sol\":3234:3251  plans[msg.sender] */\n      0xffffffffffffffffffffffffffffffffffffffff\n      and\n      0xffffffffffffffffffffffffffffffffffffffff\n      and\n      dup2\n      mstore\n      0x20\n      add\n      swap1\n      dup2\n      mstore\n      0x20\n      add\n      0x00\n      keccak256\n        /* \"src/DollarCostAveraging.sol\":3234:3257  plans[msg.sender].index */\n      0x00\n      add\n      sload\n        /* \"src/DollarCostAveraging.sol\":3234:3261  plans[msg.sender].index > 0 */\n      gt\n        /* \"src/DollarCostAveraging.sol\":3226:3279  require(plans[msg.sender].index > 0, \"Plan is exist\") */\n      tag_122\n      jumpi\n      mload(0x40)\n      0x08c379a000000000000000000000000000000000000000000000000000000000\n      dup2\n      mstore\n      0x04\n      add\n      tag_123\n      swap1\n      tag_124\n      jump\t// in\n    tag_123:\n      mload(0x40)\n      dup1\n      swap2\n      sub\n      swap1\n      revert\n    tag_122:\n        /* \"src/DollarCostAveraging.sol\":3306:3307  0 */\n      0x00\n        /* \"src/DollarCostAveraging.sol\":3294:3303  frequency */\n      dup3\n        /* \"src/DollarCostAveraging.sol\":3294:3307  frequency > 0 */\n      gt\n        /* \"src/DollarCostAveraging.sol\":3286:3344  require(frequency > 0, \"Frequency must be greater than 0\") */\n      tag_125\n      jumpi\n      mload(0x40)\n      0x08c379a000000000000000000000000000000000000000000000000000000000\n      dup2\n      mstore\n      0x04\n      add\n      tag_126\n      swap1\n      tag_127\n      jump\t// in\n    tag_126:\n      mload(0x40)\n      dup1\n      swap2\n      sub\n      swap1\n      revert\n    tag_125:\n        /* \"src/DollarCostAveraging.sol\":3368:3369  0 */\n      0x00\n        /* \"src/DollarCostAveraging.sol\":3359:3365  amount */\n      dup2\n        /* \"src/DollarCostAveraging.sol\":3359:3369  amount > 0 */\n      gt\n        /* \"src/DollarCostAveraging.sol\":3351:3403  require(amount > 0, \"Amount must be greater than 0\") */\n      tag_128\n      jumpi\n      mload(0x40)\n      0x08c379a000000000000000000000000000000000000000000000000000000000\n      dup2\n      mstore\n      0x04\n      add\n      tag_129\n      swap1\n      tag_130\n      jump\t// in\n    tag_129:\n      mload(0x40)\n      dup1\n      swap2\n      sub\n      swap1\n      revert\n    tag_128:\n        /* \"src/DollarCostAveraging.sol\":3439:3445  amount */\n      dup1\n        /* \"src/DollarCostAveraging.sol\":3412:3417  plans */\n      0x00\n        /* \"src/DollarCostAveraging.sol\":3412:3429  plans[msg.sender] */\n      dup1\n        /* \"src/DollarCostAveraging.sol\":3418:3428  msg.sender */\n      caller\n        /* \"src/DollarCostAveraging.sol\":3412:3429  plans[msg.sender] */\n      0xffffffffffffffffffffffffffffffffffffffff\n      and\n      0xffffffffffffffffffffffffffffffffffffffff\n      and\n      dup2\n      mstore\n      0x20\n      add\n      swap1\n      dup2\n      mstore\n      0x20\n      add\n      0x00\n      keccak256\n        /* \"src/DollarCostAveraging.sol\":3412:3436  plans[msg.sender].amount */\n      0x02\n      add\n        /* \"src/DollarCostAveraging.sol\":3412:3445  plans[msg.sender].amount = amount */\n      dup2\n      swap1\n      sstore\n      pop\n        /* \"src/DollarCostAveraging.sol\":3482:3491  frequency */\n      dup2\n        /* \"src/DollarCostAveraging.sol\":3452:3457  plans */\n      0x00\n        /* \"src/DollarCostAveraging.sol\":3452:3469  plans[msg.sender] */\n      dup1\n        /* \"src/DollarCostAveraging.sol\":3458:3468  msg.sender */\n      caller\n        /* \"src/DollarCostAveraging.sol\":3452:3469  plans[msg.sender] */\n      0xffffffffffffffffffffffffffffffffffffffff\n      and\n      0xffffffffffffffffffffffffffffffffffffffff\n      and\n      dup2\n      mstore\n      0x20\n      add\n      swap1\n      dup2\n      mstore\n      0x20\n      add\n      0x00\n      keccak256\n        /* \"src/DollarCostAveraging.sol\":3452:3479  plans[msg.sender].frequency */\n      0x01\n      add\n        /* \"src/DollarCostAveraging.sol\":3452:3491  plans[msg.sender].frequency = frequency */\n      dup2\n      swap1\n      sstore\n      pop\n        /* \"src/DollarCostAveraging.sol\":3517:3527  msg.sender */\n      caller\n        /* \"src/DollarCostAveraging.sol\":3505:3547  PlanUpdated(msg.sender, frequency, amount) */\n      0xffffffffffffffffffffffffffffffffffffffff\n      and\n      0xc8108639f5e0627bac90449607e60d516a5082452e397808a067b57f755515fc\n        /* \"src/DollarCostAveraging.sol\":3529:3538  frequency */\n      dup4\n        /* \"src/DollarCostAveraging.sol\":3540:3546  amount */\n      dup4\n        /* \"src/DollarCostAveraging.sol\":3505:3547  PlanUpdated(msg.sender, frequency, amount) */\n      mload(0x40)\n      tag_131\n      swap3\n      swap2\n      swap1\n      tag_132\n      jump\t// in\n    tag_131:\n      mload(0x40)\n      dup1\n      swap2\n      sub\n      swap1\n      log2\n        /* \"src/DollarCostAveraging.sol\":3157:3553  function updatePlan(uint256 frequency, uint256 amount) public {... */\n      pop\n      pop\n      jump\t// out\n        /* \"src/DollarCostAveraging.sol\":1538:1582  VRFCoordinatorV2Interface public coordinator */\n    tag_34:\n      0x06\n      0x00\n      swap1\n      sload\n      swap1\n      0x0100\n      exp\n      swap1\n      div\n      0xffffffffffffffffffffffffffffffffffffffff\n      and\n      dup2\n      jump\t// out\n        /* \"src/DollarCostAveraging.sol\":1503:1533  LinkTokenInterface public link */\n    tag_39:\n      0x05\n      0x00\n      swap1\n      sload\n      swap1\n      0x0100\n      exp\n      swap1\n      div\n      0xffffffffffffffffffffffffffffffffffffffff\n      and\n      dup2\n      jump\t// out\n        /* \"@chainlink/contracts/src/v0.8/vrf/VRFConsumerBaseV2.sol\":6618:6874  function rawFulfillRandomWords(uint256 requestId, uint256[] memory randomWords) external {... */\n    tag_46:\n        /* \"@chainlink/contracts/src/v0.8/vrf/VRFConsumerBaseV2.sol\":6731:6745  vrfCoordinator */\n      immutable(\"0x8586db4d455815a39f944c6482f8b7cc335b89167bd8c878a6c267d22cff219e\")\n        /* \"@chainlink/contracts/src/v0.8/vrf/VRFConsumerBaseV2.sol\":6717:6745  msg.sender != vrfCoordinator */\n      0xffffffffffffffffffffffffffffffffffffffff\n      and\n        /* \"@chainlink/contracts/src/v0.8/vrf/VRFConsumerBaseV2.sol\":6717:6727  msg.sender */\n      caller\n        /* \"@chainlink/contracts/src/v0.8/vrf/VRFConsumerBaseV2.sol\":6717:6745  msg.sender != vrfCoordinator */\n      0xffffffffffffffffffffffffffffffffffffffff\n      and\n      eq\n        /* \"@chainlink/contracts/src/v0.8/vrf/VRFConsumerBaseV2.sol\":6713:6822  if (msg.sender != vrfCoordinator) {... */\n      tag_134\n      jumpi\n        /* \"@chainlink/contracts/src/v0.8/vrf/VRFConsumerBaseV2.sol\":6788:6798  msg.sender */\n      caller\n        /* \"@chainlink/contracts/src/v0.8/vrf/VRFConsumerBaseV2.sol\":6800:6814  vrfCoordinator */\n      immutable(\"0x8586db4d455815a39f944c6482f8b7cc335b89167bd8c878a6c267d22cff219e\")\n        /* \"@chainlink/contracts/src/v0.8/vrf/VRFConsumerBaseV2.sol\":6762:6815  OnlyCoordinatorCanFulfill(msg.sender, vrfCoordinator) */\n      mload(0x40)\n      0x1cf993f400000000000000000000000000000000000000000000000000000000\n      dup2\n      mstore\n      0x04\n      add\n      tag_135\n      swap3\n      swap2\n      swap1\n      tag_136\n      jump\t// in\n    tag_135:\n      mload(0x40)\n      dup1\n      swap2\n      sub\n      swap1\n      revert\n        /* \"@chainlink/contracts/src/v0.8/vrf/VRFConsumerBaseV2.sol\":6713:6822  if (msg.sender != vrfCoordinator) {... */\n    tag_134:\n        /* \"@chainlink/contracts/src/v0.8/vrf/VRFConsumerBaseV2.sol\":6827:6869  fulfillRandomWords(requestId, randomWords) */\n      tag_137\n        /* \"@chainlink/contracts/src/v0.8/vrf/VRFConsumerBaseV2.sol\":6846:6855  requestId */\n      dup3\n        /* \"@chainlink/contracts/src/v0.8/vrf/VRFConsumerBaseV2.sol\":6857:6868  randomWords */\n      dup3\n        /* \"@chainlink/contracts/src/v0.8/vrf/VRFConsumerBaseV2.sol\":6827:6845  fulfillRandomWords */\n      tag_138\n        /* \"@chainlink/contracts/src/v0.8/vrf/VRFConsumerBaseV2.sol\":6827:6869  fulfillRandomWords(requestId, randomWords) */\n      jump\t// in\n    tag_137:\n        /* \"@chainlink/contracts/src/v0.8/vrf/VRFConsumerBaseV2.sol\":6618:6874  function rawFulfillRandomWords(uint256 requestId, uint256[] memory randomWords) external {... */\n      pop\n      pop\n      jump\t// out\n        /* \"src/DollarCostAveraging.sol\":1481:1498  ERC20 public usdt */\n    tag_49:\n      0x04\n      0x00\n      swap1\n      sload\n      swap1\n      0x0100\n      exp\n      swap1\n      div\n      0xffffffffffffffffffffffffffffffffffffffff\n      and\n      dup2\n      jump\t// out\n        /* \"src/DollarCostAveraging.sol\":1253:1293  mapping(uint256 => address) public users */\n    tag_56:\n      mstore(0x20, 0x01)\n      dup1\n      0x00\n      mstore\n      keccak256(0x00, 0x40)\n      0x00\n      swap2\n      pop\n      sload\n      swap1\n      0x0100\n      exp\n      swap1\n      div\n      0xffffffffffffffffffffffffffffffffffffffff\n      and\n      dup2\n      jump\t// out\n        /* \"src/DollarCostAveraging.sol\":7050:7254  function performUpkeep(bytes calldata performData) external override {... */\n    tag_63:\n        /* \"src/DollarCostAveraging.sol\":7131:7143  address user */\n      0x00\n        /* \"src/DollarCostAveraging.sol\":7172:7183  performData */\n      dup3\n      dup3\n        /* \"src/DollarCostAveraging.sol\":7147:7218  abi.decode(... */\n      dup2\n      add\n      swap1\n      tag_140\n      swap2\n      swap1\n      tag_141\n      jump\t// in\n    tag_140:\n        /* \"src/DollarCostAveraging.sol\":7130:7218  (address user) = abi.decode(... */\n      swap1\n      pop\n        /* \"src/DollarCostAveraging.sol\":7229:7246  triggerPlan(user) */\n      tag_142\n        /* \"src/DollarCostAveraging.sol\":7241:7245  user */\n      dup2\n        /* \"src/DollarCostAveraging.sol\":7229:7240  triggerPlan */\n      tag_107\n        /* \"src/DollarCostAveraging.sol\":7229:7246  triggerPlan(user) */\n      jump\t// in\n    tag_142:\n        /* \"src/DollarCostAveraging.sol\":7119:7254  {... */\n      pop\n        /* \"src/DollarCostAveraging.sol\":7050:7254  function performUpkeep(bytes calldata performData) external override {... */\n      pop\n      pop\n      jump\t// out\n        /* \"src/DollarCostAveraging.sol\":6547:7042  function checkUpkeep(... */\n    tag_67:\n        /* \"src/DollarCostAveraging.sol\":6684:6701  bool upkeepNeeded */\n      0x00\n        /* \"src/DollarCostAveraging.sol\":6703:6727  bytes memory performData */\n      0x60\n        /* \"src/DollarCostAveraging.sol\":6743:6755  address user */\n      0x00\n        /* \"src/DollarCostAveraging.sol\":6758:6763  users */\n      0x01\n        /* \"src/DollarCostAveraging.sol\":6758:6795  users[block.number % (nonce - 1) + 1] */\n      0x00\n        /* \"src/DollarCostAveraging.sol\":6793:6794  1 */\n      0x01\n        /* \"src/DollarCostAveraging.sol\":6788:6789  1 */\n      dup1\n        /* \"src/DollarCostAveraging.sol\":6780:6785  nonce */\n      sload(0x09)\n        /* \"src/DollarCostAveraging.sol\":6780:6789  nonce - 1 */\n      tag_144\n      swap2\n      swap1\n      tag_145\n      jump\t// in\n    tag_144:\n        /* \"src/DollarCostAveraging.sol\":6764:6776  block.number */\n      number\n        /* \"src/DollarCostAveraging.sol\":6764:6790  block.number % (nonce - 1) */\n      tag_146\n      swap2\n      swap1\n      tag_147\n      jump\t// in\n    tag_146:\n        /* \"src/DollarCostAveraging.sol\":6764:6794  block.number % (nonce - 1) + 1 */\n      tag_148\n      swap2\n      swap1\n      tag_149\n      jump\t// in\n    tag_148:\n        /* \"src/DollarCostAveraging.sol\":6758:6795  users[block.number % (nonce - 1) + 1] */\n      dup2\n      mstore\n      0x20\n      add\n      swap1\n      dup2\n      mstore\n      0x20\n      add\n      0x00\n      keccak256\n      0x00\n      swap1\n      sload\n      swap1\n      0x0100\n      exp\n      swap1\n      div\n      0xffffffffffffffffffffffffffffffffffffffff\n      and\n        /* \"src/DollarCostAveraging.sol\":6743:6795  address user = users[block.number % (nonce - 1) + 1] */\n      swap1\n      pop\n        /* \"src/DollarCostAveraging.sol\":6819:6824  false */\n      0x00\n        /* \"src/DollarCostAveraging.sol\":6804:6824  upkeepNeeded = false */\n      swap3\n      pop\n        /* \"src/DollarCostAveraging.sol\":6854:6869  nextTriggerTime */\n      0x03\n        /* \"src/DollarCostAveraging.sol\":6854:6875  nextTriggerTime[user] */\n      0x00\n        /* \"src/DollarCostAveraging.sol\":6870:6874  user */\n      dup3\n        /* \"src/DollarCostAveraging.sol\":6854:6875  nextTriggerTime[user] */\n      0xffffffffffffffffffffffffffffffffffffffff\n      and\n      0xffffffffffffffffffffffffffffffffffffffff\n      and\n      dup2\n      mstore\n      0x20\n      add\n      swap1\n      dup2\n      mstore\n      0x20\n      add\n      0x00\n      keccak256\n      sload\n        /* \"src/DollarCostAveraging.sol\":6836:6851  block.timestamp */\n      timestamp\n        /* \"src/DollarCostAveraging.sol\":6836:6875  block.timestamp > nextTriggerTime[user] */\n      gt\n        /* \"src/DollarCostAveraging.sol\":6836:6904  block.timestamp > nextTriggerTime[user] && nextTriggerTime[user] > 0 */\n      dup1\n      iszero\n      tag_150\n      jumpi\n      pop\n        /* \"src/DollarCostAveraging.sol\":6903:6904  0 */\n      0x00\n        /* \"src/DollarCostAveraging.sol\":6879:6894  nextTriggerTime */\n      0x03\n        /* \"src/DollarCostAveraging.sol\":6879:6900  nextTriggerTime[user] */\n      0x00\n        /* \"src/DollarCostAveraging.sol\":6895:6899  user */\n      dup4\n        /* \"src/DollarCostAveraging.sol\":6879:6900  nextTriggerTime[user] */\n      0xffffffffffffffffffffffffffffffffffffffff\n      and\n      0xffffffffffffffffffffffffffffffffffffffff\n      and\n      dup2\n      mstore\n      0x20\n      add\n      swap1\n      dup2\n      mstore\n      0x20\n      add\n      0x00\n      keccak256\n      sload\n        /* \"src/DollarCostAveraging.sol\":6879:6904  nextTriggerTime[user] > 0 */\n      gt\n        /* \"src/DollarCostAveraging.sol\":6836:6904  block.timestamp > nextTriggerTime[user] && nextTriggerTime[user] > 0 */\n    tag_150:\n        /* \"src/DollarCostAveraging.sol\":6833:6945  if(block.timestamp > nextTriggerTime[user] && nextTriggerTime[user] > 0){... */\n      iszero\n      tag_151\n      jumpi\n        /* \"src/DollarCostAveraging.sol\":6931:6935  true */\n      0x01\n        /* \"src/DollarCostAveraging.sol\":6916:6935  upkeepNeeded = true */\n      swap3\n      pop\n        /* \"src/DollarCostAveraging.sol\":6833:6945  if(block.timestamp > nextTriggerTime[user] && nextTriggerTime[user] > 0){... */\n    tag_151:\n        /* \"src/DollarCostAveraging.sol\":6986:6990  user */\n      dup1\n        /* \"src/DollarCostAveraging.sol\":6975:6991  abi.encode(user) */\n      add(0x20, mload(0x40))\n      tag_152\n      swap2\n      swap1\n      tag_58\n      jump\t// in\n    tag_152:\n      mload(0x40)\n      0x20\n      dup2\n      dup4\n      sub\n      sub\n      dup2\n      mstore\n      swap1\n      0x40\n      mstore\n        /* \"src/DollarCostAveraging.sol\":6961:6991  performData = abi.encode(user) */\n      swap2\n      pop\n        /* \"src/DollarCostAveraging.sol\":7000:7034  return (upkeepNeeded, performData) */\n      pop\n        /* \"src/DollarCostAveraging.sol\":6547:7042  function checkUpkeep(... */\n      swap3\n      pop\n      swap3\n      swap1\n      pop\n      jump\t// out\n        /* \"src/DollarCostAveraging.sol\":1613:1652  IUniswapV2Router02 public uniswapRouter */\n    tag_72:\n      0x07\n      0x00\n      swap1\n      sload\n      swap1\n      0x0100\n      exp\n      swap1\n      div\n      0xffffffffffffffffffffffffffffffffffffffff\n      and\n      dup2\n      jump\t// out\n        /* \"src/DollarCostAveraging.sol\":1657:1694  AggregatorV2V3Interface public oracle */\n    tag_77:\n      0x08\n      0x00\n      swap1\n      sload\n      swap1\n      0x0100\n      exp\n      swap1\n      div\n      0xffffffffffffffffffffffffffffffffffffffff\n      and\n      dup2\n      jump\t// out\n        /* \"src/DollarCostAveraging.sol\":1424:1474  mapping(address => uint256) public nextTriggerTime */\n    tag_84:\n      mstore(0x20, 0x03)\n      dup1\n      0x00\n      mstore\n      keccak256(0x00, 0x40)\n      0x00\n      swap2\n      pop\n      swap1\n      pop\n      sload\n      dup2\n      jump\t// out\n        /* \"src/DollarCostAveraging.sol\":1211:1248  mapping(address => Plan) public plans */\n    tag_90:\n      mstore(0x20, 0x00)\n      dup1\n      0x00\n      mstore\n      keccak256(0x00, 0x40)\n      0x00\n      swap2\n      pop\n      swap1\n      pop\n      dup1\n      0x00\n      add\n      sload\n      swap1\n      dup1\n      0x01\n      add\n      sload\n      swap1\n      dup1\n      0x02\n      add\n      sload\n      swap1\n      dup1\n      0x03\n      add\n      sload\n      swap1\n      dup1\n      0x04\n      add\n      sload\n      swap1\n      dup1\n      0x05\n      add\n      sload\n      swap1\n      pop\n      dup7\n      jump\t// out\n        /* \"src/DollarCostAveraging.sol\":3559:4038  function startPlan() public {    ... */\n    tag_95:\n        /* \"src/DollarCostAveraging.sol\":3632:3633  0 */\n      0x00\n        /* \"src/DollarCostAveraging.sol\":3606:3611  plans */\n      dup1\n        /* \"src/DollarCostAveraging.sol\":3606:3623  plans[msg.sender] */\n      0x00\n        /* \"src/DollarCostAveraging.sol\":3612:3622  msg.sender */\n      caller\n        /* \"src/DollarCostAveraging.sol\":3606:3623  plans[msg.sender] */\n      0xffffffffffffffffffffffffffffffffffffffff\n      and\n      0xffffffffffffffffffffffffffffffffffffffff\n      and\n      dup2\n      mstore\n      0x20\n      add\n      swap1\n      dup2\n      mstore\n      0x20\n      add\n      0x00\n      keccak256\n        /* \"src/DollarCostAveraging.sol\":3606:3629  plans[msg.sender].index */\n      0x00\n      add\n      sload\n        /* \"src/DollarCostAveraging.sol\":3606:3633  plans[msg.sender].index > 0 */\n      gt\n        /* \"src/DollarCostAveraging.sol\":3598:3655  require(plans[msg.sender].index > 0, \"Plan is not exist\") */\n      tag_154\n      jumpi\n      mload(0x40)\n      0x08c379a000000000000000000000000000000000000000000000000000000000\n      dup2\n      mstore\n      0x04\n      add\n      tag_155\n      swap1\n      tag_156\n      jump\t// in\n    tag_155:\n      mload(0x40)\n      dup1\n      swap2\n      sub\n      swap1\n      revert\n    tag_154:\n        /* \"src/DollarCostAveraging.sol\":3697:3698  0 */\n      0x00\n        /* \"src/DollarCostAveraging.sol\":3670:3675  plans */\n      dup1\n        /* \"src/DollarCostAveraging.sol\":3670:3687  plans[msg.sender] */\n      0x00\n        /* \"src/DollarCostAveraging.sol\":3676:3686  msg.sender */\n      caller\n        /* \"src/DollarCostAveraging.sol\":3670:3687  plans[msg.sender] */\n      0xffffffffffffffffffffffffffffffffffffffff\n      and\n      0xffffffffffffffffffffffffffffffffffffffff\n      and\n      dup2\n      mstore\n      0x20\n      add\n      swap1\n      dup2\n      mstore\n      0x20\n      add\n      0x00\n      keccak256\n        /* \"src/DollarCostAveraging.sol\":3670:3694  plans[msg.sender].amount */\n      0x02\n      add\n      sload\n        /* \"src/DollarCostAveraging.sol\":3670:3698  plans[msg.sender].amount > 0 */\n      gt\n        /* \"src/DollarCostAveraging.sol\":3662:3732  require(plans[msg.sender].amount > 0, \"Amount must be greater than 0\") */\n      tag_157\n      jumpi\n      mload(0x40)\n      0x08c379a000000000000000000000000000000000000000000000000000000000\n      dup2\n      mstore\n      0x04\n      add\n      tag_158\n      swap1\n      tag_130\n      jump\t// in\n    tag_158:\n      mload(0x40)\n      dup1\n      swap2\n      sub\n      swap1\n      revert\n    tag_157:\n        /* \"src/DollarCostAveraging.sol\":3774:3779  plans */\n      0x00\n        /* \"src/DollarCostAveraging.sol\":3774:3791  plans[msg.sender] */\n      dup1\n        /* \"src/DollarCostAveraging.sol\":3780:3790  msg.sender */\n      caller\n        /* \"src/DollarCostAveraging.sol\":3774:3791  plans[msg.sender] */\n      0xffffffffffffffffffffffffffffffffffffffff\n      and\n      0xffffffffffffffffffffffffffffffffffffffff\n      and\n      dup2\n      mstore\n      0x20\n      add\n      swap1\n      dup2\n      mstore\n      0x20\n      add\n      0x00\n      keccak256\n        /* \"src/DollarCostAveraging.sol\":3774:3798  plans[msg.sender].amount */\n      0x02\n      add\n      sload\n        /* \"src/DollarCostAveraging.sol\":3747:3771  getAllowance(msg.sender) */\n      tag_159\n        /* \"src/DollarCostAveraging.sol\":3760:3770  msg.sender */\n      caller\n        /* \"src/DollarCostAveraging.sol\":3747:3759  getAllowance */\n      tag_119\n        /* \"src/DollarCostAveraging.sol\":3747:3771  getAllowance(msg.sender) */\n      jump\t// in\n    tag_159:\n        /* \"src/DollarCostAveraging.sol\":3747:3798  getAllowance(msg.sender) > plans[msg.sender].amount */\n      gt\n        /* \"src/DollarCostAveraging.sol\":3739:3836  require(getAllowance(msg.sender) > plans[msg.sender].amount, \"Total must be greater than amount\") */\n      tag_160\n      jumpi\n      mload(0x40)\n      0x08c379a000000000000000000000000000000000000000000000000000000000\n      dup2\n      mstore\n      0x04\n      add\n      tag_161\n      swap1\n      tag_162\n      jump\t// in\n    tag_161:\n      mload(0x40)\n      dup1\n      swap2\n      sub\n      swap1\n      revert\n    tag_160:\n        /* \"src/DollarCostAveraging.sol\":3879:3894  block.timestamp */\n      timestamp\n        /* \"src/DollarCostAveraging.sol\":3851:3856  plans */\n      0x00\n        /* \"src/DollarCostAveraging.sol\":3851:3868  plans[msg.sender] */\n      dup1\n        /* \"src/DollarCostAveraging.sol\":3857:3867  msg.sender */\n      caller\n        /* \"src/DollarCostAveraging.sol\":3851:3868  plans[msg.sender] */\n      0xffffffffffffffffffffffffffffffffffffffff\n      and\n      0xffffffffffffffffffffffffffffffffffffffff\n      and\n      dup2\n      mstore\n      0x20\n      add\n      swap1\n      dup2\n      mstore\n      0x20\n      add\n      0x00\n      keccak256\n        /* \"src/DollarCostAveraging.sol\":3851:3876  plans[msg.sender].startAt */\n      0x03\n      add\n        /* \"src/DollarCostAveraging.sol\":3851:3894  plans[msg.sender].startAt = block.timestamp */\n      dup2\n      swap1\n      sstore\n      pop\n        /* \"src/DollarCostAveraging.sol\":3927:3928  0 */\n      0x00\n        /* \"src/DollarCostAveraging.sol\":3901:3906  plans */\n      dup1\n        /* \"src/DollarCostAveraging.sol\":3901:3918  plans[msg.sender] */\n      0x00\n        /* \"src/DollarCostAveraging.sol\":3907:3917  msg.sender */\n      caller\n        /* \"src/DollarCostAveraging.sol\":3901:3918  plans[msg.sender] */\n      0xffffffffffffffffffffffffffffffffffffffff\n      and\n      0xffffffffffffffffffffffffffffffffffffffff\n      and\n      dup2\n      mstore\n      0x20\n      add\n      swap1\n      dup2\n      mstore\n      0x20\n      add\n      0x00\n      keccak256\n        /* \"src/DollarCostAveraging.sol\":3901:3924  plans[msg.sender].times */\n      0x04\n      add\n        /* \"src/DollarCostAveraging.sol\":3901:3928  plans[msg.sender].times = 0 */\n      dup2\n      swap1\n      sstore\n      pop\n        /* \"src/DollarCostAveraging.sol\":3962:3963  1 */\n      0x01\n        /* \"src/DollarCostAveraging.sol\":3935:3940  plans */\n      0x00\n        /* \"src/DollarCostAveraging.sol\":3935:3952  plans[msg.sender] */\n      dup1\n        /* \"src/DollarCostAveraging.sol\":3941:3951  msg.sender */\n      caller\n        /* \"src/DollarCostAveraging.sol\":3935:3952  plans[msg.sender] */\n      0xffffffffffffffffffffffffffffffffffffffff\n      and\n      0xffffffffffffffffffffffffffffffffffffffff\n      and\n      dup2\n      mstore\n      0x20\n      add\n      swap1\n      dup2\n      mstore\n      0x20\n      add\n      0x00\n      keccak256\n        /* \"src/DollarCostAveraging.sol\":3935:3959  plans[msg.sender].status */\n      0x05\n      add\n        /* \"src/DollarCostAveraging.sol\":3935:3963  plans[msg.sender].status = 1 */\n      dup2\n      swap1\n      sstore\n      pop\n        /* \"src/DollarCostAveraging.sol\":3987:3997  msg.sender */\n      caller\n        /* \"src/DollarCostAveraging.sol\":3975:3998  PlanStarted(msg.sender) */\n      0xffffffffffffffffffffffffffffffffffffffff\n      and\n      0xa806cf17be1fb3cff26c4a6a46b735ddbf2ac07c138bdedb6d2ace798a2cfd40\n      mload(0x40)\n      mload(0x40)\n      dup1\n      swap2\n      sub\n      swap1\n      log2\n        /* \"src/DollarCostAveraging.sol\":4007:4032  requestRandom(msg.sender) */\n      tag_163\n        /* \"src/DollarCostAveraging.sol\":4021:4031  msg.sender */\n      caller\n        /* \"src/DollarCostAveraging.sol\":4007:4020  requestRandom */\n      tag_164\n        /* \"src/DollarCostAveraging.sol\":4007:4032  requestRandom(msg.sender) */\n      jump\t// in\n    tag_163:\n        /* \"src/DollarCostAveraging.sol\":3559:4038  function startPlan() public {    ... */\n      jump\t// out\n        /* \"src/DollarCostAveraging.sol\":1699:1719  uint256 public nonce */\n    tag_98:\n      sload(0x09)\n      dup2\n      jump\t// out\n        /* \"src/DollarCostAveraging.sol\":2600:3151  function createPlan(uint256 frequency, uint256 amount) public {... */\n    tag_103:\n        /* \"src/DollarCostAveraging.sol\":2704:2705  0 */\n      0x00\n        /* \"src/DollarCostAveraging.sol\":2677:2682  plans */\n      dup1\n        /* \"src/DollarCostAveraging.sol\":2677:2694  plans[msg.sender] */\n      0x00\n        /* \"src/DollarCostAveraging.sol\":2683:2693  msg.sender */\n      caller\n        /* \"src/DollarCostAveraging.sol\":2677:2694  plans[msg.sender] */\n      0xffffffffffffffffffffffffffffffffffffffff\n      and\n      0xffffffffffffffffffffffffffffffffffffffff\n      and\n      dup2\n      mstore\n      0x20\n      add\n      swap1\n      dup2\n      mstore\n      0x20\n      add\n      0x00\n      keccak256\n        /* \"src/DollarCostAveraging.sol\":2677:2700  plans[msg.sender].index */\n      0x00\n      add\n      sload\n        /* \"src/DollarCostAveraging.sol\":2677:2705  plans[msg.sender].index == 0 */\n      eq\n        /* \"src/DollarCostAveraging.sol\":2669:2723  require(plans[msg.sender].index == 0, \"Plan is exist\") */\n      tag_166\n      jumpi\n      mload(0x40)\n      0x08c379a000000000000000000000000000000000000000000000000000000000\n      dup2\n      mstore\n      0x04\n      add\n      tag_167\n      swap1\n      tag_124\n      jump\t// in\n    tag_167:\n      mload(0x40)\n      dup1\n      swap2\n      sub\n      swap1\n      revert\n    tag_166:\n        /* \"src/DollarCostAveraging.sol\":2750:2751  0 */\n      0x00\n        /* \"src/DollarCostAveraging.sol\":2738:2747  frequency */\n      dup3\n        /* \"src/DollarCostAveraging.sol\":2738:2751  frequency > 0 */\n      gt\n        /* \"src/DollarCostAveraging.sol\":2730:2788  require(frequency > 0, \"Frequency must be greater than 0\") */\n      tag_168\n      jumpi\n      mload(0x40)\n      0x08c379a000000000000000000000000000000000000000000000000000000000\n      dup2\n      mstore\n      0x04\n      add\n      tag_169\n      swap1\n      tag_127\n      jump\t// in\n    tag_169:\n      mload(0x40)\n      dup1\n      swap2\n      sub\n      swap1\n      revert\n    tag_168:\n        /* \"src/DollarCostAveraging.sol\":2812:2813  0 */\n      0x00\n        /* \"src/DollarCostAveraging.sol\":2803:2809  amount */\n      dup2\n        /* \"src/DollarCostAveraging.sol\":2803:2813  amount > 0 */\n      gt\n        /* \"src/DollarCostAveraging.sol\":2795:2847  require(amount > 0, \"Amount must be greater than 0\") */\n      tag_170\n      jumpi\n      mload(0x40)\n      0x08c379a000000000000000000000000000000000000000000000000000000000\n      dup2\n      mstore\n      0x04\n      add\n      tag_171\n      swap1\n      tag_130\n      jump\t// in\n    tag_171:\n      mload(0x40)\n      dup1\n      swap2\n      sub\n      swap1\n      revert\n    tag_170:\n        /* \"src/DollarCostAveraging.sol\":2871:2881  msg.sender */\n      caller\n        /* \"src/DollarCostAveraging.sol\":2856:2861  users */\n      0x01\n        /* \"src/DollarCostAveraging.sol\":2856:2868  users[nonce] */\n      0x00\n        /* \"src/DollarCostAveraging.sol\":2862:2867  nonce */\n      sload(0x09)\n        /* \"src/DollarCostAveraging.sol\":2856:2868  users[nonce] */\n      dup2\n      mstore\n      0x20\n      add\n      swap1\n      dup2\n      mstore\n      0x20\n      add\n      0x00\n      keccak256\n      0x00\n        /* \"src/DollarCostAveraging.sol\":2856:2881  users[nonce] = msg.sender */\n      0x0100\n      exp\n      dup2\n      sload\n      dup2\n      0xffffffffffffffffffffffffffffffffffffffff\n      mul\n      not\n      and\n      swap1\n      dup4\n      0xffffffffffffffffffffffffffffffffffffffff\n      and\n      mul\n      or\n      swap1\n      sstore\n      pop\n        /* \"src/DollarCostAveraging.sol\":2914:3070  Plan({... */\n      mload(0x40)\n      dup1\n      0xc0\n      add\n      0x40\n      mstore\n      dup1\n        /* \"src/DollarCostAveraging.sol\":2935:2940  nonce */\n      0x09\n      0x00\n        /* \"src/DollarCostAveraging.sol\":2935:2942  nonce++ */\n      dup2\n      sload\n      dup1\n      swap3\n      swap2\n      swap1\n      tag_172\n      swap1\n      tag_173\n      jump\t// in\n    tag_172:\n      swap2\n      swap1\n      pop\n      sstore\n        /* \"src/DollarCostAveraging.sol\":2914:3070  Plan({... */\n      dup2\n      mstore\n      0x20\n      add\n        /* \"src/DollarCostAveraging.sol\":2962:2971  frequency */\n      dup4\n        /* \"src/DollarCostAveraging.sol\":2914:3070  Plan({... */\n      dup2\n      mstore\n      0x20\n      add\n        /* \"src/DollarCostAveraging.sol\":2988:2994  amount */\n      dup3\n        /* \"src/DollarCostAveraging.sol\":2914:3070  Plan({... */\n      dup2\n      mstore\n      0x20\n      add\n        /* \"src/DollarCostAveraging.sol\":3012:3027  block.timestamp */\n      timestamp\n        /* \"src/DollarCostAveraging.sol\":2914:3070  Plan({... */\n      dup2\n      mstore\n      0x20\n      add\n        /* \"src/DollarCostAveraging.sol\":3043:3044  0 */\n      0x00\n        /* \"src/DollarCostAveraging.sol\":2914:3070  Plan({... */\n      dup2\n      mstore\n      0x20\n      add\n        /* \"src/DollarCostAveraging.sol\":3061:3062  0 */\n      0x00\n        /* \"src/DollarCostAveraging.sol\":2914:3070  Plan({... */\n      dup2\n      mstore\n      pop\n        /* \"src/DollarCostAveraging.sol\":2894:2899  plans */\n      0x00\n        /* \"src/DollarCostAveraging.sol\":2894:2911  plans[msg.sender] */\n      dup1\n        /* \"src/DollarCostAveraging.sol\":2900:2910  msg.sender */\n      caller\n        /* \"src/DollarCostAveraging.sol\":2894:2911  plans[msg.sender] */\n      0xffffffffffffffffffffffffffffffffffffffff\n      and\n      0xffffffffffffffffffffffffffffffffffffffff\n      and\n      dup2\n      mstore\n      0x20\n      add\n      swap1\n      dup2\n      mstore\n      0x20\n      add\n      0x00\n      keccak256\n        /* \"src/DollarCostAveraging.sol\":2894:3070  plans[msg.sender] = Plan({... */\n      0x00\n      dup3\n      add\n      mload\n      dup2\n      0x00\n      add\n      sstore\n      0x20\n      dup3\n      add\n      mload\n      dup2\n      0x01\n      add\n      sstore\n      0x40\n      dup3\n      add\n      mload\n      dup2\n      0x02\n      add\n      sstore\n      0x60\n      dup3\n      add\n      mload\n      dup2\n      0x03\n      add\n      sstore\n      0x80\n      dup3\n      add\n      mload\n      dup2\n      0x04\n      add\n      sstore\n      0xa0\n      dup3\n      add\n      mload\n      dup2\n      0x05\n      add\n      sstore\n      swap1\n      pop\n      pop\n        /* \"src/DollarCostAveraging.sol\":3094:3104  msg.sender */\n      caller\n        /* \"src/DollarCostAveraging.sol\":3082:3124  PlanCreated(msg.sender, frequency, amount) */\n      0xffffffffffffffffffffffffffffffffffffffff\n      and\n      0x89d3f1cdfad4e5c26535ac23dc61cf9e975667801747518f01b1b653545d736a\n        /* \"src/DollarCostAveraging.sol\":3106:3115  frequency */\n      dup4\n        /* \"src/DollarCostAveraging.sol\":3117:3123  amount */\n      dup4\n        /* \"src/DollarCostAveraging.sol\":3082:3124  PlanCreated(msg.sender, frequency, amount) */\n      mload(0x40)\n      tag_174\n      swap3\n      swap2\n      swap1\n      tag_132\n      jump\t// in\n    tag_174:\n      mload(0x40)\n      dup1\n      swap2\n      sub\n      swap1\n      log2\n        /* \"src/DollarCostAveraging.sol\":3134:3145  startPlan() */\n      tag_175\n        /* \"src/DollarCostAveraging.sol\":3134:3143  startPlan */\n      tag_95\n        /* \"src/DollarCostAveraging.sol\":3134:3145  startPlan() */\n      jump\t// in\n    tag_175:\n        /* \"src/DollarCostAveraging.sol\":2600:3151  function createPlan(uint256 frequency, uint256 amount) public {... */\n      pop\n      pop\n      jump\t// out\n        /* \"src/DollarCostAveraging.sol\":4591:6177  function triggerPlan(address user) public {... */\n    tag_107:\n        /* \"src/DollarCostAveraging.sol\":4670:4671  1 */\n      0x01\n        /* \"src/DollarCostAveraging.sol\":4648:4653  plans */\n      0x00\n        /* \"src/DollarCostAveraging.sol\":4648:4659  plans[user] */\n      dup1\n        /* \"src/DollarCostAveraging.sol\":4654:4658  user */\n      dup4\n        /* \"src/DollarCostAveraging.sol\":4648:4659  plans[user] */\n      0xffffffffffffffffffffffffffffffffffffffff\n      and\n      0xffffffffffffffffffffffffffffffffffffffff\n      and\n      dup2\n      mstore\n      0x20\n      add\n      swap1\n      dup2\n      mstore\n      0x20\n      add\n      0x00\n      keccak256\n        /* \"src/DollarCostAveraging.sol\":4648:4666  plans[user].status */\n      0x05\n      add\n      sload\n        /* \"src/DollarCostAveraging.sol\":4648:4671  plans[user].status == 1 */\n      eq\n        /* \"src/DollarCostAveraging.sol\":4640:4694  require(plans[user].status == 1, \"Plan is not active\") */\n      tag_177\n      jumpi\n      mload(0x40)\n      0x08c379a000000000000000000000000000000000000000000000000000000000\n      dup2\n      mstore\n      0x04\n      add\n      tag_178\n      swap1\n      tag_179\n      jump\t// in\n    tag_178:\n      mload(0x40)\n      dup1\n      swap2\n      sub\n      swap1\n      revert\n    tag_177:\n        /* \"src/DollarCostAveraging.sol\":4730:4735  plans */\n      0x00\n        /* \"src/DollarCostAveraging.sol\":4730:4741  plans[user] */\n      dup1\n        /* \"src/DollarCostAveraging.sol\":4736:4740  user */\n      dup3\n        /* \"src/DollarCostAveraging.sol\":4730:4741  plans[user] */\n      0xffffffffffffffffffffffffffffffffffffffff\n      and\n      0xffffffffffffffffffffffffffffffffffffffff\n      and\n      dup2\n      mstore\n      0x20\n      add\n      swap1\n      dup2\n      mstore\n      0x20\n      add\n      0x00\n      keccak256\n        /* \"src/DollarCostAveraging.sol\":4730:4748  plans[user].amount */\n      0x02\n      add\n      sload\n        /* \"src/DollarCostAveraging.sol\":4709:4727  getAllowance(user) */\n      tag_180\n        /* \"src/DollarCostAveraging.sol\":4722:4726  user */\n      dup3\n        /* \"src/DollarCostAveraging.sol\":4709:4721  getAllowance */\n      tag_119\n        /* \"src/DollarCostAveraging.sol\":4709:4727  getAllowance(user) */\n      jump\t// in\n    tag_180:\n        /* \"src/DollarCostAveraging.sol\":4709:4748  getAllowance(user) > plans[user].amount */\n      gt\n        /* \"src/DollarCostAveraging.sol\":4701:4794  require(getAllowance(user) > plans[user].amount, \"Cannot trigger more than remaining amount\") */\n      tag_181\n      jumpi\n      mload(0x40)\n      0x08c379a000000000000000000000000000000000000000000000000000000000\n      dup2\n      mstore\n      0x04\n      add\n      tag_182\n      swap1\n      tag_183\n      jump\t// in\n    tag_182:\n      mload(0x40)\n      dup1\n      swap2\n      sub\n      swap1\n      revert\n    tag_181:\n        /* \"src/DollarCostAveraging.sol\":4829:4844  nextTriggerTime */\n      0x03\n        /* \"src/DollarCostAveraging.sol\":4829:4850  nextTriggerTime[user] */\n      0x00\n        /* \"src/DollarCostAveraging.sol\":4845:4849  user */\n      dup3\n        /* \"src/DollarCostAveraging.sol\":4829:4850  nextTriggerTime[user] */\n      0xffffffffffffffffffffffffffffffffffffffff\n      and\n      0xffffffffffffffffffffffffffffffffffffffff\n      and\n      dup2\n      mstore\n      0x20\n      add\n      swap1\n      dup2\n      mstore\n      0x20\n      add\n      0x00\n      keccak256\n      sload\n        /* \"src/DollarCostAveraging.sol\":4809:4824  block.timestamp */\n      timestamp\n        /* \"src/DollarCostAveraging.sol\":4809:4850  block.timestamp >=  nextTriggerTime[user] */\n      lt\n      iszero\n        /* \"src/DollarCostAveraging.sol\":4801:4894  require(block.timestamp >=  nextTriggerTime[user], \"Cannot trigger before next trigger time\") */\n      tag_184\n      jumpi\n      mload(0x40)\n      0x08c379a000000000000000000000000000000000000000000000000000000000\n      dup2\n      mstore\n      0x04\n      add\n      tag_185\n      swap1\n      tag_186\n      jump\t// in\n    tag_185:\n      mload(0x40)\n      dup1\n      swap2\n      sub\n      swap1\n      revert\n    tag_184:\n        /* \"src/DollarCostAveraging.sol\":4903:4917  uint256 amount */\n      0x00\n        /* \"src/DollarCostAveraging.sol\":4920:4925  plans */\n      dup1\n        /* \"src/DollarCostAveraging.sol\":4920:4931  plans[user] */\n      0x00\n        /* \"src/DollarCostAveraging.sol\":4926:4930  user */\n      dup4\n        /* \"src/DollarCostAveraging.sol\":4920:4931  plans[user] */\n      0xffffffffffffffffffffffffffffffffffffffff\n      and\n      0xffffffffffffffffffffffffffffffffffffffff\n      and\n      dup2\n      mstore\n      0x20\n      add\n      swap1\n      dup2\n      mstore\n      0x20\n      add\n      0x00\n      keccak256\n        /* \"src/DollarCostAveraging.sol\":4920:4938  plans[user].amount */\n      0x02\n      add\n      sload\n        /* \"src/DollarCostAveraging.sol\":4903:4938  uint256 amount = plans[user].amount */\n      swap1\n      pop\n        /* \"src/DollarCostAveraging.sol\":4950:4965  int256 ethPrice */\n      0x00\n        /* \"src/DollarCostAveraging.sol\":4975:4981  oracle */\n      0x08\n      0x00\n      swap1\n      sload\n      swap1\n      0x0100\n      exp\n      swap1\n      div\n      0xffffffffffffffffffffffffffffffffffffffff\n      and\n        /* \"src/DollarCostAveraging.sol\":4975:4997  oracle.latestRoundData */\n      0xffffffffffffffffffffffffffffffffffffffff\n      and\n      0xfeaf968c\n        /* \"src/DollarCostAveraging.sol\":4975:4999  oracle.latestRoundData() */\n      mload(0x40)\n      dup2\n      0xffffffff\n      and\n      0xe0\n      shl\n      dup2\n      mstore\n      0x04\n      add\n      0xa0\n      mload(0x40)\n      dup1\n      dup4\n      sub\n      dup2\n      dup7\n      gas\n      staticcall\n      iszero\n      dup1\n      iszero\n      tag_188\n      jumpi\n      returndatasize\n      0x00\n      dup1\n      returndatacopy\n      revert(0x00, returndatasize)\n    tag_188:\n      pop\n      pop\n      pop\n      pop\n      mload(0x40)\n      returndatasize\n      not(0x1f)\n      0x1f\n      dup3\n      add\n      and\n      dup3\n      add\n      dup1\n      0x40\n      mstore\n      pop\n      dup2\n      add\n      swap1\n      tag_189\n      swap2\n      swap1\n      tag_190\n      jump\t// in\n    tag_189:\n        /* \"src/DollarCostAveraging.sol\":4947:4999  (, int256 ethPrice, , , ) = oracle.latestRoundData() */\n      pop\n      pop\n      pop\n      swap2\n      pop\n      pop\n        /* \"src/DollarCostAveraging.sol\":5025:5049  uint256 ethPriceDecimals */\n      0x00\n        /* \"src/DollarCostAveraging.sol\":5052:5058  oracle */\n      0x08\n      0x00\n      swap1\n      sload\n      swap1\n      0x0100\n      exp\n      swap1\n      div\n      0xffffffffffffffffffffffffffffffffffffffff\n      and\n        /* \"src/DollarCostAveraging.sol\":5052:5067  oracle.decimals */\n      0xffffffffffffffffffffffffffffffffffffffff\n      and\n      0x313ce567\n        /* \"src/DollarCostAveraging.sol\":5052:5069  oracle.decimals() */\n      mload(0x40)\n      dup2\n      0xffffffff\n      and\n      0xe0\n      shl\n      dup2\n      mstore\n      0x04\n      add\n      0x20\n      mload(0x40)\n      dup1\n      dup4\n      sub\n      dup2\n      dup7\n      gas\n      staticcall\n      iszero\n      dup1\n      iszero\n      tag_192\n      jumpi\n      returndatasize\n      0x00\n      dup1\n      returndatacopy\n      revert(0x00, returndatasize)\n    tag_192:\n      pop\n      pop\n      pop\n      pop\n      mload(0x40)\n      returndatasize\n      not(0x1f)\n      0x1f\n      dup3\n      add\n      and\n      dup3\n      add\n      dup1\n      0x40\n      mstore\n      pop\n      dup2\n      add\n      swap1\n      tag_193\n      swap2\n      swap1\n      tag_194\n      jump\t// in\n    tag_193:\n        /* \"src/DollarCostAveraging.sol\":5025:5069  uint256 ethPriceDecimals = oracle.decimals() */\n      0xff\n      and\n      swap1\n      pop\n        /* \"src/DollarCostAveraging.sol\":5078:5095  uint256 ethAmount */\n      0x00\n        /* \"src/DollarCostAveraging.sol\":5149:5165  ethPriceDecimals */\n      dup2\n        /* \"src/DollarCostAveraging.sol\":5144:5146  18 */\n      0x12\n        /* \"src/DollarCostAveraging.sol\":5144:5165  18 - ethPriceDecimals */\n      tag_195\n      swap2\n      swap1\n      tag_145\n      jump\t// in\n    tag_195:\n        /* \"src/DollarCostAveraging.sol\":5137:5139  10 */\n      0x0a\n        /* \"src/DollarCostAveraging.sol\":5137:5166  10 ** (18 - ethPriceDecimals) */\n      tag_196\n      swap2\n      swap1\n      tag_197\n      jump\t// in\n    tag_196:\n        /* \"src/DollarCostAveraging.sol\":5124:5132  ethPrice */\n      dup4\n        /* \"src/DollarCostAveraging.sol\":5108:5112  1e18 */\n      0x0de0b6b3a7640000\n        /* \"src/DollarCostAveraging.sol\":5099:5105  amount */\n      dup7\n        /* \"src/DollarCostAveraging.sol\":5099:5112  amount * 1e18 */\n      tag_198\n      swap2\n      swap1\n      tag_199\n      jump\t// in\n    tag_198:\n        /* \"src/DollarCostAveraging.sol\":5098:5133  (amount * 1e18) / uint256(ethPrice) */\n      tag_200\n      swap2\n      swap1\n      tag_201\n      jump\t// in\n    tag_200:\n        /* \"src/DollarCostAveraging.sol\":5098:5166  (amount * 1e18) / uint256(ethPrice) /  10 ** (18 - ethPriceDecimals) */\n      tag_202\n      swap2\n      swap1\n      tag_201\n      jump\t// in\n    tag_202:\n        /* \"src/DollarCostAveraging.sol\":5078:5166  uint256 ethAmount = (amount * 1e18) / uint256(ethPrice) /  10 ** (18 - ethPriceDecimals) */\n      swap1\n      pop\n        /* \"src/DollarCostAveraging.sol\":5175:5191  uint256 slippage */\n      0x00\n        /* \"src/DollarCostAveraging.sol\":5212:5216  1000 */\n      0x03e8\n        /* \"src/DollarCostAveraging.sol\":5207:5208  5 */\n      0x05\n        /* \"src/DollarCostAveraging.sol\":5195:5204  ethAmount */\n      dup4\n        /* \"src/DollarCostAveraging.sol\":5195:5208  ethAmount * 5 */\n      tag_203\n      swap2\n      swap1\n      tag_199\n      jump\t// in\n    tag_203:\n        /* \"src/DollarCostAveraging.sol\":5194:5216  (ethAmount * 5) / 1000 */\n      tag_204\n      swap2\n      swap1\n      tag_201\n      jump\t// in\n    tag_204:\n        /* \"src/DollarCostAveraging.sol\":5175:5216  uint256 slippage = (ethAmount * 5) / 1000 */\n      swap1\n      pop\n        /* \"src/DollarCostAveraging.sol\":5225:5245  uint256 minEthAmount */\n      0x00\n        /* \"src/DollarCostAveraging.sol\":5260:5268  slippage */\n      dup2\n        /* \"src/DollarCostAveraging.sol\":5248:5257  ethAmount */\n      dup4\n        /* \"src/DollarCostAveraging.sol\":5248:5268  ethAmount - slippage */\n      tag_205\n      swap2\n      swap1\n      tag_145\n      jump\t// in\n    tag_205:\n        /* \"src/DollarCostAveraging.sol\":5225:5268  uint256 minEthAmount = ethAmount - slippage */\n      swap1\n      pop\n        /* \"src/DollarCostAveraging.sol\":5335:5396  SafeERC20.safeTransferFrom(usdt, user, address(this), amount) */\n      tag_206\n        /* \"src/DollarCostAveraging.sol\":5362:5366  usdt */\n      0x04\n      0x00\n      swap1\n      sload\n      swap1\n      0x0100\n      exp\n      swap1\n      div\n      0xffffffffffffffffffffffffffffffffffffffff\n      and\n        /* \"src/DollarCostAveraging.sol\":5368:5372  user */\n      dup9\n        /* \"src/DollarCostAveraging.sol\":5382:5386  this */\n      address\n        /* \"src/DollarCostAveraging.sol\":5389:5395  amount */\n      dup10\n        /* \"src/DollarCostAveraging.sol\":5335:5361  SafeERC20.safeTransferFrom */\n      tag_207\n        /* \"src/DollarCostAveraging.sol\":5335:5396  SafeERC20.safeTransferFrom(usdt, user, address(this), amount) */\n      jump\t// in\n    tag_206:\n        /* \"src/DollarCostAveraging.sol\":5452:5521  SafeERC20.safeIncreaseAllowance(usdt, address(uniswapRouter), amount) */\n      tag_208\n        /* \"src/DollarCostAveraging.sol\":5484:5488  usdt */\n      0x04\n      0x00\n      swap1\n      sload\n      swap1\n      0x0100\n      exp\n      swap1\n      div\n      0xffffffffffffffffffffffffffffffffffffffff\n      and\n        /* \"src/DollarCostAveraging.sol\":5498:5511  uniswapRouter */\n      0x07\n      0x00\n      swap1\n      sload\n      swap1\n      0x0100\n      exp\n      swap1\n      div\n      0xffffffffffffffffffffffffffffffffffffffff\n      and\n        /* \"src/DollarCostAveraging.sol\":5514:5520  amount */\n      dup9\n        /* \"src/DollarCostAveraging.sol\":5452:5483  SafeERC20.safeIncreaseAllowance */\n      tag_209\n        /* \"src/DollarCostAveraging.sol\":5452:5521  SafeERC20.safeIncreaseAllowance(usdt, address(uniswapRouter), amount) */\n      jump\t// in\n    tag_208:\n        /* \"src/DollarCostAveraging.sol\":5557:5578  address[] memory path */\n      0x00\n        /* \"src/DollarCostAveraging.sol\":5595:5596  2 */\n      0x02\n        /* \"src/DollarCostAveraging.sol\":5581:5597  new address[](2) */\n      0xffffffffffffffff\n      dup2\n      gt\n      iszero\n      tag_210\n      jumpi\n      tag_211\n      tag_212\n      jump\t// in\n    tag_211:\n    tag_210:\n      mload(0x40)\n      swap1\n      dup1\n      dup3\n      mstore\n      dup1\n      0x20\n      mul\n      0x20\n      add\n      dup3\n      add\n      0x40\n      mstore\n      dup1\n      iszero\n      tag_213\n      jumpi\n      dup2\n      0x20\n      add\n      0x20\n      dup3\n      mul\n      dup1\n      calldatasize\n      dup4\n      calldatacopy\n      dup1\n      dup3\n      add\n      swap2\n      pop\n      pop\n      swap1\n      pop\n    tag_213:\n      pop\n        /* \"src/DollarCostAveraging.sol\":5557:5597  address[] memory path = new address[](2) */\n      swap1\n      pop\n        /* \"src/DollarCostAveraging.sol\":5622:5626  usdt */\n      0x04\n      0x00\n      swap1\n      sload\n      swap1\n      0x0100\n      exp\n      swap1\n      div\n      0xffffffffffffffffffffffffffffffffffffffff\n      and\n        /* \"src/DollarCostAveraging.sol\":5604:5608  path */\n      dup2\n        /* \"src/DollarCostAveraging.sol\":5609:5610  0 */\n      0x00\n        /* \"src/DollarCostAveraging.sol\":5604:5611  path[0] */\n      dup2\n      mload\n      dup2\n      lt\n      tag_214\n      jumpi\n      tag_215\n      tag_216\n      jump\t// in\n    tag_215:\n    tag_214:\n      0x20\n      mul\n      0x20\n      add\n      add\n        /* \"src/DollarCostAveraging.sol\":5604:5627  path[0] = address(usdt) */\n      swap1\n      0xffffffffffffffffffffffffffffffffffffffff\n      and\n      swap1\n      dup2\n      0xffffffffffffffffffffffffffffffffffffffff\n      and\n      dup2\n      mstore\n      pop\n      pop\n        /* \"src/DollarCostAveraging.sol\":5658:5671  uniswapRouter */\n      0x07\n      0x00\n      swap1\n      sload\n      swap1\n      0x0100\n      exp\n      swap1\n      div\n      0xffffffffffffffffffffffffffffffffffffffff\n      and\n        /* \"src/DollarCostAveraging.sol\":5658:5676  uniswapRouter.WETH */\n      0xffffffffffffffffffffffffffffffffffffffff\n      and\n      0xad5c4648\n        /* \"src/DollarCostAveraging.sol\":5658:5678  uniswapRouter.WETH() */\n      mload(0x40)\n      dup2\n      0xffffffff\n      and\n      0xe0\n      shl\n      dup2\n      mstore\n      0x04\n      add\n      0x20\n      mload(0x40)\n      dup1\n      dup4\n      sub\n      dup2\n      dup7\n      gas\n      staticcall\n      iszero\n      dup1\n      iszero\n      tag_218\n      jumpi\n      returndatasize\n      0x00\n      dup1\n      returndatacopy\n      revert(0x00, returndatasize)\n    tag_218:\n      pop\n      pop\n      pop\n      pop\n      mload(0x40)\n      returndatasize\n      not(0x1f)\n      0x1f\n      dup3\n      add\n      and\n      dup3\n      add\n      dup1\n      0x40\n      mstore\n      pop\n      dup2\n      add\n      swap1\n      tag_219\n      swap2\n      swap1\n      tag_220\n      jump\t// in\n    tag_219:\n        /* \"src/DollarCostAveraging.sol\":5648:5652  path */\n      dup2\n        /* \"src/DollarCostAveraging.sol\":5653:5654  1 */\n      0x01\n        /* \"src/DollarCostAveraging.sol\":5648:5655  path[1] */\n      dup2\n      mload\n      dup2\n      lt\n      tag_221\n      jumpi\n      tag_222\n      tag_216\n      jump\t// in\n    tag_222:\n    tag_221:\n      0x20\n      mul\n      0x20\n      add\n      add\n        /* \"src/DollarCostAveraging.sol\":5648:5678  path[1] = uniswapRouter.WETH() */\n      swap1\n      0xffffffffffffffffffffffffffffffffffffffff\n      and\n      swap1\n      dup2\n      0xffffffffffffffffffffffffffffffffffffffff\n      and\n      dup2\n      mstore\n      pop\n      pop\n        /* \"src/DollarCostAveraging.sol\":5737:5758  uint[] memory amounts */\n      0x00\n        /* \"src/DollarCostAveraging.sol\":5762:5775  uniswapRouter */\n      0x07\n      0x00\n      swap1\n      sload\n      swap1\n      0x0100\n      exp\n      swap1\n      div\n      0xffffffffffffffffffffffffffffffffffffffff\n      and\n        /* \"src/DollarCostAveraging.sol\":5762:5797  uniswapRouter.swapExactTokensForETH */\n      0xffffffffffffffffffffffffffffffffffffffff\n      and\n      0x18cbafe5\n        /* \"src/DollarCostAveraging.sol\":5798:5804  amount */\n      dup10\n        /* \"src/DollarCostAveraging.sol\":5806:5818  minEthAmount */\n      dup6\n        /* \"src/DollarCostAveraging.sol\":5820:5824  path */\n      dup6\n        /* \"src/DollarCostAveraging.sol\":5834:5838  this */\n      address\n        /* \"src/DollarCostAveraging.sol\":5859:5866  1 hours */\n      0x0e10\n        /* \"src/DollarCostAveraging.sol\":5841:5856  block.timestamp */\n      timestamp\n        /* \"src/DollarCostAveraging.sol\":5841:5866  block.timestamp + 1 hours */\n      tag_223\n      swap2\n      swap1\n      tag_149\n      jump\t// in\n    tag_223:\n        /* \"src/DollarCostAveraging.sol\":5762:5867  uniswapRouter.swapExactTokensForETH(amount, minEthAmount, path, address(this), block.timestamp + 1 hours) */\n      mload(0x40)\n      dup7\n      0xffffffff\n      and\n      0xe0\n      shl\n      dup2\n      mstore\n      0x04\n      add\n      tag_224\n      swap6\n      swap5\n      swap4\n      swap3\n      swap2\n      swap1\n      tag_225\n      jump\t// in\n    tag_224:\n      0x00\n      mload(0x40)\n      dup1\n      dup4\n      sub\n      dup2\n      0x00\n      dup8\n      gas\n      call\n      iszero\n      dup1\n      iszero\n      tag_227\n      jumpi\n      returndatasize\n      0x00\n      dup1\n      returndatacopy\n      revert(0x00, returndatasize)\n    tag_227:\n      pop\n      pop\n      pop\n      pop\n      mload(0x40)\n      returndatasize\n      0x00\n      dup3\n      returndatacopy\n      returndatasize\n      not(0x1f)\n      0x1f\n      dup3\n      add\n      and\n      dup3\n      add\n      dup1\n      0x40\n      mstore\n      pop\n      dup2\n      add\n      swap1\n      tag_228\n      swap2\n      swap1\n      tag_229\n      jump\t// in\n    tag_228:\n        /* \"src/DollarCostAveraging.sol\":5736:5867  (uint[] memory amounts) = uniswapRouter.swapExactTokensForETH(amount, minEthAmount, path, address(this), block.timestamp + 1 hours) */\n      swap1\n      pop\n        /* \"src/DollarCostAveraging.sol\":5876:5895  uint256 ethReceived */\n      0x00\n        /* \"src/DollarCostAveraging.sol\":5898:5905  amounts */\n      dup2\n        /* \"src/DollarCostAveraging.sol\":5906:5907  1 */\n      0x01\n        /* \"src/DollarCostAveraging.sol\":5898:5908  amounts[1] */\n      dup2\n      mload\n      dup2\n      lt\n      tag_230\n      jumpi\n      tag_231\n      tag_216\n      jump\t// in\n    tag_231:\n    tag_230:\n      0x20\n      mul\n      0x20\n      add\n      add\n      mload\n        /* \"src/DollarCostAveraging.sol\":5876:5908  uint256 ethReceived = amounts[1] */\n      swap1\n      pop\n        /* \"src/DollarCostAveraging.sol\":5949:5954  plans */\n      0x00\n        /* \"src/DollarCostAveraging.sol\":5949:5960  plans[user] */\n      dup1\n        /* \"src/DollarCostAveraging.sol\":5955:5959  user */\n      dup12\n        /* \"src/DollarCostAveraging.sol\":5949:5960  plans[user] */\n      0xffffffffffffffffffffffffffffffffffffffff\n      and\n      0xffffffffffffffffffffffffffffffffffffffff\n      and\n      dup2\n      mstore\n      0x20\n      add\n      swap1\n      dup2\n      mstore\n      0x20\n      add\n      0x00\n      keccak256\n        /* \"src/DollarCostAveraging.sol\":5949:5966  plans[user].times */\n      0x04\n      add\n      0x00\n        /* \"src/DollarCostAveraging.sol\":5949:5968  plans[user].times++ */\n      dup2\n      sload\n      dup1\n      swap3\n      swap2\n      swap1\n      tag_232\n      swap1\n      tag_173\n      jump\t// in\n    tag_232:\n      swap2\n      swap1\n      pop\n      sstore\n      pop\n        /* \"src/DollarCostAveraging.sol\":5996:6000  user */\n      dup10\n        /* \"src/DollarCostAveraging.sol\":5982:6022  PlanTriggered(user, amount, ethReceived) */\n      0xffffffffffffffffffffffffffffffffffffffff\n      and\n      0x1a3abf7e0a472651ebe2c79a31a5f4660c7ea65e3086ee1742d7502999bbf5b5\n        /* \"src/DollarCostAveraging.sol\":6002:6008  amount */\n      dup11\n        /* \"src/DollarCostAveraging.sol\":6010:6021  ethReceived */\n      dup4\n        /* \"src/DollarCostAveraging.sol\":5982:6022  PlanTriggered(user, amount, ethReceived) */\n      mload(0x40)\n      tag_233\n      swap3\n      swap2\n      swap1\n      tag_132\n      jump\t// in\n    tag_233:\n      mload(0x40)\n      dup1\n      swap2\n      sub\n      swap1\n      log2\n        /* \"src/DollarCostAveraging.sol\":6071:6075  user */\n      dup10\n        /* \"src/DollarCostAveraging.sol\":6063:6085  payable(user).transfer */\n      0xffffffffffffffffffffffffffffffffffffffff\n      and\n        /* \"src/DollarCostAveraging.sol\":6063:6098  payable(user).transfer(ethReceived) */\n      0x08fc\n        /* \"src/DollarCostAveraging.sol\":6086:6097  ethReceived */\n      dup3\n        /* \"src/DollarCostAveraging.sol\":6063:6098  payable(user).transfer(ethReceived) */\n      swap1\n      dup2\n      iszero\n      mul\n      swap1\n      mload(0x40)\n      0x00\n      mload(0x40)\n      dup1\n      dup4\n      sub\n      dup2\n      dup6\n      dup9\n      dup9\n      call\n      swap4\n      pop\n      pop\n      pop\n      pop\n      iszero\n      dup1\n      iszero\n      tag_235\n      jumpi\n      returndatasize\n      0x00\n      dup1\n      returndatacopy\n      revert(0x00, returndatasize)\n    tag_235:\n      pop\n        /* \"src/DollarCostAveraging.sol\":6152:6171  requestRandom(user) */\n      tag_236\n        /* \"src/DollarCostAveraging.sol\":6166:6170  user */\n      dup11\n        /* \"src/DollarCostAveraging.sol\":6152:6165  requestRandom */\n      tag_164\n        /* \"src/DollarCostAveraging.sol\":6152:6171  requestRandom(user) */\n      jump\t// in\n    tag_236:\n        /* \"src/DollarCostAveraging.sol\":4633:6177  {... */\n      pop\n      pop\n      pop\n      pop\n      pop\n      pop\n      pop\n      pop\n      pop\n        /* \"src/DollarCostAveraging.sol\":4591:6177  function triggerPlan(address user) public {... */\n      pop\n      jump\t// out\n        /* \"src/DollarCostAveraging.sol\":1365:1419  mapping(uint256 => address) public userRandomRequestId */\n    tag_111:\n      mstore(0x20, 0x02)\n      dup1\n      0x00\n      mstore\n      keccak256(0x00, 0x40)\n      0x00\n      swap2\n      pop\n      sload\n      swap1\n      0x0100\n      exp\n      swap1\n      div\n      0xffffffffffffffffffffffffffffffffffffffff\n      and\n      dup2\n      jump\t// out\n        /* \"src/DollarCostAveraging.sol\":4044:4212  function stopPlan() public {... */\n    tag_115:\n        /* \"src/DollarCostAveraging.sol\":4112:4113  0 */\n      0x00\n        /* \"src/DollarCostAveraging.sol\":4086:4091  plans */\n      dup1\n        /* \"src/DollarCostAveraging.sol\":4086:4103  plans[msg.sender] */\n      0x00\n        /* \"src/DollarCostAveraging.sol\":4092:4102  msg.sender */\n      caller\n        /* \"src/DollarCostAveraging.sol\":4086:4103  plans[msg.sender] */\n      0xffffffffffffffffffffffffffffffffffffffff\n      and\n      0xffffffffffffffffffffffffffffffffffffffff\n      and\n      dup2\n      mstore\n      0x20\n      add\n      swap1\n      dup2\n      mstore\n      0x20\n      add\n      0x00\n      keccak256\n        /* \"src/DollarCostAveraging.sol\":4086:4109  plans[msg.sender].index */\n      0x00\n      add\n      sload\n        /* \"src/DollarCostAveraging.sol\":4086:4113  plans[msg.sender].index > 0 */\n      gt\n        /* \"src/DollarCostAveraging.sol\":4078:4135  require(plans[msg.sender].index > 0, \"Plan is not exist\") */\n      tag_238\n      jumpi\n      mload(0x40)\n      0x08c379a000000000000000000000000000000000000000000000000000000000\n      dup2\n      mstore\n      0x04\n      add\n      tag_239\n      swap1\n      tag_156\n      jump\t// in\n    tag_239:\n      mload(0x40)\n      dup1\n      swap2\n      sub\n      swap1\n      revert\n    tag_238:\n        /* \"src/DollarCostAveraging.sol\":4171:4172  0 */\n      0x00\n        /* \"src/DollarCostAveraging.sol\":4144:4149  plans */\n      dup1\n        /* \"src/DollarCostAveraging.sol\":4144:4161  plans[msg.sender] */\n      0x00\n        /* \"src/DollarCostAveraging.sol\":4150:4160  msg.sender */\n      caller\n        /* \"src/DollarCostAveraging.sol\":4144:4161  plans[msg.sender] */\n      0xffffffffffffffffffffffffffffffffffffffff\n      and\n      0xffffffffffffffffffffffffffffffffffffffff\n      and\n      dup2\n      mstore\n      0x20\n      add\n      swap1\n      dup2\n      mstore\n      0x20\n      add\n      0x00\n      keccak256\n        /* \"src/DollarCostAveraging.sol\":4144:4168  plans[msg.sender].status */\n      0x05\n      add\n        /* \"src/DollarCostAveraging.sol\":4144:4172  plans[msg.sender].status = 0 */\n      dup2\n      swap1\n      sstore\n      pop\n        /* \"src/DollarCostAveraging.sol\":4195:4205  msg.sender */\n      caller\n        /* \"src/DollarCostAveraging.sol\":4184:4206  PlanStoped(msg.sender) */\n      0xffffffffffffffffffffffffffffffffffffffff\n      and\n      0xf222abd4ee7afb02f9450183b95d07aaab2ea2f2d6748f55525c7e875fdd58a1\n      mload(0x40)\n      mload(0x40)\n      dup1\n      swap2\n      sub\n      swap1\n      log2\n        /* \"src/DollarCostAveraging.sol\":4044:4212  function stopPlan() public {... */\n      jump\t// out\n        /* \"src/DollarCostAveraging.sol\":2473:2594  function getAllowance(address user) public view returns (uint256) {... */\n    tag_119:\n        /* \"src/DollarCostAveraging.sol\":2530:2537  uint256 */\n      0x00\n        /* \"src/DollarCostAveraging.sol\":2553:2557  usdt */\n      0x04\n      0x00\n      swap1\n      sload\n      swap1\n      0x0100\n      exp\n      swap1\n      div\n      0xffffffffffffffffffffffffffffffffffffffff\n      and\n        /* \"src/DollarCostAveraging.sol\":2553:2567  usdt.allowance */\n      0xffffffffffffffffffffffffffffffffffffffff\n      and\n      0xdd62ed3e\n        /* \"src/DollarCostAveraging.sol\":2568:2572  user */\n      dup4\n        /* \"src/DollarCostAveraging.sol\":2582:2586  this */\n      address\n        /* \"src/DollarCostAveraging.sol\":2553:2588  usdt.allowance(user, address(this)) */\n      mload(0x40)\n      dup4\n      0xffffffff\n      and\n      0xe0\n      shl\n      dup2\n      mstore\n      0x04\n      add\n      tag_241\n      swap3\n      swap2\n      swap1\n      tag_136\n      jump\t// in\n    tag_241:\n      0x20\n      mload(0x40)\n      dup1\n      dup4\n      sub\n      dup2\n      dup7\n      gas\n      staticcall\n      iszero\n      dup1\n      iszero\n      tag_243\n      jumpi\n      returndatasize\n      0x00\n      dup1\n      returndatacopy\n      revert(0x00, returndatasize)\n    tag_243:\n      pop\n      pop\n      pop\n      pop\n      mload(0x40)\n      returndatasize\n      not(0x1f)\n      0x1f\n      dup3\n      add\n      and\n      dup3\n      add\n      dup1\n      0x40\n      mstore\n      pop\n      dup2\n      add\n      swap1\n      tag_244\n      swap2\n      swap1\n      tag_245\n      jump\t// in\n    tag_244:\n        /* \"src/DollarCostAveraging.sol\":2546:2588  return usdt.allowance(user, address(this)) */\n      swap1\n      pop\n        /* \"src/DollarCostAveraging.sol\":2473:2594  function getAllowance(address user) public view returns (uint256) {... */\n      swap2\n      swap1\n      pop\n      jump\t// out\n        /* \"src/DollarCostAveraging.sol\":6241:6539  function fulfillRandomWords(uint256 _requestId, uint256[] memory _randomWords) internal override {... */\n    tag_138:\n        /* \"src/DollarCostAveraging.sol\":6347:6359  address user */\n      0x00\n        /* \"src/DollarCostAveraging.sol\":6362:6381  userRandomRequestId */\n      0x02\n        /* \"src/DollarCostAveraging.sol\":6362:6393  userRandomRequestId[_requestId] */\n      0x00\n        /* \"src/DollarCostAveraging.sol\":6382:6392  _requestId */\n      dup5\n        /* \"src/DollarCostAveraging.sol\":6362:6393  userRandomRequestId[_requestId] */\n      dup2\n      mstore\n      0x20\n      add\n      swap1\n      dup2\n      mstore\n      0x20\n      add\n      0x00\n      keccak256\n      0x00\n      swap1\n      sload\n      swap1\n      0x0100\n      exp\n      swap1\n      div\n      0xffffffffffffffffffffffffffffffffffffffff\n      and\n        /* \"src/DollarCostAveraging.sol\":6347:6393  address user = userRandomRequestId[_requestId] */\n      swap1\n      pop\n        /* \"src/DollarCostAveraging.sol\":6511:6516  plans */\n      0x00\n        /* \"src/DollarCostAveraging.sol\":6511:6522  plans[user] */\n      dup1\n        /* \"src/DollarCostAveraging.sol\":6517:6521  user */\n      dup3\n        /* \"src/DollarCostAveraging.sol\":6511:6522  plans[user] */\n      0xffffffffffffffffffffffffffffffffffffffff\n      and\n      0xffffffffffffffffffffffffffffffffffffffff\n      and\n      dup2\n      mstore\n      0x20\n      add\n      swap1\n      dup2\n      mstore\n      0x20\n      add\n      0x00\n      keccak256\n        /* \"src/DollarCostAveraging.sol\":6511:6532  plans[user].frequency */\n      0x01\n      add\n      sload\n        /* \"src/DollarCostAveraging.sol\":6493:6505  _randomWords */\n      dup3\n        /* \"src/DollarCostAveraging.sol\":6506:6507  0 */\n      0x00\n        /* \"src/DollarCostAveraging.sol\":6493:6508  _randomWords[0] */\n      dup2\n      mload\n      dup2\n      lt\n      tag_247\n      jumpi\n      tag_248\n      tag_216\n      jump\t// in\n    tag_248:\n    tag_247:\n      0x20\n      mul\n      0x20\n      add\n      add\n      mload\n        /* \"src/DollarCostAveraging.sol\":6493:6532  _randomWords[0] % plans[user].frequency */\n      tag_249\n      swap2\n      swap1\n      tag_147\n      jump\t// in\n    tag_249:\n        /* \"src/DollarCostAveraging.sol\":6468:6473  plans */\n      0x00\n        /* \"src/DollarCostAveraging.sol\":6468:6479  plans[user] */\n      dup1\n        /* \"src/DollarCostAveraging.sol\":6474:6478  user */\n      dup4\n        /* \"src/DollarCostAveraging.sol\":6468:6479  plans[user] */\n      0xffffffffffffffffffffffffffffffffffffffff\n      and\n      0xffffffffffffffffffffffffffffffffffffffff\n      and\n      dup2\n      mstore\n      0x20\n      add\n      swap1\n      dup2\n      mstore\n      0x20\n      add\n      0x00\n      keccak256\n        /* \"src/DollarCostAveraging.sol\":6468:6489  plans[user].frequency */\n      0x01\n      add\n      sload\n        /* \"src/DollarCostAveraging.sol\":6448:6453  plans */\n      0x00\n        /* \"src/DollarCostAveraging.sol\":6448:6459  plans[user] */\n      dup1\n        /* \"src/DollarCostAveraging.sol\":6454:6458  user */\n      dup5\n        /* \"src/DollarCostAveraging.sol\":6448:6459  plans[user] */\n      0xffffffffffffffffffffffffffffffffffffffff\n      and\n      0xffffffffffffffffffffffffffffffffffffffff\n      and\n      dup2\n      mstore\n      0x20\n      add\n      swap1\n      dup2\n      mstore\n      0x20\n      add\n      0x00\n      keccak256\n        /* \"src/DollarCostAveraging.sol\":6448:6465  plans[user].times */\n      0x04\n      add\n      sload\n        /* \"src/DollarCostAveraging.sol\":6448:6489  plans[user].times * plans[user].frequency */\n      tag_250\n      swap2\n      swap1\n      tag_199\n      jump\t// in\n    tag_250:\n        /* \"src/DollarCostAveraging.sol\":6426:6431  plans */\n      0x00\n        /* \"src/DollarCostAveraging.sol\":6426:6437  plans[user] */\n      dup1\n        /* \"src/DollarCostAveraging.sol\":6432:6436  user */\n      dup5\n        /* \"src/DollarCostAveraging.sol\":6426:6437  plans[user] */\n      0xffffffffffffffffffffffffffffffffffffffff\n      and\n      0xffffffffffffffffffffffffffffffffffffffff\n      and\n      dup2\n      mstore\n      0x20\n      add\n      swap1\n      dup2\n      mstore\n      0x20\n      add\n      0x00\n      keccak256\n        /* \"src/DollarCostAveraging.sol\":6426:6445  plans[user].startAt */\n      0x03\n      add\n      sload\n        /* \"src/DollarCostAveraging.sol\":6426:6489  plans[user].startAt + plans[user].times * plans[user].frequency */\n      tag_251\n      swap2\n      swap1\n      tag_149\n      jump\t// in\n    tag_251:\n        /* \"src/DollarCostAveraging.sol\":6426:6533  plans[user].startAt + plans[user].times * plans[user].frequency + (_randomWords[0] % plans[user].frequency) */\n      tag_252\n      swap2\n      swap1\n      tag_149\n      jump\t// in\n    tag_252:\n        /* \"src/DollarCostAveraging.sol\":6402:6417  nextTriggerTime */\n      0x03\n        /* \"src/DollarCostAveraging.sol\":6402:6423  nextTriggerTime[user] */\n      0x00\n        /* \"src/DollarCostAveraging.sol\":6418:6422  user */\n      dup4\n        /* \"src/DollarCostAveraging.sol\":6402:6423  nextTriggerTime[user] */\n      0xffffffffffffffffffffffffffffffffffffffff\n      and\n      0xffffffffffffffffffffffffffffffffffffffff\n      and\n      dup2\n      mstore\n      0x20\n      add\n      swap1\n      dup2\n      mstore\n      0x20\n      add\n      0x00\n      keccak256\n        /* \"src/DollarCostAveraging.sol\":6402:6533  nextTriggerTime[user] = plans[user].startAt + plans[user].times * plans[user].frequency + (_randomWords[0] % plans[user].frequency) */\n      dup2\n      swap1\n      sstore\n      pop\n        /* \"src/DollarCostAveraging.sol\":6338:6539  {... */\n      pop\n        /* \"src/DollarCostAveraging.sol\":6241:6539  function fulfillRandomWords(uint256 _requestId, uint256[] memory _randomWords) internal override {... */\n      pop\n      pop\n      jump\t// out\n        /* \"src/DollarCostAveraging.sol\":4218:4585  function requestRandom(address user) private {... */\n    tag_164:\n        /* \"src/DollarCostAveraging.sol\":4391:4408  uint256 requestId */\n      0x00\n        /* \"src/DollarCostAveraging.sol\":4411:4422  coordinator */\n      0x06\n      0x00\n      swap1\n      sload\n      swap1\n      0x0100\n      exp\n      swap1\n      div\n      0xffffffffffffffffffffffffffffffffffffffff\n      and\n        /* \"src/DollarCostAveraging.sol\":4411:4441  coordinator.requestRandomWords */\n      0xffffffffffffffffffffffffffffffffffffffff\n      and\n      0x5d3b1d30\n        /* \"src/DollarCostAveraging.sol\":4452:4459  keyHash */\n      sload(0x0a)\n        /* \"src/DollarCostAveraging.sol\":4470:4484  subscriptionId */\n      0x06\n      0x14\n      swap1\n      sload\n      swap1\n      0x0100\n      exp\n      swap1\n      div\n      0xffffffffffffffff\n      and\n        /* \"src/DollarCostAveraging.sol\":4495:4496  3 */\n      0x03\n        /* \"src/DollarCostAveraging.sol\":4507:4513  350000 */\n      0x055730\n        /* \"src/DollarCostAveraging.sol\":4524:4525  1 */\n      0x01\n        /* \"src/DollarCostAveraging.sol\":4411:4535  coordinator.requestRandomWords(... */\n      mload(0x40)\n      dup7\n      0xffffffff\n      and\n      0xe0\n      shl\n      dup2\n      mstore\n      0x04\n      add\n      tag_254\n      swap6\n      swap5\n      swap4\n      swap3\n      swap2\n      swap1\n      tag_255\n      jump\t// in\n    tag_254:\n      0x20\n      mload(0x40)\n      dup1\n      dup4\n      sub\n      dup2\n      0x00\n      dup8\n      gas\n      call\n      iszero\n      dup1\n      iszero\n      tag_257\n      jumpi\n      returndatasize\n      0x00\n      dup1\n      returndatacopy\n      revert(0x00, returndatasize)\n    tag_257:\n      pop\n      pop\n      pop\n      pop\n      mload(0x40)\n      returndatasize\n      not(0x1f)\n      0x1f\n      dup3\n      add\n      and\n      dup3\n      add\n      dup1\n      0x40\n      mstore\n      pop\n      dup2\n      add\n      swap1\n      tag_258\n      swap2\n      swap1\n      tag_245\n      jump\t// in\n    tag_258:\n        /* \"src/DollarCostAveraging.sol\":4391:4535  uint256 requestId = coordinator.requestRandomWords(... */\n      swap1\n      pop\n        /* \"src/DollarCostAveraging.sol\":4575:4579  user */\n      dup2\n        /* \"src/DollarCostAveraging.sol\":4542:4561  userRandomRequestId */\n      0x02\n        /* \"src/DollarCostAveraging.sol\":4542:4572  userRandomRequestId[requestId] */\n      0x00\n        /* \"src/DollarCostAveraging.sol\":4562:4571  requestId */\n      dup4\n        /* \"src/DollarCostAveraging.sol\":4542:4572  userRandomRequestId[requestId] */\n      dup2\n      mstore\n      0x20\n      add\n      swap1\n      dup2\n      mstore\n      0x20\n      add\n      0x00\n      keccak256\n      0x00\n        /* \"src/DollarCostAveraging.sol\":4542:4579  userRandomRequestId[requestId] = user */\n      0x0100\n      exp\n      dup2\n      sload\n      dup2\n      0xffffffffffffffffffffffffffffffffffffffff\n      mul\n      not\n      and\n      swap1\n      dup4\n      0xffffffffffffffffffffffffffffffffffffffff\n      and\n      mul\n      or\n      swap1\n      sstore\n      pop\n        /* \"src/DollarCostAveraging.sol\":4263:4585  {... */\n      pop\n        /* \"src/DollarCostAveraging.sol\":4218:4585  function requestRandom(address user) private {... */\n      pop\n      jump\t// out\n        /* \"@openzeppelin/contracts/token/ERC20/utils/SafeERC20.sol\":1702:1890  function safeTransferFrom(IERC20 token, address from, address to, uint256 value) internal {... */\n    tag_207:\n        /* \"@openzeppelin/contracts/token/ERC20/utils/SafeERC20.sol\":1802:1883  _callOptionalReturn(token, abi.encodeCall(token.transferFrom, (from, to, value))) */\n      tag_260\n        /* \"@openzeppelin/contracts/token/ERC20/utils/SafeERC20.sol\":1822:1827  token */\n      dup5\n        /* \"@openzeppelin/contracts/token/ERC20/utils/SafeERC20.sol\":1844:1849  token */\n      dup6\n        /* \"@openzeppelin/contracts/token/ERC20/utils/SafeERC20.sol\":1844:1862  token.transferFrom */\n      0xffffffffffffffffffffffffffffffffffffffff\n      and\n      0x23b872dd\n        /* \"@openzeppelin/contracts/token/ERC20/utils/SafeERC20.sol\":1865:1869  from */\n      dup7\n        /* \"@openzeppelin/contracts/token/ERC20/utils/SafeERC20.sol\":1871:1873  to */\n      dup7\n        /* \"@openzeppelin/contracts/token/ERC20/utils/SafeERC20.sol\":1875:1880  value */\n      dup7\n        /* \"@openzeppelin/contracts/token/ERC20/utils/SafeERC20.sol\":1829:1882  abi.encodeCall(token.transferFrom, (from, to, value)) */\n      add(0x24, mload(0x40))\n      tag_261\n      swap4\n      swap3\n      swap2\n      swap1\n      tag_262\n      jump\t// in\n    tag_261:\n      mload(0x40)\n      0x20\n      dup2\n      dup4\n      sub\n      sub\n      dup2\n      mstore\n      swap1\n      0x40\n      mstore\n      swap2\n      pop\n      0xe0\n      shl\n      0x20\n      dup3\n      add\n      dup1\n      mload\n      0xffffffffffffffffffffffffffffffffffffffffffffffffffffffff\n      dup4\n      dup2\n      dup4\n      and\n      or\n      dup4\n      mstore\n      pop\n      pop\n      pop\n      pop\n        /* \"@openzeppelin/contracts/token/ERC20/utils/SafeERC20.sol\":1802:1821  _callOptionalReturn */\n      tag_263\n        /* \"@openzeppelin/contracts/token/ERC20/utils/SafeERC20.sol\":1802:1883  _callOptionalReturn(token, abi.encodeCall(token.transferFrom, (from, to, value))) */\n      jump\t// in\n    tag_260:\n        /* \"@openzeppelin/contracts/token/ERC20/utils/SafeERC20.sol\":1702:1890  function safeTransferFrom(IERC20 token, address from, address to, uint256 value) internal {... */\n      pop\n      pop\n      pop\n      pop\n      jump\t// out\n        /* \"@openzeppelin/contracts/token/ERC20/utils/SafeERC20.sol\":2081:2306  function safeIncreaseAllowance(IERC20 token, address spender, uint256 value) internal {... */\n    tag_209:\n        /* \"@openzeppelin/contracts/token/ERC20/utils/SafeERC20.sol\":2177:2197  uint256 oldAllowance */\n      0x00\n        /* \"@openzeppelin/contracts/token/ERC20/utils/SafeERC20.sol\":2200:2205  token */\n      dup4\n        /* \"@openzeppelin/contracts/token/ERC20/utils/SafeERC20.sol\":2200:2215  token.allowance */\n      0xffffffffffffffffffffffffffffffffffffffff\n      and\n      0xdd62ed3e\n        /* \"@openzeppelin/contracts/token/ERC20/utils/SafeERC20.sol\":2224:2228  this */\n      address\n        /* \"@openzeppelin/contracts/token/ERC20/utils/SafeERC20.sol\":2231:2238  spender */\n      dup6\n        /* \"@openzeppelin/contracts/token/ERC20/utils/SafeERC20.sol\":2200:2239  token.allowance(address(this), spender) */\n      mload(0x40)\n      dup4\n      0xffffffff\n      and\n      0xe0\n      shl\n      dup2\n      mstore\n      0x04\n      add\n      tag_265\n      swap3\n      swap2\n      swap1\n      tag_136\n      jump\t// in\n    tag_265:\n      0x20\n      mload(0x40)\n      dup1\n      dup4\n      sub\n      dup2\n      dup7\n      gas\n      staticcall\n      iszero\n      dup1\n      iszero\n      tag_267\n      jumpi\n      returndatasize\n      0x00\n      dup1\n      returndatacopy\n      revert(0x00, returndatasize)\n    tag_267:\n      pop\n      pop\n      pop\n      pop\n      mload(0x40)\n      returndatasize\n      not(0x1f)\n      0x1f\n      dup3\n      add\n      and\n      dup3\n      add\n      dup1\n      0x40\n      mstore\n      pop\n      dup2\n      add\n      swap1\n      tag_268\n      swap2\n      swap1\n      tag_245\n      jump\t// in\n    tag_268:\n        /* \"@openzeppelin/contracts/token/ERC20/utils/SafeERC20.sol\":2177:2239  uint256 oldAllowance = token.allowance(address(this), spender) */\n      swap1\n      pop\n        /* \"@openzeppelin/contracts/token/ERC20/utils/SafeERC20.sol\":2249:2299  forceApprove(token, spender, oldAllowance + value) */\n      tag_269\n        /* \"@openzeppelin/contracts/token/ERC20/utils/SafeERC20.sol\":2262:2267  token */\n      dup5\n        /* \"@openzeppelin/contracts/token/ERC20/utils/SafeERC20.sol\":2269:2276  spender */\n      dup5\n        /* \"@openzeppelin/contracts/token/ERC20/utils/SafeERC20.sol\":2293:2298  value */\n      dup5\n        /* \"@openzeppelin/contracts/token/ERC20/utils/SafeERC20.sol\":2278:2290  oldAllowance */\n      dup5\n        /* \"@openzeppelin/contracts/token/ERC20/utils/SafeERC20.sol\":2278:2298  oldAllowance + value */\n      tag_270\n      swap2\n      swap1\n      tag_149\n      jump\t// in\n    tag_270:\n        /* \"@openzeppelin/contracts/token/ERC20/utils/SafeERC20.sol\":2249:2261  forceApprove */\n      tag_271\n        /* \"@openzeppelin/contracts/token/ERC20/utils/SafeERC20.sol\":2249:2299  forceApprove(token, spender, oldAllowance + value) */\n      jump\t// in\n    tag_269:\n        /* \"@openzeppelin/contracts/token/ERC20/utils/SafeERC20.sol\":2167:2306  {... */\n      pop\n        /* \"@openzeppelin/contracts/token/ERC20/utils/SafeERC20.sol\":2081:2306  function safeIncreaseAllowance(IERC20 token, address spender, uint256 value) internal {... */\n      pop\n      pop\n      pop\n      jump\t// out\n        /* \"@openzeppelin/contracts/token/ERC20/utils/SafeERC20.sol\":4059:4688  function _callOptionalReturn(IERC20 token, bytes memory data) private {... */\n    tag_263:\n        /* \"@openzeppelin/contracts/token/ERC20/utils/SafeERC20.sol\":4478:4501  bytes memory returndata */\n      0x00\n        /* \"@openzeppelin/contracts/token/ERC20/utils/SafeERC20.sol\":4504:4537  address(token).functionCall(data) */\n      tag_273\n        /* \"@openzeppelin/contracts/token/ERC20/utils/SafeERC20.sol\":4532:4536  data */\n      dup3\n        /* \"@openzeppelin/contracts/token/ERC20/utils/SafeERC20.sol\":4512:4517  token */\n      dup5\n        /* \"@openzeppelin/contracts/token/ERC20/utils/SafeERC20.sol\":4504:4531  address(token).functionCall */\n      0xffffffffffffffffffffffffffffffffffffffff\n      and\n      tag_274\n      swap1\n        /* \"@openzeppelin/contracts/token/ERC20/utils/SafeERC20.sol\":4504:4537  address(token).functionCall(data) */\n      swap2\n      swap1\n      0xffffffff\n      and\n      jump\t// in\n    tag_273:\n        /* \"@openzeppelin/contracts/token/ERC20/utils/SafeERC20.sol\":4478:4537  bytes memory returndata = address(token).functionCall(data) */\n      swap1\n      pop\n        /* \"@openzeppelin/contracts/token/ERC20/utils/SafeERC20.sol\":4572:4573  0 */\n      0x00\n        /* \"@openzeppelin/contracts/token/ERC20/utils/SafeERC20.sol\":4551:4561  returndata */\n      dup2\n        /* \"@openzeppelin/contracts/token/ERC20/utils/SafeERC20.sol\":4551:4568  returndata.length */\n      mload\n        /* \"@openzeppelin/contracts/token/ERC20/utils/SafeERC20.sol\":4551:4573  returndata.length != 0 */\n      eq\n      iszero\n        /* \"@openzeppelin/contracts/token/ERC20/utils/SafeERC20.sol\":4551:4608  returndata.length != 0 && !abi.decode(returndata, (bool)) */\n      dup1\n      iszero\n      tag_275\n      jumpi\n      pop\n        /* \"@openzeppelin/contracts/token/ERC20/utils/SafeERC20.sol\":4589:4599  returndata */\n      dup1\n        /* \"@openzeppelin/contracts/token/ERC20/utils/SafeERC20.sol\":4578:4608  abi.decode(returndata, (bool)) */\n      dup1\n      0x20\n      add\n      swap1\n      mload\n      dup2\n      add\n      swap1\n      tag_276\n      swap2\n      swap1\n      tag_277\n      jump\t// in\n    tag_276:\n        /* \"@openzeppelin/contracts/token/ERC20/utils/SafeERC20.sol\":4577:4608  !abi.decode(returndata, (bool)) */\n      iszero\n        /* \"@openzeppelin/contracts/token/ERC20/utils/SafeERC20.sol\":4551:4608  returndata.length != 0 && !abi.decode(returndata, (bool)) */\n    tag_275:\n        /* \"@openzeppelin/contracts/token/ERC20/utils/SafeERC20.sol\":4547:4682  if (returndata.length != 0 && !abi.decode(returndata, (bool))) {... */\n      iszero\n      tag_278\n      jumpi\n        /* \"@openzeppelin/contracts/token/ERC20/utils/SafeERC20.sol\":4664:4669  token */\n      dup3\n        /* \"@openzeppelin/contracts/token/ERC20/utils/SafeERC20.sol\":4631:4671  SafeERC20FailedOperation(address(token)) */\n      mload(0x40)\n      0x5274afe700000000000000000000000000000000000000000000000000000000\n      dup2\n      mstore\n      0x04\n      add\n      tag_279\n      swap2\n      swap1\n      tag_58\n      jump\t// in\n    tag_279:\n      mload(0x40)\n      dup1\n      swap2\n      sub\n      swap1\n      revert\n        /* \"@openzeppelin/contracts/token/ERC20/utils/SafeERC20.sol\":4547:4682  if (returndata.length != 0 && !abi.decode(returndata, (bool))) {... */\n    tag_278:\n        /* \"@openzeppelin/contracts/token/ERC20/utils/SafeERC20.sol\":4129:4688  {... */\n      pop\n        /* \"@openzeppelin/contracts/token/ERC20/utils/SafeERC20.sol\":4059:4688  function _callOptionalReturn(IERC20 token, bytes memory data) private {... */\n      pop\n      pop\n      jump\t// out\n        /* \"@openzeppelin/contracts/token/ERC20/utils/SafeERC20.sol\":3296:3676  function forceApprove(IERC20 token, address spender, uint256 value) internal {... */\n    tag_271:\n        /* \"@openzeppelin/contracts/token/ERC20/utils/SafeERC20.sol\":3383:3408  bytes memory approvalCall */\n      0x00\n        /* \"@openzeppelin/contracts/token/ERC20/utils/SafeERC20.sol\":3426:3431  token */\n      dup4\n        /* \"@openzeppelin/contracts/token/ERC20/utils/SafeERC20.sol\":3426:3439  token.approve */\n      0xffffffffffffffffffffffffffffffffffffffff\n      and\n      0x095ea7b3\n        /* \"@openzeppelin/contracts/token/ERC20/utils/SafeERC20.sol\":3442:3449  spender */\n      dup5\n        /* \"@openzeppelin/contracts/token/ERC20/utils/SafeERC20.sol\":3451:3456  value */\n      dup5\n        /* \"@openzeppelin/contracts/token/ERC20/utils/SafeERC20.sol\":3411:3458  abi.encodeCall(token.approve, (spender, value)) */\n      add(0x24, mload(0x40))\n      tag_281\n      swap3\n      swap2\n      swap1\n      tag_282\n      jump\t// in\n    tag_281:\n      mload(0x40)\n      0x20\n      dup2\n      dup4\n      sub\n      sub\n      dup2\n      mstore\n      swap1\n      0x40\n      mstore\n      swap2\n      pop\n      0xe0\n      shl\n      0x20\n      dup3\n      add\n      dup1\n      mload\n      0xffffffffffffffffffffffffffffffffffffffffffffffffffffffff\n      dup4\n      dup2\n      dup4\n      and\n      or\n      dup4\n      mstore\n      pop\n      pop\n      pop\n      pop\n        /* \"@openzeppelin/contracts/token/ERC20/utils/SafeERC20.sol\":3383:3458  bytes memory approvalCall = abi.encodeCall(token.approve, (spender, value)) */\n      swap1\n      pop\n        /* \"@openzeppelin/contracts/token/ERC20/utils/SafeERC20.sol\":3474:3518  _callOptionalReturnBool(token, approvalCall) */\n      tag_283\n        /* \"@openzeppelin/contracts/token/ERC20/utils/SafeERC20.sol\":3498:3503  token */\n      dup5\n        /* \"@openzeppelin/contracts/token/ERC20/utils/SafeERC20.sol\":3505:3517  approvalCall */\n      dup3\n        /* \"@openzeppelin/contracts/token/ERC20/utils/SafeERC20.sol\":3474:3497  _callOptionalReturnBool */\n      tag_284\n        /* \"@openzeppelin/contracts/token/ERC20/utils/SafeERC20.sol\":3474:3518  _callOptionalReturnBool(token, approvalCall) */\n      jump\t// in\n    tag_283:\n        /* \"@openzeppelin/contracts/token/ERC20/utils/SafeERC20.sol\":3469:3670  if (!_callOptionalReturnBool(token, approvalCall)) {... */\n      tag_285\n      jumpi\n        /* \"@openzeppelin/contracts/token/ERC20/utils/SafeERC20.sol\":3534:3605  _callOptionalReturn(token, abi.encodeCall(token.approve, (spender, 0))) */\n      tag_286\n        /* \"@openzeppelin/contracts/token/ERC20/utils/SafeERC20.sol\":3554:3559  token */\n      dup5\n        /* \"@openzeppelin/contracts/token/ERC20/utils/SafeERC20.sol\":3576:3581  token */\n      dup6\n        /* \"@openzeppelin/contracts/token/ERC20/utils/SafeERC20.sol\":3576:3589  token.approve */\n      0xffffffffffffffffffffffffffffffffffffffff\n      and\n      0x095ea7b3\n        /* \"@openzeppelin/contracts/token/ERC20/utils/SafeERC20.sol\":3592:3599  spender */\n      dup7\n        /* \"@openzeppelin/contracts/token/ERC20/utils/SafeERC20.sol\":3601:3602  0 */\n      0x00\n        /* \"@openzeppelin/contracts/token/ERC20/utils/SafeERC20.sol\":3561:3604  abi.encodeCall(token.approve, (spender, 0)) */\n      add(0x24, mload(0x40))\n      tag_287\n      swap3\n      swap2\n      swap1\n      tag_288\n      jump\t// in\n    tag_287:\n      mload(0x40)\n      0x20\n      dup2\n      dup4\n      sub\n      sub\n      dup2\n      mstore\n      swap1\n      0x40\n      mstore\n      swap2\n      pop\n      0xe0\n      shl\n      0x20\n      dup3\n      add\n      dup1\n      mload\n      0xffffffffffffffffffffffffffffffffffffffffffffffffffffffff\n      dup4\n      dup2\n      dup4\n      and\n      or\n      dup4\n      mstore\n      pop\n      pop\n      pop\n      pop\n        /* \"@openzeppelin/contracts/token/ERC20/utils/SafeERC20.sol\":3534:3553  _callOptionalReturn */\n      tag_263\n        /* \"@openzeppelin/contracts/token/ERC20/utils/SafeERC20.sol\":3534:3605  _callOptionalReturn(token, abi.encodeCall(token.approve, (spender, 0))) */\n      jump\t// in\n    tag_286:\n        /* \"@openzeppelin/contracts/token/ERC20/utils/SafeERC20.sol\":3619:3659  _callOptionalReturn(token, approvalCall) */\n      tag_289\n        /* \"@openzeppelin/contracts/token/ERC20/utils/SafeERC20.sol\":3639:3644  token */\n      dup5\n        /* \"@openzeppelin/contracts/token/ERC20/utils/SafeERC20.sol\":3646:3658  approvalCall */\n      dup3\n        /* \"@openzeppelin/contracts/token/ERC20/utils/SafeERC20.sol\":3619:3638  _callOptionalReturn */\n      tag_263\n        /* \"@openzeppelin/contracts/token/ERC20/utils/SafeERC20.sol\":3619:3659  _callOptionalReturn(token, approvalCall) */\n      jump\t// in\n    tag_289:\n        /* \"@openzeppelin/contracts/token/ERC20/utils/SafeERC20.sol\":3469:3670  if (!_callOptionalReturnBool(token, approvalCall)) {... */\n    tag_285:\n        /* \"@openzeppelin/contracts/token/ERC20/utils/SafeERC20.sol\":3373:3676  {... */\n      pop\n        /* \"@openzeppelin/contracts/token/ERC20/utils/SafeERC20.sol\":3296:3676  function forceApprove(IERC20 token, address spender, uint256 value) internal {... */\n      pop\n      pop\n      pop\n      jump\t// out\n        /* \"@openzeppelin/contracts/utils/Address.sol\":2705:2856  function functionCall(address target, bytes memory data) internal returns (bytes memory) {... */\n    tag_274:\n        /* \"@openzeppelin/contracts/utils/Address.sol\":2780:2792  bytes memory */\n      0x60\n        /* \"@openzeppelin/contracts/utils/Address.sol\":2811:2849  functionCallWithValue(target, data, 0) */\n      tag_291\n        /* \"@openzeppelin/contracts/utils/Address.sol\":2833:2839  target */\n      dup4\n        /* \"@openzeppelin/contracts/utils/Address.sol\":2841:2845  data */\n      dup4\n        /* \"@openzeppelin/contracts/utils/Address.sol\":2847:2848  0 */\n      0x00\n        /* \"@openzeppelin/contracts/utils/Address.sol\":2811:2832  functionCallWithValue */\n      tag_292\n        /* \"@openzeppelin/contracts/utils/Address.sol\":2811:2849  functionCallWithValue(target, data, 0) */\n      jump\t// in\n    tag_291:\n        /* \"@openzeppelin/contracts/utils/Address.sol\":2804:2849  return functionCallWithValue(target, data, 0) */\n      swap1\n      pop\n        /* \"@openzeppelin/contracts/utils/Address.sol\":2705:2856  function functionCall(address target, bytes memory data) internal returns (bytes memory) {... */\n      swap3\n      swap2\n      pop\n      pop\n      jump\t// out\n        /* \"@openzeppelin/contracts/token/ERC20/utils/SafeERC20.sol\":5189:5767  function _callOptionalReturnBool(IERC20 token, bytes memory data) private returns (bool) {... */\n    tag_284:\n        /* \"@openzeppelin/contracts/token/ERC20/utils/SafeERC20.sol\":5272:5276  bool */\n      0x00\n        /* \"@openzeppelin/contracts/token/ERC20/utils/SafeERC20.sol\":5574:5586  bool success */\n      dup1\n        /* \"@openzeppelin/contracts/token/ERC20/utils/SafeERC20.sol\":5588:5611  bytes memory returndata */\n      0x00\n        /* \"@openzeppelin/contracts/token/ERC20/utils/SafeERC20.sol\":5623:5628  token */\n      dup5\n        /* \"@openzeppelin/contracts/token/ERC20/utils/SafeERC20.sol\":5615:5634  address(token).call */\n      0xffffffffffffffffffffffffffffffffffffffff\n      and\n        /* \"@openzeppelin/contracts/token/ERC20/utils/SafeERC20.sol\":5635:5639  data */\n      dup5\n        /* \"@openzeppelin/contracts/token/ERC20/utils/SafeERC20.sol\":5615:5640  address(token).call(data) */\n      mload(0x40)\n      tag_294\n      swap2\n      swap1\n      tag_295\n      jump\t// in\n    tag_294:\n      0x00\n      mload(0x40)\n      dup1\n      dup4\n      sub\n      dup2\n      0x00\n      dup7\n      gas\n      call\n      swap2\n      pop\n      pop\n      returndatasize\n      dup1\n      0x00\n      dup2\n      eq\n      tag_298\n      jumpi\n      mload(0x40)\n      swap2\n      pop\n      and(add(returndatasize, 0x3f), not(0x1f))\n      dup3\n      add\n      0x40\n      mstore\n      returndatasize\n      dup3\n      mstore\n      returndatasize\n      0x00\n      0x20\n      dup5\n      add\n      returndatacopy\n      jump(tag_297)\n    tag_298:\n      0x60\n      swap2\n      pop\n    tag_297:\n      pop\n        /* \"@openzeppelin/contracts/token/ERC20/utils/SafeERC20.sol\":5573:5640  (bool success, bytes memory returndata) = address(token).call(data) */\n      swap2\n      pop\n      swap2\n      pop\n        /* \"@openzeppelin/contracts/token/ERC20/utils/SafeERC20.sol\":5657:5664  success */\n      dup2\n        /* \"@openzeppelin/contracts/token/ERC20/utils/SafeERC20.sol\":5657:5726  success && (returndata.length == 0 || abi.decode(returndata, (bool))) */\n      dup1\n      iszero\n      tag_299\n      jumpi\n      pop\n        /* \"@openzeppelin/contracts/token/ERC20/utils/SafeERC20.sol\":5690:5691  0 */\n      0x00\n        /* \"@openzeppelin/contracts/token/ERC20/utils/SafeERC20.sol\":5669:5679  returndata */\n      dup2\n        /* \"@openzeppelin/contracts/token/ERC20/utils/SafeERC20.sol\":5669:5686  returndata.length */\n      mload\n        /* \"@openzeppelin/contracts/token/ERC20/utils/SafeERC20.sol\":5669:5691  returndata.length == 0 */\n      eq\n        /* \"@openzeppelin/contracts/token/ERC20/utils/SafeERC20.sol\":5669:5725  returndata.length == 0 || abi.decode(returndata, (bool)) */\n      dup1\n      tag_300\n      jumpi\n      pop\n        /* \"@openzeppelin/contracts/token/ERC20/utils/SafeERC20.sol\":5706:5716  returndata */\n      dup1\n        /* \"@openzeppelin/contracts/token/ERC20/utils/SafeERC20.sol\":5695:5725  abi.decode(returndata, (bool)) */\n      dup1\n      0x20\n      add\n      swap1\n      mload\n      dup2\n      add\n      swap1\n      tag_301\n      swap2\n      swap1\n      tag_277\n      jump\t// in\n    tag_301:\n        /* \"@openzeppelin/contracts/token/ERC20/utils/SafeERC20.sol\":5669:5725  returndata.length == 0 || abi.decode(returndata, (bool)) */\n    tag_300:\n        /* \"@openzeppelin/contracts/token/ERC20/utils/SafeERC20.sol\":5657:5726  success && (returndata.length == 0 || abi.decode(returndata, (bool))) */\n    tag_299:\n        /* \"@openzeppelin/contracts/token/ERC20/utils/SafeERC20.sol\":5657:5760  success && (returndata.length == 0 || abi.decode(returndata, (bool))) && address(token).code.length > 0 */\n      dup1\n      iszero\n      tag_302\n      jumpi\n      pop\n        /* \"@openzeppelin/contracts/token/ERC20/utils/SafeERC20.sol\":5759:5760  0 */\n      0x00\n        /* \"@openzeppelin/contracts/token/ERC20/utils/SafeERC20.sol\":5738:5743  token */\n      dup6\n        /* \"@openzeppelin/contracts/token/ERC20/utils/SafeERC20.sol\":5730:5756  address(token).code.length */\n      0xffffffffffffffffffffffffffffffffffffffff\n      and\n      extcodesize\n        /* \"@openzeppelin/contracts/token/ERC20/utils/SafeERC20.sol\":5730:5760  address(token).code.length > 0 */\n      gt\n        /* \"@openzeppelin/contracts/token/ERC20/utils/SafeERC20.sol\":5657:5760  success && (returndata.length == 0 || abi.decode(returndata, (bool))) && address(token).code.length > 0 */\n    tag_302:\n        /* \"@openzeppelin/contracts/token/ERC20/utils/SafeERC20.sol\":5650:5760  return success && (returndata.length == 0 || abi.decode(returndata, (bool))) && address(token).code.length > 0 */\n      swap3\n      pop\n      pop\n      pop\n        /* \"@openzeppelin/contracts/token/ERC20/utils/SafeERC20.sol\":5189:5767  function _callOptionalReturnBool(IERC20 token, bytes memory data) private returns (bool) {... */\n      swap3\n      swap2\n      pop\n      pop\n      jump\t// out\n        /* \"@openzeppelin/contracts/utils/Address.sol\":3180:3572  function functionCallWithValue(address target, bytes memory data, uint256 value) internal returns (bytes memory) {... */\n    tag_292:\n        /* \"@openzeppelin/contracts/utils/Address.sol\":3279:3291  bytes memory */\n      0x60\n        /* \"@openzeppelin/contracts/utils/Address.sol\":3331:3336  value */\n      dup2\n        /* \"@openzeppelin/contracts/utils/Address.sol\":3307:3328  address(this).balance */\n      selfbalance\n        /* \"@openzeppelin/contracts/utils/Address.sol\":3307:3336  address(this).balance < value */\n      lt\n        /* \"@openzeppelin/contracts/utils/Address.sol\":3303:3411  if (address(this).balance < value) {... */\n      iszero\n      tag_304\n      jumpi\n        /* \"@openzeppelin/contracts/utils/Address.sol\":3394:3398  this */\n      address\n        /* \"@openzeppelin/contracts/utils/Address.sol\":3359:3400  AddressInsufficientBalance(address(this)) */\n      mload(0x40)\n      0xcd78605900000000000000000000000000000000000000000000000000000000\n      dup2\n      mstore\n      0x04\n      add\n      tag_305\n      swap2\n      swap1\n      tag_58\n      jump\t// in\n    tag_305:\n      mload(0x40)\n      dup1\n      swap2\n      sub\n      swap1\n      revert\n        /* \"@openzeppelin/contracts/utils/Address.sol\":3303:3411  if (address(this).balance < value) {... */\n    tag_304:\n        /* \"@openzeppelin/contracts/utils/Address.sol\":3421:3433  bool success */\n      0x00\n        /* \"@openzeppelin/contracts/utils/Address.sol\":3435:3458  bytes memory returndata */\n      dup1\n        /* \"@openzeppelin/contracts/utils/Address.sol\":3462:3468  target */\n      dup6\n        /* \"@openzeppelin/contracts/utils/Address.sol\":3462:3473  target.call */\n      0xffffffffffffffffffffffffffffffffffffffff\n      and\n        /* \"@openzeppelin/contracts/utils/Address.sol\":3481:3486  value */\n      dup5\n        /* \"@openzeppelin/contracts/utils/Address.sol\":3488:3492  data */\n      dup7\n        /* \"@openzeppelin/contracts/utils/Address.sol\":3462:3493  target.call{value: value}(data) */\n      mload(0x40)\n      tag_306\n      swap2\n      swap1\n      tag_295\n      jump\t// in\n    tag_306:\n      0x00\n      mload(0x40)\n      dup1\n      dup4\n      sub\n      dup2\n      dup6\n      dup8\n      gas\n      call\n      swap3\n      pop\n      pop\n      pop\n      returndatasize\n      dup1\n      0x00\n      dup2\n      eq\n      tag_309\n      jumpi\n      mload(0x40)\n      swap2\n      pop\n      and(add(returndatasize, 0x3f), not(0x1f))\n      dup3\n      add\n      0x40\n      mstore\n      returndatasize\n      dup3\n      mstore\n      returndatasize\n      0x00\n      0x20\n      dup5\n      add\n      returndatacopy\n      jump(tag_308)\n    tag_309:\n      0x60\n      swap2\n      pop\n    tag_308:\n      pop\n        /* \"@openzeppelin/contracts/utils/Address.sol\":3420:3493  (bool success, bytes memory returndata) = target.call{value: value}(data) */\n      swap2\n      pop\n      swap2\n      pop\n        /* \"@openzeppelin/contracts/utils/Address.sol\":3510:3565  verifyCallResultFromTarget(target, success, returndata) */\n      tag_310\n        /* \"@openzeppelin/contracts/utils/Address.sol\":3537:3543  target */\n      dup7\n        /* \"@openzeppelin/contracts/utils/Address.sol\":3545:3552  success */\n      dup4\n        /* \"@openzeppelin/contracts/utils/Address.sol\":3554:3564  returndata */\n      dup4\n        /* \"@openzeppelin/contracts/utils/Address.sol\":3510:3536  verifyCallResultFromTarget */\n      tag_311\n        /* \"@openzeppelin/contracts/utils/Address.sol\":3510:3565  verifyCallResultFromTarget(target, success, returndata) */\n      jump\t// in\n    tag_310:\n        /* \"@openzeppelin/contracts/utils/Address.sol\":3503:3565  return verifyCallResultFromTarget(target, success, returndata) */\n      swap3\n      pop\n      pop\n      pop\n        /* \"@openzeppelin/contracts/utils/Address.sol\":3180:3572  function functionCallWithValue(address target, bytes memory data, uint256 value) internal returns (bytes memory) {... */\n      swap4\n      swap3\n      pop\n      pop\n      pop\n      jump\t// out\n        /* \"@openzeppelin/contracts/utils/Address.sol\":4625:5207  function verifyCallResultFromTarget(... */\n    tag_311:\n        /* \"@openzeppelin/contracts/utils/Address.sol\":4769:4781  bytes memory */\n      0x60\n        /* \"@openzeppelin/contracts/utils/Address.sol\":4798:4805  success */\n      dup3\n        /* \"@openzeppelin/contracts/utils/Address.sol\":4793:5201  if (!success) {... */\n      tag_313\n      jumpi\n        /* \"@openzeppelin/contracts/utils/Address.sol\":4821:4840  _revert(returndata) */\n      tag_314\n        /* \"@openzeppelin/contracts/utils/Address.sol\":4829:4839  returndata */\n      dup3\n        /* \"@openzeppelin/contracts/utils/Address.sol\":4821:4828  _revert */\n      tag_315\n        /* \"@openzeppelin/contracts/utils/Address.sol\":4821:4840  _revert(returndata) */\n      jump\t// in\n    tag_314:\n        /* \"@openzeppelin/contracts/utils/Address.sol\":4793:5201  if (!success) {... */\n      jump(tag_316)\n    tag_313:\n        /* \"@openzeppelin/contracts/utils/Address.sol\":5066:5067  0 */\n      0x00\n        /* \"@openzeppelin/contracts/utils/Address.sol\":5045:5055  returndata */\n      dup3\n        /* \"@openzeppelin/contracts/utils/Address.sol\":5045:5062  returndata.length */\n      mload\n        /* \"@openzeppelin/contracts/utils/Address.sol\":5045:5067  returndata.length == 0 */\n      eq\n        /* \"@openzeppelin/contracts/utils/Address.sol\":5045:5094  returndata.length == 0 && target.code.length == 0 */\n      dup1\n      iszero\n      tag_317\n      jumpi\n      pop\n        /* \"@openzeppelin/contracts/utils/Address.sol\":5093:5094  0 */\n      0x00\n        /* \"@openzeppelin/contracts/utils/Address.sol\":5071:5077  target */\n      dup5\n        /* \"@openzeppelin/contracts/utils/Address.sol\":5071:5089  target.code.length */\n      0xffffffffffffffffffffffffffffffffffffffff\n      and\n      extcodesize\n        /* \"@openzeppelin/contracts/utils/Address.sol\":5071:5094  target.code.length == 0 */\n      eq\n        /* \"@openzeppelin/contracts/utils/Address.sol\":5045:5094  returndata.length == 0 && target.code.length == 0 */\n    tag_317:\n        /* \"@openzeppelin/contracts/utils/Address.sol\":5041:5160  if (returndata.length == 0 && target.code.length == 0) {... */\n      iszero\n      tag_318\n      jumpi\n        /* \"@openzeppelin/contracts/utils/Address.sol\":5138:5144  target */\n      dup4\n        /* \"@openzeppelin/contracts/utils/Address.sol\":5121:5145  AddressEmptyCode(target) */\n      mload(0x40)\n      0x9996b31500000000000000000000000000000000000000000000000000000000\n      dup2\n      mstore\n      0x04\n      add\n      tag_319\n      swap2\n      swap1\n      tag_58\n      jump\t// in\n    tag_319:\n      mload(0x40)\n      dup1\n      swap2\n      sub\n      swap1\n      revert\n        /* \"@openzeppelin/contracts/utils/Address.sol\":5041:5160  if (returndata.length == 0 && target.code.length == 0) {... */\n    tag_318:\n        /* \"@openzeppelin/contracts/utils/Address.sol\":5180:5190  returndata */\n      dup2\n        /* \"@openzeppelin/contracts/utils/Address.sol\":5173:5190  return returndata */\n      swap1\n      pop\n      jump(tag_312)\n        /* \"@openzeppelin/contracts/utils/Address.sol\":4793:5201  if (!success) {... */\n    tag_316:\n        /* \"@openzeppelin/contracts/utils/Address.sol\":4625:5207  function verifyCallResultFromTarget(... */\n    tag_312:\n      swap4\n      swap3\n      pop\n      pop\n      pop\n      jump\t// out\n        /* \"@openzeppelin/contracts/utils/Address.sol\":5743:6259  function _revert(bytes memory returndata) private pure {... */\n    tag_315:\n        /* \"@openzeppelin/contracts/utils/Address.sol\":5894:5895  0 */\n      0x00\n        /* \"@openzeppelin/contracts/utils/Address.sol\":5874:5884  returndata */\n      dup2\n        /* \"@openzeppelin/contracts/utils/Address.sol\":5874:5891  returndata.length */\n      mload\n        /* \"@openzeppelin/contracts/utils/Address.sol\":5874:5895  returndata.length > 0 */\n      gt\n        /* \"@openzeppelin/contracts/utils/Address.sol\":5870:6253  if (returndata.length > 0) {... */\n      iszero\n      tag_321\n      jumpi\n        /* \"@openzeppelin/contracts/utils/Address.sol\":6102:6112  returndata */\n      dup1\n        /* \"@openzeppelin/contracts/utils/Address.sol\":6096:6113  mload(returndata) */\n      mload\n        /* \"@openzeppelin/contracts/utils/Address.sol\":6158:6173  returndata_size */\n      dup1\n        /* \"@openzeppelin/contracts/utils/Address.sol\":6145:6155  returndata */\n      dup3\n        /* \"@openzeppelin/contracts/utils/Address.sol\":6141:6143  32 */\n      0x20\n        /* \"@openzeppelin/contracts/utils/Address.sol\":6137:6156  add(32, returndata) */\n      add\n        /* \"@openzeppelin/contracts/utils/Address.sol\":6130:6174  revert(add(32, returndata), returndata_size) */\n      revert\n        /* \"@openzeppelin/contracts/utils/Address.sol\":5870:6253  if (returndata.length > 0) {... */\n    tag_321:\n        /* \"@openzeppelin/contracts/utils/Address.sol\":6225:6242  FailedInnerCall() */\n      mload(0x40)\n      0x1425ea4200000000000000000000000000000000000000000000000000000000\n      dup2\n      mstore\n      0x04\n      add\n      mload(0x40)\n      dup1\n      swap2\n      sub\n      swap1\n      revert\n        /* \"#utility.yul\":7:82   */\n    tag_323:\n        /* \"#utility.yul\":40:46   */\n      0x00\n        /* \"#utility.yul\":73:75   */\n      0x40\n        /* \"#utility.yul\":67:76   */\n      mload\n        /* \"#utility.yul\":57:76   */\n      swap1\n      pop\n        /* \"#utility.yul\":7:82   */\n      swap1\n      jump\t// out\n        /* \"#utility.yul\":88:205   */\n    tag_324:\n        /* \"#utility.yul\":197:198   */\n      0x00\n        /* \"#utility.yul\":194:195   */\n      dup1\n        /* \"#utility.yul\":187:199   */\n      revert\n        /* \"#utility.yul\":211:328   */\n    tag_325:\n        /* \"#utility.yul\":320:321   */\n      0x00\n        /* \"#utility.yul\":317:318   */\n      dup1\n        /* \"#utility.yul\":310:322   */\n      revert\n        /* \"#utility.yul\":334:411   */\n    tag_326:\n        /* \"#utility.yul\":371:378   */\n      0x00\n        /* \"#utility.yul\":400:405   */\n      dup2\n        /* \"#utility.yul\":389:405   */\n      swap1\n      pop\n        /* \"#utility.yul\":334:411   */\n      swap2\n      swap1\n      pop\n      jump\t// out\n        /* \"#utility.yul\":417:539   */\n    tag_327:\n        /* \"#utility.yul\":490:514   */\n      tag_437\n        /* \"#utility.yul\":508:513   */\n      dup2\n        /* \"#utility.yul\":490:514   */\n      tag_326\n      jump\t// in\n    tag_437:\n        /* \"#utility.yul\":483:488   */\n      dup2\n        /* \"#utility.yul\":480:515   */\n      eq\n        /* \"#utility.yul\":470:533   */\n      tag_438\n      jumpi\n        /* \"#utility.yul\":529:530   */\n      0x00\n        /* \"#utility.yul\":526:527   */\n      dup1\n        /* \"#utility.yul\":519:531   */\n      revert\n        /* \"#utility.yul\":470:533   */\n    tag_438:\n        /* \"#utility.yul\":417:539   */\n      pop\n      jump\t// out\n        /* \"#utility.yul\":545:684   */\n    tag_328:\n        /* \"#utility.yul\":591:596   */\n      0x00\n        /* \"#utility.yul\":629:635   */\n      dup2\n        /* \"#utility.yul\":616:636   */\n      calldataload\n        /* \"#utility.yul\":607:636   */\n      swap1\n      pop\n        /* \"#utility.yul\":645:678   */\n      tag_440\n        /* \"#utility.yul\":672:677   */\n      dup2\n        /* \"#utility.yul\":645:678   */\n      tag_327\n      jump\t// in\n    tag_440:\n        /* \"#utility.yul\":545:684   */\n      swap3\n      swap2\n      pop\n      pop\n      jump\t// out\n        /* \"#utility.yul\":690:1164   */\n    tag_30:\n        /* \"#utility.yul\":758:764   */\n      0x00\n        /* \"#utility.yul\":766:772   */\n      dup1\n        /* \"#utility.yul\":815:817   */\n      0x40\n        /* \"#utility.yul\":803:812   */\n      dup4\n        /* \"#utility.yul\":794:801   */\n      dup6\n        /* \"#utility.yul\":790:813   */\n      sub\n        /* \"#utility.yul\":786:818   */\n      slt\n        /* \"#utility.yul\":783:902   */\n      iszero\n      tag_442\n      jumpi\n        /* \"#utility.yul\":821:900   */\n      tag_443\n      tag_324\n      jump\t// in\n    tag_443:\n        /* \"#utility.yul\":783:902   */\n    tag_442:\n        /* \"#utility.yul\":941:942   */\n      0x00\n        /* \"#utility.yul\":966:1019   */\n      tag_444\n        /* \"#utility.yul\":1011:1018   */\n      dup6\n        /* \"#utility.yul\":1002:1008   */\n      dup3\n        /* \"#utility.yul\":991:1000   */\n      dup7\n        /* \"#utility.yul\":987:1009   */\n      add\n        /* \"#utility.yul\":966:1019   */\n      tag_328\n      jump\t// in\n    tag_444:\n        /* \"#utility.yul\":956:1019   */\n      swap3\n      pop\n        /* \"#utility.yul\":912:1029   */\n      pop\n        /* \"#utility.yul\":1068:1070   */\n      0x20\n        /* \"#utility.yul\":1094:1147   */\n      tag_445\n        /* \"#utility.yul\":1139:1146   */\n      dup6\n        /* \"#utility.yul\":1130:1136   */\n      dup3\n        /* \"#utility.yul\":1119:1128   */\n      dup7\n        /* \"#utility.yul\":1115:1137   */\n      add\n        /* \"#utility.yul\":1094:1147   */\n      tag_328\n      jump\t// in\n    tag_445:\n        /* \"#utility.yul\":1084:1147   */\n      swap2\n      pop\n        /* \"#utility.yul\":1039:1157   */\n      pop\n        /* \"#utility.yul\":690:1164   */\n      swap3\n      pop\n      swap3\n      swap1\n      pop\n      jump\t// out\n        /* \"#utility.yul\":1170:1296   */\n    tag_329:\n        /* \"#utility.yul\":1207:1214   */\n      0x00\n        /* \"#utility.yul\":1247:1289   */\n      0xffffffffffffffffffffffffffffffffffffffff\n        /* \"#utility.yul\":1240:1245   */\n      dup3\n        /* \"#utility.yul\":1236:1290   */\n      and\n        /* \"#utility.yul\":1225:1290   */\n      swap1\n      pop\n        /* \"#utility.yul\":1170:1296   */\n      swap2\n      swap1\n      pop\n      jump\t// out\n        /* \"#utility.yul\":1302:1362   */\n    tag_330:\n        /* \"#utility.yul\":1330:1333   */\n      0x00\n        /* \"#utility.yul\":1351:1356   */\n      dup2\n        /* \"#utility.yul\":1344:1356   */\n      swap1\n      pop\n        /* \"#utility.yul\":1302:1362   */\n      swap2\n      swap1\n      pop\n      jump\t// out\n        /* \"#utility.yul\":1368:1510   */\n    tag_331:\n        /* \"#utility.yul\":1418:1427   */\n      0x00\n        /* \"#utility.yul\":1451:1504   */\n      tag_449\n        /* \"#utility.yul\":1469:1503   */\n      tag_450\n        /* \"#utility.yul\":1478:1502   */\n      tag_451\n        /* \"#utility.yul\":1496:1501   */\n      dup5\n        /* \"#utility.yul\":1478:1502   */\n      tag_329\n      jump\t// in\n    tag_451:\n        /* \"#utility.yul\":1469:1503   */\n      tag_330\n      jump\t// in\n    tag_450:\n        /* \"#utility.yul\":1451:1504   */\n      tag_329\n      jump\t// in\n    tag_449:\n        /* \"#utility.yul\":1438:1504   */\n      swap1\n      pop\n        /* \"#utility.yul\":1368:1510   */\n      swap2\n      swap1\n      pop\n      jump\t// out\n        /* \"#utility.yul\":1516:1642   */\n    tag_332:\n        /* \"#utility.yul\":1566:1575   */\n      0x00\n        /* \"#utility.yul\":1599:1636   */\n      tag_453\n        /* \"#utility.yul\":1630:1635   */\n      dup3\n        /* \"#utility.yul\":1599:1636   */\n      tag_331\n      jump\t// in\n    tag_453:\n        /* \"#utility.yul\":1586:1636   */\n      swap1\n      pop\n        /* \"#utility.yul\":1516:1642   */\n      swap2\n      swap1\n      pop\n      jump\t// out\n        /* \"#utility.yul\":1648:1807   */\n    tag_333:\n        /* \"#utility.yul\":1731:1740   */\n      0x00\n        /* \"#utility.yul\":1764:1801   */\n      tag_455\n        /* \"#utility.yul\":1795:1800   */\n      dup3\n        /* \"#utility.yul\":1764:1801   */\n      tag_332\n      jump\t// in\n    tag_455:\n        /* \"#utility.yul\":1751:1801   */\n      swap1\n      pop\n        /* \"#utility.yul\":1648:1807   */\n      swap2\n      swap1\n      pop\n      jump\t// out\n        /* \"#utility.yul\":1813:2010   */\n    tag_334:\n        /* \"#utility.yul\":1933:2003   */\n      tag_457\n        /* \"#utility.yul\":1997:2002   */\n      dup2\n        /* \"#utility.yul\":1933:2003   */\n      tag_333\n      jump\t// in\n    tag_457:\n        /* \"#utility.yul\":1928:1931   */\n      dup3\n        /* \"#utility.yul\":1921:2004   */\n      mstore\n        /* \"#utility.yul\":1813:2010   */\n      pop\n      pop\n      jump\t// out\n        /* \"#utility.yul\":2016:2304   */\n    tag_36:\n        /* \"#utility.yul\":2142:2146   */\n      0x00\n        /* \"#utility.yul\":2180:2182   */\n      0x20\n        /* \"#utility.yul\":2169:2178   */\n      dup3\n        /* \"#utility.yul\":2165:2183   */\n      add\n        /* \"#utility.yul\":2157:2183   */\n      swap1\n      pop\n        /* \"#utility.yul\":2193:2297   */\n      tag_459\n        /* \"#utility.yul\":2294:2295   */\n      0x00\n        /* \"#utility.yul\":2283:2292   */\n      dup4\n        /* \"#utility.yul\":2279:2296   */\n      add\n        /* \"#utility.yul\":2270:2276   */\n      dup5\n        /* \"#utility.yul\":2193:2297   */\n      tag_334\n      jump\t// in\n    tag_459:\n        /* \"#utility.yul\":2016:2304   */\n      swap3\n      swap2\n      pop\n      pop\n      jump\t// out\n        /* \"#utility.yul\":2310:2462   */\n    tag_335:\n        /* \"#utility.yul\":2386:2395   */\n      0x00\n        /* \"#utility.yul\":2419:2456   */\n      tag_461\n        /* \"#utility.yul\":2450:2455   */\n      dup3\n        /* \"#utility.yul\":2419:2456   */\n      tag_332\n      jump\t// in\n    tag_461:\n        /* \"#utility.yul\":2406:2456   */\n      swap1\n      pop\n        /* \"#utility.yul\":2310:2462   */\n      swap2\n      swap1\n      pop\n      jump\t// out\n        /* \"#utility.yul\":2468:2651   */\n    tag_336:\n        /* \"#utility.yul\":2581:2644   */\n      tag_463\n        /* \"#utility.yul\":2638:2643   */\n      dup2\n        /* \"#utility.yul\":2581:2644   */\n      tag_335\n      jump\t// in\n    tag_463:\n        /* \"#utility.yul\":2576:2579   */\n      dup3\n        /* \"#utility.yul\":2569:2645   */\n      mstore\n        /* \"#utility.yul\":2468:2651   */\n      pop\n      pop\n      jump\t// out\n        /* \"#utility.yul\":2657:2931   */\n    tag_41:\n        /* \"#utility.yul\":2776:2780   */\n      0x00\n        /* \"#utility.yul\":2814:2816   */\n      0x20\n        /* \"#utility.yul\":2803:2812   */\n      dup3\n        /* \"#utility.yul\":2799:2817   */\n      add\n        /* \"#utility.yul\":2791:2817   */\n      swap1\n      pop\n        /* \"#utility.yul\":2827:2924   */\n      tag_465\n        /* \"#utility.yul\":2921:2922   */\n      0x00\n        /* \"#utility.yul\":2910:2919   */\n      dup4\n        /* \"#utility.yul\":2906:2923   */\n      add\n        /* \"#utility.yul\":2897:2903   */\n      dup5\n        /* \"#utility.yul\":2827:2924   */\n      tag_336\n      jump\t// in\n    tag_465:\n        /* \"#utility.yul\":2657:2931   */\n      swap3\n      swap2\n      pop\n      pop\n      jump\t// out\n        /* \"#utility.yul\":2937:3054   */\n    tag_337:\n        /* \"#utility.yul\":3046:3047   */\n      0x00\n        /* \"#utility.yul\":3043:3044   */\n      dup1\n        /* \"#utility.yul\":3036:3048   */\n      revert\n        /* \"#utility.yul\":3060:3162   */\n    tag_338:\n        /* \"#utility.yul\":3101:3107   */\n      0x00\n        /* \"#utility.yul\":3152:3154   */\n      0x1f\n        /* \"#utility.yul\":3148:3155   */\n      not\n        /* \"#utility.yul\":3143:3145   */\n      0x1f\n        /* \"#utility.yul\":3136:3141   */\n      dup4\n        /* \"#utility.yul\":3132:3146   */\n      add\n        /* \"#utility.yul\":3128:3156   */\n      and\n        /* \"#utility.yul\":3118:3156   */\n      swap1\n      pop\n        /* \"#utility.yul\":3060:3162   */\n      swap2\n      swap1\n      pop\n      jump\t// out\n        /* \"#utility.yul\":3168:3348   */\n    tag_212:\n        /* \"#utility.yul\":3216:3293   */\n      0x4e487b7100000000000000000000000000000000000000000000000000000000\n        /* \"#utility.yul\":3213:3214   */\n      0x00\n        /* \"#utility.yul\":3206:3294   */\n      mstore\n        /* \"#utility.yul\":3313:3317   */\n      0x41\n        /* \"#utility.yul\":3310:3311   */\n      0x04\n        /* \"#utility.yul\":3303:3318   */\n      mstore\n        /* \"#utility.yul\":3337:3341   */\n      0x24\n        /* \"#utility.yul\":3334:3335   */\n      0x00\n        /* \"#utility.yul\":3327:3342   */\n      revert\n        /* \"#utility.yul\":3354:3635   */\n    tag_339:\n        /* \"#utility.yul\":3437:3464   */\n      tag_470\n        /* \"#utility.yul\":3459:3463   */\n      dup3\n        /* \"#utility.yul\":3437:3464   */\n      tag_338\n      jump\t// in\n    tag_470:\n        /* \"#utility.yul\":3429:3435   */\n      dup2\n        /* \"#utility.yul\":3425:3465   */\n      add\n        /* \"#utility.yul\":3567:3573   */\n      dup2\n        /* \"#utility.yul\":3555:3565   */\n      dup2\n        /* \"#utility.yul\":3552:3574   */\n      lt\n        /* \"#utility.yul\":3531:3549   */\n      0xffffffffffffffff\n        /* \"#utility.yul\":3519:3529   */\n      dup3\n        /* \"#utility.yul\":3516:3550   */\n      gt\n        /* \"#utility.yul\":3513:3575   */\n      or\n        /* \"#utility.yul\":3510:3598   */\n      iszero\n      tag_471\n      jumpi\n        /* \"#utility.yul\":3578:3596   */\n      tag_472\n      tag_212\n      jump\t// in\n    tag_472:\n        /* \"#utility.yul\":3510:3598   */\n    tag_471:\n        /* \"#utility.yul\":3618:3628   */\n      dup1\n        /* \"#utility.yul\":3614:3616   */\n      0x40\n        /* \"#utility.yul\":3607:3629   */\n      mstore\n        /* \"#utility.yul\":3397:3635   */\n      pop\n        /* \"#utility.yul\":3354:3635   */\n      pop\n      pop\n      jump\t// out\n        /* \"#utility.yul\":3641:3770   */\n    tag_340:\n        /* \"#utility.yul\":3675:3681   */\n      0x00\n        /* \"#utility.yul\":3702:3722   */\n      tag_474\n      tag_323\n      jump\t// in\n    tag_474:\n        /* \"#utility.yul\":3692:3722   */\n      swap1\n      pop\n        /* \"#utility.yul\":3731:3764   */\n      tag_475\n        /* \"#utility.yul\":3759:3763   */\n      dup3\n        /* \"#utility.yul\":3751:3757   */\n      dup3\n        /* \"#utility.yul\":3731:3764   */\n      tag_339\n      jump\t// in\n    tag_475:\n        /* \"#utility.yul\":3641:3770   */\n      swap2\n      swap1\n      pop\n      jump\t// out\n        /* \"#utility.yul\":3776:4087   */\n    tag_341:\n        /* \"#utility.yul\":3853:3857   */\n      0x00\n        /* \"#utility.yul\":3943:3961   */\n      0xffffffffffffffff\n        /* \"#utility.yul\":3935:3941   */\n      dup3\n        /* \"#utility.yul\":3932:3962   */\n      gt\n        /* \"#utility.yul\":3929:3985   */\n      iszero\n      tag_477\n      jumpi\n        /* \"#utility.yul\":3965:3983   */\n      tag_478\n      tag_212\n      jump\t// in\n    tag_478:\n        /* \"#utility.yul\":3929:3985   */\n    tag_477:\n        /* \"#utility.yul\":4015:4019   */\n      0x20\n        /* \"#utility.yul\":4007:4013   */\n      dup3\n        /* \"#utility.yul\":4003:4020   */\n      mul\n        /* \"#utility.yul\":3995:4020   */\n      swap1\n      pop\n        /* \"#utility.yul\":4075:4079   */\n      0x20\n        /* \"#utility.yul\":4069:4073   */\n      dup2\n        /* \"#utility.yul\":4065:4080   */\n      add\n        /* \"#utility.yul\":4057:4080   */\n      swap1\n      pop\n        /* \"#utility.yul\":3776:4087   */\n      swap2\n      swap1\n      pop\n      jump\t// out\n        /* \"#utility.yul\":4093:4210   */\n    tag_342:\n        /* \"#utility.yul\":4202:4203   */\n      0x00\n        /* \"#utility.yul\":4199:4200   */\n      dup1\n        /* \"#utility.yul\":4192:4204   */\n      revert\n        /* \"#utility.yul\":4233:4943   */\n    tag_343:\n        /* \"#utility.yul\":4329:4334   */\n      0x00\n        /* \"#utility.yul\":4354:4435   */\n      tag_481\n        /* \"#utility.yul\":4370:4434   */\n      tag_482\n        /* \"#utility.yul\":4427:4433   */\n      dup5\n        /* \"#utility.yul\":4370:4434   */\n      tag_341\n      jump\t// in\n    tag_482:\n        /* \"#utility.yul\":4354:4435   */\n      tag_340\n      jump\t// in\n    tag_481:\n        /* \"#utility.yul\":4345:4435   */\n      swap1\n      pop\n        /* \"#utility.yul\":4455:4460   */\n      dup1\n        /* \"#utility.yul\":4484:4490   */\n      dup4\n        /* \"#utility.yul\":4477:4482   */\n      dup3\n        /* \"#utility.yul\":4470:4491   */\n      mstore\n        /* \"#utility.yul\":4518:4522   */\n      0x20\n        /* \"#utility.yul\":4511:4516   */\n      dup3\n        /* \"#utility.yul\":4507:4523   */\n      add\n        /* \"#utility.yul\":4500:4523   */\n      swap1\n      pop\n        /* \"#utility.yul\":4571:4575   */\n      0x20\n        /* \"#utility.yul\":4563:4569   */\n      dup5\n        /* \"#utility.yul\":4559:4576   */\n      mul\n        /* \"#utility.yul\":4551:4557   */\n      dup4\n        /* \"#utility.yul\":4547:4577   */\n      add\n        /* \"#utility.yul\":4600:4603   */\n      dup6\n        /* \"#utility.yul\":4592:4598   */\n      dup2\n        /* \"#utility.yul\":4589:4604   */\n      gt\n        /* \"#utility.yul\":4586:4708   */\n      iszero\n      tag_483\n      jumpi\n        /* \"#utility.yul\":4619:4698   */\n      tag_484\n      tag_342\n      jump\t// in\n    tag_484:\n        /* \"#utility.yul\":4586:4708   */\n    tag_483:\n        /* \"#utility.yul\":4734:4740   */\n      dup4\n        /* \"#utility.yul\":4717:4937   */\n    tag_485:\n        /* \"#utility.yul\":4751:4757   */\n      dup2\n        /* \"#utility.yul\":4746:4749   */\n      dup2\n        /* \"#utility.yul\":4743:4758   */\n      lt\n        /* \"#utility.yul\":4717:4937   */\n      iszero\n      tag_487\n      jumpi\n        /* \"#utility.yul\":4826:4829   */\n      dup1\n        /* \"#utility.yul\":4855:4892   */\n      tag_488\n        /* \"#utility.yul\":4888:4891   */\n      dup9\n        /* \"#utility.yul\":4876:4886   */\n      dup3\n        /* \"#utility.yul\":4855:4892   */\n      tag_328\n      jump\t// in\n    tag_488:\n        /* \"#utility.yul\":4850:4853   */\n      dup5\n        /* \"#utility.yul\":4843:4893   */\n      mstore\n        /* \"#utility.yul\":4922:4926   */\n      0x20\n        /* \"#utility.yul\":4917:4920   */\n      dup5\n        /* \"#utility.yul\":4913:4927   */\n      add\n        /* \"#utility.yul\":4906:4927   */\n      swap4\n      pop\n        /* \"#utility.yul\":4793:4937   */\n      pop\n        /* \"#utility.yul\":4777:4781   */\n      0x20\n        /* \"#utility.yul\":4772:4775   */\n      dup2\n        /* \"#utility.yul\":4768:4782   */\n      add\n        /* \"#utility.yul\":4761:4782   */\n      swap1\n      pop\n        /* \"#utility.yul\":4717:4937   */\n      jump(tag_485)\n    tag_487:\n        /* \"#utility.yul\":4721:4742   */\n      pop\n        /* \"#utility.yul\":4335:4943   */\n      pop\n      pop\n        /* \"#utility.yul\":4233:4943   */\n      swap4\n      swap3\n      pop\n      pop\n      pop\n      jump\t// out\n        /* \"#utility.yul\":4966:5336   */\n    tag_344:\n        /* \"#utility.yul\":5037:5042   */\n      0x00\n        /* \"#utility.yul\":5086:5089   */\n      dup3\n        /* \"#utility.yul\":5079:5083   */\n      0x1f\n        /* \"#utility.yul\":5071:5077   */\n      dup4\n        /* \"#utility.yul\":5067:5084   */\n      add\n        /* \"#utility.yul\":5063:5090   */\n      slt\n        /* \"#utility.yul\":5053:5175   */\n      tag_490\n      jumpi\n        /* \"#utility.yul\":5094:5173   */\n      tag_491\n      tag_337\n      jump\t// in\n    tag_491:\n        /* \"#utility.yul\":5053:5175   */\n    tag_490:\n        /* \"#utility.yul\":5211:5217   */\n      dup2\n        /* \"#utility.yul\":5198:5218   */\n      calldataload\n        /* \"#utility.yul\":5236:5330   */\n      tag_492\n        /* \"#utility.yul\":5326:5329   */\n      dup5\n        /* \"#utility.yul\":5318:5324   */\n      dup3\n        /* \"#utility.yul\":5311:5315   */\n      0x20\n        /* \"#utility.yul\":5303:5309   */\n      dup7\n        /* \"#utility.yul\":5299:5316   */\n      add\n        /* \"#utility.yul\":5236:5330   */\n      tag_343\n      jump\t// in\n    tag_492:\n        /* \"#utility.yul\":5227:5330   */\n      swap2\n      pop\n        /* \"#utility.yul\":5043:5336   */\n      pop\n        /* \"#utility.yul\":4966:5336   */\n      swap3\n      swap2\n      pop\n      pop\n      jump\t// out\n        /* \"#utility.yul\":5342:6026   */\n    tag_45:\n        /* \"#utility.yul\":5435:5441   */\n      0x00\n        /* \"#utility.yul\":5443:5449   */\n      dup1\n        /* \"#utility.yul\":5492:5494   */\n      0x40\n        /* \"#utility.yul\":5480:5489   */\n      dup4\n        /* \"#utility.yul\":5471:5478   */\n      dup6\n        /* \"#utility.yul\":5467:5490   */\n      sub\n        /* \"#utility.yul\":5463:5495   */\n      slt\n        /* \"#utility.yul\":5460:5579   */\n      iszero\n      tag_494\n      jumpi\n        /* \"#utility.yul\":5498:5577   */\n      tag_495\n      tag_324\n      jump\t// in\n    tag_495:\n        /* \"#utility.yul\":5460:5579   */\n    tag_494:\n        /* \"#utility.yul\":5618:5619   */\n      0x00\n        /* \"#utility.yul\":5643:5696   */\n      tag_496\n        /* \"#utility.yul\":5688:5695   */\n      dup6\n        /* \"#utility.yul\":5679:5685   */\n      dup3\n        /* \"#utility.yul\":5668:5677   */\n      dup7\n        /* \"#utility.yul\":5664:5686   */\n      add\n        /* \"#utility.yul\":5643:5696   */\n      tag_328\n      jump\t// in\n    tag_496:\n        /* \"#utility.yul\":5633:5696   */\n      swap3\n      pop\n        /* \"#utility.yul\":5589:5706   */\n      pop\n        /* \"#utility.yul\":5773:5775   */\n      0x20\n        /* \"#utility.yul\":5762:5771   */\n      dup4\n        /* \"#utility.yul\":5758:5776   */\n      add\n        /* \"#utility.yul\":5745:5777   */\n      calldataload\n        /* \"#utility.yul\":5804:5822   */\n      0xffffffffffffffff\n        /* \"#utility.yul\":5796:5802   */\n      dup2\n        /* \"#utility.yul\":5793:5823   */\n      gt\n        /* \"#utility.yul\":5790:5907   */\n      iszero\n      tag_497\n      jumpi\n        /* \"#utility.yul\":5826:5905   */\n      tag_498\n      tag_325\n      jump\t// in\n    tag_498:\n        /* \"#utility.yul\":5790:5907   */\n    tag_497:\n        /* \"#utility.yul\":5931:6009   */\n      tag_499\n        /* \"#utility.yul\":6001:6008   */\n      dup6\n        /* \"#utility.yul\":5992:5998   */\n      dup3\n        /* \"#utility.yul\":5981:5990   */\n      dup7\n        /* \"#utility.yul\":5977:5999   */\n      add\n        /* \"#utility.yul\":5931:6009   */\n      tag_344\n      jump\t// in\n    tag_499:\n        /* \"#utility.yul\":5921:6009   */\n      swap2\n      pop\n        /* \"#utility.yul\":5716:6019   */\n      pop\n        /* \"#utility.yul\":5342:6026   */\n      swap3\n      pop\n      swap3\n      swap1\n      pop\n      jump\t// out\n        /* \"#utility.yul\":6032:6172   */\n    tag_345:\n        /* \"#utility.yul\":6096:6105   */\n      0x00\n        /* \"#utility.yul\":6129:6166   */\n      tag_501\n        /* \"#utility.yul\":6160:6165   */\n      dup3\n        /* \"#utility.yul\":6129:6166   */\n      tag_332\n      jump\t// in\n    tag_501:\n        /* \"#utility.yul\":6116:6166   */\n      swap1\n      pop\n        /* \"#utility.yul\":6032:6172   */\n      swap2\n      swap1\n      pop\n      jump\t// out\n        /* \"#utility.yul\":6178:6337   */\n    tag_346:\n        /* \"#utility.yul\":6279:6330   */\n      tag_503\n        /* \"#utility.yul\":6324:6329   */\n      dup2\n        /* \"#utility.yul\":6279:6330   */\n      tag_345\n      jump\t// in\n    tag_503:\n        /* \"#utility.yul\":6274:6277   */\n      dup3\n        /* \"#utility.yul\":6267:6331   */\n      mstore\n        /* \"#utility.yul\":6178:6337   */\n      pop\n      pop\n      jump\t// out\n        /* \"#utility.yul\":6343:6593   */\n    tag_51:\n        /* \"#utility.yul\":6450:6454   */\n      0x00\n        /* \"#utility.yul\":6488:6490   */\n      0x20\n        /* \"#utility.yul\":6477:6486   */\n      dup3\n        /* \"#utility.yul\":6473:6491   */\n      add\n        /* \"#utility.yul\":6465:6491   */\n      swap1\n      pop\n        /* \"#utility.yul\":6501:6586   */\n      tag_505\n        /* \"#utility.yul\":6583:6584   */\n      0x00\n        /* \"#utility.yul\":6572:6581   */\n      dup4\n        /* \"#utility.yul\":6568:6585   */\n      add\n        /* \"#utility.yul\":6559:6565   */\n      dup5\n        /* \"#utility.yul\":6501:6586   */\n      tag_346\n      jump\t// in\n    tag_505:\n        /* \"#utility.yul\":6343:6593   */\n      swap3\n      swap2\n      pop\n      pop\n      jump\t// out\n        /* \"#utility.yul\":6599:6928   */\n    tag_55:\n        /* \"#utility.yul\":6658:6664   */\n      0x00\n        /* \"#utility.yul\":6707:6709   */\n      0x20\n        /* \"#utility.yul\":6695:6704   */\n      dup3\n        /* \"#utility.yul\":6686:6693   */\n      dup5\n        /* \"#utility.yul\":6682:6705   */\n      sub\n        /* \"#utility.yul\":6678:6710   */\n      slt\n        /* \"#utility.yul\":6675:6794   */\n      iszero\n      tag_507\n      jumpi\n        /* \"#utility.yul\":6713:6792   */\n      tag_508\n      tag_324\n      jump\t// in\n    tag_508:\n        /* \"#utility.yul\":6675:6794   */\n    tag_507:\n        /* \"#utility.yul\":6833:6834   */\n      0x00\n        /* \"#utility.yul\":6858:6911   */\n      tag_509\n        /* \"#utility.yul\":6903:6910   */\n      dup5\n        /* \"#utility.yul\":6894:6900   */\n      dup3\n        /* \"#utility.yul\":6883:6892   */\n      dup6\n        /* \"#utility.yul\":6879:6901   */\n      add\n        /* \"#utility.yul\":6858:6911   */\n      tag_328\n      jump\t// in\n    tag_509:\n        /* \"#utility.yul\":6848:6911   */\n      swap2\n      pop\n        /* \"#utility.yul\":6804:6921   */\n      pop\n        /* \"#utility.yul\":6599:6928   */\n      swap3\n      swap2\n      pop\n      pop\n      jump\t// out\n        /* \"#utility.yul\":6934:7030   */\n    tag_347:\n        /* \"#utility.yul\":6971:6978   */\n      0x00\n        /* \"#utility.yul\":7000:7024   */\n      tag_511\n        /* \"#utility.yul\":7018:7023   */\n      dup3\n        /* \"#utility.yul\":7000:7024   */\n      tag_329\n      jump\t// in\n    tag_511:\n        /* \"#utility.yul\":6989:7024   */\n      swap1\n      pop\n        /* \"#utility.yul\":6934:7030   */\n      swap2\n      swap1\n      pop\n      jump\t// out\n        /* \"#utility.yul\":7036:7154   */\n    tag_348:\n        /* \"#utility.yul\":7123:7147   */\n      tag_513\n        /* \"#utility.yul\":7141:7146   */\n      dup2\n        /* \"#utility.yul\":7123:7147   */\n      tag_347\n      jump\t// in\n    tag_513:\n        /* \"#utility.yul\":7118:7121   */\n      dup3\n        /* \"#utility.yul\":7111:7148   */\n      mstore\n        /* \"#utility.yul\":7036:7154   */\n      pop\n      pop\n      jump\t// out\n        /* \"#utility.yul\":7160:7382   */\n    tag_58:\n        /* \"#utility.yul\":7253:7257   */\n      0x00\n        /* \"#utility.yul\":7291:7293   */\n      0x20\n        /* \"#utility.yul\":7280:7289   */\n      dup3\n        /* \"#utility.yul\":7276:7294   */\n      add\n        /* \"#utility.yul\":7268:7294   */\n      swap1\n      pop\n        /* \"#utility.yul\":7304:7375   */\n      tag_515\n        /* \"#utility.yul\":7372:7373   */\n      0x00\n        /* \"#utility.yul\":7361:7370   */\n      dup4\n        /* \"#utility.yul\":7357:7374   */\n      add\n        /* \"#utility.yul\":7348:7354   */\n      dup5\n        /* \"#utility.yul\":7304:7375   */\n      tag_348\n      jump\t// in\n    tag_515:\n        /* \"#utility.yul\":7160:7382   */\n      swap3\n      swap2\n      pop\n      pop\n      jump\t// out\n        /* \"#utility.yul\":7388:7505   */\n    tag_349:\n        /* \"#utility.yul\":7497:7498   */\n      0x00\n        /* \"#utility.yul\":7494:7495   */\n      dup1\n        /* \"#utility.yul\":7487:7499   */\n      revert\n        /* \"#utility.yul\":7524:8076   */\n    tag_350:\n        /* \"#utility.yul\":7581:7589   */\n      0x00\n        /* \"#utility.yul\":7591:7597   */\n      dup1\n        /* \"#utility.yul\":7641:7644   */\n      dup4\n        /* \"#utility.yul\":7634:7638   */\n      0x1f\n        /* \"#utility.yul\":7626:7632   */\n      dup5\n        /* \"#utility.yul\":7622:7639   */\n      add\n        /* \"#utility.yul\":7618:7645   */\n      slt\n        /* \"#utility.yul\":7608:7730   */\n      tag_518\n      jumpi\n        /* \"#utility.yul\":7649:7728   */\n      tag_519\n      tag_337\n      jump\t// in\n    tag_519:\n        /* \"#utility.yul\":7608:7730   */\n    tag_518:\n        /* \"#utility.yul\":7762:7768   */\n      dup3\n        /* \"#utility.yul\":7749:7769   */\n      calldataload\n        /* \"#utility.yul\":7739:7769   */\n      swap1\n      pop\n        /* \"#utility.yul\":7792:7810   */\n      0xffffffffffffffff\n        /* \"#utility.yul\":7784:7790   */\n      dup2\n        /* \"#utility.yul\":7781:7811   */\n      gt\n        /* \"#utility.yul\":7778:7895   */\n      iszero\n      tag_520\n      jumpi\n        /* \"#utility.yul\":7814:7893   */\n      tag_521\n      tag_349\n      jump\t// in\n    tag_521:\n        /* \"#utility.yul\":7778:7895   */\n    tag_520:\n        /* \"#utility.yul\":7928:7932   */\n      0x20\n        /* \"#utility.yul\":7920:7926   */\n      dup4\n        /* \"#utility.yul\":7916:7933   */\n      add\n        /* \"#utility.yul\":7904:7933   */\n      swap2\n      pop\n        /* \"#utility.yul\":7982:7985   */\n      dup4\n        /* \"#utility.yul\":7974:7978   */\n      0x01\n        /* \"#utility.yul\":7966:7972   */\n      dup3\n        /* \"#utility.yul\":7962:7979   */\n      mul\n        /* \"#utility.yul\":7952:7960   */\n      dup4\n        /* \"#utility.yul\":7948:7980   */\n      add\n        /* \"#utility.yul\":7945:7986   */\n      gt\n        /* \"#utility.yul\":7942:8070   */\n      iszero\n      tag_522\n      jumpi\n        /* \"#utility.yul\":7989:8068   */\n      tag_523\n      tag_342\n      jump\t// in\n    tag_523:\n        /* \"#utility.yul\":7942:8070   */\n    tag_522:\n        /* \"#utility.yul\":7524:8076   */\n      swap3\n      pop\n      swap3\n      swap1\n      pop\n      jump\t// out\n        /* \"#utility.yul\":8082:8609   */\n    tag_62:\n        /* \"#utility.yul\":8152:8158   */\n      0x00\n        /* \"#utility.yul\":8160:8166   */\n      dup1\n        /* \"#utility.yul\":8209:8211   */\n      0x20\n        /* \"#utility.yul\":8197:8206   */\n      dup4\n        /* \"#utility.yul\":8188:8195   */\n      dup6\n        /* \"#utility.yul\":8184:8207   */\n      sub\n        /* \"#utility.yul\":8180:8212   */\n      slt\n        /* \"#utility.yul\":8177:8296   */\n      iszero\n      tag_525\n      jumpi\n        /* \"#utility.yul\":8215:8294   */\n      tag_526\n      tag_324\n      jump\t// in\n    tag_526:\n        /* \"#utility.yul\":8177:8296   */\n    tag_525:\n        /* \"#utility.yul\":8363:8364   */\n      0x00\n        /* \"#utility.yul\":8352:8361   */\n      dup4\n        /* \"#utility.yul\":8348:8365   */\n      add\n        /* \"#utility.yul\":8335:8366   */\n      calldataload\n        /* \"#utility.yul\":8393:8411   */\n      0xffffffffffffffff\n        /* \"#utility.yul\":8385:8391   */\n      dup2\n        /* \"#utility.yul\":8382:8412   */\n      gt\n        /* \"#utility.yul\":8379:8496   */\n      iszero\n      tag_527\n      jumpi\n        /* \"#utility.yul\":8415:8494   */\n      tag_528\n      tag_325\n      jump\t// in\n    tag_528:\n        /* \"#utility.yul\":8379:8496   */\n    tag_527:\n        /* \"#utility.yul\":8528:8592   */\n      tag_529\n        /* \"#utility.yul\":8584:8591   */\n      dup6\n        /* \"#utility.yul\":8575:8581   */\n      dup3\n        /* \"#utility.yul\":8564:8573   */\n      dup7\n        /* \"#utility.yul\":8560:8582   */\n      add\n        /* \"#utility.yul\":8528:8592   */\n      tag_350\n      jump\t// in\n    tag_529:\n        /* \"#utility.yul\":8510:8592   */\n      swap3\n      pop\n      swap3\n      pop\n        /* \"#utility.yul\":8306:8602   */\n      pop\n        /* \"#utility.yul\":8082:8609   */\n      swap3\n      pop\n      swap3\n      swap1\n      pop\n      jump\t// out\n        /* \"#utility.yul\":8615:8705   */\n    tag_351:\n        /* \"#utility.yul\":8649:8656   */\n      0x00\n        /* \"#utility.yul\":8692:8697   */\n      dup2\n        /* \"#utility.yul\":8685:8698   */\n      iszero\n        /* \"#utility.yul\":8678:8699   */\n      iszero\n        /* \"#utility.yul\":8667:8699   */\n      swap1\n      pop\n        /* \"#utility.yul\":8615:8705   */\n      swap2\n      swap1\n      pop\n      jump\t// out\n        /* \"#utility.yul\":8711:8820   */\n    tag_352:\n        /* \"#utility.yul\":8792:8813   */\n      tag_532\n        /* \"#utility.yul\":8807:8812   */\n      dup2\n        /* \"#utility.yul\":8792:8813   */\n      tag_351\n      jump\t// in\n    tag_532:\n        /* \"#utility.yul\":8787:8790   */\n      dup3\n        /* \"#utility.yul\":8780:8814   */\n      mstore\n        /* \"#utility.yul\":8711:8820   */\n      pop\n      pop\n      jump\t// out\n        /* \"#utility.yul\":8826:8924   */\n    tag_353:\n        /* \"#utility.yul\":8877:8883   */\n      0x00\n        /* \"#utility.yul\":8911:8916   */\n      dup2\n        /* \"#utility.yul\":8905:8917   */\n      mload\n        /* \"#utility.yul\":8895:8917   */\n      swap1\n      pop\n        /* \"#utility.yul\":8826:8924   */\n      swap2\n      swap1\n      pop\n      jump\t// out\n        /* \"#utility.yul\":8930:9098   */\n    tag_354:\n        /* \"#utility.yul\":9013:9024   */\n      0x00\n        /* \"#utility.yul\":9047:9053   */\n      dup3\n        /* \"#utility.yul\":9042:9045   */\n      dup3\n        /* \"#utility.yul\":9035:9054   */\n      mstore\n        /* \"#utility.yul\":9087:9091   */\n      0x20\n        /* \"#utility.yul\":9082:9085   */\n      dup3\n        /* \"#utility.yul\":9078:9092   */\n      add\n        /* \"#utility.yul\":9063:9092   */\n      swap1\n      pop\n        /* \"#utility.yul\":8930:9098   */\n      swap3\n      swap2\n      pop\n      pop\n      jump\t// out\n        /* \"#utility.yul\":9104:9350   */\n    tag_355:\n        /* \"#utility.yul\":9185:9186   */\n      0x00\n        /* \"#utility.yul\":9195:9308   */\n    tag_536:\n        /* \"#utility.yul\":9209:9215   */\n      dup4\n        /* \"#utility.yul\":9206:9207   */\n      dup2\n        /* \"#utility.yul\":9203:9216   */\n      lt\n        /* \"#utility.yul\":9195:9308   */\n      iszero\n      tag_538\n      jumpi\n        /* \"#utility.yul\":9294:9295   */\n      dup1\n        /* \"#utility.yul\":9289:9292   */\n      dup3\n        /* \"#utility.yul\":9285:9296   */\n      add\n        /* \"#utility.yul\":9279:9297   */\n      mload\n        /* \"#utility.yul\":9275:9276   */\n      dup2\n        /* \"#utility.yul\":9270:9273   */\n      dup5\n        /* \"#utility.yul\":9266:9277   */\n      add\n        /* \"#utility.yul\":9259:9298   */\n      mstore\n        /* \"#utility.yul\":9231:9233   */\n      0x20\n        /* \"#utility.yul\":9228:9229   */\n      dup2\n        /* \"#utility.yul\":9224:9234   */\n      add\n        /* \"#utility.yul\":9219:9234   */\n      swap1\n      pop\n        /* \"#utility.yul\":9195:9308   */\n      jump(tag_536)\n    tag_538:\n        /* \"#utility.yul\":9342:9343   */\n      0x00\n        /* \"#utility.yul\":9333:9339   */\n      dup5\n        /* \"#utility.yul\":9328:9331   */\n      dup5\n        /* \"#utility.yul\":9324:9340   */\n      add\n        /* \"#utility.yul\":9317:9344   */\n      mstore\n        /* \"#utility.yul\":9166:9350   */\n      pop\n        /* \"#utility.yul\":9104:9350   */\n      pop\n      pop\n      pop\n      jump\t// out\n        /* \"#utility.yul\":9356:9729   */\n    tag_356:\n        /* \"#utility.yul\":9442:9445   */\n      0x00\n        /* \"#utility.yul\":9470:9508   */\n      tag_540\n        /* \"#utility.yul\":9502:9507   */\n      dup3\n        /* \"#utility.yul\":9470:9508   */\n      tag_353\n      jump\t// in\n    tag_540:\n        /* \"#utility.yul\":9524:9594   */\n      tag_541\n        /* \"#utility.yul\":9587:9593   */\n      dup2\n        /* \"#utility.yul\":9582:9585   */\n      dup6\n        /* \"#utility.yul\":9524:9594   */\n      tag_354\n      jump\t// in\n    tag_541:\n        /* \"#utility.yul\":9517:9594   */\n      swap4\n      pop\n        /* \"#utility.yul\":9603:9668   */\n      tag_542\n        /* \"#utility.yul\":9661:9667   */\n      dup2\n        /* \"#utility.yul\":9656:9659   */\n      dup6\n        /* \"#utility.yul\":9649:9653   */\n      0x20\n        /* \"#utility.yul\":9642:9647   */\n      dup7\n        /* \"#utility.yul\":9638:9654   */\n      add\n        /* \"#utility.yul\":9603:9668   */\n      tag_355\n      jump\t// in\n    tag_542:\n        /* \"#utility.yul\":9693:9722   */\n      tag_543\n        /* \"#utility.yul\":9715:9721   */\n      dup2\n        /* \"#utility.yul\":9693:9722   */\n      tag_338\n      jump\t// in\n    tag_543:\n        /* \"#utility.yul\":9688:9691   */\n      dup5\n        /* \"#utility.yul\":9684:9723   */\n      add\n        /* \"#utility.yul\":9677:9723   */\n      swap2\n      pop\n        /* \"#utility.yul\":9446:9729   */\n      pop\n        /* \"#utility.yul\":9356:9729   */\n      swap3\n      swap2\n      pop\n      pop\n      jump\t// out\n        /* \"#utility.yul\":9735:10142   */\n    tag_69:\n        /* \"#utility.yul\":9868:9872   */\n      0x00\n        /* \"#utility.yul\":9906:9908   */\n      0x40\n        /* \"#utility.yul\":9895:9904   */\n      dup3\n        /* \"#utility.yul\":9891:9909   */\n      add\n        /* \"#utility.yul\":9883:9909   */\n      swap1\n      pop\n        /* \"#utility.yul\":9919:9984   */\n      tag_545\n        /* \"#utility.yul\":9981:9982   */\n      0x00\n        /* \"#utility.yul\":9970:9979   */\n      dup4\n        /* \"#utility.yul\":9966:9983   */\n      add\n        /* \"#utility.yul\":9957:9963   */\n      dup6\n        /* \"#utility.yul\":9919:9984   */\n      tag_352\n      jump\t// in\n    tag_545:\n        /* \"#utility.yul\":10031:10040   */\n      dup2\n        /* \"#utility.yul\":10025:10029   */\n      dup2\n        /* \"#utility.yul\":10021:10041   */\n      sub\n        /* \"#utility.yul\":10016:10018   */\n      0x20\n        /* \"#utility.yul\":10005:10014   */\n      dup4\n        /* \"#utility.yul\":10001:10019   */\n      add\n        /* \"#utility.yul\":9994:10042   */\n      mstore\n        /* \"#utility.yul\":10059:10135   */\n      tag_546\n        /* \"#utility.yul\":10130:10134   */\n      dup2\n        /* \"#utility.yul\":10121:10127   */\n      dup5\n        /* \"#utility.yul\":10059:10135   */\n      tag_356\n      jump\t// in\n    tag_546:\n        /* \"#utility.yul\":10051:10135   */\n      swap1\n      pop\n        /* \"#utility.yul\":9735:10142   */\n      swap4\n      swap3\n      pop\n      pop\n      pop\n      jump\t// out\n        /* \"#utility.yul\":10148:10301   */\n    tag_357:\n        /* \"#utility.yul\":10225:10234   */\n      0x00\n        /* \"#utility.yul\":10258:10295   */\n      tag_548\n        /* \"#utility.yul\":10289:10294   */\n      dup3\n        /* \"#utility.yul\":10258:10295   */\n      tag_332\n      jump\t// in\n    tag_548:\n        /* \"#utility.yul\":10245:10295   */\n      swap1\n      pop\n        /* \"#utility.yul\":10148:10301   */\n      swap2\n      swap1\n      pop\n      jump\t// out\n        /* \"#utility.yul\":10307:10492   */\n    tag_358:\n        /* \"#utility.yul\":10421:10485   */\n      tag_550\n        /* \"#utility.yul\":10479:10484   */\n      dup2\n        /* \"#utility.yul\":10421:10485   */\n      tag_357\n      jump\t// in\n    tag_550:\n        /* \"#utility.yul\":10416:10419   */\n      dup3\n        /* \"#utility.yul\":10409:10486   */\n      mstore\n        /* \"#utility.yul\":10307:10492   */\n      pop\n      pop\n      jump\t// out\n        /* \"#utility.yul\":10498:10774   */\n    tag_74:\n        /* \"#utility.yul\":10618:10622   */\n      0x00\n        /* \"#utility.yul\":10656:10658   */\n      0x20\n        /* \"#utility.yul\":10645:10654   */\n      dup3\n        /* \"#utility.yul\":10641:10659   */\n      add\n        /* \"#utility.yul\":10633:10659   */\n      swap1\n      pop\n        /* \"#utility.yul\":10669:10767   */\n      tag_552\n        /* \"#utility.yul\":10764:10765   */\n      0x00\n        /* \"#utility.yul\":10753:10762   */\n      dup4\n        /* \"#utility.yul\":10749:10766   */\n      add\n        /* \"#utility.yul\":10740:10746   */\n      dup5\n        /* \"#utility.yul\":10669:10767   */\n      tag_358\n      jump\t// in\n    tag_552:\n        /* \"#utility.yul\":10498:10774   */\n      swap3\n      swap2\n      pop\n      pop\n      jump\t// out\n        /* \"#utility.yul\":10780:10936   */\n    tag_359:\n        /* \"#utility.yul\":10860:10869   */\n      0x00\n        /* \"#utility.yul\":10893:10930   */\n      tag_554\n        /* \"#utility.yul\":10924:10929   */\n      dup3\n        /* \"#utility.yul\":10893:10930   */\n      tag_332\n      jump\t// in\n    tag_554:\n        /* \"#utility.yul\":10880:10930   */\n      swap1\n      pop\n        /* \"#utility.yul\":10780:10936   */\n      swap2\n      swap1\n      pop\n      jump\t// out\n        /* \"#utility.yul\":10942:11133   */\n    tag_360:\n        /* \"#utility.yul\":11059:11126   */\n      tag_556\n        /* \"#utility.yul\":11120:11125   */\n      dup2\n        /* \"#utility.yul\":11059:11126   */\n      tag_359\n      jump\t// in\n    tag_556:\n        /* \"#utility.yul\":11054:11057   */\n      dup3\n        /* \"#utility.yul\":11047:11127   */\n      mstore\n        /* \"#utility.yul\":10942:11133   */\n      pop\n      pop\n      jump\t// out\n        /* \"#utility.yul\":11139:11421   */\n    tag_79:\n        /* \"#utility.yul\":11262:11266   */\n      0x00\n        /* \"#utility.yul\":11300:11302   */\n      0x20\n        /* \"#utility.yul\":11289:11298   */\n      dup3\n        /* \"#utility.yul\":11285:11303   */\n      add\n        /* \"#utility.yul\":11277:11303   */\n      swap1\n      pop\n        /* \"#utility.yul\":11313:11414   */\n      tag_558\n        /* \"#utility.yul\":11411:11412   */\n      0x00\n        /* \"#utility.yul\":11400:11409   */\n      dup4\n        /* \"#utility.yul\":11396:11413   */\n      add\n        /* \"#utility.yul\":11387:11393   */\n      dup5\n        /* \"#utility.yul\":11313:11414   */\n      tag_360\n      jump\t// in\n    tag_558:\n        /* \"#utility.yul\":11139:11421   */\n      swap3\n      swap2\n      pop\n      pop\n      jump\t// out\n        /* \"#utility.yul\":11427:11549   */\n    tag_361:\n        /* \"#utility.yul\":11500:11524   */\n      tag_560\n        /* \"#utility.yul\":11518:11523   */\n      dup2\n        /* \"#utility.yul\":11500:11524   */\n      tag_347\n      jump\t// in\n    tag_560:\n        /* \"#utility.yul\":11493:11498   */\n      dup2\n        /* \"#utility.yul\":11490:11525   */\n      eq\n        /* \"#utility.yul\":11480:11543   */\n      tag_561\n      jumpi\n        /* \"#utility.yul\":11539:11540   */\n      0x00\n        /* \"#utility.yul\":11536:11537   */\n      dup1\n        /* \"#utility.yul\":11529:11541   */\n      revert\n        /* \"#utility.yul\":11480:11543   */\n    tag_561:\n        /* \"#utility.yul\":11427:11549   */\n      pop\n      jump\t// out\n        /* \"#utility.yul\":11555:11694   */\n    tag_362:\n        /* \"#utility.yul\":11601:11606   */\n      0x00\n        /* \"#utility.yul\":11639:11645   */\n      dup2\n        /* \"#utility.yul\":11626:11646   */\n      calldataload\n        /* \"#utility.yul\":11617:11646   */\n      swap1\n      pop\n        /* \"#utility.yul\":11655:11688   */\n      tag_563\n        /* \"#utility.yul\":11682:11687   */\n      dup2\n        /* \"#utility.yul\":11655:11688   */\n      tag_361\n      jump\t// in\n    tag_563:\n        /* \"#utility.yul\":11555:11694   */\n      swap3\n      swap2\n      pop\n      pop\n      jump\t// out\n        /* \"#utility.yul\":11700:12029   */\n    tag_83:\n        /* \"#utility.yul\":11759:11765   */\n      0x00\n        /* \"#utility.yul\":11808:11810   */\n      0x20\n        /* \"#utility.yul\":11796:11805   */\n      dup3\n        /* \"#utility.yul\":11787:11794   */\n      dup5\n        /* \"#utility.yul\":11783:11806   */\n      sub\n        /* \"#utility.yul\":11779:11811   */\n      slt\n        /* \"#utility.yul\":11776:11895   */\n      iszero\n      tag_565\n      jumpi\n        /* \"#utility.yul\":11814:11893   */\n      tag_566\n      tag_324\n      jump\t// in\n    tag_566:\n        /* \"#utility.yul\":11776:11895   */\n    tag_565:\n        /* \"#utility.yul\":11934:11935   */\n      0x00\n        /* \"#utility.yul\":11959:12012   */\n      tag_567\n        /* \"#utility.yul\":12004:12011   */\n      dup5\n        /* \"#utility.yul\":11995:12001   */\n      dup3\n        /* \"#utility.yul\":11984:11993   */\n      dup6\n        /* \"#utility.yul\":11980:12002   */\n      add\n        /* \"#utility.yul\":11959:12012   */\n      tag_362\n      jump\t// in\n    tag_567:\n        /* \"#utility.yul\":11949:12012   */\n      swap2\n      pop\n        /* \"#utility.yul\":11905:12022   */\n      pop\n        /* \"#utility.yul\":11700:12029   */\n      swap3\n      swap2\n      pop\n      pop\n      jump\t// out\n        /* \"#utility.yul\":12035:12153   */\n    tag_363:\n        /* \"#utility.yul\":12122:12146   */\n      tag_569\n        /* \"#utility.yul\":12140:12145   */\n      dup2\n        /* \"#utility.yul\":12122:12146   */\n      tag_326\n      jump\t// in\n    tag_569:\n        /* \"#utility.yul\":12117:12120   */\n      dup3\n        /* \"#utility.yul\":12110:12147   */\n      mstore\n        /* \"#utility.yul\":12035:12153   */\n      pop\n      pop\n      jump\t// out\n        /* \"#utility.yul\":12159:12381   */\n    tag_86:\n        /* \"#utility.yul\":12252:12256   */\n      0x00\n        /* \"#utility.yul\":12290:12292   */\n      0x20\n        /* \"#utility.yul\":12279:12288   */\n      dup3\n        /* \"#utility.yul\":12275:12293   */\n      add\n        /* \"#utility.yul\":12267:12293   */\n      swap1\n      pop\n        /* \"#utility.yul\":12303:12374   */\n      tag_571\n        /* \"#utility.yul\":12371:12372   */\n      0x00\n        /* \"#utility.yul\":12360:12369   */\n      dup4\n        /* \"#utility.yul\":12356:12373   */\n      add\n        /* \"#utility.yul\":12347:12353   */\n      dup5\n        /* \"#utility.yul\":12303:12374   */\n      tag_363\n      jump\t// in\n    tag_571:\n        /* \"#utility.yul\":12159:12381   */\n      swap3\n      swap2\n      pop\n      pop\n      jump\t// out\n        /* \"#utility.yul\":12387:13162   */\n    tag_92:\n        /* \"#utility.yul\":12620:12624   */\n      0x00\n        /* \"#utility.yul\":12658:12661   */\n      0xc0\n        /* \"#utility.yul\":12647:12656   */\n      dup3\n        /* \"#utility.yul\":12643:12662   */\n      add\n        /* \"#utility.yul\":12635:12662   */\n      swap1\n      pop\n        /* \"#utility.yul\":12672:12743   */\n      tag_573\n        /* \"#utility.yul\":12740:12741   */\n      0x00\n        /* \"#utility.yul\":12729:12738   */\n      dup4\n        /* \"#utility.yul\":12725:12742   */\n      add\n        /* \"#utility.yul\":12716:12722   */\n      dup10\n        /* \"#utility.yul\":12672:12743   */\n      tag_363\n      jump\t// in\n    tag_573:\n        /* \"#utility.yul\":12753:12825   */\n      tag_574\n        /* \"#utility.yul\":12821:12823   */\n      0x20\n        /* \"#utility.yul\":12810:12819   */\n      dup4\n        /* \"#utility.yul\":12806:12824   */\n      add\n        /* \"#utility.yul\":12797:12803   */\n      dup9\n        /* \"#utility.yul\":12753:12825   */\n      tag_363\n      jump\t// in\n    tag_574:\n        /* \"#utility.yul\":12835:12907   */\n      tag_575\n        /* \"#utility.yul\":12903:12905   */\n      0x40\n        /* \"#utility.yul\":12892:12901   */\n      dup4\n        /* \"#utility.yul\":12888:12906   */\n      add\n        /* \"#utility.yul\":12879:12885   */\n      dup8\n        /* \"#utility.yul\":12835:12907   */\n      tag_363\n      jump\t// in\n    tag_575:\n        /* \"#utility.yul\":12917:12989   */\n      tag_576\n        /* \"#utility.yul\":12985:12987   */\n      0x60\n        /* \"#utility.yul\":12974:12983   */\n      dup4\n        /* \"#utility.yul\":12970:12988   */\n      add\n        /* \"#utility.yul\":12961:12967   */\n      dup7\n        /* \"#utility.yul\":12917:12989   */\n      tag_363\n      jump\t// in\n    tag_576:\n        /* \"#utility.yul\":12999:13072   */\n      tag_577\n        /* \"#utility.yul\":13067:13070   */\n      0x80\n        /* \"#utility.yul\":13056:13065   */\n      dup4\n        /* \"#utility.yul\":13052:13071   */\n      add\n        /* \"#utility.yul\":13043:13049   */\n      dup6\n        /* \"#utility.yul\":12999:13072   */\n      tag_363\n      jump\t// in\n    tag_577:\n        /* \"#utility.yul\":13082:13155   */\n      tag_578\n        /* \"#utility.yul\":13150:13153   */\n      0xa0\n        /* \"#utility.yul\":13139:13148   */\n      dup4\n        /* \"#utility.yul\":13135:13154   */\n      add\n        /* \"#utility.yul\":13126:13132   */\n      dup5\n        /* \"#utility.yul\":13082:13155   */\n      tag_363\n      jump\t// in\n    tag_578:\n        /* \"#utility.yul\":12387:13162   */\n      swap8\n      swap7\n      pop\n      pop\n      pop\n      pop\n      pop\n      pop\n      pop\n      jump\t// out\n        /* \"#utility.yul\":13168:13337   */\n    tag_364:\n        /* \"#utility.yul\":13252:13263   */\n      0x00\n        /* \"#utility.yul\":13286:13292   */\n      dup3\n        /* \"#utility.yul\":13281:13284   */\n      dup3\n        /* \"#utility.yul\":13274:13293   */\n      mstore\n        /* \"#utility.yul\":13326:13330   */\n      0x20\n        /* \"#utility.yul\":13321:13324   */\n      dup3\n        /* \"#utility.yul\":13317:13331   */\n      add\n        /* \"#utility.yul\":13302:13331   */\n      swap1\n      pop\n        /* \"#utility.yul\":13168:13337   */\n      swap3\n      swap2\n      pop\n      pop\n      jump\t// out\n        /* \"#utility.yul\":13343:13506   */\n    tag_365:\n        /* \"#utility.yul\":13483:13498   */\n      0x506c616e20697320657869737400000000000000000000000000000000000000\n        /* \"#utility.yul\":13479:13480   */\n      0x00\n        /* \"#utility.yul\":13471:13477   */\n      dup3\n        /* \"#utility.yul\":13467:13481   */\n      add\n        /* \"#utility.yul\":13460:13499   */\n      mstore\n        /* \"#utility.yul\":13343:13506   */\n      pop\n      jump\t// out\n        /* \"#utility.yul\":13512:13878   */\n    tag_366:\n        /* \"#utility.yul\":13654:13657   */\n      0x00\n        /* \"#utility.yul\":13675:13742   */\n      tag_582\n        /* \"#utility.yul\":13739:13741   */\n      0x0d\n        /* \"#utility.yul\":13734:13737   */\n      dup4\n        /* \"#utility.yul\":13675:13742   */\n      tag_364\n      jump\t// in\n    tag_582:\n        /* \"#utility.yul\":13668:13742   */\n      swap2\n      pop\n        /* \"#utility.yul\":13751:13844   */\n      tag_583\n        /* \"#utility.yul\":13840:13843   */\n      dup3\n        /* \"#utility.yul\":13751:13844   */\n      tag_365\n      jump\t// in\n    tag_583:\n        /* \"#utility.yul\":13869:13871   */\n      0x20\n        /* \"#utility.yul\":13864:13867   */\n      dup3\n        /* \"#utility.yul\":13860:13872   */\n      add\n        /* \"#utility.yul\":13853:13872   */\n      swap1\n      pop\n        /* \"#utility.yul\":13512:13878   */\n      swap2\n      swap1\n      pop\n      jump\t// out\n        /* \"#utility.yul\":13884:14303   */\n    tag_124:\n        /* \"#utility.yul\":14050:14054   */\n      0x00\n        /* \"#utility.yul\":14088:14090   */\n      0x20\n        /* \"#utility.yul\":14077:14086   */\n      dup3\n        /* \"#utility.yul\":14073:14091   */\n      add\n        /* \"#utility.yul\":14065:14091   */\n      swap1\n      pop\n        /* \"#utility.yul\":14137:14146   */\n      dup2\n        /* \"#utility.yul\":14131:14135   */\n      dup2\n        /* \"#utility.yul\":14127:14147   */\n      sub\n        /* \"#utility.yul\":14123:14124   */\n      0x00\n        /* \"#utility.yul\":14112:14121   */\n      dup4\n        /* \"#utility.yul\":14108:14125   */\n      add\n        /* \"#utility.yul\":14101:14148   */\n      mstore\n        /* \"#utility.yul\":14165:14296   */\n      tag_585\n        /* \"#utility.yul\":14291:14295   */\n      dup2\n        /* \"#utility.yul\":14165:14296   */\n      tag_366\n      jump\t// in\n    tag_585:\n        /* \"#utility.yul\":14157:14296   */\n      swap1\n      pop\n        /* \"#utility.yul\":13884:14303   */\n      swap2\n      swap1\n      pop\n      jump\t// out\n        /* \"#utility.yul\":14309:14491   */\n    tag_367:\n        /* \"#utility.yul\":14449:14483   */\n      0x4672657175656e6379206d7573742062652067726561746572207468616e2030\n        /* \"#utility.yul\":14445:14446   */\n      0x00\n        /* \"#utility.yul\":14437:14443   */\n      dup3\n        /* \"#utility.yul\":14433:14447   */\n      add\n        /* \"#utility.yul\":14426:14484   */\n      mstore\n        /* \"#utility.yul\":14309:14491   */\n      pop\n      jump\t// out\n        /* \"#utility.yul\":14497:14863   */\n    tag_368:\n        /* \"#utility.yul\":14639:14642   */\n      0x00\n        /* \"#utility.yul\":14660:14727   */\n      tag_588\n        /* \"#utility.yul\":14724:14726   */\n      0x20\n        /* \"#utility.yul\":14719:14722   */\n      dup4\n        /* \"#utility.yul\":14660:14727   */\n      tag_364\n      jump\t// in\n    tag_588:\n        /* \"#utility.yul\":14653:14727   */\n      swap2\n      pop\n        /* \"#utility.yul\":14736:14829   */\n      tag_589\n        /* \"#utility.yul\":14825:14828   */\n      dup3\n        /* \"#utility.yul\":14736:14829   */\n      tag_367\n      jump\t// in\n    tag_589:\n        /* \"#utility.yul\":14854:14856   */\n      0x20\n        /* \"#utility.yul\":14849:14852   */\n      dup3\n        /* \"#utility.yul\":14845:14857   */\n      add\n        /* \"#utility.yul\":14838:14857   */\n      swap1\n      pop\n        /* \"#utility.yul\":14497:14863   */\n      swap2\n      swap1\n      pop\n      jump\t// out\n        /* \"#utility.yul\":14869:15288   */\n    tag_127:\n        /* \"#utility.yul\":15035:15039   */\n      0x00\n        /* \"#utility.yul\":15073:15075   */\n      0x20\n        /* \"#utility.yul\":15062:15071   */\n      dup3\n        /* \"#utility.yul\":15058:15076   */\n      add\n        /* \"#utility.yul\":15050:15076   */\n      swap1\n      pop\n        /* \"#utility.yul\":15122:15131   */\n      dup2\n        /* \"#utility.yul\":15116:15120   */\n      dup2\n        /* \"#utility.yul\":15112:15132   */\n      sub\n        /* \"#utility.yul\":15108:15109   */\n      0x00\n        /* \"#utility.yul\":15097:15106   */\n      dup4\n        /* \"#utility.yul\":15093:15110   */\n      add\n        /* \"#utility.yul\":15086:15133   */\n      mstore\n        /* \"#utility.yul\":15150:15281   */\n      tag_591\n        /* \"#utility.yul\":15276:15280   */\n      dup2\n        /* \"#utility.yul\":15150:15281   */\n      tag_368\n      jump\t// in\n    tag_591:\n        /* \"#utility.yul\":15142:15281   */\n      swap1\n      pop\n        /* \"#utility.yul\":14869:15288   */\n      swap2\n      swap1\n      pop\n      jump\t// out\n        /* \"#utility.yul\":15294:15473   */\n    tag_369:\n        /* \"#utility.yul\":15434:15465   */\n      0x416d6f756e74206d7573742062652067726561746572207468616e2030000000\n        /* \"#utility.yul\":15430:15431   */\n      0x00\n        /* \"#utility.yul\":15422:15428   */\n      dup3\n        /* \"#utility.yul\":15418:15432   */\n      add\n        /* \"#utility.yul\":15411:15466   */\n      mstore\n        /* \"#utility.yul\":15294:15473   */\n      pop\n      jump\t// out\n        /* \"#utility.yul\":15479:15845   */\n    tag_370:\n        /* \"#utility.yul\":15621:15624   */\n      0x00\n        /* \"#utility.yul\":15642:15709   */\n      tag_594\n        /* \"#utility.yul\":15706:15708   */\n      0x1d\n        /* \"#utility.yul\":15701:15704   */\n      dup4\n        /* \"#utility.yul\":15642:15709   */\n      tag_364\n      jump\t// in\n    tag_594:\n        /* \"#utility.yul\":15635:15709   */\n      swap2\n      pop\n        /* \"#utility.yul\":15718:15811   */\n      tag_595\n        /* \"#utility.yul\":15807:15810   */\n      dup3\n        /* \"#utility.yul\":15718:15811   */\n      tag_369\n      jump\t// in\n    tag_595:\n        /* \"#utility.yul\":15836:15838   */\n      0x20\n        /* \"#utility.yul\":15831:15834   */\n      dup3\n        /* \"#utility.yul\":15827:15839   */\n      add\n        /* \"#utility.yul\":15820:15839   */\n      swap1\n      pop\n        /* \"#utility.yul\":15479:15845   */\n      swap2\n      swap1\n      pop\n      jump\t// out\n        /* \"#utility.yul\":15851:16270   */\n    tag_130:\n        /* \"#utility.yul\":16017:16021   */\n      0x00\n        /* \"#utility.yul\":16055:16057   */\n      0x20\n        /* \"#utility.yul\":16044:16053   */\n      dup3\n        /* \"#utility.yul\":16040:16058   */\n      add\n        /* \"#utility.yul\":16032:16058   */\n      swap1\n      pop\n        /* \"#utility.yul\":16104:16113   */\n      dup2\n        /* \"#utility.yul\":16098:16102   */\n      dup2\n        /* \"#utility.yul\":16094:16114   */\n      sub\n        /* \"#utility.yul\":16090:16091   */\n      0x00\n        /* \"#utility.yul\":16079:16088   */\n      dup4\n        /* \"#utility.yul\":16075:16092   */\n      add\n        /* \"#utility.yul\":16068:16115   */\n      mstore\n        /* \"#utility.yul\":16132:16263   */\n      tag_597\n        /* \"#utility.yul\":16258:16262   */\n      dup2\n        /* \"#utility.yul\":16132:16263   */\n      tag_370\n      jump\t// in\n    tag_597:\n        /* \"#utility.yul\":16124:16263   */\n      swap1\n      pop\n        /* \"#utility.yul\":15851:16270   */\n      swap2\n      swap1\n      pop\n      jump\t// out\n        /* \"#utility.yul\":16276:16608   */\n    tag_132:\n        /* \"#utility.yul\":16397:16401   */\n      0x00\n        /* \"#utility.yul\":16435:16437   */\n      0x40\n        /* \"#utility.yul\":16424:16433   */\n      dup3\n        /* \"#utility.yul\":16420:16438   */\n      add\n        /* \"#utility.yul\":16412:16438   */\n      swap1\n      pop\n        /* \"#utility.yul\":16448:16519   */\n      tag_599\n        /* \"#utility.yul\":16516:16517   */\n      0x00\n        /* \"#utility.yul\":16505:16514   */\n      dup4\n        /* \"#utility.yul\":16501:16518   */\n      add\n        /* \"#utility.yul\":16492:16498   */\n      dup6\n        /* \"#utility.yul\":16448:16519   */\n      tag_363\n      jump\t// in\n    tag_599:\n        /* \"#utility.yul\":16529:16601   */\n      tag_600\n        /* \"#utility.yul\":16597:16599   */\n      0x20\n        /* \"#utility.yul\":16586:16595   */\n      dup4\n        /* \"#utility.yul\":16582:16600   */\n      add\n        /* \"#utility.yul\":16573:16579   */\n      dup5\n        /* \"#utility.yul\":16529:16601   */\n      tag_363\n      jump\t// in\n    tag_600:\n        /* \"#utility.yul\":16276:16608   */\n      swap4\n      swap3\n      pop\n      pop\n      pop\n      jump\t// out\n        /* \"#utility.yul\":16614:16946   */\n    tag_136:\n        /* \"#utility.yul\":16735:16739   */\n      0x00\n        /* \"#utility.yul\":16773:16775   */\n      0x40\n        /* \"#utility.yul\":16762:16771   */\n      dup3\n        /* \"#utility.yul\":16758:16776   */\n      add\n        /* \"#utility.yul\":16750:16776   */\n      swap1\n      pop\n        /* \"#utility.yul\":16786:16857   */\n      tag_602\n        /* \"#utility.yul\":16854:16855   */\n      0x00\n        /* \"#utility.yul\":16843:16852   */\n      dup4\n        /* \"#utility.yul\":16839:16856   */\n      add\n        /* \"#utility.yul\":16830:16836   */\n      dup6\n        /* \"#utility.yul\":16786:16857   */\n      tag_348\n      jump\t// in\n    tag_602:\n        /* \"#utility.yul\":16867:16939   */\n      tag_603\n        /* \"#utility.yul\":16935:16937   */\n      0x20\n        /* \"#utility.yul\":16924:16933   */\n      dup4\n        /* \"#utility.yul\":16920:16938   */\n      add\n        /* \"#utility.yul\":16911:16917   */\n      dup5\n        /* \"#utility.yul\":16867:16939   */\n      tag_348\n      jump\t// in\n    tag_603:\n        /* \"#utility.yul\":16614:16946   */\n      swap4\n      swap3\n      pop\n      pop\n      pop\n      jump\t// out\n        /* \"#utility.yul\":16952:17056   */\n    tag_371:\n        /* \"#utility.yul\":16997:17004   */\n      0x00\n        /* \"#utility.yul\":17026:17050   */\n      tag_605\n        /* \"#utility.yul\":17044:17049   */\n      dup3\n        /* \"#utility.yul\":17026:17050   */\n      tag_329\n      jump\t// in\n    tag_605:\n        /* \"#utility.yul\":17015:17050   */\n      swap1\n      pop\n        /* \"#utility.yul\":16952:17056   */\n      swap2\n      swap1\n      pop\n      jump\t// out\n        /* \"#utility.yul\":17062:17200   */\n    tag_372:\n        /* \"#utility.yul\":17143:17175   */\n      tag_607\n        /* \"#utility.yul\":17169:17174   */\n      dup2\n        /* \"#utility.yul\":17143:17175   */\n      tag_371\n      jump\t// in\n    tag_607:\n        /* \"#utility.yul\":17136:17141   */\n      dup2\n        /* \"#utility.yul\":17133:17176   */\n      eq\n        /* \"#utility.yul\":17123:17194   */\n      tag_608\n      jumpi\n        /* \"#utility.yul\":17190:17191   */\n      0x00\n        /* \"#utility.yul\":17187:17188   */\n      dup1\n        /* \"#utility.yul\":17180:17192   */\n      revert\n        /* \"#utility.yul\":17123:17194   */\n    tag_608:\n        /* \"#utility.yul\":17062:17200   */\n      pop\n      jump\t// out\n        /* \"#utility.yul\":17206:17361   */\n    tag_373:\n        /* \"#utility.yul\":17260:17265   */\n      0x00\n        /* \"#utility.yul\":17298:17304   */\n      dup2\n        /* \"#utility.yul\":17285:17305   */\n      calldataload\n        /* \"#utility.yul\":17276:17305   */\n      swap1\n      pop\n        /* \"#utility.yul\":17314:17355   */\n      tag_610\n        /* \"#utility.yul\":17349:17354   */\n      dup2\n        /* \"#utility.yul\":17314:17355   */\n      tag_372\n      jump\t// in\n    tag_610:\n        /* \"#utility.yul\":17206:17361   */\n      swap3\n      swap2\n      pop\n      pop\n      jump\t// out\n        /* \"#utility.yul\":17367:17712   */\n    tag_141:\n        /* \"#utility.yul\":17434:17440   */\n      0x00\n        /* \"#utility.yul\":17483:17485   */\n      0x20\n        /* \"#utility.yul\":17471:17480   */\n      dup3\n        /* \"#utility.yul\":17462:17469   */\n      dup5\n        /* \"#utility.yul\":17458:17481   */\n      sub\n        /* \"#utility.yul\":17454:17486   */\n      slt\n        /* \"#utility.yul\":17451:17570   */\n      iszero\n      tag_612\n      jumpi\n        /* \"#utility.yul\":17489:17568   */\n      tag_613\n      tag_324\n      jump\t// in\n    tag_613:\n        /* \"#utility.yul\":17451:17570   */\n    tag_612:\n        /* \"#utility.yul\":17609:17610   */\n      0x00\n        /* \"#utility.yul\":17634:17695   */\n      tag_614\n        /* \"#utility.yul\":17687:17694   */\n      dup5\n        /* \"#utility.yul\":17678:17684   */\n      dup3\n        /* \"#utility.yul\":17667:17676   */\n      dup6\n        /* \"#utility.yul\":17663:17685   */\n      add\n        /* \"#utility.yul\":17634:17695   */\n      tag_373\n      jump\t// in\n    tag_614:\n        /* \"#utility.yul\":17624:17695   */\n      swap2\n      pop\n        /* \"#utility.yul\":17580:17705   */\n      pop\n        /* \"#utility.yul\":17367:17712   */\n      swap3\n      swap2\n      pop\n      pop\n      jump\t// out\n        /* \"#utility.yul\":17718:17898   */\n    tag_374:\n        /* \"#utility.yul\":17766:17843   */\n      0x4e487b7100000000000000000000000000000000000000000000000000000000\n        /* \"#utility.yul\":17763:17764   */\n      0x00\n        /* \"#utility.yul\":17756:17844   */\n      mstore\n        /* \"#utility.yul\":17863:17867   */\n      0x11\n        /* \"#utility.yul\":17860:17861   */\n      0x04\n        /* \"#utility.yul\":17853:17868   */\n      mstore\n        /* \"#utility.yul\":17887:17891   */\n      0x24\n        /* \"#utility.yul\":17884:17885   */\n      0x00\n        /* \"#utility.yul\":17877:17892   */\n      revert\n        /* \"#utility.yul\":17904:18098   */\n    tag_145:\n        /* \"#utility.yul\":17944:17948   */\n      0x00\n        /* \"#utility.yul\":17964:17984   */\n      tag_617\n        /* \"#utility.yul\":17982:17983   */\n      dup3\n        /* \"#utility.yul\":17964:17984   */\n      tag_326\n      jump\t// in\n    tag_617:\n        /* \"#utility.yul\":17959:17984   */\n      swap2\n      pop\n        /* \"#utility.yul\":17998:18018   */\n      tag_618\n        /* \"#utility.yul\":18016:18017   */\n      dup4\n        /* \"#utility.yul\":17998:18018   */\n      tag_326\n      jump\t// in\n    tag_618:\n        /* \"#utility.yul\":17993:18018   */\n      swap3\n      pop\n        /* \"#utility.yul\":18042:18043   */\n      dup3\n        /* \"#utility.yul\":18039:18040   */\n      dup3\n        /* \"#utility.yul\":18035:18044   */\n      sub\n        /* \"#utility.yul\":18027:18044   */\n      swap1\n      pop\n        /* \"#utility.yul\":18066:18067   */\n      dup2\n        /* \"#utility.yul\":18060:18064   */\n      dup2\n        /* \"#utility.yul\":18057:18068   */\n      gt\n        /* \"#utility.yul\":18054:18091   */\n      iszero\n      tag_619\n      jumpi\n        /* \"#utility.yul\":18071:18089   */\n      tag_620\n      tag_374\n      jump\t// in\n    tag_620:\n        /* \"#utility.yul\":18054:18091   */\n    tag_619:\n        /* \"#utility.yul\":17904:18098   */\n      swap3\n      swap2\n      pop\n      pop\n      jump\t// out\n        /* \"#utility.yul\":18104:18284   */\n    tag_375:\n        /* \"#utility.yul\":18152:18229   */\n      0x4e487b7100000000000000000000000000000000000000000000000000000000\n        /* \"#utility.yul\":18149:18150   */\n      0x00\n        /* \"#utility.yul\":18142:18230   */\n      mstore\n        /* \"#utility.yul\":18249:18253   */\n      0x12\n        /* \"#utility.yul\":18246:18247   */\n      0x04\n        /* \"#utility.yul\":18239:18254   */\n      mstore\n        /* \"#utility.yul\":18273:18277   */\n      0x24\n        /* \"#utility.yul\":18270:18271   */\n      0x00\n        /* \"#utility.yul\":18263:18278   */\n      revert\n        /* \"#utility.yul\":18290:18466   */\n    tag_147:\n        /* \"#utility.yul\":18322:18323   */\n      0x00\n        /* \"#utility.yul\":18339:18359   */\n      tag_623\n        /* \"#utility.yul\":18357:18358   */\n      dup3\n        /* \"#utility.yul\":18339:18359   */\n      tag_326\n      jump\t// in\n    tag_623:\n        /* \"#utility.yul\":18334:18359   */\n      swap2\n      pop\n        /* \"#utility.yul\":18373:18393   */\n      tag_624\n        /* \"#utility.yul\":18391:18392   */\n      dup4\n        /* \"#utility.yul\":18373:18393   */\n      tag_326\n      jump\t// in\n    tag_624:\n        /* \"#utility.yul\":18368:18393   */\n      swap3\n      pop\n        /* \"#utility.yul\":18412:18413   */\n      dup3\n        /* \"#utility.yul\":18402:18437   */\n      tag_625\n      jumpi\n        /* \"#utility.yul\":18417:18435   */\n      tag_626\n      tag_375\n      jump\t// in\n    tag_626:\n        /* \"#utility.yul\":18402:18437   */\n    tag_625:\n        /* \"#utility.yul\":18458:18459   */\n      dup3\n        /* \"#utility.yul\":18455:18456   */\n      dup3\n        /* \"#utility.yul\":18451:18460   */\n      mod\n        /* \"#utility.yul\":18446:18460   */\n      swap1\n      pop\n        /* \"#utility.yul\":18290:18466   */\n      swap3\n      swap2\n      pop\n      pop\n      jump\t// out\n        /* \"#utility.yul\":18472:18663   */\n    tag_149:\n        /* \"#utility.yul\":18512:18515   */\n      0x00\n        /* \"#utility.yul\":18531:18551   */\n      tag_628\n        /* \"#utility.yul\":18549:18550   */\n      dup3\n        /* \"#utility.yul\":18531:18551   */\n      tag_326\n      jump\t// in\n    tag_628:\n        /* \"#utility.yul\":18526:18551   */\n      swap2\n      pop\n        /* \"#utility.yul\":18565:18585   */\n      tag_629\n        /* \"#utility.yul\":18583:18584   */\n      dup4\n        /* \"#utility.yul\":18565:18585   */\n      tag_326\n      jump\t// in\n    tag_629:\n        /* \"#utility.yul\":18560:18585   */\n      swap3\n      pop\n        /* \"#utility.yul\":18608:18609   */\n      dup3\n        /* \"#utility.yul\":18605:18606   */\n      dup3\n        /* \"#utility.yul\":18601:18610   */\n      add\n        /* \"#utility.yul\":18594:18610   */\n      swap1\n      pop\n        /* \"#utility.yul\":18629:18632   */\n      dup1\n        /* \"#utility.yul\":18626:18627   */\n      dup3\n        /* \"#utility.yul\":18623:18633   */\n      gt\n        /* \"#utility.yul\":18620:18656   */\n      iszero\n      tag_630\n      jumpi\n        /* \"#utility.yul\":18636:18654   */\n      tag_631\n      tag_374\n      jump\t// in\n    tag_631:\n        /* \"#utility.yul\":18620:18656   */\n    tag_630:\n        /* \"#utility.yul\":18472:18663   */\n      swap3\n      swap2\n      pop\n      pop\n      jump\t// out\n        /* \"#utility.yul\":18669:18836   */\n    tag_376:\n        /* \"#utility.yul\":18809:18828   */\n      0x506c616e206973206e6f74206578697374000000000000000000000000000000\n        /* \"#utility.yul\":18805:18806   */\n      0x00\n        /* \"#utility.yul\":18797:18803   */\n      dup3\n        /* \"#utility.yul\":18793:18807   */\n      add\n        /* \"#utility.yul\":18786:18829   */\n      mstore\n        /* \"#utility.yul\":18669:18836   */\n      pop\n      jump\t// out\n        /* \"#utility.yul\":18842:19208   */\n    tag_377:\n        /* \"#utility.yul\":18984:18987   */\n      0x00\n        /* \"#utility.yul\":19005:19072   */\n      tag_634\n        /* \"#utility.yul\":19069:19071   */\n      0x11\n        /* \"#utility.yul\":19064:19067   */\n      dup4\n        /* \"#utility.yul\":19005:19072   */\n      tag_364\n      jump\t// in\n    tag_634:\n        /* \"#utility.yul\":18998:19072   */\n      swap2\n      pop\n        /* \"#utility.yul\":19081:19174   */\n      tag_635\n        /* \"#utility.yul\":19170:19173   */\n      dup3\n        /* \"#utility.yul\":19081:19174   */\n      tag_376\n      jump\t// in\n    tag_635:\n        /* \"#utility.yul\":19199:19201   */\n      0x20\n        /* \"#utility.yul\":19194:19197   */\n      dup3\n        /* \"#utility.yul\":19190:19202   */\n      add\n        /* \"#utility.yul\":19183:19202   */\n      swap1\n      pop\n        /* \"#utility.yul\":18842:19208   */\n      swap2\n      swap1\n      pop\n      jump\t// out\n        /* \"#utility.yul\":19214:19633   */\n    tag_156:\n        /* \"#utility.yul\":19380:19384   */\n      0x00\n        /* \"#utility.yul\":19418:19420   */\n      0x20\n        /* \"#utility.yul\":19407:19416   */\n      dup3\n        /* \"#utility.yul\":19403:19421   */\n      add\n        /* \"#utility.yul\":19395:19421   */\n      swap1\n      pop\n        /* \"#utility.yul\":19467:19476   */\n      dup2\n        /* \"#utility.yul\":19461:19465   */\n      dup2\n        /* \"#utility.yul\":19457:19477   */\n      sub\n        /* \"#utility.yul\":19453:19454   */\n      0x00\n        /* \"#utility.yul\":19442:19451   */\n      dup4\n        /* \"#utility.yul\":19438:19455   */\n      add\n        /* \"#utility.yul\":19431:19478   */\n      mstore\n        /* \"#utility.yul\":19495:19626   */\n      tag_637\n        /* \"#utility.yul\":19621:19625   */\n      dup2\n        /* \"#utility.yul\":19495:19626   */\n      tag_377\n      jump\t// in\n    tag_637:\n        /* \"#utility.yul\":19487:19626   */\n      swap1\n      pop\n        /* \"#utility.yul\":19214:19633   */\n      swap2\n      swap1\n      pop\n      jump\t// out\n        /* \"#utility.yul\":19639:19859   */\n    tag_378:\n        /* \"#utility.yul\":19779:19813   */\n      0x546f74616c206d7573742062652067726561746572207468616e20616d6f756e\n        /* \"#utility.yul\":19775:19776   */\n      0x00\n        /* \"#utility.yul\":19767:19773   */\n      dup3\n        /* \"#utility.yul\":19763:19777   */\n      add\n        /* \"#utility.yul\":19756:19814   */\n      mstore\n        /* \"#utility.yul\":19848:19851   */\n      0x7400000000000000000000000000000000000000000000000000000000000000\n        /* \"#utility.yul\":19843:19845   */\n      0x20\n        /* \"#utility.yul\":19835:19841   */\n      dup3\n        /* \"#utility.yul\":19831:19846   */\n      add\n        /* \"#utility.yul\":19824:19852   */\n      mstore\n        /* \"#utility.yul\":19639:19859   */\n      pop\n      jump\t// out\n        /* \"#utility.yul\":19865:20231   */\n    tag_379:\n        /* \"#utility.yul\":20007:20010   */\n      0x00\n        /* \"#utility.yul\":20028:20095   */\n      tag_640\n        /* \"#utility.yul\":20092:20094   */\n      0x21\n        /* \"#utility.yul\":20087:20090   */\n      dup4\n        /* \"#utility.yul\":20028:20095   */\n      tag_364\n      jump\t// in\n    tag_640:\n        /* \"#utility.yul\":20021:20095   */\n      swap2\n      pop\n        /* \"#utility.yul\":20104:20197   */\n      tag_641\n        /* \"#utility.yul\":20193:20196   */\n      dup3\n        /* \"#utility.yul\":20104:20197   */\n      tag_378\n      jump\t// in\n    tag_641:\n        /* \"#utility.yul\":20222:20224   */\n      0x40\n        /* \"#utility.yul\":20217:20220   */\n      dup3\n        /* \"#utility.yul\":20213:20225   */\n      add\n        /* \"#utility.yul\":20206:20225   */\n      swap1\n      pop\n        /* \"#utility.yul\":19865:20231   */\n      swap2\n      swap1\n      pop\n      jump\t// out\n        /* \"#utility.yul\":20237:20656   */\n    tag_162:\n        /* \"#utility.yul\":20403:20407   */\n      0x00\n        /* \"#utility.yul\":20441:20443   */\n      0x20\n        /* \"#utility.yul\":20430:20439   */\n      dup3\n        /* \"#utility.yul\":20426:20444   */\n      add\n        /* \"#utility.yul\":20418:20444   */\n      swap1\n      pop\n        /* \"#utility.yul\":20490:20499   */\n      dup2\n        /* \"#utility.yul\":20484:20488   */\n      dup2\n        /* \"#utility.yul\":20480:20500   */\n      sub\n        /* \"#utility.yul\":20476:20477   */\n      0x00\n        /* \"#utility.yul\":20465:20474   */\n      dup4\n        /* \"#utility.yul\":20461:20478   */\n      add\n        /* \"#utility.yul\":20454:20501   */\n      mstore\n        /* \"#utility.yul\":20518:20649   */\n      tag_643\n        /* \"#utility.yul\":20644:20648   */\n      dup2\n        /* \"#utility.yul\":20518:20649   */\n      tag_379\n      jump\t// in\n    tag_643:\n        /* \"#utility.yul\":20510:20649   */\n      swap1\n      pop\n        /* \"#utility.yul\":20237:20656   */\n      swap2\n      swap1\n      pop\n      jump\t// out\n        /* \"#utility.yul\":20662:20895   */\n    tag_173:\n        /* \"#utility.yul\":20701:20704   */\n      0x00\n        /* \"#utility.yul\":20724:20748   */\n      tag_645\n        /* \"#utility.yul\":20742:20747   */\n      dup3\n        /* \"#utility.yul\":20724:20748   */\n      tag_326\n      jump\t// in\n    tag_645:\n        /* \"#utility.yul\":20715:20748   */\n      swap2\n      pop\n        /* \"#utility.yul\":20770:20836   */\n      0xffffffffffffffffffffffffffffffffffffffffffffffffffffffffffffffff\n        /* \"#utility.yul\":20763:20768   */\n      dup3\n        /* \"#utility.yul\":20760:20837   */\n      sub\n        /* \"#utility.yul\":20757:20860   */\n      tag_646\n      jumpi\n        /* \"#utility.yul\":20840:20858   */\n      tag_647\n      tag_374\n      jump\t// in\n    tag_647:\n        /* \"#utility.yul\":20757:20860   */\n    tag_646:\n        /* \"#utility.yul\":20887:20888   */\n      0x01\n        /* \"#utility.yul\":20880:20885   */\n      dup3\n        /* \"#utility.yul\":20876:20889   */\n      add\n        /* \"#utility.yul\":20869:20889   */\n      swap1\n      pop\n        /* \"#utility.yul\":20662:20895   */\n      swap2\n      swap1\n      pop\n      jump\t// out\n        /* \"#utility.yul\":20901:21069   */\n    tag_380:\n        /* \"#utility.yul\":21041:21061   */\n      0x506c616e206973206e6f74206163746976650000000000000000000000000000\n        /* \"#utility.yul\":21037:21038   */\n      0x00\n        /* \"#utility.yul\":21029:21035   */\n      dup3\n        /* \"#utility.yul\":21025:21039   */\n      add\n        /* \"#utility.yul\":21018:21062   */\n      mstore\n        /* \"#utility.yul\":20901:21069   */\n      pop\n      jump\t// out\n        /* \"#utility.yul\":21075:21441   */\n    tag_381:\n        /* \"#utility.yul\":21217:21220   */\n      0x00\n        /* \"#utility.yul\":21238:21305   */\n      tag_650\n        /* \"#utility.yul\":21302:21304   */\n      0x12\n        /* \"#utility.yul\":21297:21300   */\n      dup4\n        /* \"#utility.yul\":21238:21305   */\n      tag_364\n      jump\t// in\n    tag_650:\n        /* \"#utility.yul\":21231:21305   */\n      swap2\n      pop\n        /* \"#utility.yul\":21314:21407   */\n      tag_651\n        /* \"#utility.yul\":21403:21406   */\n      dup3\n        /* \"#utility.yul\":21314:21407   */\n      tag_380\n      jump\t// in\n    tag_651:\n        /* \"#utility.yul\":21432:21434   */\n      0x20\n        /* \"#utility.yul\":21427:21430   */\n      dup3\n        /* \"#utility.yul\":21423:21435   */\n      add\n        /* \"#utility.yul\":21416:21435   */\n      swap1\n      pop\n        /* \"#utility.yul\":21075:21441   */\n      swap2\n      swap1\n      pop\n      jump\t// out\n        /* \"#utility.yul\":21447:21866   */\n    tag_179:\n        /* \"#utility.yul\":21613:21617   */\n      0x00\n        /* \"#utility.yul\":21651:21653   */\n      0x20\n        /* \"#utility.yul\":21640:21649   */\n      dup3\n        /* \"#utility.yul\":21636:21654   */\n      add\n        /* \"#utility.yul\":21628:21654   */\n      swap1\n      pop\n        /* \"#utility.yul\":21700:21709   */\n      dup2\n        /* \"#utility.yul\":21694:21698   */\n      dup2\n        /* \"#utility.yul\":21690:21710   */\n      sub\n        /* \"#utility.yul\":21686:21687   */\n      0x00\n        /* \"#utility.yul\":21675:21684   */\n      dup4\n        /* \"#utility.yul\":21671:21688   */\n      add\n        /* \"#utility.yul\":21664:21711   */\n      mstore\n        /* \"#utility.yul\":21728:21859   */\n      tag_653\n        /* \"#utility.yul\":21854:21858   */\n      dup2\n        /* \"#utility.yul\":21728:21859   */\n      tag_381\n      jump\t// in\n    tag_653:\n        /* \"#utility.yul\":21720:21859   */\n      swap1\n      pop\n        /* \"#utility.yul\":21447:21866   */\n      swap2\n      swap1\n      pop\n      jump\t// out\n        /* \"#utility.yul\":21872:22100   */\n    tag_382:\n        /* \"#utility.yul\":22012:22046   */\n      0x43616e6e6f742074726967676572206d6f7265207468616e2072656d61696e69\n        /* \"#utility.yul\":22008:22009   */\n      0x00\n        /* \"#utility.yul\":22000:22006   */\n      dup3\n        /* \"#utility.yul\":21996:22010   */\n      add\n        /* \"#utility.yul\":21989:22047   */\n      mstore\n        /* \"#utility.yul\":22081:22092   */\n      0x6e6720616d6f756e740000000000000000000000000000000000000000000000\n        /* \"#utility.yul\":22076:22078   */\n      0x20\n        /* \"#utility.yul\":22068:22074   */\n      dup3\n        /* \"#utility.yul\":22064:22079   */\n      add\n        /* \"#utility.yul\":22057:22093   */\n      mstore\n        /* \"#utility.yul\":21872:22100   */\n      pop\n      jump\t// out\n        /* \"#utility.yul\":22106:22472   */\n    tag_383:\n        /* \"#utility.yul\":22248:22251   */\n      0x00\n        /* \"#utility.yul\":22269:22336   */\n      tag_656\n        /* \"#utility.yul\":22333:22335   */\n      0x29\n        /* \"#utility.yul\":22328:22331   */\n      dup4\n        /* \"#utility.yul\":22269:22336   */\n      tag_364\n      jump\t// in\n    tag_656:\n        /* \"#utility.yul\":22262:22336   */\n      swap2\n      pop\n        /* \"#utility.yul\":22345:22438   */\n      tag_657\n        /* \"#utility.yul\":22434:22437   */\n      dup3\n        /* \"#utility.yul\":22345:22438   */\n      tag_382\n      jump\t// in\n    tag_657:\n        /* \"#utility.yul\":22463:22465   */\n      0x40\n        /* \"#utility.yul\":22458:22461   */\n      dup3\n        /* \"#utility.yul\":22454:22466   */\n      add\n        /* \"#utility.yul\":22447:22466   */\n      swap1\n      pop\n        /* \"#utility.yul\":22106:22472   */\n      swap2\n      swap1\n      pop\n      jump\t// out\n        /* \"#utility.yul\":22478:22897   */\n    tag_183:\n        /* \"#utility.yul\":22644:22648   */\n      0x00\n        /* \"#utility.yul\":22682:22684   */\n      0x20\n        /* \"#utility.yul\":22671:22680   */\n      dup3\n        /* \"#utility.yul\":22667:22685   */\n      add\n        /* \"#utility.yul\":22659:22685   */\n      swap1\n      pop\n        /* \"#utility.yul\":22731:22740   */\n      dup2\n        /* \"#utility.yul\":22725:22729   */\n      dup2\n        /* \"#utility.yul\":22721:22741   */\n      sub\n        /* \"#utility.yul\":22717:22718   */\n      0x00\n        /* \"#utility.yul\":22706:22715   */\n      dup4\n        /* \"#utility.yul\":22702:22719   */\n      add\n        /* \"#utility.yul\":22695:22742   */\n      mstore\n        /* \"#utility.yul\":22759:22890   */\n      tag_659\n        /* \"#utility.yul\":22885:22889   */\n      dup2\n        /* \"#utility.yul\":22759:22890   */\n      tag_383\n      jump\t// in\n    tag_659:\n        /* \"#utility.yul\":22751:22890   */\n      swap1\n      pop\n        /* \"#utility.yul\":22478:22897   */\n      swap2\n      swap1\n      pop\n      jump\t// out\n        /* \"#utility.yul\":22903:23129   */\n    tag_384:\n        /* \"#utility.yul\":23043:23077   */\n      0x43616e6e6f742074726967676572206265666f7265206e657874207472696767\n        /* \"#utility.yul\":23039:23040   */\n      0x00\n        /* \"#utility.yul\":23031:23037   */\n      dup3\n        /* \"#utility.yul\":23027:23041   */\n      add\n        /* \"#utility.yul\":23020:23078   */\n      mstore\n        /* \"#utility.yul\":23112:23121   */\n      0x65722074696d6500000000000000000000000000000000000000000000000000\n        /* \"#utility.yul\":23107:23109   */\n      0x20\n        /* \"#utility.yul\":23099:23105   */\n      dup3\n        /* \"#utility.yul\":23095:23110   */\n      add\n        /* \"#utility.yul\":23088:23122   */\n      mstore\n        /* \"#utility.yul\":22903:23129   */\n      pop\n      jump\t// out\n        /* \"#utility.yul\":23135:23501   */\n    tag_385:\n        /* \"#utility.yul\":23277:23280   */\n      0x00\n        /* \"#utility.yul\":23298:23365   */\n      tag_662\n        /* \"#utility.yul\":23362:23364   */\n      0x27\n        /* \"#utility.yul\":23357:23360   */\n      dup4\n        /* \"#utility.yul\":23298:23365   */\n      tag_364\n      jump\t// in\n    tag_662:\n        /* \"#utility.yul\":23291:23365   */\n      swap2\n      pop\n        /* \"#utility.yul\":23374:23467   */\n      tag_663\n        /* \"#utility.yul\":23463:23466   */\n      dup3\n        /* \"#utility.yul\":23374:23467   */\n      tag_384\n      jump\t// in\n    tag_663:\n        /* \"#utility.yul\":23492:23494   */\n      0x40\n        /* \"#utility.yul\":23487:23490   */\n      dup3\n        /* \"#utility.yul\":23483:23495   */\n      add\n        /* \"#utility.yul\":23476:23495   */\n      swap1\n      pop\n        /* \"#utility.yul\":23135:23501   */\n      swap2\n      swap1\n      pop\n      jump\t// out\n        /* \"#utility.yul\":23507:23926   */\n    tag_186:\n        /* \"#utility.yul\":23673:23677   */\n      0x00\n        /* \"#utility.yul\":23711:23713   */\n      0x20\n        /* \"#utility.yul\":23700:23709   */\n      dup3\n        /* \"#utility.yul\":23696:23714   */\n      add\n        /* \"#utility.yul\":23688:23714   */\n      swap1\n      pop\n        /* \"#utility.yul\":23760:23769   */\n      dup2\n        /* \"#utility.yul\":23754:23758   */\n      dup2\n        /* \"#utility.yul\":23750:23770   */\n      sub\n        /* \"#utility.yul\":23746:23747   */\n      0x00\n        /* \"#utility.yul\":23735:23744   */\n      dup4\n        /* \"#utility.yul\":23731:23748   */\n      add\n        /* \"#utility.yul\":23724:23771   */\n      mstore\n        /* \"#utility.yul\":23788:23919   */\n      tag_665\n        /* \"#utility.yul\":23914:23918   */\n      dup2\n        /* \"#utility.yul\":23788:23919   */\n      tag_385\n      jump\t// in\n    tag_665:\n        /* \"#utility.yul\":23780:23919   */\n      swap1\n      pop\n        /* \"#utility.yul\":23507:23926   */\n      swap2\n      swap1\n      pop\n      jump\t// out\n        /* \"#utility.yul\":23932:24037   */\n    tag_386:\n        /* \"#utility.yul\":23968:23975   */\n      0x00\n        /* \"#utility.yul\":24008:24030   */\n      0xffffffffffffffffffff\n        /* \"#utility.yul\":24001:24006   */\n      dup3\n        /* \"#utility.yul\":23997:24031   */\n      and\n        /* \"#utility.yul\":23986:24031   */\n      swap1\n      pop\n        /* \"#utility.yul\":23932:24037   */\n      swap2\n      swap1\n      pop\n      jump\t// out\n        /* \"#utility.yul\":24043:24163   */\n    tag_387:\n        /* \"#utility.yul\":24115:24138   */\n      tag_668\n        /* \"#utility.yul\":24132:24137   */\n      dup2\n        /* \"#utility.yul\":24115:24138   */\n      tag_386\n      jump\t// in\n    tag_668:\n        /* \"#utility.yul\":24108:24113   */\n      dup2\n        /* \"#utility.yul\":24105:24139   */\n      eq\n        /* \"#utility.yul\":24095:24157   */\n      tag_669\n      jumpi\n        /* \"#utility.yul\":24153:24154   */\n      0x00\n        /* \"#utility.yul\":24150:24151   */\n      dup1\n        /* \"#utility.yul\":24143:24155   */\n      revert\n        /* \"#utility.yul\":24095:24157   */\n    tag_669:\n        /* \"#utility.yul\":24043:24163   */\n      pop\n      jump\t// out\n        /* \"#utility.yul\":24169:24310   */\n    tag_388:\n        /* \"#utility.yul\":24225:24230   */\n      0x00\n        /* \"#utility.yul\":24256:24262   */\n      dup2\n        /* \"#utility.yul\":24250:24263   */\n      mload\n        /* \"#utility.yul\":24241:24263   */\n      swap1\n      pop\n        /* \"#utility.yul\":24272:24304   */\n      tag_671\n        /* \"#utility.yul\":24298:24303   */\n      dup2\n        /* \"#utility.yul\":24272:24304   */\n      tag_387\n      jump\t// in\n    tag_671:\n        /* \"#utility.yul\":24169:24310   */\n      swap3\n      swap2\n      pop\n      pop\n      jump\t// out\n        /* \"#utility.yul\":24316:24392   */\n    tag_389:\n        /* \"#utility.yul\":24352:24359   */\n      0x00\n        /* \"#utility.yul\":24381:24386   */\n      dup2\n        /* \"#utility.yul\":24370:24386   */\n      swap1\n      pop\n        /* \"#utility.yul\":24316:24392   */\n      swap2\n      swap1\n      pop\n      jump\t// out\n        /* \"#utility.yul\":24398:24518   */\n    tag_390:\n        /* \"#utility.yul\":24470:24493   */\n      tag_674\n        /* \"#utility.yul\":24487:24492   */\n      dup2\n        /* \"#utility.yul\":24470:24493   */\n      tag_389\n      jump\t// in\n    tag_674:\n        /* \"#utility.yul\":24463:24468   */\n      dup2\n        /* \"#utility.yul\":24460:24494   */\n      eq\n        /* \"#utility.yul\":24450:24512   */\n      tag_675\n      jumpi\n        /* \"#utility.yul\":24508:24509   */\n      0x00\n        /* \"#utility.yul\":24505:24506   */\n      dup1\n        /* \"#utility.yul\":24498:24510   */\n      revert\n        /* \"#utility.yul\":24450:24512   */\n    tag_675:\n        /* \"#utility.yul\":24398:24518   */\n      pop\n      jump\t// out\n        /* \"#utility.yul\":24524:24665   */\n    tag_391:\n        /* \"#utility.yul\":24580:24585   */\n      0x00\n        /* \"#utility.yul\":24611:24617   */\n      dup2\n        /* \"#utility.yul\":24605:24618   */\n      mload\n        /* \"#utility.yul\":24596:24618   */\n      swap1\n      pop\n        /* \"#utility.yul\":24627:24659   */\n      tag_677\n        /* \"#utility.yul\":24653:24658   */\n      dup2\n        /* \"#utility.yul\":24627:24659   */\n      tag_390\n      jump\t// in\n    tag_677:\n        /* \"#utility.yul\":24524:24665   */\n      swap3\n      swap2\n      pop\n      pop\n      jump\t// out\n        /* \"#utility.yul\":24671:24814   */\n    tag_392:\n        /* \"#utility.yul\":24728:24733   */\n      0x00\n        /* \"#utility.yul\":24759:24765   */\n      dup2\n        /* \"#utility.yul\":24753:24766   */\n      mload\n        /* \"#utility.yul\":24744:24766   */\n      swap1\n      pop\n        /* \"#utility.yul\":24775:24808   */\n      tag_679\n        /* \"#utility.yul\":24802:24807   */\n      dup2\n        /* \"#utility.yul\":24775:24808   */\n      tag_327\n      jump\t// in\n    tag_679:\n        /* \"#utility.yul\":24671:24814   */\n      swap3\n      swap2\n      pop\n      pop\n      jump\t// out\n        /* \"#utility.yul\":24820:25791   */\n    tag_190:\n        /* \"#utility.yul\":24923:24929   */\n      0x00\n        /* \"#utility.yul\":24931:24937   */\n      dup1\n        /* \"#utility.yul\":24939:24945   */\n      0x00\n        /* \"#utility.yul\":24947:24953   */\n      dup1\n        /* \"#utility.yul\":24955:24961   */\n      0x00\n        /* \"#utility.yul\":25004:25007   */\n      0xa0\n        /* \"#utility.yul\":24992:25001   */\n      dup7\n        /* \"#utility.yul\":24983:24990   */\n      dup9\n        /* \"#utility.yul\":24979:25002   */\n      sub\n        /* \"#utility.yul\":24975:25008   */\n      slt\n        /* \"#utility.yul\":24972:25092   */\n      iszero\n      tag_681\n      jumpi\n        /* \"#utility.yul\":25011:25090   */\n      tag_682\n      tag_324\n      jump\t// in\n    tag_682:\n        /* \"#utility.yul\":24972:25092   */\n    tag_681:\n        /* \"#utility.yul\":25131:25132   */\n      0x00\n        /* \"#utility.yul\":25156:25219   */\n      tag_683\n        /* \"#utility.yul\":25211:25218   */\n      dup9\n        /* \"#utility.yul\":25202:25208   */\n      dup3\n        /* \"#utility.yul\":25191:25200   */\n      dup10\n        /* \"#utility.yul\":25187:25209   */\n      add\n        /* \"#utility.yul\":25156:25219   */\n      tag_388\n      jump\t// in\n    tag_683:\n        /* \"#utility.yul\":25146:25219   */\n      swap6\n      pop\n        /* \"#utility.yul\":25102:25229   */\n      pop\n        /* \"#utility.yul\":25268:25270   */\n      0x20\n        /* \"#utility.yul\":25294:25357   */\n      tag_684\n        /* \"#utility.yul\":25349:25356   */\n      dup9\n        /* \"#utility.yul\":25340:25346   */\n      dup3\n        /* \"#utility.yul\":25329:25338   */\n      dup10\n        /* \"#utility.yul\":25325:25347   */\n      add\n        /* \"#utility.yul\":25294:25357   */\n      tag_391\n      jump\t// in\n    tag_684:\n        /* \"#utility.yul\":25284:25357   */\n      swap5\n      pop\n        /* \"#utility.yul\":25239:25367   */\n      pop\n        /* \"#utility.yul\":25406:25408   */\n      0x40\n        /* \"#utility.yul\":25432:25496   */\n      tag_685\n        /* \"#utility.yul\":25488:25495   */\n      dup9\n        /* \"#utility.yul\":25479:25485   */\n      dup3\n        /* \"#utility.yul\":25468:25477   */\n      dup10\n        /* \"#utility.yul\":25464:25486   */\n      add\n        /* \"#utility.yul\":25432:25496   */\n      tag_392\n      jump\t// in\n    tag_685:\n        /* \"#utility.yul\":25422:25496   */\n      swap4\n      pop\n        /* \"#utility.yul\":25377:25506   */\n      pop\n        /* \"#utility.yul\":25545:25547   */\n      0x60\n        /* \"#utility.yul\":25571:25635   */\n      tag_686\n        /* \"#utility.yul\":25627:25634   */\n      dup9\n        /* \"#utility.yul\":25618:25624   */\n      dup3\n        /* \"#utility.yul\":25607:25616   */\n      dup10\n        /* \"#utility.yul\":25603:25625   */\n      add\n        /* \"#utility.yul\":25571:25635   */\n      tag_392\n      jump\t// in\n    tag_686:\n        /* \"#utility.yul\":25561:25635   */\n      swap3\n      pop\n        /* \"#utility.yul\":25516:25645   */\n      pop\n        /* \"#utility.yul\":25684:25687   */\n      0x80\n        /* \"#utility.yul\":25711:25774   */\n      tag_687\n        /* \"#utility.yul\":25766:25773   */\n      dup9\n        /* \"#utility.yul\":25757:25763   */\n      dup3\n        /* \"#utility.yul\":25746:25755   */\n      dup10\n        /* \"#utility.yul\":25742:25764   */\n      add\n        /* \"#utility.yul\":25711:25774   */\n      tag_388\n      jump\t// in\n    tag_687:\n        /* \"#utility.yul\":25701:25774   */\n      swap2\n      pop\n        /* \"#utility.yul\":25655:25784   */\n      pop\n        /* \"#utility.yul\":24820:25791   */\n      swap3\n      swap6\n      pop\n      swap3\n      swap6\n      swap1\n      swap4\n      pop\n      jump\t// out\n        /* \"#utility.yul\":25797:25883   */\n    tag_393:\n        /* \"#utility.yul\":25832:25839   */\n      0x00\n        /* \"#utility.yul\":25872:25876   */\n      0xff\n        /* \"#utility.yul\":25865:25870   */\n      dup3\n        /* \"#utility.yul\":25861:25877   */\n      and\n        /* \"#utility.yul\":25850:25877   */\n      swap1\n      pop\n        /* \"#utility.yul\":25797:25883   */\n      swap2\n      swap1\n      pop\n      jump\t// out\n        /* \"#utility.yul\":25889:26007   */\n    tag_394:\n        /* \"#utility.yul\":25960:25982   */\n      tag_690\n        /* \"#utility.yul\":25976:25981   */\n      dup2\n        /* \"#utility.yul\":25960:25982   */\n      tag_393\n      jump\t// in\n    tag_690:\n        /* \"#utility.yul\":25953:25958   */\n      dup2\n        /* \"#utility.yul\":25950:25983   */\n      eq\n        /* \"#utility.yul\":25940:26001   */\n      tag_691\n      jumpi\n        /* \"#utility.yul\":25997:25998   */\n      0x00\n        /* \"#utility.yul\":25994:25995   */\n      dup1\n        /* \"#utility.yul\":25987:25999   */\n      revert\n        /* \"#utility.yul\":25940:26001   */\n    tag_691:\n        /* \"#utility.yul\":25889:26007   */\n      pop\n      jump\t// out\n        /* \"#utility.yul\":26013:26152   */\n    tag_395:\n        /* \"#utility.yul\":26068:26073   */\n      0x00\n        /* \"#utility.yul\":26099:26105   */\n      dup2\n        /* \"#utility.yul\":26093:26106   */\n      mload\n        /* \"#utility.yul\":26084:26106   */\n      swap1\n      pop\n        /* \"#utility.yul\":26115:26146   */\n      tag_693\n        /* \"#utility.yul\":26140:26145   */\n      dup2\n        /* \"#utility.yul\":26115:26146   */\n      tag_394\n      jump\t// in\n    tag_693:\n        /* \"#utility.yul\":26013:26152   */\n      swap3\n      swap2\n      pop\n      pop\n      jump\t// out\n        /* \"#utility.yul\":26158:26505   */\n    tag_194:\n        /* \"#utility.yul\":26226:26232   */\n      0x00\n        /* \"#utility.yul\":26275:26277   */\n      0x20\n        /* \"#utility.yul\":26263:26272   */\n      dup3\n        /* \"#utility.yul\":26254:26261   */\n      dup5\n        /* \"#utility.yul\":26250:26273   */\n      sub\n        /* \"#utility.yul\":26246:26278   */\n      slt\n        /* \"#utility.yul\":26243:26362   */\n      iszero\n      tag_695\n      jumpi\n        /* \"#utility.yul\":26281:26360   */\n      tag_696\n      tag_324\n      jump\t// in\n    tag_696:\n        /* \"#utility.yul\":26243:26362   */\n    tag_695:\n        /* \"#utility.yul\":26401:26402   */\n      0x00\n        /* \"#utility.yul\":26426:26488   */\n      tag_697\n        /* \"#utility.yul\":26480:26487   */\n      dup5\n        /* \"#utility.yul\":26471:26477   */\n      dup3\n        /* \"#utility.yul\":26460:26469   */\n      dup6\n        /* \"#utility.yul\":26456:26478   */\n      add\n        /* \"#utility.yul\":26426:26488   */\n      tag_395\n      jump\t// in\n    tag_697:\n        /* \"#utility.yul\":26416:26488   */\n      swap2\n      pop\n        /* \"#utility.yul\":26372:26498   */\n      pop\n        /* \"#utility.yul\":26158:26505   */\n      swap3\n      swap2\n      pop\n      pop\n      jump\t// out\n        /* \"#utility.yul\":26511:26613   */\n    tag_396:\n        /* \"#utility.yul\":26553:26561   */\n      0x00\n        /* \"#utility.yul\":26600:26605   */\n      dup2\n        /* \"#utility.yul\":26597:26598   */\n      0x01\n        /* \"#utility.yul\":26593:26606   */\n      shr\n        /* \"#utility.yul\":26572:26606   */\n      swap1\n      pop\n        /* \"#utility.yul\":26511:26613   */\n      swap2\n      swap1\n      pop\n      jump\t// out\n        /* \"#utility.yul\":26619:27467   */\n    tag_397:\n        /* \"#utility.yul\":26680:26685   */\n      0x00\n        /* \"#utility.yul\":26687:26691   */\n      dup1\n        /* \"#utility.yul\":26711:26717   */\n      dup3\n        /* \"#utility.yul\":26702:26717   */\n      swap2\n      pop\n        /* \"#utility.yul\":26735:26740   */\n      dup4\n        /* \"#utility.yul\":26726:26740   */\n      swap1\n      pop\n        /* \"#utility.yul\":26749:27461   */\n    tag_700:\n        /* \"#utility.yul\":26770:26771   */\n      0x01\n        /* \"#utility.yul\":26760:26768   */\n      dup6\n        /* \"#utility.yul\":26757:26772   */\n      gt\n        /* \"#utility.yul\":26749:27461   */\n      iszero\n      tag_702\n      jumpi\n        /* \"#utility.yul\":26865:26869   */\n      dup1\n        /* \"#utility.yul\":26860:26863   */\n      dup7\n        /* \"#utility.yul\":26856:26870   */\n      div\n        /* \"#utility.yul\":26850:26854   */\n      dup2\n        /* \"#utility.yul\":26847:26871   */\n      gt\n        /* \"#utility.yul\":26844:26894   */\n      iszero\n      tag_703\n      jumpi\n        /* \"#utility.yul\":26874:26892   */\n      tag_704\n      tag_374\n      jump\t// in\n    tag_704:\n        /* \"#utility.yul\":26844:26894   */\n    tag_703:\n        /* \"#utility.yul\":26924:26925   */\n      0x01\n        /* \"#utility.yul\":26914:26922   */\n      dup6\n        /* \"#utility.yul\":26910:26926   */\n      and\n        /* \"#utility.yul\":26907:27358   */\n      iszero\n      tag_705\n      jumpi\n        /* \"#utility.yul\":27339:27343   */\n      dup1\n        /* \"#utility.yul\":27332:27337   */\n      dup3\n        /* \"#utility.yul\":27328:27344   */\n      mul\n        /* \"#utility.yul\":27319:27344   */\n      swap2\n      pop\n        /* \"#utility.yul\":26907:27358   */\n    tag_705:\n        /* \"#utility.yul\":27389:27393   */\n      dup1\n        /* \"#utility.yul\":27383:27387   */\n      dup2\n        /* \"#utility.yul\":27379:27394   */\n      mul\n        /* \"#utility.yul\":27371:27394   */\n      swap1\n      pop\n        /* \"#utility.yul\":27419:27451   */\n      tag_706\n        /* \"#utility.yul\":27442:27450   */\n      dup6\n        /* \"#utility.yul\":27419:27451   */\n      tag_396\n      jump\t// in\n    tag_706:\n        /* \"#utility.yul\":27407:27451   */\n      swap5\n      pop\n        /* \"#utility.yul\":26749:27461   */\n      jump(tag_700)\n    tag_702:\n        /* \"#utility.yul\":26619:27467   */\n      swap5\n      pop\n      swap5\n      swap3\n      pop\n      pop\n      pop\n      jump\t// out\n        /* \"#utility.yul\":27473:28546   */\n    tag_398:\n        /* \"#utility.yul\":27527:27532   */\n      0x00\n        /* \"#utility.yul\":27718:27726   */\n      dup3\n        /* \"#utility.yul\":27708:27748   */\n      tag_708\n      jumpi\n        /* \"#utility.yul\":27739:27740   */\n      0x01\n        /* \"#utility.yul\":27730:27740   */\n      swap1\n      pop\n        /* \"#utility.yul\":27741:27746   */\n      jump(tag_707)\n        /* \"#utility.yul\":27708:27748   */\n    tag_708:\n        /* \"#utility.yul\":27767:27771   */\n      dup2\n        /* \"#utility.yul\":27757:27793   */\n      tag_709\n      jumpi\n        /* \"#utility.yul\":27784:27785   */\n      0x00\n        /* \"#utility.yul\":27775:27785   */\n      swap1\n      pop\n        /* \"#utility.yul\":27786:27791   */\n      jump(tag_707)\n        /* \"#utility.yul\":27757:27793   */\n    tag_709:\n        /* \"#utility.yul\":27853:27857   */\n      dup2\n        /* \"#utility.yul\":27901:27902   */\n      0x01\n        /* \"#utility.yul\":27896:27923   */\n      dup2\n      eq\n      tag_711\n      jumpi\n        /* \"#utility.yul\":27937:27938   */\n      0x02\n        /* \"#utility.yul\":27932:28123   */\n      dup2\n      eq\n      tag_712\n      jumpi\n        /* \"#utility.yul\":27846:28123   */\n      jump(tag_710)\n        /* \"#utility.yul\":27896:27923   */\n    tag_711:\n        /* \"#utility.yul\":27914:27915   */\n      0x01\n        /* \"#utility.yul\":27905:27915   */\n      swap2\n      pop\n        /* \"#utility.yul\":27916:27921   */\n      pop\n      jump(tag_707)\n        /* \"#utility.yul\":27932:28123   */\n    tag_712:\n        /* \"#utility.yul\":27977:27980   */\n      0xff\n        /* \"#utility.yul\":27967:27975   */\n      dup5\n        /* \"#utility.yul\":27964:27981   */\n      gt\n        /* \"#utility.yul\":27961:28004   */\n      iszero\n      tag_713\n      jumpi\n        /* \"#utility.yul\":27984:28002   */\n      tag_714\n      tag_374\n      jump\t// in\n    tag_714:\n        /* \"#utility.yul\":27961:28004   */\n    tag_713:\n        /* \"#utility.yul\":28033:28041   */\n      dup4\n        /* \"#utility.yul\":28030:28031   */\n      0x02\n        /* \"#utility.yul\":28026:28042   */\n      exp\n        /* \"#utility.yul\":28017:28042   */\n      swap2\n      pop\n        /* \"#utility.yul\":28068:28071   */\n      dup5\n        /* \"#utility.yul\":28061:28066   */\n      dup3\n        /* \"#utility.yul\":28058:28072   */\n      gt\n        /* \"#utility.yul\":28055:28095   */\n      iszero\n      tag_715\n      jumpi\n        /* \"#utility.yul\":28075:28093   */\n      tag_716\n      tag_374\n      jump\t// in\n    tag_716:\n        /* \"#utility.yul\":28055:28095   */\n    tag_715:\n        /* \"#utility.yul\":28108:28113   */\n      pop\n      jump(tag_707)\n        /* \"#utility.yul\":27846:28123   */\n    tag_710:\n      pop\n        /* \"#utility.yul\":28232:28234   */\n      0x20\n        /* \"#utility.yul\":28222:28230   */\n      dup4\n        /* \"#utility.yul\":28219:28235   */\n      lt\n        /* \"#utility.yul\":28213:28216   */\n      0x0133\n        /* \"#utility.yul\":28207:28211   */\n      dup4\n        /* \"#utility.yul\":28204:28217   */\n      lt\n        /* \"#utility.yul\":28200:28236   */\n      and\n        /* \"#utility.yul\":28182:28184   */\n      0x4e\n        /* \"#utility.yul\":28172:28180   */\n      dup5\n        /* \"#utility.yul\":28169:28185   */\n      lt\n        /* \"#utility.yul\":28164:28166   */\n      0x0b\n        /* \"#utility.yul\":28158:28162   */\n      dup5\n        /* \"#utility.yul\":28155:28167   */\n      lt\n        /* \"#utility.yul\":28151:28186   */\n      and\n        /* \"#utility.yul\":28135:28246   */\n      or\n        /* \"#utility.yul\":28132:28378   */\n      iszero\n      tag_717\n      jumpi\n        /* \"#utility.yul\":28288:28296   */\n      dup3\n        /* \"#utility.yul\":28282:28286   */\n      dup3\n        /* \"#utility.yul\":28278:28297   */\n      exp\n        /* \"#utility.yul\":28269:28297   */\n      swap1\n      pop\n        /* \"#utility.yul\":28323:28326   */\n      dup4\n        /* \"#utility.yul\":28316:28321   */\n      dup2\n        /* \"#utility.yul\":28313:28327   */\n      gt\n        /* \"#utility.yul\":28310:28350   */\n      iszero\n      tag_718\n      jumpi\n        /* \"#utility.yul\":28330:28348   */\n      tag_719\n      tag_374\n      jump\t// in\n    tag_719:\n        /* \"#utility.yul\":28310:28350   */\n    tag_718:\n        /* \"#utility.yul\":28363:28368   */\n      jump(tag_707)\n        /* \"#utility.yul\":28132:28378   */\n    tag_717:\n        /* \"#utility.yul\":28403:28445   */\n      tag_720\n        /* \"#utility.yul\":28441:28444   */\n      dup5\n        /* \"#utility.yul\":28431:28439   */\n      dup5\n        /* \"#utility.yul\":28425:28429   */\n      dup5\n        /* \"#utility.yul\":28422:28423   */\n      0x01\n        /* \"#utility.yul\":28403:28445   */\n      tag_397\n      jump\t// in\n    tag_720:\n        /* \"#utility.yul\":28388:28445   */\n      swap3\n      pop\n      swap1\n      pop\n        /* \"#utility.yul\":28477:28481   */\n      dup2\n        /* \"#utility.yul\":28472:28475   */\n      dup5\n        /* \"#utility.yul\":28468:28482   */\n      div\n        /* \"#utility.yul\":28461:28466   */\n      dup2\n        /* \"#utility.yul\":28458:28483   */\n      gt\n        /* \"#utility.yul\":28455:28506   */\n      iszero\n      tag_721\n      jumpi\n        /* \"#utility.yul\":28486:28504   */\n      tag_722\n      tag_374\n      jump\t// in\n    tag_722:\n        /* \"#utility.yul\":28455:28506   */\n    tag_721:\n        /* \"#utility.yul\":28535:28539   */\n      dup2\n        /* \"#utility.yul\":28528:28533   */\n      dup2\n        /* \"#utility.yul\":28524:28540   */\n      mul\n        /* \"#utility.yul\":28515:28540   */\n      swap1\n      pop\n        /* \"#utility.yul\":27473:28546   */\n    tag_707:\n      swap4\n      swap3\n      pop\n      pop\n      pop\n      jump\t// out\n        /* \"#utility.yul\":28552:28837   */\n    tag_197:\n        /* \"#utility.yul\":28612:28617   */\n      0x00\n        /* \"#utility.yul\":28636:28659   */\n      tag_724\n        /* \"#utility.yul\":28654:28658   */\n      dup3\n        /* \"#utility.yul\":28636:28659   */\n      tag_326\n      jump\t// in\n    tag_724:\n        /* \"#utility.yul\":28628:28659   */\n      swap2\n      pop\n        /* \"#utility.yul\":28680:28707   */\n      tag_725\n        /* \"#utility.yul\":28698:28706   */\n      dup4\n        /* \"#utility.yul\":28680:28707   */\n      tag_326\n      jump\t// in\n    tag_725:\n        /* \"#utility.yul\":28668:28707   */\n      swap3\n      pop\n        /* \"#utility.yul\":28726:28830   */\n      tag_726\n        /* \"#utility.yul\":28763:28829   */\n      0xffffffffffffffffffffffffffffffffffffffffffffffffffffffffffffffff\n        /* \"#utility.yul\":28753:28761   */\n      dup5\n        /* \"#utility.yul\":28747:28751   */\n      dup5\n        /* \"#utility.yul\":28726:28830   */\n      tag_398\n      jump\t// in\n    tag_726:\n        /* \"#utility.yul\":28717:28830   */\n      swap1\n      pop\n        /* \"#utility.yul\":28552:28837   */\n      swap3\n      swap2\n      pop\n      pop\n      jump\t// out\n        /* \"#utility.yul\":28843:29253   */\n    tag_199:\n        /* \"#utility.yul\":28883:28890   */\n      0x00\n        /* \"#utility.yul\":28906:28926   */\n      tag_728\n        /* \"#utility.yul\":28924:28925   */\n      dup3\n        /* \"#utility.yul\":28906:28926   */\n      tag_326\n      jump\t// in\n    tag_728:\n        /* \"#utility.yul\":28901:28926   */\n      swap2\n      pop\n        /* \"#utility.yul\":28940:28960   */\n      tag_729\n        /* \"#utility.yul\":28958:28959   */\n      dup4\n        /* \"#utility.yul\":28940:28960   */\n      tag_326\n      jump\t// in\n    tag_729:\n        /* \"#utility.yul\":28935:28960   */\n      swap3\n      pop\n        /* \"#utility.yul\":28995:28996   */\n      dup3\n        /* \"#utility.yul\":28992:28993   */\n      dup3\n        /* \"#utility.yul\":28988:28997   */\n      mul\n        /* \"#utility.yul\":29017:29047   */\n      tag_730\n        /* \"#utility.yul\":29035:29046   */\n      dup2\n        /* \"#utility.yul\":29017:29047   */\n      tag_326\n      jump\t// in\n    tag_730:\n        /* \"#utility.yul\":29006:29047   */\n      swap2\n      pop\n        /* \"#utility.yul\":29196:29197   */\n      dup3\n        /* \"#utility.yul\":29187:29194   */\n      dup3\n        /* \"#utility.yul\":29183:29198   */\n      div\n        /* \"#utility.yul\":29180:29181   */\n      dup5\n        /* \"#utility.yul\":29177:29199   */\n      eq\n        /* \"#utility.yul\":29157:29158   */\n      dup4\n        /* \"#utility.yul\":29150:29159   */\n      iszero\n        /* \"#utility.yul\":29130:29213   */\n      or\n        /* \"#utility.yul\":29107:29246   */\n      tag_731\n      jumpi\n        /* \"#utility.yul\":29226:29244   */\n      tag_732\n      tag_374\n      jump\t// in\n    tag_732:\n        /* \"#utility.yul\":29107:29246   */\n    tag_731:\n        /* \"#utility.yul\":28891:29253   */\n      pop\n        /* \"#utility.yul\":28843:29253   */\n      swap3\n      swap2\n      pop\n      pop\n      jump\t// out\n        /* \"#utility.yul\":29259:29444   */\n    tag_201:\n        /* \"#utility.yul\":29299:29300   */\n      0x00\n        /* \"#utility.yul\":29316:29336   */\n      tag_734\n        /* \"#utility.yul\":29334:29335   */\n      dup3\n        /* \"#utility.yul\":29316:29336   */\n      tag_326\n      jump\t// in\n    tag_734:\n        /* \"#utility.yul\":29311:29336   */\n      swap2\n      pop\n        /* \"#utility.yul\":29350:29370   */\n      tag_735\n        /* \"#utility.yul\":29368:29369   */\n      dup4\n        /* \"#utility.yul\":29350:29370   */\n      tag_326\n      jump\t// in\n    tag_735:\n        /* \"#utility.yul\":29345:29370   */\n      swap3\n      pop\n        /* \"#utility.yul\":29389:29390   */\n      dup3\n        /* \"#utility.yul\":29379:29414   */\n      tag_736\n      jumpi\n        /* \"#utility.yul\":29394:29412   */\n      tag_737\n      tag_375\n      jump\t// in\n    tag_737:\n        /* \"#utility.yul\":29379:29414   */\n    tag_736:\n        /* \"#utility.yul\":29436:29437   */\n      dup3\n        /* \"#utility.yul\":29433:29434   */\n      dup3\n        /* \"#utility.yul\":29429:29438   */\n      div\n        /* \"#utility.yul\":29424:29438   */\n      swap1\n      pop\n        /* \"#utility.yul\":29259:29444   */\n      swap3\n      swap2\n      pop\n      pop\n      jump\t// out\n        /* \"#utility.yul\":29450:29630   */\n    tag_216:\n        /* \"#utility.yul\":29498:29575   */\n      0x4e487b7100000000000000000000000000000000000000000000000000000000\n        /* \"#utility.yul\":29495:29496   */\n      0x00\n        /* \"#utility.yul\":29488:29576   */\n      mstore\n        /* \"#utility.yul\":29595:29599   */\n      0x32\n        /* \"#utility.yul\":29592:29593   */\n      0x04\n        /* \"#utility.yul\":29585:29600   */\n      mstore\n        /* \"#utility.yul\":29619:29623   */\n      0x24\n        /* \"#utility.yul\":29616:29617   */\n      0x00\n        /* \"#utility.yul\":29609:29624   */\n      revert\n        /* \"#utility.yul\":29636:29779   */\n    tag_399:\n        /* \"#utility.yul\":29693:29698   */\n      0x00\n        /* \"#utility.yul\":29724:29730   */\n      dup2\n        /* \"#utility.yul\":29718:29731   */\n      mload\n        /* \"#utility.yul\":29709:29731   */\n      swap1\n      pop\n        /* \"#utility.yul\":29740:29773   */\n      tag_740\n        /* \"#utility.yul\":29767:29772   */\n      dup2\n        /* \"#utility.yul\":29740:29773   */\n      tag_361\n      jump\t// in\n    tag_740:\n        /* \"#utility.yul\":29636:29779   */\n      swap3\n      swap2\n      pop\n      pop\n      jump\t// out\n        /* \"#utility.yul\":29785:30136   */\n    tag_220:\n        /* \"#utility.yul\":29855:29861   */\n      0x00\n        /* \"#utility.yul\":29904:29906   */\n      0x20\n        /* \"#utility.yul\":29892:29901   */\n      dup3\n        /* \"#utility.yul\":29883:29890   */\n      dup5\n        /* \"#utility.yul\":29879:29902   */\n      sub\n        /* \"#utility.yul\":29875:29907   */\n      slt\n        /* \"#utility.yul\":29872:29991   */\n      iszero\n      tag_742\n      jumpi\n        /* \"#utility.yul\":29910:29989   */\n      tag_743\n      tag_324\n      jump\t// in\n    tag_743:\n        /* \"#utility.yul\":29872:29991   */\n    tag_742:\n        /* \"#utility.yul\":30030:30031   */\n      0x00\n        /* \"#utility.yul\":30055:30119   */\n      tag_744\n        /* \"#utility.yul\":30111:30118   */\n      dup5\n        /* \"#utility.yul\":30102:30108   */\n      dup3\n        /* \"#utility.yul\":30091:30100   */\n      dup6\n        /* \"#utility.yul\":30087:30109   */\n      add\n        /* \"#utility.yul\":30055:30119   */\n      tag_399\n      jump\t// in\n    tag_744:\n        /* \"#utility.yul\":30045:30119   */\n      swap2\n      pop\n        /* \"#utility.yul\":30001:30129   */\n      pop\n        /* \"#utility.yul\":29785:30136   */\n      swap3\n      swap2\n      pop\n      pop\n      jump\t// out\n        /* \"#utility.yul\":30142:30256   */\n    tag_400:\n        /* \"#utility.yul\":30209:30215   */\n      0x00\n        /* \"#utility.yul\":30243:30248   */\n      dup2\n        /* \"#utility.yul\":30237:30249   */\n      mload\n        /* \"#utility.yul\":30227:30249   */\n      swap1\n      pop\n        /* \"#utility.yul\":30142:30256   */\n      swap2\n      swap1\n      pop\n      jump\t// out\n        /* \"#utility.yul\":30262:30446   */\n    tag_401:\n        /* \"#utility.yul\":30361:30372   */\n      0x00\n        /* \"#utility.yul\":30395:30401   */\n      dup3\n        /* \"#utility.yul\":30390:30393   */\n      dup3\n        /* \"#utility.yul\":30383:30402   */\n      mstore\n        /* \"#utility.yul\":30435:30439   */\n      0x20\n        /* \"#utility.yul\":30430:30433   */\n      dup3\n        /* \"#utility.yul\":30426:30440   */\n      add\n        /* \"#utility.yul\":30411:30440   */\n      swap1\n      pop\n        /* \"#utility.yul\":30262:30446   */\n      swap3\n      swap2\n      pop\n      pop\n      jump\t// out\n        /* \"#utility.yul\":30452:30584   */\n    tag_402:\n        /* \"#utility.yul\":30519:30523   */\n      0x00\n        /* \"#utility.yul\":30542:30545   */\n      dup2\n        /* \"#utility.yul\":30534:30545   */\n      swap1\n      pop\n        /* \"#utility.yul\":30572:30576   */\n      0x20\n        /* \"#utility.yul\":30567:30570   */\n      dup3\n        /* \"#utility.yul\":30563:30577   */\n      add\n        /* \"#utility.yul\":30555:30577   */\n      swap1\n      pop\n        /* \"#utility.yul\":30452:30584   */\n      swap2\n      swap1\n      pop\n      jump\t// out\n        /* \"#utility.yul\":30590:30698   */\n    tag_403:\n        /* \"#utility.yul\":30667:30691   */\n      tag_749\n        /* \"#utility.yul\":30685:30690   */\n      dup2\n        /* \"#utility.yul\":30667:30691   */\n      tag_347\n      jump\t// in\n    tag_749:\n        /* \"#utility.yul\":30662:30665   */\n      dup3\n        /* \"#utility.yul\":30655:30692   */\n      mstore\n        /* \"#utility.yul\":30590:30698   */\n      pop\n      pop\n      jump\t// out\n        /* \"#utility.yul\":30704:30883   */\n    tag_404:\n        /* \"#utility.yul\":30773:30783   */\n      0x00\n        /* \"#utility.yul\":30794:30840   */\n      tag_751\n        /* \"#utility.yul\":30836:30839   */\n      dup4\n        /* \"#utility.yul\":30828:30834   */\n      dup4\n        /* \"#utility.yul\":30794:30840   */\n      tag_403\n      jump\t// in\n    tag_751:\n        /* \"#utility.yul\":30872:30876   */\n      0x20\n        /* \"#utility.yul\":30867:30870   */\n      dup4\n        /* \"#utility.yul\":30863:30877   */\n      add\n        /* \"#utility.yul\":30849:30877   */\n      swap1\n      pop\n        /* \"#utility.yul\":30704:30883   */\n      swap3\n      swap2\n      pop\n      pop\n      jump\t// out\n        /* \"#utility.yul\":30889:31002   */\n    tag_405:\n        /* \"#utility.yul\":30959:30963   */\n      0x00\n        /* \"#utility.yul\":30991:30995   */\n      0x20\n        /* \"#utility.yul\":30986:30989   */\n      dup3\n        /* \"#utility.yul\":30982:30996   */\n      add\n        /* \"#utility.yul\":30974:30996   */\n      swap1\n      pop\n        /* \"#utility.yul\":30889:31002   */\n      swap2\n      swap1\n      pop\n      jump\t// out\n        /* \"#utility.yul\":31038:31770   */\n    tag_406:\n        /* \"#utility.yul\":31157:31160   */\n      0x00\n        /* \"#utility.yul\":31186:31240   */\n      tag_754\n        /* \"#utility.yul\":31234:31239   */\n      dup3\n        /* \"#utility.yul\":31186:31240   */\n      tag_400\n      jump\t// in\n    tag_754:\n        /* \"#utility.yul\":31256:31342   */\n      tag_755\n        /* \"#utility.yul\":31335:31341   */\n      dup2\n        /* \"#utility.yul\":31330:31333   */\n      dup6\n        /* \"#utility.yul\":31256:31342   */\n      tag_401\n      jump\t// in\n    tag_755:\n        /* \"#utility.yul\":31249:31342   */\n      swap4\n      pop\n        /* \"#utility.yul\":31366:31422   */\n      tag_756\n        /* \"#utility.yul\":31416:31421   */\n      dup4\n        /* \"#utility.yul\":31366:31422   */\n      tag_402\n      jump\t// in\n    tag_756:\n        /* \"#utility.yul\":31445:31452   */\n      dup1\n        /* \"#utility.yul\":31476:31477   */\n      0x00\n        /* \"#utility.yul\":31461:31745   */\n    tag_757:\n        /* \"#utility.yul\":31486:31492   */\n      dup4\n        /* \"#utility.yul\":31483:31484   */\n      dup2\n        /* \"#utility.yul\":31480:31493   */\n      lt\n        /* \"#utility.yul\":31461:31745   */\n      iszero\n      tag_759\n      jumpi\n        /* \"#utility.yul\":31562:31568   */\n      dup2\n        /* \"#utility.yul\":31556:31569   */\n      mload\n        /* \"#utility.yul\":31589:31652   */\n      tag_760\n        /* \"#utility.yul\":31648:31651   */\n      dup9\n        /* \"#utility.yul\":31633:31646   */\n      dup3\n        /* \"#utility.yul\":31589:31652   */\n      tag_404\n      jump\t// in\n    tag_760:\n        /* \"#utility.yul\":31582:31652   */\n      swap8\n      pop\n        /* \"#utility.yul\":31675:31735   */\n      tag_761\n        /* \"#utility.yul\":31728:31734   */\n      dup4\n        /* \"#utility.yul\":31675:31735   */\n      tag_405\n      jump\t// in\n    tag_761:\n        /* \"#utility.yul\":31665:31735   */\n      swap3\n      pop\n        /* \"#utility.yul\":31521:31745   */\n      pop\n        /* \"#utility.yul\":31508:31509   */\n      0x01\n        /* \"#utility.yul\":31505:31506   */\n      dup2\n        /* \"#utility.yul\":31501:31510   */\n      add\n        /* \"#utility.yul\":31496:31510   */\n      swap1\n      pop\n        /* \"#utility.yul\":31461:31745   */\n      jump(tag_757)\n    tag_759:\n        /* \"#utility.yul\":31465:31479   */\n      pop\n        /* \"#utility.yul\":31761:31764   */\n      dup6\n        /* \"#utility.yul\":31754:31764   */\n      swap4\n      pop\n        /* \"#utility.yul\":31162:31770   */\n      pop\n      pop\n      pop\n        /* \"#utility.yul\":31038:31770   */\n      swap3\n      swap2\n      pop\n      pop\n      jump\t// out\n        /* \"#utility.yul\":31776:32591   */\n    tag_225:\n        /* \"#utility.yul\":32031:32035   */\n      0x00\n        /* \"#utility.yul\":32069:32072   */\n      0xa0\n        /* \"#utility.yul\":32058:32067   */\n      dup3\n        /* \"#utility.yul\":32054:32073   */\n      add\n        /* \"#utility.yul\":32046:32073   */\n      swap1\n      pop\n        /* \"#utility.yul\":32083:32154   */\n      tag_763\n        /* \"#utility.yul\":32151:32152   */\n      0x00\n        /* \"#utility.yul\":32140:32149   */\n      dup4\n        /* \"#utility.yul\":32136:32153   */\n      add\n        /* \"#utility.yul\":32127:32133   */\n      dup9\n        /* \"#utility.yul\":32083:32154   */\n      tag_363\n      jump\t// in\n    tag_763:\n        /* \"#utility.yul\":32164:32236   */\n      tag_764\n        /* \"#utility.yul\":32232:32234   */\n      0x20\n        /* \"#utility.yul\":32221:32230   */\n      dup4\n        /* \"#utility.yul\":32217:32235   */\n      add\n        /* \"#utility.yul\":32208:32214   */\n      dup8\n        /* \"#utility.yul\":32164:32236   */\n      tag_363\n      jump\t// in\n    tag_764:\n        /* \"#utility.yul\":32283:32292   */\n      dup2\n        /* \"#utility.yul\":32277:32281   */\n      dup2\n        /* \"#utility.yul\":32273:32293   */\n      sub\n        /* \"#utility.yul\":32268:32270   */\n      0x40\n        /* \"#utility.yul\":32257:32266   */\n      dup4\n        /* \"#utility.yul\":32253:32271   */\n      add\n        /* \"#utility.yul\":32246:32294   */\n      mstore\n        /* \"#utility.yul\":32311:32419   */\n      tag_765\n        /* \"#utility.yul\":32414:32418   */\n      dup2\n        /* \"#utility.yul\":32405:32411   */\n      dup7\n        /* \"#utility.yul\":32311:32419   */\n      tag_406\n      jump\t// in\n    tag_765:\n        /* \"#utility.yul\":32303:32419   */\n      swap1\n      pop\n        /* \"#utility.yul\":32429:32501   */\n      tag_766\n        /* \"#utility.yul\":32497:32499   */\n      0x60\n        /* \"#utility.yul\":32486:32495   */\n      dup4\n        /* \"#utility.yul\":32482:32500   */\n      add\n        /* \"#utility.yul\":32473:32479   */\n      dup6\n        /* \"#utility.yul\":32429:32501   */\n      tag_348\n      jump\t// in\n    tag_766:\n        /* \"#utility.yul\":32511:32584   */\n      tag_767\n        /* \"#utility.yul\":32579:32582   */\n      0x80\n        /* \"#utility.yul\":32568:32577   */\n      dup4\n        /* \"#utility.yul\":32564:32583   */\n      add\n        /* \"#utility.yul\":32555:32561   */\n      dup5\n        /* \"#utility.yul\":32511:32584   */\n      tag_363\n      jump\t// in\n    tag_767:\n        /* \"#utility.yul\":31776:32591   */\n      swap7\n      swap6\n      pop\n      pop\n      pop\n      pop\n      pop\n      pop\n      jump\t// out\n        /* \"#utility.yul\":32614:33346   */\n    tag_407:\n        /* \"#utility.yul\":32721:32726   */\n      0x00\n        /* \"#utility.yul\":32746:32827   */\n      tag_769\n        /* \"#utility.yul\":32762:32826   */\n      tag_770\n        /* \"#utility.yul\":32819:32825   */\n      dup5\n        /* \"#utility.yul\":32762:32826   */\n      tag_341\n      jump\t// in\n    tag_770:\n        /* \"#utility.yul\":32746:32827   */\n      tag_340\n      jump\t// in\n    tag_769:\n        /* \"#utility.yul\":32737:32827   */\n      swap1\n      pop\n        /* \"#utility.yul\":32847:32852   */\n      dup1\n        /* \"#utility.yul\":32876:32882   */\n      dup4\n        /* \"#utility.yul\":32869:32874   */\n      dup3\n        /* \"#utility.yul\":32862:32883   */\n      mstore\n        /* \"#utility.yul\":32910:32914   */\n      0x20\n        /* \"#utility.yul\":32903:32908   */\n      dup3\n        /* \"#utility.yul\":32899:32915   */\n      add\n        /* \"#utility.yul\":32892:32915   */\n      swap1\n      pop\n        /* \"#utility.yul\":32963:32967   */\n      0x20\n        /* \"#utility.yul\":32955:32961   */\n      dup5\n        /* \"#utility.yul\":32951:32968   */\n      mul\n        /* \"#utility.yul\":32943:32949   */\n      dup4\n        /* \"#utility.yul\":32939:32969   */\n      add\n        /* \"#utility.yul\":32992:32995   */\n      dup6\n        /* \"#utility.yul\":32984:32990   */\n      dup2\n        /* \"#utility.yul\":32981:32996   */\n      gt\n        /* \"#utility.yul\":32978:33100   */\n      iszero\n      tag_771\n      jumpi\n        /* \"#utility.yul\":33011:33090   */\n      tag_772\n      tag_342\n      jump\t// in\n    tag_772:\n        /* \"#utility.yul\":32978:33100   */\n    tag_771:\n        /* \"#utility.yul\":33126:33132   */\n      dup4\n        /* \"#utility.yul\":33109:33340   */\n    tag_773:\n        /* \"#utility.yul\":33143:33149   */\n      dup2\n        /* \"#utility.yul\":33138:33141   */\n      dup2\n        /* \"#utility.yul\":33135:33150   */\n      lt\n        /* \"#utility.yul\":33109:33340   */\n      iszero\n      tag_775\n      jumpi\n        /* \"#utility.yul\":33218:33221   */\n      dup1\n        /* \"#utility.yul\":33247:33295   */\n      tag_776\n        /* \"#utility.yul\":33291:33294   */\n      dup9\n        /* \"#utility.yul\":33279:33289   */\n      dup3\n        /* \"#utility.yul\":33247:33295   */\n      tag_392\n      jump\t// in\n    tag_776:\n        /* \"#utility.yul\":33242:33245   */\n      dup5\n        /* \"#utility.yul\":33235:33296   */\n      mstore\n        /* \"#utility.yul\":33325:33329   */\n      0x20\n        /* \"#utility.yul\":33320:33323   */\n      dup5\n        /* \"#utility.yul\":33316:33330   */\n      add\n        /* \"#utility.yul\":33309:33330   */\n      swap4\n      pop\n        /* \"#utility.yul\":33185:33340   */\n      pop\n        /* \"#utility.yul\":33169:33173   */\n      0x20\n        /* \"#utility.yul\":33164:33167   */\n      dup2\n        /* \"#utility.yul\":33160:33174   */\n      add\n        /* \"#utility.yul\":33153:33174   */\n      swap1\n      pop\n        /* \"#utility.yul\":33109:33340   */\n      jump(tag_773)\n    tag_775:\n        /* \"#utility.yul\":33113:33134   */\n      pop\n        /* \"#utility.yul\":32727:33346   */\n      pop\n      pop\n        /* \"#utility.yul\":32614:33346   */\n      swap4\n      swap3\n      pop\n      pop\n      pop\n      jump\t// out\n        /* \"#utility.yul\":33369:33754   */\n    tag_408:\n        /* \"#utility.yul\":33451:33456   */\n      0x00\n        /* \"#utility.yul\":33500:33503   */\n      dup3\n        /* \"#utility.yul\":33493:33497   */\n      0x1f\n        /* \"#utility.yul\":33485:33491   */\n      dup4\n        /* \"#utility.yul\":33481:33498   */\n      add\n        /* \"#utility.yul\":33477:33504   */\n      slt\n        /* \"#utility.yul\":33467:33589   */\n      tag_778\n      jumpi\n        /* \"#utility.yul\":33508:33587   */\n      tag_779\n      tag_337\n      jump\t// in\n    tag_779:\n        /* \"#utility.yul\":33467:33589   */\n    tag_778:\n        /* \"#utility.yul\":33618:33624   */\n      dup2\n        /* \"#utility.yul\":33612:33625   */\n      mload\n        /* \"#utility.yul\":33643:33748   */\n      tag_780\n        /* \"#utility.yul\":33744:33747   */\n      dup5\n        /* \"#utility.yul\":33736:33742   */\n      dup3\n        /* \"#utility.yul\":33729:33733   */\n      0x20\n        /* \"#utility.yul\":33721:33727   */\n      dup7\n        /* \"#utility.yul\":33717:33734   */\n      add\n        /* \"#utility.yul\":33643:33748   */\n      tag_407\n      jump\t// in\n    tag_780:\n        /* \"#utility.yul\":33634:33748   */\n      swap2\n      pop\n        /* \"#utility.yul\":33457:33754   */\n      pop\n        /* \"#utility.yul\":33369:33754   */\n      swap3\n      swap2\n      pop\n      pop\n      jump\t// out\n        /* \"#utility.yul\":33760:34314   */\n    tag_229:\n        /* \"#utility.yul\":33855:33861   */\n      0x00\n        /* \"#utility.yul\":33904:33906   */\n      0x20\n        /* \"#utility.yul\":33892:33901   */\n      dup3\n        /* \"#utility.yul\":33883:33890   */\n      dup5\n        /* \"#utility.yul\":33879:33902   */\n      sub\n        /* \"#utility.yul\":33875:33907   */\n      slt\n        /* \"#utility.yul\":33872:33991   */\n      iszero\n      tag_782\n      jumpi\n        /* \"#utility.yul\":33910:33989   */\n      tag_783\n      tag_324\n      jump\t// in\n    tag_783:\n        /* \"#utility.yul\":33872:33991   */\n    tag_782:\n        /* \"#utility.yul\":34051:34052   */\n      0x00\n        /* \"#utility.yul\":34040:34049   */\n      dup3\n        /* \"#utility.yul\":34036:34053   */\n      add\n        /* \"#utility.yul\":34030:34054   */\n      mload\n        /* \"#utility.yul\":34081:34099   */\n      0xffffffffffffffff\n        /* \"#utility.yul\":34073:34079   */\n      dup2\n        /* \"#utility.yul\":34070:34100   */\n      gt\n        /* \"#utility.yul\":34067:34184   */\n      iszero\n      tag_784\n      jumpi\n        /* \"#utility.yul\":34103:34182   */\n      tag_785\n      tag_325\n      jump\t// in\n    tag_785:\n        /* \"#utility.yul\":34067:34184   */\n    tag_784:\n        /* \"#utility.yul\":34208:34297   */\n      tag_786\n        /* \"#utility.yul\":34289:34296   */\n      dup5\n        /* \"#utility.yul\":34280:34286   */\n      dup3\n        /* \"#utility.yul\":34269:34278   */\n      dup6\n        /* \"#utility.yul\":34265:34287   */\n      add\n        /* \"#utility.yul\":34208:34297   */\n      tag_408\n      jump\t// in\n    tag_786:\n        /* \"#utility.yul\":34198:34297   */\n      swap2\n      pop\n        /* \"#utility.yul\":34001:34307   */\n      pop\n        /* \"#utility.yul\":33760:34314   */\n      swap3\n      swap2\n      pop\n      pop\n      jump\t// out\n        /* \"#utility.yul\":34320:34671   */\n    tag_245:\n        /* \"#utility.yul\":34390:34396   */\n      0x00\n        /* \"#utility.yul\":34439:34441   */\n      0x20\n        /* \"#utility.yul\":34427:34436   */\n      dup3\n        /* \"#utility.yul\":34418:34425   */\n      dup5\n        /* \"#utility.yul\":34414:34437   */\n      sub\n        /* \"#utility.yul\":34410:34442   */\n      slt\n        /* \"#utility.yul\":34407:34526   */\n      iszero\n      tag_788\n      jumpi\n        /* \"#utility.yul\":34445:34524   */\n      tag_789\n      tag_324\n      jump\t// in\n    tag_789:\n        /* \"#utility.yul\":34407:34526   */\n    tag_788:\n        /* \"#utility.yul\":34565:34566   */\n      0x00\n        /* \"#utility.yul\":34590:34654   */\n      tag_790\n        /* \"#utility.yul\":34646:34653   */\n      dup5\n        /* \"#utility.yul\":34637:34643   */\n      dup3\n        /* \"#utility.yul\":34626:34635   */\n      dup6\n        /* \"#utility.yul\":34622:34644   */\n      add\n        /* \"#utility.yul\":34590:34654   */\n      tag_392\n      jump\t// in\n    tag_790:\n        /* \"#utility.yul\":34580:34654   */\n      swap2\n      pop\n        /* \"#utility.yul\":34536:34664   */\n      pop\n        /* \"#utility.yul\":34320:34671   */\n      swap3\n      swap2\n      pop\n      pop\n      jump\t// out\n        /* \"#utility.yul\":34677:34754   */\n    tag_409:\n        /* \"#utility.yul\":34714:34721   */\n      0x00\n        /* \"#utility.yul\":34743:34748   */\n      dup2\n        /* \"#utility.yul\":34732:34748   */\n      swap1\n      pop\n        /* \"#utility.yul\":34677:34754   */\n      swap2\n      swap1\n      pop\n      jump\t// out\n        /* \"#utility.yul\":34760:34878   */\n    tag_410:\n        /* \"#utility.yul\":34847:34871   */\n      tag_793\n        /* \"#utility.yul\":34865:34870   */\n      dup2\n        /* \"#utility.yul\":34847:34871   */\n      tag_409\n      jump\t// in\n    tag_793:\n        /* \"#utility.yul\":34842:34845   */\n      dup3\n        /* \"#utility.yul\":34835:34872   */\n      mstore\n        /* \"#utility.yul\":34760:34878   */\n      pop\n      pop\n      jump\t// out\n        /* \"#utility.yul\":34884:34985   */\n    tag_411:\n        /* \"#utility.yul\":34920:34927   */\n      0x00\n        /* \"#utility.yul\":34960:34978   */\n      0xffffffffffffffff\n        /* \"#utility.yul\":34953:34958   */\n      dup3\n        /* \"#utility.yul\":34949:34979   */\n      and\n        /* \"#utility.yul\":34938:34979   */\n      swap1\n      pop\n        /* \"#utility.yul\":34884:34985   */\n      swap2\n      swap1\n      pop\n      jump\t// out\n        /* \"#utility.yul\":34991:35106   */\n    tag_412:\n        /* \"#utility.yul\":35076:35099   */\n      tag_796\n        /* \"#utility.yul\":35093:35098   */\n      dup2\n        /* \"#utility.yul\":35076:35099   */\n      tag_411\n      jump\t// in\n    tag_796:\n        /* \"#utility.yul\":35071:35074   */\n      dup3\n        /* \"#utility.yul\":35064:35100   */\n      mstore\n        /* \"#utility.yul\":34991:35106   */\n      pop\n      pop\n      jump\t// out\n        /* \"#utility.yul\":35112:35197   */\n    tag_413:\n        /* \"#utility.yul\":35157:35164   */\n      0x00\n        /* \"#utility.yul\":35186:35191   */\n      dup2\n        /* \"#utility.yul\":35175:35191   */\n      swap1\n      pop\n        /* \"#utility.yul\":35112:35197   */\n      swap2\n      swap1\n      pop\n      jump\t// out\n        /* \"#utility.yul\":35203:35292   */\n    tag_414:\n        /* \"#utility.yul\":35239:35246   */\n      0x00\n        /* \"#utility.yul\":35279:35285   */\n      0xffff\n        /* \"#utility.yul\":35272:35277   */\n      dup3\n        /* \"#utility.yul\":35268:35286   */\n      and\n        /* \"#utility.yul\":35257:35286   */\n      swap1\n      pop\n        /* \"#utility.yul\":35203:35292   */\n      swap2\n      swap1\n      pop\n      jump\t// out\n        /* \"#utility.yul\":35298:35454   */\n    tag_415:\n        /* \"#utility.yul\":35355:35364   */\n      0x00\n        /* \"#utility.yul\":35388:35448   */\n      tag_800\n        /* \"#utility.yul\":35405:35447   */\n      tag_801\n        /* \"#utility.yul\":35414:35446   */\n      tag_802\n        /* \"#utility.yul\":35440:35445   */\n      dup5\n        /* \"#utility.yul\":35414:35446   */\n      tag_413\n      jump\t// in\n    tag_802:\n        /* \"#utility.yul\":35405:35447   */\n      tag_330\n      jump\t// in\n    tag_801:\n        /* \"#utility.yul\":35388:35448   */\n      tag_414\n      jump\t// in\n    tag_800:\n        /* \"#utility.yul\":35375:35448   */\n      swap1\n      pop\n        /* \"#utility.yul\":35298:35454   */\n      swap2\n      swap1\n      pop\n      jump\t// out\n        /* \"#utility.yul\":35460:35605   */\n    tag_416:\n        /* \"#utility.yul\":35554:35598   */\n      tag_804\n        /* \"#utility.yul\":35592:35597   */\n      dup2\n        /* \"#utility.yul\":35554:35598   */\n      tag_415\n      jump\t// in\n    tag_804:\n        /* \"#utility.yul\":35549:35552   */\n      dup3\n        /* \"#utility.yul\":35542:35599   */\n      mstore\n        /* \"#utility.yul\":35460:35605   */\n      pop\n      pop\n      jump\t// out\n        /* \"#utility.yul\":35611:35701   */\n    tag_417:\n        /* \"#utility.yul\":35661:35668   */\n      0x00\n        /* \"#utility.yul\":35690:35695   */\n      dup2\n        /* \"#utility.yul\":35679:35695   */\n      swap1\n      pop\n        /* \"#utility.yul\":35611:35701   */\n      swap2\n      swap1\n      pop\n      jump\t// out\n        /* \"#utility.yul\":35707:35800   */\n    tag_418:\n        /* \"#utility.yul\":35743:35750   */\n      0x00\n        /* \"#utility.yul\":35783:35793   */\n      0xffffffff\n        /* \"#utility.yul\":35776:35781   */\n      dup3\n        /* \"#utility.yul\":35772:35794   */\n      and\n        /* \"#utility.yul\":35761:35794   */\n      swap1\n      pop\n        /* \"#utility.yul\":35707:35800   */\n      swap2\n      swap1\n      pop\n      jump\t// out\n        /* \"#utility.yul\":35806:35972   */\n    tag_419:\n        /* \"#utility.yul\":35868:35877   */\n      0x00\n        /* \"#utility.yul\":35901:35966   */\n      tag_808\n        /* \"#utility.yul\":35918:35965   */\n      tag_809\n        /* \"#utility.yul\":35927:35964   */\n      tag_810\n        /* \"#utility.yul\":35958:35963   */\n      dup5\n        /* \"#utility.yul\":35927:35964   */\n      tag_417\n      jump\t// in\n    tag_810:\n        /* \"#utility.yul\":35918:35965   */\n      tag_330\n      jump\t// in\n    tag_809:\n        /* \"#utility.yul\":35901:35966   */\n      tag_418\n      jump\t// in\n    tag_808:\n        /* \"#utility.yul\":35888:35966   */\n      swap1\n      pop\n        /* \"#utility.yul\":35806:35972   */\n      swap2\n      swap1\n      pop\n      jump\t// out\n        /* \"#utility.yul\":35978:36133   */\n    tag_420:\n        /* \"#utility.yul\":36077:36126   */\n      tag_812\n        /* \"#utility.yul\":36120:36125   */\n      dup2\n        /* \"#utility.yul\":36077:36126   */\n      tag_419\n      jump\t// in\n    tag_812:\n        /* \"#utility.yul\":36072:36075   */\n      dup3\n        /* \"#utility.yul\":36065:36127   */\n      mstore\n        /* \"#utility.yul\":35978:36133   */\n      pop\n      pop\n      jump\t// out\n        /* \"#utility.yul\":36139:36224   */\n    tag_421:\n        /* \"#utility.yul\":36184:36191   */\n      0x00\n        /* \"#utility.yul\":36213:36218   */\n      dup2\n        /* \"#utility.yul\":36202:36218   */\n      swap1\n      pop\n        /* \"#utility.yul\":36139:36224   */\n      swap2\n      swap1\n      pop\n      jump\t// out\n        /* \"#utility.yul\":36230:36386   */\n    tag_422:\n        /* \"#utility.yul\":36287:36296   */\n      0x00\n        /* \"#utility.yul\":36320:36380   */\n      tag_815\n        /* \"#utility.yul\":36337:36379   */\n      tag_816\n        /* \"#utility.yul\":36346:36378   */\n      tag_817\n        /* \"#utility.yul\":36372:36377   */\n      dup5\n        /* \"#utility.yul\":36346:36378   */\n      tag_421\n      jump\t// in\n    tag_817:\n        /* \"#utility.yul\":36337:36379   */\n      tag_330\n      jump\t// in\n    tag_816:\n        /* \"#utility.yul\":36320:36380   */\n      tag_418\n      jump\t// in\n    tag_815:\n        /* \"#utility.yul\":36307:36380   */\n      swap1\n      pop\n        /* \"#utility.yul\":36230:36386   */\n      swap2\n      swap1\n      pop\n      jump\t// out\n        /* \"#utility.yul\":36392:36537   */\n    tag_423:\n        /* \"#utility.yul\":36486:36530   */\n      tag_819\n        /* \"#utility.yul\":36524:36529   */\n      dup2\n        /* \"#utility.yul\":36486:36530   */\n      tag_422\n      jump\t// in\n    tag_819:\n        /* \"#utility.yul\":36481:36484   */\n      dup3\n        /* \"#utility.yul\":36474:36531   */\n      mstore\n        /* \"#utility.yul\":36392:36537   */\n      pop\n      pop\n      jump\t// out\n        /* \"#utility.yul\":36543:37255   */\n    tag_255:\n        /* \"#utility.yul\":36772:36776   */\n      0x00\n        /* \"#utility.yul\":36810:36813   */\n      0xa0\n        /* \"#utility.yul\":36799:36808   */\n      dup3\n        /* \"#utility.yul\":36795:36814   */\n      add\n        /* \"#utility.yul\":36787:36814   */\n      swap1\n      pop\n        /* \"#utility.yul\":36824:36895   */\n      tag_821\n        /* \"#utility.yul\":36892:36893   */\n      0x00\n        /* \"#utility.yul\":36881:36890   */\n      dup4\n        /* \"#utility.yul\":36877:36894   */\n      add\n        /* \"#utility.yul\":36868:36874   */\n      dup9\n        /* \"#utility.yul\":36824:36895   */\n      tag_410\n      jump\t// in\n    tag_821:\n        /* \"#utility.yul\":36905:36975   */\n      tag_822\n        /* \"#utility.yul\":36971:36973   */\n      0x20\n        /* \"#utility.yul\":36960:36969   */\n      dup4\n        /* \"#utility.yul\":36956:36974   */\n      add\n        /* \"#utility.yul\":36947:36953   */\n      dup8\n        /* \"#utility.yul\":36905:36975   */\n      tag_412\n      jump\t// in\n    tag_822:\n        /* \"#utility.yul\":36985:37064   */\n      tag_823\n        /* \"#utility.yul\":37060:37062   */\n      0x40\n        /* \"#utility.yul\":37049:37058   */\n      dup4\n        /* \"#utility.yul\":37045:37063   */\n      add\n        /* \"#utility.yul\":37036:37042   */\n      dup7\n        /* \"#utility.yul\":36985:37064   */\n      tag_416\n      jump\t// in\n    tag_823:\n        /* \"#utility.yul\":37074:37158   */\n      tag_824\n        /* \"#utility.yul\":37154:37156   */\n      0x60\n        /* \"#utility.yul\":37143:37152   */\n      dup4\n        /* \"#utility.yul\":37139:37157   */\n      add\n        /* \"#utility.yul\":37130:37136   */\n      dup6\n        /* \"#utility.yul\":37074:37158   */\n      tag_420\n      jump\t// in\n    tag_824:\n        /* \"#utility.yul\":37168:37248   */\n      tag_825\n        /* \"#utility.yul\":37243:37246   */\n      0x80\n        /* \"#utility.yul\":37232:37241   */\n      dup4\n        /* \"#utility.yul\":37228:37247   */\n      add\n        /* \"#utility.yul\":37219:37225   */\n      dup5\n        /* \"#utility.yul\":37168:37248   */\n      tag_423\n      jump\t// in\n    tag_825:\n        /* \"#utility.yul\":36543:37255   */\n      swap7\n      swap6\n      pop\n      pop\n      pop\n      pop\n      pop\n      pop\n      jump\t// out\n        /* \"#utility.yul\":37261:37703   */\n    tag_262:\n        /* \"#utility.yul\":37410:37414   */\n      0x00\n        /* \"#utility.yul\":37448:37450   */\n      0x60\n        /* \"#utility.yul\":37437:37446   */\n      dup3\n        /* \"#utility.yul\":37433:37451   */\n      add\n        /* \"#utility.yul\":37425:37451   */\n      swap1\n      pop\n        /* \"#utility.yul\":37461:37532   */\n      tag_827\n        /* \"#utility.yul\":37529:37530   */\n      0x00\n        /* \"#utility.yul\":37518:37527   */\n      dup4\n        /* \"#utility.yul\":37514:37531   */\n      add\n        /* \"#utility.yul\":37505:37511   */\n      dup7\n        /* \"#utility.yul\":37461:37532   */\n      tag_348\n      jump\t// in\n    tag_827:\n        /* \"#utility.yul\":37542:37614   */\n      tag_828\n        /* \"#utility.yul\":37610:37612   */\n      0x20\n        /* \"#utility.yul\":37599:37608   */\n      dup4\n        /* \"#utility.yul\":37595:37613   */\n      add\n        /* \"#utility.yul\":37586:37592   */\n      dup6\n        /* \"#utility.yul\":37542:37614   */\n      tag_348\n      jump\t// in\n    tag_828:\n        /* \"#utility.yul\":37624:37696   */\n      tag_829\n        /* \"#utility.yul\":37692:37694   */\n      0x40\n        /* \"#utility.yul\":37681:37690   */\n      dup4\n        /* \"#utility.yul\":37677:37695   */\n      add\n        /* \"#utility.yul\":37668:37674   */\n      dup5\n        /* \"#utility.yul\":37624:37696   */\n      tag_363\n      jump\t// in\n    tag_829:\n        /* \"#utility.yul\":37261:37703   */\n      swap5\n      swap4\n      pop\n      pop\n      pop\n      pop\n      jump\t// out\n        /* \"#utility.yul\":37709:37825   */\n    tag_424:\n        /* \"#utility.yul\":37779:37800   */\n      tag_831\n        /* \"#utility.yul\":37794:37799   */\n      dup2\n        /* \"#utility.yul\":37779:37800   */\n      tag_351\n      jump\t// in\n    tag_831:\n        /* \"#utility.yul\":37772:37777   */\n      dup2\n        /* \"#utility.yul\":37769:37801   */\n      eq\n        /* \"#utility.yul\":37759:37819   */\n      tag_832\n      jumpi\n        /* \"#utility.yul\":37815:37816   */\n      0x00\n        /* \"#utility.yul\":37812:37813   */\n      dup1\n        /* \"#utility.yul\":37805:37817   */\n      revert\n        /* \"#utility.yul\":37759:37819   */\n    tag_832:\n        /* \"#utility.yul\":37709:37825   */\n      pop\n      jump\t// out\n        /* \"#utility.yul\":37831:37968   */\n    tag_425:\n        /* \"#utility.yul\":37885:37890   */\n      0x00\n        /* \"#utility.yul\":37916:37922   */\n      dup2\n        /* \"#utility.yul\":37910:37923   */\n      mload\n        /* \"#utility.yul\":37901:37923   */\n      swap1\n      pop\n        /* \"#utility.yul\":37932:37962   */\n      tag_834\n        /* \"#utility.yul\":37956:37961   */\n      dup2\n        /* \"#utility.yul\":37932:37962   */\n      tag_424\n      jump\t// in\n    tag_834:\n        /* \"#utility.yul\":37831:37968   */\n      swap3\n      swap2\n      pop\n      pop\n      jump\t// out\n        /* \"#utility.yul\":37974:38319   */\n    tag_277:\n        /* \"#utility.yul\":38041:38047   */\n      0x00\n        /* \"#utility.yul\":38090:38092   */\n      0x20\n        /* \"#utility.yul\":38078:38087   */\n      dup3\n        /* \"#utility.yul\":38069:38076   */\n      dup5\n        /* \"#utility.yul\":38065:38088   */\n      sub\n        /* \"#utility.yul\":38061:38093   */\n      slt\n        /* \"#utility.yul\":38058:38177   */\n      iszero\n      tag_836\n      jumpi\n        /* \"#utility.yul\":38096:38175   */\n      tag_837\n      tag_324\n      jump\t// in\n    tag_837:\n        /* \"#utility.yul\":38058:38177   */\n    tag_836:\n        /* \"#utility.yul\":38216:38217   */\n      0x00\n        /* \"#utility.yul\":38241:38302   */\n      tag_838\n        /* \"#utility.yul\":38294:38301   */\n      dup5\n        /* \"#utility.yul\":38285:38291   */\n      dup3\n        /* \"#utility.yul\":38274:38283   */\n      dup6\n        /* \"#utility.yul\":38270:38292   */\n      add\n        /* \"#utility.yul\":38241:38302   */\n      tag_425\n      jump\t// in\n    tag_838:\n        /* \"#utility.yul\":38231:38302   */\n      swap2\n      pop\n        /* \"#utility.yul\":38187:38312   */\n      pop\n        /* \"#utility.yul\":37974:38319   */\n      swap3\n      swap2\n      pop\n      pop\n      jump\t// out\n        /* \"#utility.yul\":38325:38657   */\n    tag_282:\n        /* \"#utility.yul\":38446:38450   */\n      0x00\n        /* \"#utility.yul\":38484:38486   */\n      0x40\n        /* \"#utility.yul\":38473:38482   */\n      dup3\n        /* \"#utility.yul\":38469:38487   */\n      add\n        /* \"#utility.yul\":38461:38487   */\n      swap1\n      pop\n        /* \"#utility.yul\":38497:38568   */\n      tag_840\n        /* \"#utility.yul\":38565:38566   */\n      0x00\n        /* \"#utility.yul\":38554:38563   */\n      dup4\n        /* \"#utility.yul\":38550:38567   */\n      add\n        /* \"#utility.yul\":38541:38547   */\n      dup6\n        /* \"#utility.yul\":38497:38568   */\n      tag_348\n      jump\t// in\n    tag_840:\n        /* \"#utility.yul\":38578:38650   */\n      tag_841\n        /* \"#utility.yul\":38646:38648   */\n      0x20\n        /* \"#utility.yul\":38635:38644   */\n      dup4\n        /* \"#utility.yul\":38631:38649   */\n      add\n        /* \"#utility.yul\":38622:38628   */\n      dup5\n        /* \"#utility.yul\":38578:38650   */\n      tag_363\n      jump\t// in\n    tag_841:\n        /* \"#utility.yul\":38325:38657   */\n      swap4\n      swap3\n      pop\n      pop\n      pop\n      jump\t// out\n        /* \"#utility.yul\":38663:38748   */\n    tag_426:\n        /* \"#utility.yul\":38708:38715   */\n      0x00\n        /* \"#utility.yul\":38737:38742   */\n      dup2\n        /* \"#utility.yul\":38726:38742   */\n      swap1\n      pop\n        /* \"#utility.yul\":38663:38748   */\n      swap2\n      swap1\n      pop\n      jump\t// out\n        /* \"#utility.yul\":38754:38912   */\n    tag_427:\n        /* \"#utility.yul\":38812:38821   */\n      0x00\n        /* \"#utility.yul\":38845:38906   */\n      tag_844\n        /* \"#utility.yul\":38863:38905   */\n      tag_845\n        /* \"#utility.yul\":38872:38904   */\n      tag_846\n        /* \"#utility.yul\":38898:38903   */\n      dup5\n        /* \"#utility.yul\":38872:38904   */\n      tag_426\n      jump\t// in\n    tag_846:\n        /* \"#utility.yul\":38863:38905   */\n      tag_330\n      jump\t// in\n    tag_845:\n        /* \"#utility.yul\":38845:38906   */\n      tag_326\n      jump\t// in\n    tag_844:\n        /* \"#utility.yul\":38832:38906   */\n      swap1\n      pop\n        /* \"#utility.yul\":38754:38912   */\n      swap2\n      swap1\n      pop\n      jump\t// out\n        /* \"#utility.yul\":38918:39065   */\n    tag_428:\n        /* \"#utility.yul\":39013:39058   */\n      tag_848\n        /* \"#utility.yul\":39052:39057   */\n      dup2\n        /* \"#utility.yul\":39013:39058   */\n      tag_427\n      jump\t// in\n    tag_848:\n        /* \"#utility.yul\":39008:39011   */\n      dup3\n        /* \"#utility.yul\":39001:39059   */\n      mstore\n        /* \"#utility.yul\":38918:39065   */\n      pop\n      pop\n      jump\t// out\n        /* \"#utility.yul\":39071:39419   */\n    tag_288:\n        /* \"#utility.yul\":39200:39204   */\n      0x00\n        /* \"#utility.yul\":39238:39240   */\n      0x40\n        /* \"#utility.yul\":39227:39236   */\n      dup3\n        /* \"#utility.yul\":39223:39241   */\n      add\n        /* \"#utility.yul\":39215:39241   */\n      swap1\n      pop\n        /* \"#utility.yul\":39251:39322   */\n      tag_850\n        /* \"#utility.yul\":39319:39320   */\n      0x00\n        /* \"#utility.yul\":39308:39317   */\n      dup4\n        /* \"#utility.yul\":39304:39321   */\n      add\n        /* \"#utility.yul\":39295:39301   */\n      dup6\n        /* \"#utility.yul\":39251:39322   */\n      tag_348\n      jump\t// in\n    tag_850:\n        /* \"#utility.yul\":39332:39412   */\n      tag_851\n        /* \"#utility.yul\":39408:39410   */\n      0x20\n        /* \"#utility.yul\":39397:39406   */\n      dup4\n        /* \"#utility.yul\":39393:39411   */\n      add\n        /* \"#utility.yul\":39384:39390   */\n      dup5\n        /* \"#utility.yul\":39332:39412   */\n      tag_428\n      jump\t// in\n    tag_851:\n        /* \"#utility.yul\":39071:39419   */\n      swap4\n      swap3\n      pop\n      pop\n      pop\n      jump\t// out\n        /* \"#utility.yul\":39425:39572   */\n    tag_429:\n        /* \"#utility.yul\":39526:39537   */\n      0x00\n        /* \"#utility.yul\":39563:39566   */\n      dup2\n        /* \"#utility.yul\":39548:39566   */\n      swap1\n      pop\n        /* \"#utility.yul\":39425:39572   */\n      swap3\n      swap2\n      pop\n      pop\n      jump\t// out\n        /* \"#utility.yul\":39578:39964   */\n    tag_430:\n        /* \"#utility.yul\":39682:39685   */\n      0x00\n        /* \"#utility.yul\":39710:39748   */\n      tag_854\n        /* \"#utility.yul\":39742:39747   */\n      dup3\n        /* \"#utility.yul\":39710:39748   */\n      tag_353\n      jump\t// in\n    tag_854:\n        /* \"#utility.yul\":39764:39852   */\n      tag_855\n        /* \"#utility.yul\":39845:39851   */\n      dup2\n        /* \"#utility.yul\":39840:39843   */\n      dup6\n        /* \"#utility.yul\":39764:39852   */\n      tag_429\n      jump\t// in\n    tag_855:\n        /* \"#utility.yul\":39757:39852   */\n      swap4\n      pop\n        /* \"#utility.yul\":39861:39926   */\n      tag_856\n        /* \"#utility.yul\":39919:39925   */\n      dup2\n        /* \"#utility.yul\":39914:39917   */\n      dup6\n        /* \"#utility.yul\":39907:39911   */\n      0x20\n        /* \"#utility.yul\":39900:39905   */\n      dup7\n        /* \"#utility.yul\":39896:39912   */\n      add\n        /* \"#utility.yul\":39861:39926   */\n      tag_355\n      jump\t// in\n    tag_856:\n        /* \"#utility.yul\":39951:39957   */\n      dup1\n        /* \"#utility.yul\":39946:39949   */\n      dup5\n        /* \"#utility.yul\":39942:39958   */\n      add\n        /* \"#utility.yul\":39935:39958   */\n      swap2\n      pop\n        /* \"#utility.yul\":39686:39964   */\n      pop\n        /* \"#utility.yul\":39578:39964   */\n      swap3\n      swap2\n      pop\n      pop\n      jump\t// out\n        /* \"#utility.yul\":39970:40241   */\n    tag_295:\n        /* \"#utility.yul\":40100:40103   */\n      0x00\n        /* \"#utility.yul\":40122:40215   */\n      tag_858\n        /* \"#utility.yul\":40211:40214   */\n      dup3\n        /* \"#utility.yul\":40202:40208   */\n      dup5\n        /* \"#utility.yul\":40122:40215   */\n      tag_430\n      jump\t// in\n    tag_858:\n        /* \"#utility.yul\":40115:40215   */\n      swap2\n      pop\n        /* \"#utility.yul\":40232:40235   */\n      dup2\n        /* \"#utility.yul\":40225:40235   */\n      swap1\n      pop\n        /* \"#utility.yul\":39970:40241   */\n      swap3\n      swap2\n      pop\n      pop\n      jump\t// out\n\n    auxdata: 0xa26469706673582212202d368352843315e3b1000b350c619f136bd47be8c8112a7e4b4c627e03e21b1364736f6c63430008160033\n}\n",
				"bytecode": {
					"linkReferences": {},
					"object": "60a060405234801562000010575f80fd5b506040516200386638038062003866833981810160405281019062000036919062000310565b848073ffffffffffffffffffffffffffffffffffffffff1660808173ffffffffffffffffffffffffffffffffffffffff1681525050508760045f6101000a81548173ffffffffffffffffffffffffffffffffffffffff021916908373ffffffffffffffffffffffffffffffffffffffff1602179055508660075f6101000a81548173ffffffffffffffffffffffffffffffffffffffff021916908373ffffffffffffffffffffffffffffffffffffffff1602179055508560085f6101000a81548173ffffffffffffffffffffffffffffffffffffffff021916908373ffffffffffffffffffffffffffffffffffffffff160217905550600160098190555081600a8190555080600b819055508260055f6101000a81548173ffffffffffffffffffffffffffffffffffffffff021916908373ffffffffffffffffffffffffffffffffffffffff1602179055508460065f6101000a81548173ffffffffffffffffffffffffffffffffffffffff021916908373ffffffffffffffffffffffffffffffffffffffff16021790555083600660146101000a81548167ffffffffffffffff021916908367ffffffffffffffff1602179055505050505050505050620003d4565b5f80fd5b5f73ffffffffffffffffffffffffffffffffffffffff82169050919050565b5f6200022882620001fd565b9050919050565b6200023a816200021c565b811462000245575f80fd5b50565b5f8151905062000258816200022f565b92915050565b5f67ffffffffffffffff82169050919050565b6200027c816200025e565b811462000287575f80fd5b50565b5f815190506200029a8162000271565b92915050565b5f819050919050565b620002b481620002a0565b8114620002bf575f80fd5b50565b5f81519050620002d281620002a9565b92915050565b5f819050919050565b620002ec81620002d8565b8114620002f7575f80fd5b50565b5f815190506200030a81620002e1565b92915050565b5f805f805f805f80610100898b03121562000330576200032f620001f9565b5b5f6200033f8b828c0162000248565b9850506020620003528b828c0162000248565b9750506040620003658b828c0162000248565b9650506060620003788b828c0162000248565b95505060806200038b8b828c016200028a565b94505060a06200039e8b828c0162000248565b93505060c0620003b18b828c01620002c2565b92505060e0620003c48b828c01620002fa565b9150509295985092959890939650565b608051613472620003f45f395f81816106ab01526106ff01526134725ff3fe608060405260043610610116575f3560e01c80637dc0d1d01161009f578063b197df5411610063578063b197df54146103a1578063c440fa0f146103c9578063c966494e146103f1578063d930da601461042d578063eb5a662e146104435761011d565b80637dc0d1d0146102ba57806383ceae8d146102e457806386d86d8414610320578063a63661a514610361578063affed0e0146103775761011d565b80632f48ab7d116100e65780632f48ab7d146101c5578063365b98b2146101ef5780634585e33b1461022b5780636e04ff0d14610253578063735de9f7146102905761011d565b8062e1801c146101215780630a009097146101495780631c4695f4146101735780631fe543e31461019d5761011d565b3661011d57005b5f80fd5b34801561012c575f80fd5b506101476004803603810190610142919061200d565b61047f565b005b348015610154575f80fd5b5061015d61065f565b60405161016a91906120c5565b60405180910390f35b34801561017e575f80fd5b50610187610684565b60405161019491906120fe565b60405180910390f35b3480156101a8575f80fd5b506101c360048036038101906101be9190612267565b6106a9565b005b3480156101d0575f80fd5b506101d9610769565b6040516101e691906122e1565b60405180910390f35b3480156101fa575f80fd5b50610215600480360381019061021091906122fa565b61078e565b6040516102229190612345565b60405180910390f35b348015610236575f80fd5b50610251600480360381019061024c91906123b7565b6107be565b005b34801561025e575f80fd5b50610279600480360381019061027491906123b7565b6107de565b604051610287929190612496565b60405180910390f35b34801561029b575f80fd5b506102a46108f8565b6040516102b191906124e4565b60405180910390f35b3480156102c5575f80fd5b506102ce61091d565b6040516102db919061251d565b60405180910390f35b3480156102ef575f80fd5b5061030a60048036038101906103059190612560565b610942565b604051610317919061259a565b60405180910390f35b34801561032b575f80fd5b5061034660048036038101906103419190612560565b610957565b604051610358969594939291906125b3565b60405180910390f35b34801561036c575f80fd5b5061037561098e565b005b348015610382575f80fd5b5061038b610c33565b604051610398919061259a565b60405180910390f35b3480156103ac575f80fd5b506103c760048036038101906103c2919061200d565b610c39565b005b3480156103d4575f80fd5b506103ef60048036038101906103ea9190612560565b610ea5565b005b3480156103fc575f80fd5b50610417600480360381019061041291906122fa565b6115f0565b6040516104249190612345565b60405180910390f35b348015610438575f80fd5b50610441611620565b005b34801561044e575f80fd5b5061046960048036038101906104649190612560565b611729565b604051610476919061259a565b60405180910390f35b5f805f3373ffffffffffffffffffffffffffffffffffffffff1673ffffffffffffffffffffffffffffffffffffffff1681526020019081526020015f205f0154116104ff576040517f08c379a00000000000000000000000000000000000000000000000000000000081526004016104f69061266c565b60405180910390fd5b5f8211610541576040517f08c379a0000000000000000000000000000000000000000000000000000000008152600401610538906126d4565b60405180910390fd5b5f8111610583576040517f08c379a000000000000000000000000000000000000000000000000000000000815260040161057a9061273c565b60405180910390fd5b805f803373ffffffffffffffffffffffffffffffffffffffff1673ffffffffffffffffffffffffffffffffffffffff1681526020019081526020015f2060020181905550815f803373ffffffffffffffffffffffffffffffffffffffff1673ffffffffffffffffffffffffffffffffffffffff1681526020019081526020015f20600101819055503373ffffffffffffffffffffffffffffffffffffffff167fc8108639f5e0627bac90449607e60d516a5082452e397808a067b57f755515fc838360405161065392919061275a565b60405180910390a25050565b60065f9054906101000a900473ffffffffffffffffffffffffffffffffffffffff1681565b60055f9054906101000a900473ffffffffffffffffffffffffffffffffffffffff1681565b7f000000000000000000000000000000000000000000000000000000000000000073ffffffffffffffffffffffffffffffffffffffff163373ffffffffffffffffffffffffffffffffffffffff161461075b57337f00000000000000000000000000000000000000000000000000000000000000006040517f1cf993f4000000000000000000000000000000000000000000000000000000008152600401610752929190612781565b60405180910390fd5b61076582826117cc565b5050565b60045f9054906101000a900473ffffffffffffffffffffffffffffffffffffffff1681565b6001602052805f5260405f205f915054906101000a900473ffffffffffffffffffffffffffffffffffffffff1681565b5f82828101906107ce91906127e3565b90506107d981610ea5565b505050565b5f60605f60015f6001806009546107f5919061283b565b43610800919061289b565b61080a91906128cb565b81526020019081526020015f205f9054906101000a900473ffffffffffffffffffffffffffffffffffffffff1690505f925060035f8273ffffffffffffffffffffffffffffffffffffffff1673ffffffffffffffffffffffffffffffffffffffff1681526020019081526020015f2054421180156108c457505f60035f8373ffffffffffffffffffffffffffffffffffffffff1673ffffffffffffffffffffffffffffffffffffffff1681526020019081526020015f2054115b156108ce57600192505b806040516020016108df9190612345565b6040516020818303038152906040529150509250929050565b60075f9054906101000a900473ffffffffffffffffffffffffffffffffffffffff1681565b60085f9054906101000a900473ffffffffffffffffffffffffffffffffffffffff1681565b6003602052805f5260405f205f915090505481565b5f602052805f5260405f205f91509050805f0154908060010154908060020154908060030154908060040154908060050154905086565b5f805f3373ffffffffffffffffffffffffffffffffffffffff1673ffffffffffffffffffffffffffffffffffffffff1681526020019081526020015f205f015411610a0e576040517f08c379a0000000000000000000000000000000000000000000000000000000008152600401610a0590612948565b60405180910390fd5b5f805f3373ffffffffffffffffffffffffffffffffffffffff1673ffffffffffffffffffffffffffffffffffffffff1681526020019081526020015f206002015411610a8f576040517f08c379a0000000000000000000000000000000000000000000000000000000008152600401610a869061273c565b60405180910390fd5b5f803373ffffffffffffffffffffffffffffffffffffffff1673ffffffffffffffffffffffffffffffffffffffff1681526020019081526020015f2060020154610ad833611729565b11610b18576040517f08c379a0000000000000000000000000000000000000000000000000000000008152600401610b0f906129d6565b60405180910390fd5b425f803373ffffffffffffffffffffffffffffffffffffffff1673ffffffffffffffffffffffffffffffffffffffff1681526020019081526020015f20600301819055505f805f3373ffffffffffffffffffffffffffffffffffffffff1673ffffffffffffffffffffffffffffffffffffffff1681526020019081526020015f206004018190555060015f803373ffffffffffffffffffffffffffffffffffffffff1673ffffffffffffffffffffffffffffffffffffffff1681526020019081526020015f20600501819055503373ffffffffffffffffffffffffffffffffffffffff167fa806cf17be1fb3cff26c4a6a46b735ddbf2ac07c138bdedb6d2ace798a2cfd4060405160405180910390a2610c3133611989565b565b60095481565b5f805f3373ffffffffffffffffffffffffffffffffffffffff1673ffffffffffffffffffffffffffffffffffffffff1681526020019081526020015f205f015414610cb9576040517f08c379a0000000000000000000000000000000000000000000000000000000008152600401610cb09061266c565b60405180910390fd5b5f8211610cfb576040517f08c379a0000000000000000000000000000000000000000000000000000000008152600401610cf2906126d4565b60405180910390fd5b5f8111610d3d576040517f08c379a0000000000000000000000000000000000000000000000000000000008152600401610d349061273c565b60405180910390fd5b3360015f60095481526020019081526020015f205f6101000a81548173ffffffffffffffffffffffffffffffffffffffff021916908373ffffffffffffffffffffffffffffffffffffffff1602179055506040518060c0016040528060095f815480929190610dab906129f4565b9190505581526020018381526020018281526020014281526020015f81526020015f8152505f803373ffffffffffffffffffffffffffffffffffffffff1673ffffffffffffffffffffffffffffffffffffffff1681526020019081526020015f205f820151815f01556020820151816001015560408201518160020155606082015181600301556080820151816004015560a082015181600501559050503373ffffffffffffffffffffffffffffffffffffffff167f89d3f1cdfad4e5c26535ac23dc61cf9e975667801747518f01b1b653545d736a8383604051610e9192919061275a565b60405180910390a2610ea161098e565b5050565b60015f808373ffffffffffffffffffffffffffffffffffffffff1673ffffffffffffffffffffffffffffffffffffffff1681526020019081526020015f206005015414610f27576040517f08c379a0000000000000000000000000000000000000000000000000000000008152600401610f1e90612a85565b60405180910390fd5b5f808273ffffffffffffffffffffffffffffffffffffffff1673ffffffffffffffffffffffffffffffffffffffff1681526020019081526020015f2060020154610f7082611729565b11610fb0576040517f08c379a0000000000000000000000000000000000000000000000000000000008152600401610fa790612b13565b60405180910390fd5b60035f8273ffffffffffffffffffffffffffffffffffffffff1673ffffffffffffffffffffffffffffffffffffffff1681526020019081526020015f2054421015611030576040517f08c379a000000000000000000000000000000000000000000000000000000000815260040161102790612ba1565b60405180910390fd5b5f805f8373ffffffffffffffffffffffffffffffffffffffff1673ffffffffffffffffffffffffffffffffffffffff1681526020019081526020015f206002015490505f60085f9054906101000a900473ffffffffffffffffffffffffffffffffffffffff1673ffffffffffffffffffffffffffffffffffffffff1663feaf968c6040518163ffffffff1660e01b815260040160a060405180830381865afa1580156110de573d5f803e3d5ffd5b505050506040513d601f19601f820116820180604052508101906111029190612c45565b5050509150505f60085f9054906101000a900473ffffffffffffffffffffffffffffffffffffffff1673ffffffffffffffffffffffffffffffffffffffff1663313ce5676040518163ffffffff1660e01b8152600401602060405180830381865afa158015611173573d5f803e3d5ffd5b505050506040513d601f19601f820116820180604052508101906111979190612cf2565b60ff1690505f8160126111aa919061283b565b600a6111b69190612e4c565b83670de0b6b3a7640000866111cb9190612e96565b6111d59190612ed7565b6111df9190612ed7565b90505f6103e86005836111f29190612e96565b6111fc9190612ed7565b90505f818361120b919061283b565b905061123a60045f9054906101000a900473ffffffffffffffffffffffffffffffffffffffff16883089611a9e565b61128760045f9054906101000a900473ffffffffffffffffffffffffffffffffffffffff1660075f9054906101000a900473ffffffffffffffffffffffffffffffffffffffff1688611b20565b5f600267ffffffffffffffff8111156112a3576112a261212b565b5b6040519080825280602002602001820160405280156112d15781602001602082028036833780820191505090505b50905060045f9054906101000a900473ffffffffffffffffffffffffffffffffffffffff16815f8151811061130957611308612f07565b5b602002602001019073ffffffffffffffffffffffffffffffffffffffff16908173ffffffffffffffffffffffffffffffffffffffff168152505060075f9054906101000a900473ffffffffffffffffffffffffffffffffffffffff1673ffffffffffffffffffffffffffffffffffffffff1663ad5c46486040518163ffffffff1660e01b8152600401602060405180830381865afa1580156113ad573d5f803e3d5ffd5b505050506040513d601f19601f820116820180604052508101906113d19190612f48565b816001815181106113e5576113e4612f07565b5b602002602001019073ffffffffffffffffffffffffffffffffffffffff16908173ffffffffffffffffffffffffffffffffffffffff16815250505f60075f9054906101000a900473ffffffffffffffffffffffffffffffffffffffff1673ffffffffffffffffffffffffffffffffffffffff166318cbafe589858530610e104261146f91906128cb565b6040518663ffffffff1660e01b815260040161148f95949392919061302a565b5f604051808303815f875af11580156114aa573d5f803e3d5ffd5b505050506040513d5f823e3d601f19601f820116820180604052508101906114d29190613117565b90505f816001815181106114e9576114e8612f07565b5b602002602001015190505f808b73ffffffffffffffffffffffffffffffffffffffff1673ffffffffffffffffffffffffffffffffffffffff1681526020019081526020015f206004015f815480929190611542906129f4565b91905055508973ffffffffffffffffffffffffffffffffffffffff167f1a3abf7e0a472651ebe2c79a31a5f4660c7ea65e3086ee1742d7502999bbf5b58a8360405161158f92919061275a565b60405180910390a28973ffffffffffffffffffffffffffffffffffffffff166108fc8290811502906040515f60405180830381858888f193505050501580156115da573d5f803e3d5ffd5b506115e48a611989565b50505050505050505050565b6002602052805f5260405f205f915054906101000a900473ffffffffffffffffffffffffffffffffffffffff1681565b5f805f3373ffffffffffffffffffffffffffffffffffffffff1673ffffffffffffffffffffffffffffffffffffffff1681526020019081526020015f205f0154116116a0576040517f08c379a000000000000000000000000000000000000000000000000000000000815260040161169790612948565b60405180910390fd5b5f805f3373ffffffffffffffffffffffffffffffffffffffff1673ffffffffffffffffffffffffffffffffffffffff1681526020019081526020015f20600501819055503373ffffffffffffffffffffffffffffffffffffffff167ff222abd4ee7afb02f9450183b95d07aaab2ea2f2d6748f55525c7e875fdd58a160405160405180910390a2565b5f60045f9054906101000a900473ffffffffffffffffffffffffffffffffffffffff1673ffffffffffffffffffffffffffffffffffffffff1663dd62ed3e83306040518363ffffffff1660e01b8152600401611786929190612781565b602060405180830381865afa1580156117a1573d5f803e3d5ffd5b505050506040513d601f19601f820116820180604052508101906117c5919061315e565b9050919050565b5f60025f8481526020019081526020015f205f9054906101000a900473ffffffffffffffffffffffffffffffffffffffff1690505f808273ffffffffffffffffffffffffffffffffffffffff1673ffffffffffffffffffffffffffffffffffffffff1681526020019081526020015f2060010154825f8151811061185357611852612f07565b5b6020026020010151611865919061289b565b5f808373ffffffffffffffffffffffffffffffffffffffff1673ffffffffffffffffffffffffffffffffffffffff1681526020019081526020015f20600101545f808473ffffffffffffffffffffffffffffffffffffffff1673ffffffffffffffffffffffffffffffffffffffff1681526020019081526020015f20600401546118ef9190612e96565b5f808473ffffffffffffffffffffffffffffffffffffffff1673ffffffffffffffffffffffffffffffffffffffff1681526020019081526020015f206003015461193991906128cb565b61194391906128cb565b60035f8373ffffffffffffffffffffffffffffffffffffffff1673ffffffffffffffffffffffffffffffffffffffff1681526020019081526020015f2081905550505050565b5f60065f9054906101000a900473ffffffffffffffffffffffffffffffffffffffff1673ffffffffffffffffffffffffffffffffffffffff16635d3b1d30600a54600660149054906101000a900467ffffffffffffffff1660036205573060016040518663ffffffff1660e01b8152600401611a0995949392919061328a565b6020604051808303815f875af1158015611a25573d5f803e3d5ffd5b505050506040513d601f19601f82011682018060405250810190611a49919061315e565b90508160025f8381526020019081526020015f205f6101000a81548173ffffffffffffffffffffffffffffffffffffffff021916908373ffffffffffffffffffffffffffffffffffffffff1602179055505050565b611b1a848573ffffffffffffffffffffffffffffffffffffffff166323b872dd868686604051602401611ad3939291906132db565b604051602081830303815290604052915060e01b6020820180517bffffffffffffffffffffffffffffffffffffffffffffffffffffffff8381831617835250505050611bb9565b50505050565b5f8373ffffffffffffffffffffffffffffffffffffffff1663dd62ed3e30856040518363ffffffff1660e01b8152600401611b5c929190612781565b602060405180830381865afa158015611b77573d5f803e3d5ffd5b505050506040513d601f19601f82011682018060405250810190611b9b919061315e565b9050611bb384848484611bae91906128cb565b611c4e565b50505050565b5f611be3828473ffffffffffffffffffffffffffffffffffffffff16611d5b90919063ffffffff16565b90505f815114158015611c07575080806020019051810190611c05919061333a565b155b15611c4957826040517f5274afe7000000000000000000000000000000000000000000000000000000008152600401611c409190612345565b60405180910390fd5b505050565b5f8373ffffffffffffffffffffffffffffffffffffffff1663095ea7b38484604051602401611c7e929190613365565b604051602081830303815290604052915060e01b6020820180517bffffffffffffffffffffffffffffffffffffffffffffffffffffffff83818316178352505050509050611ccc8482611d70565b611d5557611d4a848573ffffffffffffffffffffffffffffffffffffffff1663095ea7b3865f604051602401611d039291906133c5565b604051602081830303815290604052915060e01b6020820180517bffffffffffffffffffffffffffffffffffffffffffffffffffffffff8381831617835250505050611bb9565b611d548482611bb9565b5b50505050565b6060611d6883835f611e2f565b905092915050565b5f805f8473ffffffffffffffffffffffffffffffffffffffff1684604051611d989190613426565b5f604051808303815f865af19150503d805f8114611dd1576040519150601f19603f3d011682016040523d82523d5f602084013e611dd6565b606091505b5091509150818015611e0357505f81511480611e02575080806020019051810190611e01919061333a565b5b5b8015611e2557505f8573ffffffffffffffffffffffffffffffffffffffff163b115b9250505092915050565b606081471015611e7657306040517fcd786059000000000000000000000000000000000000000000000000000000008152600401611e6d9190612345565b60405180910390fd5b5f808573ffffffffffffffffffffffffffffffffffffffff168486604051611e9e9190613426565b5f6040518083038185875af1925050503d805f8114611ed8576040519150601f19603f3d011682016040523d82523d5f602084013e611edd565b606091505b5091509150611eed868383611ef8565b925050509392505050565b606082611f0d57611f0882611f85565b611f7d565b5f8251148015611f3357505f8473ffffffffffffffffffffffffffffffffffffffff163b145b15611f7557836040517f9996b315000000000000000000000000000000000000000000000000000000008152600401611f6c9190612345565b60405180910390fd5b819050611f7e565b5b9392505050565b5f81511115611f975780518082602001fd5b6040517f1425ea4200000000000000000000000000000000000000000000000000000000815260040160405180910390fd5b5f604051905090565b5f80fd5b5f80fd5b5f819050919050565b611fec81611fda565b8114611ff6575f80fd5b50565b5f8135905061200781611fe3565b92915050565b5f806040838503121561202357612022611fd2565b5b5f61203085828601611ff9565b925050602061204185828601611ff9565b9150509250929050565b5f73ffffffffffffffffffffffffffffffffffffffff82169050919050565b5f819050919050565b5f61208d6120886120838461204b565b61206a565b61204b565b9050919050565b5f61209e82612073565b9050919050565b5f6120af82612094565b9050919050565b6120bf816120a5565b82525050565b5f6020820190506120d85f8301846120b6565b92915050565b5f6120e882612094565b9050919050565b6120f8816120de565b82525050565b5f6020820190506121115f8301846120ef565b92915050565b5f80fd5b5f601f19601f8301169050919050565b7f4e487b71000000000000000000000000000000000000000000000000000000005f52604160045260245ffd5b6121618261211b565b810181811067ffffffffffffffff821117156121805761217f61212b565b5b80604052505050565b5f612192611fc9565b905061219e8282612158565b919050565b5f67ffffffffffffffff8211156121bd576121bc61212b565b5b602082029050602081019050919050565b5f80fd5b5f6121e46121df846121a3565b612189565b90508083825260208201905060208402830185811115612207576122066121ce565b5b835b81811015612230578061221c8882611ff9565b845260208401935050602081019050612209565b5050509392505050565b5f82601f83011261224e5761224d612117565b5b813561225e8482602086016121d2565b91505092915050565b5f806040838503121561227d5761227c611fd2565b5b5f61228a85828601611ff9565b925050602083013567ffffffffffffffff8111156122ab576122aa611fd6565b5b6122b78582860161223a565b9150509250929050565b5f6122cb82612094565b9050919050565b6122db816122c1565b82525050565b5f6020820190506122f45f8301846122d2565b92915050565b5f6020828403121561230f5761230e611fd2565b5b5f61231c84828501611ff9565b91505092915050565b5f61232f8261204b565b9050919050565b61233f81612325565b82525050565b5f6020820190506123585f830184612336565b92915050565b5f80fd5b5f8083601f84011261237757612376612117565b5b8235905067ffffffffffffffff8111156123945761239361235e565b5b6020830191508360018202830111156123b0576123af6121ce565b5b9250929050565b5f80602083850312156123cd576123cc611fd2565b5b5f83013567ffffffffffffffff8111156123ea576123e9611fd6565b5b6123f685828601612362565b92509250509250929050565b5f8115159050919050565b61241681612402565b82525050565b5f81519050919050565b5f82825260208201905092915050565b5f5b83811015612453578082015181840152602081019050612438565b5f8484015250505050565b5f6124688261241c565b6124728185612426565b9350612482818560208601612436565b61248b8161211b565b840191505092915050565b5f6040820190506124a95f83018561240d565b81810360208301526124bb818461245e565b90509392505050565b5f6124ce82612094565b9050919050565b6124de816124c4565b82525050565b5f6020820190506124f75f8301846124d5565b92915050565b5f61250782612094565b9050919050565b612517816124fd565b82525050565b5f6020820190506125305f83018461250e565b92915050565b61253f81612325565b8114612549575f80fd5b50565b5f8135905061255a81612536565b92915050565b5f6020828403121561257557612574611fd2565b5b5f6125828482850161254c565b91505092915050565b61259481611fda565b82525050565b5f6020820190506125ad5f83018461258b565b92915050565b5f60c0820190506125c65f83018961258b565b6125d3602083018861258b565b6125e0604083018761258b565b6125ed606083018661258b565b6125fa608083018561258b565b61260760a083018461258b565b979650505050505050565b5f82825260208201905092915050565b7f506c616e206973206578697374000000000000000000000000000000000000005f82015250565b5f612656600d83612612565b915061266182612622565b602082019050919050565b5f6020820190508181035f8301526126838161264a565b9050919050565b7f4672657175656e6379206d7573742062652067726561746572207468616e20305f82015250565b5f6126be602083612612565b91506126c98261268a565b602082019050919050565b5f6020820190508181035f8301526126eb816126b2565b9050919050565b7f416d6f756e74206d7573742062652067726561746572207468616e20300000005f82015250565b5f612726601d83612612565b9150612731826126f2565b602082019050919050565b5f6020820190508181035f8301526127538161271a565b9050919050565b5f60408201905061276d5f83018561258b565b61277a602083018461258b565b9392505050565b5f6040820190506127945f830185612336565b6127a16020830184612336565b9392505050565b5f6127b28261204b565b9050919050565b6127c2816127a8565b81146127cc575f80fd5b50565b5f813590506127dd816127b9565b92915050565b5f602082840312156127f8576127f7611fd2565b5b5f612805848285016127cf565b91505092915050565b7f4e487b71000000000000000000000000000000000000000000000000000000005f52601160045260245ffd5b5f61284582611fda565b915061285083611fda565b92508282039050818111156128685761286761280e565b5b92915050565b7f4e487b71000000000000000000000000000000000000000000000000000000005f52601260045260245ffd5b5f6128a582611fda565b91506128b083611fda565b9250826128c0576128bf61286e565b5b828206905092915050565b5f6128d582611fda565b91506128e083611fda565b92508282019050808211156128f8576128f761280e565b5b92915050565b7f506c616e206973206e6f742065786973740000000000000000000000000000005f82015250565b5f612932601183612612565b915061293d826128fe565b602082019050919050565b5f6020820190508181035f83015261295f81612926565b9050919050565b7f546f74616c206d7573742062652067726561746572207468616e20616d6f756e5f8201527f7400000000000000000000000000000000000000000000000000000000000000602082015250565b5f6129c0602183612612565b91506129cb82612966565b604082019050919050565b5f6020820190508181035f8301526129ed816129b4565b9050919050565b5f6129fe82611fda565b91507fffffffffffffffffffffffffffffffffffffffffffffffffffffffffffffffff8203612a3057612a2f61280e565b5b600182019050919050565b7f506c616e206973206e6f742061637469766500000000000000000000000000005f82015250565b5f612a6f601283612612565b9150612a7a82612a3b565b602082019050919050565b5f6020820190508181035f830152612a9c81612a63565b9050919050565b7f43616e6e6f742074726967676572206d6f7265207468616e2072656d61696e695f8201527f6e6720616d6f756e740000000000000000000000000000000000000000000000602082015250565b5f612afd602983612612565b9150612b0882612aa3565b604082019050919050565b5f6020820190508181035f830152612b2a81612af1565b9050919050565b7f43616e6e6f742074726967676572206265666f7265206e6578742074726967675f8201527f65722074696d6500000000000000000000000000000000000000000000000000602082015250565b5f612b8b602783612612565b9150612b9682612b31565b604082019050919050565b5f6020820190508181035f830152612bb881612b7f565b9050919050565b5f69ffffffffffffffffffff82169050919050565b612bdd81612bbf565b8114612be7575f80fd5b50565b5f81519050612bf881612bd4565b92915050565b5f819050919050565b612c1081612bfe565b8114612c1a575f80fd5b50565b5f81519050612c2b81612c07565b92915050565b5f81519050612c3f81611fe3565b92915050565b5f805f805f60a08688031215612c5e57612c5d611fd2565b5b5f612c6b88828901612bea565b9550506020612c7c88828901612c1d565b9450506040612c8d88828901612c31565b9350506060612c9e88828901612c31565b9250506080612caf88828901612bea565b9150509295509295909350565b5f60ff82169050919050565b612cd181612cbc565b8114612cdb575f80fd5b50565b5f81519050612cec81612cc8565b92915050565b5f60208284031215612d0757612d06611fd2565b5b5f612d1484828501612cde565b91505092915050565b5f8160011c9050919050565b5f808291508390505b6001851115612d7257808604811115612d4e57612d4d61280e565b5b6001851615612d5d5780820291505b8081029050612d6b85612d1d565b9450612d32565b94509492505050565b5f82612d8a5760019050612e45565b81612d97575f9050612e45565b8160018114612dad5760028114612db757612de6565b6001915050612e45565b60ff841115612dc957612dc861280e565b5b8360020a915084821115612de057612ddf61280e565b5b50612e45565b5060208310610133831016604e8410600b8410161715612e1b5782820a905083811115612e1657612e1561280e565b5b612e45565b612e288484846001612d29565b92509050818404811115612e3f57612e3e61280e565b5b81810290505b9392505050565b5f612e5682611fda565b9150612e6183611fda565b9250612e8e7fffffffffffffffffffffffffffffffffffffffffffffffffffffffffffffffff8484612d7b565b905092915050565b5f612ea082611fda565b9150612eab83611fda565b9250828202612eb981611fda565b91508282048414831517612ed057612ecf61280e565b5b5092915050565b5f612ee182611fda565b9150612eec83611fda565b925082612efc57612efb61286e565b5b828204905092915050565b7f4e487b71000000000000000000000000000000000000000000000000000000005f52603260045260245ffd5b5f81519050612f4281612536565b92915050565b5f60208284031215612f5d57612f5c611fd2565b5b5f612f6a84828501612f34565b91505092915050565b5f81519050919050565b5f82825260208201905092915050565b5f819050602082019050919050565b612fa581612325565b82525050565b5f612fb68383612f9c565b60208301905092915050565b5f602082019050919050565b5f612fd882612f73565b612fe28185612f7d565b9350612fed83612f8d565b805f5b8381101561301d5781516130048882612fab565b975061300f83612fc2565b925050600181019050612ff0565b5085935050505092915050565b5f60a08201905061303d5f83018861258b565b61304a602083018761258b565b818103604083015261305c8186612fce565b905061306b6060830185612336565b613078608083018461258b565b9695505050505050565b5f61309461308f846121a3565b612189565b905080838252602082019050602084028301858111156130b7576130b66121ce565b5b835b818110156130e057806130cc8882612c31565b8452602084019350506020810190506130b9565b5050509392505050565b5f82601f8301126130fe576130fd612117565b5b815161310e848260208601613082565b91505092915050565b5f6020828403121561312c5761312b611fd2565b5b5f82015167ffffffffffffffff81111561314957613148611fd6565b5b613155848285016130ea565b91505092915050565b5f6020828403121561317357613172611fd2565b5b5f61318084828501612c31565b91505092915050565b5f819050919050565b61319b81613189565b82525050565b5f67ffffffffffffffff82169050919050565b6131bd816131a1565b82525050565b5f819050919050565b5f61ffff82169050919050565b5f6131f36131ee6131e9846131c3565b61206a565b6131cc565b9050919050565b613203816131d9565b82525050565b5f819050919050565b5f63ffffffff82169050919050565b5f61323b61323661323184613209565b61206a565b613212565b9050919050565b61324b81613221565b82525050565b5f819050919050565b5f61327461326f61326a84613251565b61206a565b613212565b9050919050565b6132848161325a565b82525050565b5f60a08201905061329d5f830188613192565b6132aa60208301876131b4565b6132b760408301866131fa565b6132c46060830185613242565b6132d1608083018461327b565b9695505050505050565b5f6060820190506132ee5f830186612336565b6132fb6020830185612336565b613308604083018461258b565b949350505050565b61331981612402565b8114613323575f80fd5b50565b5f8151905061333481613310565b92915050565b5f6020828403121561334f5761334e611fd2565b5b5f61335c84828501613326565b91505092915050565b5f6040820190506133785f830185612336565b613385602083018461258b565b9392505050565b5f819050919050565b5f6133af6133aa6133a58461338c565b61206a565b611fda565b9050919050565b6133bf81613395565b82525050565b5f6040820190506133d85f830185612336565b6133e560208301846133b6565b9392505050565b5f81905092915050565b5f6134008261241c565b61340a81856133ec565b935061341a818560208601612436565b80840191505092915050565b5f61343182846133f6565b91508190509291505056fea26469706673582212202d368352843315e3b1000b350c619f136bd47be8c8112a7e4b4c627e03e21b1364736f6c63430008160033",
					"opcodes": "PUSH1 0xA0 PUSH1 0x40 MSTORE CALLVALUE DUP1 ISZERO PUSH3 0x10 JUMPI PUSH0 DUP1 REVERT JUMPDEST POP PUSH1 0x40 MLOAD PUSH3 0x3866 CODESIZE SUB DUP1 PUSH3 0x3866 DUP4 CODECOPY DUP2 DUP2 ADD PUSH1 0x40 MSTORE DUP2 ADD SWAP1 PUSH3 0x36 SWAP2 SWAP1 PUSH3 0x310 JUMP JUMPDEST DUP5 DUP1 PUSH20 0xFFFFFFFFFFFFFFFFFFFFFFFFFFFFFFFFFFFFFFFF AND PUSH1 0x80 DUP2 PUSH20 0xFFFFFFFFFFFFFFFFFFFFFFFFFFFFFFFFFFFFFFFF AND DUP2 MSTORE POP POP POP DUP8 PUSH1 0x4 PUSH0 PUSH2 0x100 EXP DUP2 SLOAD DUP2 PUSH20 0xFFFFFFFFFFFFFFFFFFFFFFFFFFFFFFFFFFFFFFFF MUL NOT AND SWAP1 DUP4 PUSH20 0xFFFFFFFFFFFFFFFFFFFFFFFFFFFFFFFFFFFFFFFF AND MUL OR SWAP1 SSTORE POP DUP7 PUSH1 0x7 PUSH0 PUSH2 0x100 EXP DUP2 SLOAD DUP2 PUSH20 0xFFFFFFFFFFFFFFFFFFFFFFFFFFFFFFFFFFFFFFFF MUL NOT AND SWAP1 DUP4 PUSH20 0xFFFFFFFFFFFFFFFFFFFFFFFFFFFFFFFFFFFFFFFF AND MUL OR SWAP1 SSTORE POP DUP6 PUSH1 0x8 PUSH0 PUSH2 0x100 EXP DUP2 SLOAD DUP2 PUSH20 0xFFFFFFFFFFFFFFFFFFFFFFFFFFFFFFFFFFFFFFFF MUL NOT AND SWAP1 DUP4 PUSH20 0xFFFFFFFFFFFFFFFFFFFFFFFFFFFFFFFFFFFFFFFF AND MUL OR SWAP1 SSTORE POP PUSH1 0x1 PUSH1 0x9 DUP2 SWAP1 SSTORE POP DUP2 PUSH1 0xA DUP2 SWAP1 SSTORE POP DUP1 PUSH1 0xB DUP2 SWAP1 SSTORE POP DUP3 PUSH1 0x5 PUSH0 PUSH2 0x100 EXP DUP2 SLOAD DUP2 PUSH20 0xFFFFFFFFFFFFFFFFFFFFFFFFFFFFFFFFFFFFFFFF MUL NOT AND SWAP1 DUP4 PUSH20 0xFFFFFFFFFFFFFFFFFFFFFFFFFFFFFFFFFFFFFFFF AND MUL OR SWAP1 SSTORE POP DUP5 PUSH1 0x6 PUSH0 PUSH2 0x100 EXP DUP2 SLOAD DUP2 PUSH20 0xFFFFFFFFFFFFFFFFFFFFFFFFFFFFFFFFFFFFFFFF MUL NOT AND SWAP1 DUP4 PUSH20 0xFFFFFFFFFFFFFFFFFFFFFFFFFFFFFFFFFFFFFFFF AND MUL OR SWAP1 SSTORE POP DUP4 PUSH1 0x6 PUSH1 0x14 PUSH2 0x100 EXP DUP2 SLOAD DUP2 PUSH8 0xFFFFFFFFFFFFFFFF MUL NOT AND SWAP1 DUP4 PUSH8 0xFFFFFFFFFFFFFFFF AND MUL OR SWAP1 SSTORE POP POP POP POP POP POP POP POP POP PUSH3 0x3D4 JUMP JUMPDEST PUSH0 DUP1 REVERT JUMPDEST PUSH0 PUSH20 0xFFFFFFFFFFFFFFFFFFFFFFFFFFFFFFFFFFFFFFFF DUP3 AND SWAP1 POP SWAP2 SWAP1 POP JUMP JUMPDEST PUSH0 PUSH3 0x228 DUP3 PUSH3 0x1FD JUMP JUMPDEST SWAP1 POP SWAP2 SWAP1 POP JUMP JUMPDEST PUSH3 0x23A DUP2 PUSH3 0x21C JUMP JUMPDEST DUP2 EQ PUSH3 0x245 JUMPI PUSH0 DUP1 REVERT JUMPDEST POP JUMP JUMPDEST PUSH0 DUP2 MLOAD SWAP1 POP PUSH3 0x258 DUP2 PUSH3 0x22F JUMP JUMPDEST SWAP3 SWAP2 POP POP JUMP JUMPDEST PUSH0 PUSH8 0xFFFFFFFFFFFFFFFF DUP3 AND SWAP1 POP SWAP2 SWAP1 POP JUMP JUMPDEST PUSH3 0x27C DUP2 PUSH3 0x25E JUMP JUMPDEST DUP2 EQ PUSH3 0x287 JUMPI PUSH0 DUP1 REVERT JUMPDEST POP JUMP JUMPDEST PUSH0 DUP2 MLOAD SWAP1 POP PUSH3 0x29A DUP2 PUSH3 0x271 JUMP JUMPDEST SWAP3 SWAP2 POP POP JUMP JUMPDEST PUSH0 DUP2 SWAP1 POP SWAP2 SWAP1 POP JUMP JUMPDEST PUSH3 0x2B4 DUP2 PUSH3 0x2A0 JUMP JUMPDEST DUP2 EQ PUSH3 0x2BF JUMPI PUSH0 DUP1 REVERT JUMPDEST POP JUMP JUMPDEST PUSH0 DUP2 MLOAD SWAP1 POP PUSH3 0x2D2 DUP2 PUSH3 0x2A9 JUMP JUMPDEST SWAP3 SWAP2 POP POP JUMP JUMPDEST PUSH0 DUP2 SWAP1 POP SWAP2 SWAP1 POP JUMP JUMPDEST PUSH3 0x2EC DUP2 PUSH3 0x2D8 JUMP JUMPDEST DUP2 EQ PUSH3 0x2F7 JUMPI PUSH0 DUP1 REVERT JUMPDEST POP JUMP JUMPDEST PUSH0 DUP2 MLOAD SWAP1 POP PUSH3 0x30A DUP2 PUSH3 0x2E1 JUMP JUMPDEST SWAP3 SWAP2 POP POP JUMP JUMPDEST PUSH0 DUP1 PUSH0 DUP1 PUSH0 DUP1 PUSH0 DUP1 PUSH2 0x100 DUP10 DUP12 SUB SLT ISZERO PUSH3 0x330 JUMPI PUSH3 0x32F PUSH3 0x1F9 JUMP JUMPDEST JUMPDEST PUSH0 PUSH3 0x33F DUP12 DUP3 DUP13 ADD PUSH3 0x248 JUMP JUMPDEST SWAP9 POP POP PUSH1 0x20 PUSH3 0x352 DUP12 DUP3 DUP13 ADD PUSH3 0x248 JUMP JUMPDEST SWAP8 POP POP PUSH1 0x40 PUSH3 0x365 DUP12 DUP3 DUP13 ADD PUSH3 0x248 JUMP JUMPDEST SWAP7 POP POP PUSH1 0x60 PUSH3 0x378 DUP12 DUP3 DUP13 ADD PUSH3 0x248 JUMP JUMPDEST SWAP6 POP POP PUSH1 0x80 PUSH3 0x38B DUP12 DUP3 DUP13 ADD PUSH3 0x28A JUMP JUMPDEST SWAP5 POP POP PUSH1 0xA0 PUSH3 0x39E DUP12 DUP3 DUP13 ADD PUSH3 0x248 JUMP JUMPDEST SWAP4 POP POP PUSH1 0xC0 PUSH3 0x3B1 DUP12 DUP3 DUP13 ADD PUSH3 0x2C2 JUMP JUMPDEST SWAP3 POP POP PUSH1 0xE0 PUSH3 0x3C4 DUP12 DUP3 DUP13 ADD PUSH3 0x2FA JUMP JUMPDEST SWAP2 POP POP SWAP3 SWAP6 SWAP9 POP SWAP3 SWAP6 SWAP9 SWAP1 SWAP4 SWAP7 POP JUMP JUMPDEST PUSH1 0x80 MLOAD PUSH2 0x3472 PUSH3 0x3F4 PUSH0 CODECOPY PUSH0 DUP2 DUP2 PUSH2 0x6AB ADD MSTORE PUSH2 0x6FF ADD MSTORE PUSH2 0x3472 PUSH0 RETURN INVALID PUSH1 0x80 PUSH1 0x40 MSTORE PUSH1 0x4 CALLDATASIZE LT PUSH2 0x116 JUMPI PUSH0 CALLDATALOAD PUSH1 0xE0 SHR DUP1 PUSH4 0x7DC0D1D0 GT PUSH2 0x9F JUMPI DUP1 PUSH4 0xB197DF54 GT PUSH2 0x63 JUMPI DUP1 PUSH4 0xB197DF54 EQ PUSH2 0x3A1 JUMPI DUP1 PUSH4 0xC440FA0F EQ PUSH2 0x3C9 JUMPI DUP1 PUSH4 0xC966494E EQ PUSH2 0x3F1 JUMPI DUP1 PUSH4 0xD930DA60 EQ PUSH2 0x42D JUMPI DUP1 PUSH4 0xEB5A662E EQ PUSH2 0x443 JUMPI PUSH2 0x11D JUMP JUMPDEST DUP1 PUSH4 0x7DC0D1D0 EQ PUSH2 0x2BA JUMPI DUP1 PUSH4 0x83CEAE8D EQ PUSH2 0x2E4 JUMPI DUP1 PUSH4 0x86D86D84 EQ PUSH2 0x320 JUMPI DUP1 PUSH4 0xA63661A5 EQ PUSH2 0x361 JUMPI DUP1 PUSH4 0xAFFED0E0 EQ PUSH2 0x377 JUMPI PUSH2 0x11D JUMP JUMPDEST DUP1 PUSH4 0x2F48AB7D GT PUSH2 0xE6 JUMPI DUP1 PUSH4 0x2F48AB7D EQ PUSH2 0x1C5 JUMPI DUP1 PUSH4 0x365B98B2 EQ PUSH2 0x1EF JUMPI DUP1 PUSH4 0x4585E33B EQ PUSH2 0x22B JUMPI DUP1 PUSH4 0x6E04FF0D EQ PUSH2 0x253 JUMPI DUP1 PUSH4 0x735DE9F7 EQ PUSH2 0x290 JUMPI PUSH2 0x11D JUMP JUMPDEST DUP1 PUSH3 0xE1801C EQ PUSH2 0x121 JUMPI DUP1 PUSH4 0xA009097 EQ PUSH2 0x149 JUMPI DUP1 PUSH4 0x1C4695F4 EQ PUSH2 0x173 JUMPI DUP1 PUSH4 0x1FE543E3 EQ PUSH2 0x19D JUMPI PUSH2 0x11D JUMP JUMPDEST CALLDATASIZE PUSH2 0x11D JUMPI STOP JUMPDEST PUSH0 DUP1 REVERT JUMPDEST CALLVALUE DUP1 ISZERO PUSH2 0x12C JUMPI PUSH0 DUP1 REVERT JUMPDEST POP PUSH2 0x147 PUSH1 0x4 DUP1 CALLDATASIZE SUB DUP2 ADD SWAP1 PUSH2 0x142 SWAP2 SWAP1 PUSH2 0x200D JUMP JUMPDEST PUSH2 0x47F JUMP JUMPDEST STOP JUMPDEST CALLVALUE DUP1 ISZERO PUSH2 0x154 JUMPI PUSH0 DUP1 REVERT JUMPDEST POP PUSH2 0x15D PUSH2 0x65F JUMP JUMPDEST PUSH1 0x40 MLOAD PUSH2 0x16A SWAP2 SWAP1 PUSH2 0x20C5 JUMP JUMPDEST PUSH1 0x40 MLOAD DUP1 SWAP2 SUB SWAP1 RETURN JUMPDEST CALLVALUE DUP1 ISZERO PUSH2 0x17E JUMPI PUSH0 DUP1 REVERT JUMPDEST POP PUSH2 0x187 PUSH2 0x684 JUMP JUMPDEST PUSH1 0x40 MLOAD PUSH2 0x194 SWAP2 SWAP1 PUSH2 0x20FE JUMP JUMPDEST PUSH1 0x40 MLOAD DUP1 SWAP2 SUB SWAP1 RETURN JUMPDEST CALLVALUE DUP1 ISZERO PUSH2 0x1A8 JUMPI PUSH0 DUP1 REVERT JUMPDEST POP PUSH2 0x1C3 PUSH1 0x4 DUP1 CALLDATASIZE SUB DUP2 ADD SWAP1 PUSH2 0x1BE SWAP2 SWAP1 PUSH2 0x2267 JUMP JUMPDEST PUSH2 0x6A9 JUMP JUMPDEST STOP JUMPDEST CALLVALUE DUP1 ISZERO PUSH2 0x1D0 JUMPI PUSH0 DUP1 REVERT JUMPDEST POP PUSH2 0x1D9 PUSH2 0x769 JUMP JUMPDEST PUSH1 0x40 MLOAD PUSH2 0x1E6 SWAP2 SWAP1 PUSH2 0x22E1 JUMP JUMPDEST PUSH1 0x40 MLOAD DUP1 SWAP2 SUB SWAP1 RETURN JUMPDEST CALLVALUE DUP1 ISZERO PUSH2 0x1FA JUMPI PUSH0 DUP1 REVERT JUMPDEST POP PUSH2 0x215 PUSH1 0x4 DUP1 CALLDATASIZE SUB DUP2 ADD SWAP1 PUSH2 0x210 SWAP2 SWAP1 PUSH2 0x22FA JUMP JUMPDEST PUSH2 0x78E JUMP JUMPDEST PUSH1 0x40 MLOAD PUSH2 0x222 SWAP2 SWAP1 PUSH2 0x2345 JUMP JUMPDEST PUSH1 0x40 MLOAD DUP1 SWAP2 SUB SWAP1 RETURN JUMPDEST CALLVALUE DUP1 ISZERO PUSH2 0x236 JUMPI PUSH0 DUP1 REVERT JUMPDEST POP PUSH2 0x251 PUSH1 0x4 DUP1 CALLDATASIZE SUB DUP2 ADD SWAP1 PUSH2 0x24C SWAP2 SWAP1 PUSH2 0x23B7 JUMP JUMPDEST PUSH2 0x7BE JUMP JUMPDEST STOP JUMPDEST CALLVALUE DUP1 ISZERO PUSH2 0x25E JUMPI PUSH0 DUP1 REVERT JUMPDEST POP PUSH2 0x279 PUSH1 0x4 DUP1 CALLDATASIZE SUB DUP2 ADD SWAP1 PUSH2 0x274 SWAP2 SWAP1 PUSH2 0x23B7 JUMP JUMPDEST PUSH2 0x7DE JUMP JUMPDEST PUSH1 0x40 MLOAD PUSH2 0x287 SWAP3 SWAP2 SWAP1 PUSH2 0x2496 JUMP JUMPDEST PUSH1 0x40 MLOAD DUP1 SWAP2 SUB SWAP1 RETURN JUMPDEST CALLVALUE DUP1 ISZERO PUSH2 0x29B JUMPI PUSH0 DUP1 REVERT JUMPDEST POP PUSH2 0x2A4 PUSH2 0x8F8 JUMP JUMPDEST PUSH1 0x40 MLOAD PUSH2 0x2B1 SWAP2 SWAP1 PUSH2 0x24E4 JUMP JUMPDEST PUSH1 0x40 MLOAD DUP1 SWAP2 SUB SWAP1 RETURN JUMPDEST CALLVALUE DUP1 ISZERO PUSH2 0x2C5 JUMPI PUSH0 DUP1 REVERT JUMPDEST POP PUSH2 0x2CE PUSH2 0x91D JUMP JUMPDEST PUSH1 0x40 MLOAD PUSH2 0x2DB SWAP2 SWAP1 PUSH2 0x251D JUMP JUMPDEST PUSH1 0x40 MLOAD DUP1 SWAP2 SUB SWAP1 RETURN JUMPDEST CALLVALUE DUP1 ISZERO PUSH2 0x2EF JUMPI PUSH0 DUP1 REVERT JUMPDEST POP PUSH2 0x30A PUSH1 0x4 DUP1 CALLDATASIZE SUB DUP2 ADD SWAP1 PUSH2 0x305 SWAP2 SWAP1 PUSH2 0x2560 JUMP JUMPDEST PUSH2 0x942 JUMP JUMPDEST PUSH1 0x40 MLOAD PUSH2 0x317 SWAP2 SWAP1 PUSH2 0x259A JUMP JUMPDEST PUSH1 0x40 MLOAD DUP1 SWAP2 SUB SWAP1 RETURN JUMPDEST CALLVALUE DUP1 ISZERO PUSH2 0x32B JUMPI PUSH0 DUP1 REVERT JUMPDEST POP PUSH2 0x346 PUSH1 0x4 DUP1 CALLDATASIZE SUB DUP2 ADD SWAP1 PUSH2 0x341 SWAP2 SWAP1 PUSH2 0x2560 JUMP JUMPDEST PUSH2 0x957 JUMP JUMPDEST PUSH1 0x40 MLOAD PUSH2 0x358 SWAP7 SWAP6 SWAP5 SWAP4 SWAP3 SWAP2 SWAP1 PUSH2 0x25B3 JUMP JUMPDEST PUSH1 0x40 MLOAD DUP1 SWAP2 SUB SWAP1 RETURN JUMPDEST CALLVALUE DUP1 ISZERO PUSH2 0x36C JUMPI PUSH0 DUP1 REVERT JUMPDEST POP PUSH2 0x375 PUSH2 0x98E JUMP JUMPDEST STOP JUMPDEST CALLVALUE DUP1 ISZERO PUSH2 0x382 JUMPI PUSH0 DUP1 REVERT JUMPDEST POP PUSH2 0x38B PUSH2 0xC33 JUMP JUMPDEST PUSH1 0x40 MLOAD PUSH2 0x398 SWAP2 SWAP1 PUSH2 0x259A JUMP JUMPDEST PUSH1 0x40 MLOAD DUP1 SWAP2 SUB SWAP1 RETURN JUMPDEST CALLVALUE DUP1 ISZERO PUSH2 0x3AC JUMPI PUSH0 DUP1 REVERT JUMPDEST POP PUSH2 0x3C7 PUSH1 0x4 DUP1 CALLDATASIZE SUB DUP2 ADD SWAP1 PUSH2 0x3C2 SWAP2 SWAP1 PUSH2 0x200D JUMP JUMPDEST PUSH2 0xC39 JUMP JUMPDEST STOP JUMPDEST CALLVALUE DUP1 ISZERO PUSH2 0x3D4 JUMPI PUSH0 DUP1 REVERT JUMPDEST POP PUSH2 0x3EF PUSH1 0x4 DUP1 CALLDATASIZE SUB DUP2 ADD SWAP1 PUSH2 0x3EA SWAP2 SWAP1 PUSH2 0x2560 JUMP JUMPDEST PUSH2 0xEA5 JUMP JUMPDEST STOP JUMPDEST CALLVALUE DUP1 ISZERO PUSH2 0x3FC JUMPI PUSH0 DUP1 REVERT JUMPDEST POP PUSH2 0x417 PUSH1 0x4 DUP1 CALLDATASIZE SUB DUP2 ADD SWAP1 PUSH2 0x412 SWAP2 SWAP1 PUSH2 0x22FA JUMP JUMPDEST PUSH2 0x15F0 JUMP JUMPDEST PUSH1 0x40 MLOAD PUSH2 0x424 SWAP2 SWAP1 PUSH2 0x2345 JUMP JUMPDEST PUSH1 0x40 MLOAD DUP1 SWAP2 SUB SWAP1 RETURN JUMPDEST CALLVALUE DUP1 ISZERO PUSH2 0x438 JUMPI PUSH0 DUP1 REVERT JUMPDEST POP PUSH2 0x441 PUSH2 0x1620 JUMP JUMPDEST STOP JUMPDEST CALLVALUE DUP1 ISZERO PUSH2 0x44E JUMPI PUSH0 DUP1 REVERT JUMPDEST POP PUSH2 0x469 PUSH1 0x4 DUP1 CALLDATASIZE SUB DUP2 ADD SWAP1 PUSH2 0x464 SWAP2 SWAP1 PUSH2 0x2560 JUMP JUMPDEST PUSH2 0x1729 JUMP JUMPDEST PUSH1 0x40 MLOAD PUSH2 0x476 SWAP2 SWAP1 PUSH2 0x259A JUMP JUMPDEST PUSH1 0x40 MLOAD DUP1 SWAP2 SUB SWAP1 RETURN JUMPDEST PUSH0 DUP1 PUSH0 CALLER PUSH20 0xFFFFFFFFFFFFFFFFFFFFFFFFFFFFFFFFFFFFFFFF AND PUSH20 0xFFFFFFFFFFFFFFFFFFFFFFFFFFFFFFFFFFFFFFFF AND DUP2 MSTORE PUSH1 0x20 ADD SWAP1 DUP2 MSTORE PUSH1 0x20 ADD PUSH0 KECCAK256 PUSH0 ADD SLOAD GT PUSH2 0x4FF JUMPI PUSH1 0x40 MLOAD PUSH32 0x8C379A000000000000000000000000000000000000000000000000000000000 DUP2 MSTORE PUSH1 0x4 ADD PUSH2 0x4F6 SWAP1 PUSH2 0x266C JUMP JUMPDEST PUSH1 0x40 MLOAD DUP1 SWAP2 SUB SWAP1 REVERT JUMPDEST PUSH0 DUP3 GT PUSH2 0x541 JUMPI PUSH1 0x40 MLOAD PUSH32 0x8C379A000000000000000000000000000000000000000000000000000000000 DUP2 MSTORE PUSH1 0x4 ADD PUSH2 0x538 SWAP1 PUSH2 0x26D4 JUMP JUMPDEST PUSH1 0x40 MLOAD DUP1 SWAP2 SUB SWAP1 REVERT JUMPDEST PUSH0 DUP2 GT PUSH2 0x583 JUMPI PUSH1 0x40 MLOAD PUSH32 0x8C379A000000000000000000000000000000000000000000000000000000000 DUP2 MSTORE PUSH1 0x4 ADD PUSH2 0x57A SWAP1 PUSH2 0x273C JUMP JUMPDEST PUSH1 0x40 MLOAD DUP1 SWAP2 SUB SWAP1 REVERT JUMPDEST DUP1 PUSH0 DUP1 CALLER PUSH20 0xFFFFFFFFFFFFFFFFFFFFFFFFFFFFFFFFFFFFFFFF AND PUSH20 0xFFFFFFFFFFFFFFFFFFFFFFFFFFFFFFFFFFFFFFFF AND DUP2 MSTORE PUSH1 0x20 ADD SWAP1 DUP2 MSTORE PUSH1 0x20 ADD PUSH0 KECCAK256 PUSH1 0x2 ADD DUP2 SWAP1 SSTORE POP DUP2 PUSH0 DUP1 CALLER PUSH20 0xFFFFFFFFFFFFFFFFFFFFFFFFFFFFFFFFFFFFFFFF AND PUSH20 0xFFFFFFFFFFFFFFFFFFFFFFFFFFFFFFFFFFFFFFFF AND DUP2 MSTORE PUSH1 0x20 ADD SWAP1 DUP2 MSTORE PUSH1 0x20 ADD PUSH0 KECCAK256 PUSH1 0x1 ADD DUP2 SWAP1 SSTORE POP CALLER PUSH20 0xFFFFFFFFFFFFFFFFFFFFFFFFFFFFFFFFFFFFFFFF AND PUSH32 0xC8108639F5E0627BAC90449607E60D516A5082452E397808A067B57F755515FC DUP4 DUP4 PUSH1 0x40 MLOAD PUSH2 0x653 SWAP3 SWAP2 SWAP1 PUSH2 0x275A JUMP JUMPDEST PUSH1 0x40 MLOAD DUP1 SWAP2 SUB SWAP1 LOG2 POP POP JUMP JUMPDEST PUSH1 0x6 PUSH0 SWAP1 SLOAD SWAP1 PUSH2 0x100 EXP SWAP1 DIV PUSH20 0xFFFFFFFFFFFFFFFFFFFFFFFFFFFFFFFFFFFFFFFF AND DUP2 JUMP JUMPDEST PUSH1 0x5 PUSH0 SWAP1 SLOAD SWAP1 PUSH2 0x100 EXP SWAP1 DIV PUSH20 0xFFFFFFFFFFFFFFFFFFFFFFFFFFFFFFFFFFFFFFFF AND DUP2 JUMP JUMPDEST PUSH32 0x0 PUSH20 0xFFFFFFFFFFFFFFFFFFFFFFFFFFFFFFFFFFFFFFFF AND CALLER PUSH20 0xFFFFFFFFFFFFFFFFFFFFFFFFFFFFFFFFFFFFFFFF AND EQ PUSH2 0x75B JUMPI CALLER PUSH32 0x0 PUSH1 0x40 MLOAD PUSH32 0x1CF993F400000000000000000000000000000000000000000000000000000000 DUP2 MSTORE PUSH1 0x4 ADD PUSH2 0x752 SWAP3 SWAP2 SWAP1 PUSH2 0x2781 JUMP JUMPDEST PUSH1 0x40 MLOAD DUP1 SWAP2 SUB SWAP1 REVERT JUMPDEST PUSH2 0x765 DUP3 DUP3 PUSH2 0x17CC JUMP JUMPDEST POP POP JUMP JUMPDEST PUSH1 0x4 PUSH0 SWAP1 SLOAD SWAP1 PUSH2 0x100 EXP SWAP1 DIV PUSH20 0xFFFFFFFFFFFFFFFFFFFFFFFFFFFFFFFFFFFFFFFF AND DUP2 JUMP JUMPDEST PUSH1 0x1 PUSH1 0x20 MSTORE DUP1 PUSH0 MSTORE PUSH1 0x40 PUSH0 KECCAK256 PUSH0 SWAP2 POP SLOAD SWAP1 PUSH2 0x100 EXP SWAP1 DIV PUSH20 0xFFFFFFFFFFFFFFFFFFFFFFFFFFFFFFFFFFFFFFFF AND DUP2 JUMP JUMPDEST PUSH0 DUP3 DUP3 DUP2 ADD SWAP1 PUSH2 0x7CE SWAP2 SWAP1 PUSH2 0x27E3 JUMP JUMPDEST SWAP1 POP PUSH2 0x7D9 DUP2 PUSH2 0xEA5 JUMP JUMPDEST POP POP POP JUMP JUMPDEST PUSH0 PUSH1 0x60 PUSH0 PUSH1 0x1 PUSH0 PUSH1 0x1 DUP1 PUSH1 0x9 SLOAD PUSH2 0x7F5 SWAP2 SWAP1 PUSH2 0x283B JUMP JUMPDEST NUMBER PUSH2 0x800 SWAP2 SWAP1 PUSH2 0x289B JUMP JUMPDEST PUSH2 0x80A SWAP2 SWAP1 PUSH2 0x28CB JUMP JUMPDEST DUP2 MSTORE PUSH1 0x20 ADD SWAP1 DUP2 MSTORE PUSH1 0x20 ADD PUSH0 KECCAK256 PUSH0 SWAP1 SLOAD SWAP1 PUSH2 0x100 EXP SWAP1 DIV PUSH20 0xFFFFFFFFFFFFFFFFFFFFFFFFFFFFFFFFFFFFFFFF AND SWAP1 POP PUSH0 SWAP3 POP PUSH1 0x3 PUSH0 DUP3 PUSH20 0xFFFFFFFFFFFFFFFFFFFFFFFFFFFFFFFFFFFFFFFF AND PUSH20 0xFFFFFFFFFFFFFFFFFFFFFFFFFFFFFFFFFFFFFFFF AND DUP2 MSTORE PUSH1 0x20 ADD SWAP1 DUP2 MSTORE PUSH1 0x20 ADD PUSH0 KECCAK256 SLOAD TIMESTAMP GT DUP1 ISZERO PUSH2 0x8C4 JUMPI POP PUSH0 PUSH1 0x3 PUSH0 DUP4 PUSH20 0xFFFFFFFFFFFFFFFFFFFFFFFFFFFFFFFFFFFFFFFF AND PUSH20 0xFFFFFFFFFFFFFFFFFFFFFFFFFFFFFFFFFFFFFFFF AND DUP2 MSTORE PUSH1 0x20 ADD SWAP1 DUP2 MSTORE PUSH1 0x20 ADD PUSH0 KECCAK256 SLOAD GT JUMPDEST ISZERO PUSH2 0x8CE JUMPI PUSH1 0x1 SWAP3 POP JUMPDEST DUP1 PUSH1 0x40 MLOAD PUSH1 0x20 ADD PUSH2 0x8DF SWAP2 SWAP1 PUSH2 0x2345 JUMP JUMPDEST PUSH1 0x40 MLOAD PUSH1 0x20 DUP2 DUP4 SUB SUB DUP2 MSTORE SWAP1 PUSH1 0x40 MSTORE SWAP2 POP POP SWAP3 POP SWAP3 SWAP1 POP JUMP JUMPDEST PUSH1 0x7 PUSH0 SWAP1 SLOAD SWAP1 PUSH2 0x100 EXP SWAP1 DIV PUSH20 0xFFFFFFFFFFFFFFFFFFFFFFFFFFFFFFFFFFFFFFFF AND DUP2 JUMP JUMPDEST PUSH1 0x8 PUSH0 SWAP1 SLOAD SWAP1 PUSH2 0x100 EXP SWAP1 DIV PUSH20 0xFFFFFFFFFFFFFFFFFFFFFFFFFFFFFFFFFFFFFFFF AND DUP2 JUMP JUMPDEST PUSH1 0x3 PUSH1 0x20 MSTORE DUP1 PUSH0 MSTORE PUSH1 0x40 PUSH0 KECCAK256 PUSH0 SWAP2 POP SWAP1 POP SLOAD DUP2 JUMP JUMPDEST PUSH0 PUSH1 0x20 MSTORE DUP1 PUSH0 MSTORE PUSH1 0x40 PUSH0 KECCAK256 PUSH0 SWAP2 POP SWAP1 POP DUP1 PUSH0 ADD SLOAD SWAP1 DUP1 PUSH1 0x1 ADD SLOAD SWAP1 DUP1 PUSH1 0x2 ADD SLOAD SWAP1 DUP1 PUSH1 0x3 ADD SLOAD SWAP1 DUP1 PUSH1 0x4 ADD SLOAD SWAP1 DUP1 PUSH1 0x5 ADD SLOAD SWAP1 POP DUP7 JUMP JUMPDEST PUSH0 DUP1 PUSH0 CALLER PUSH20 0xFFFFFFFFFFFFFFFFFFFFFFFFFFFFFFFFFFFFFFFF AND PUSH20 0xFFFFFFFFFFFFFFFFFFFFFFFFFFFFFFFFFFFFFFFF AND DUP2 MSTORE PUSH1 0x20 ADD SWAP1 DUP2 MSTORE PUSH1 0x20 ADD PUSH0 KECCAK256 PUSH0 ADD SLOAD GT PUSH2 0xA0E JUMPI PUSH1 0x40 MLOAD PUSH32 0x8C379A000000000000000000000000000000000000000000000000000000000 DUP2 MSTORE PUSH1 0x4 ADD PUSH2 0xA05 SWAP1 PUSH2 0x2948 JUMP JUMPDEST PUSH1 0x40 MLOAD DUP1 SWAP2 SUB SWAP1 REVERT JUMPDEST PUSH0 DUP1 PUSH0 CALLER PUSH20 0xFFFFFFFFFFFFFFFFFFFFFFFFFFFFFFFFFFFFFFFF AND PUSH20 0xFFFFFFFFFFFFFFFFFFFFFFFFFFFFFFFFFFFFFFFF AND DUP2 MSTORE PUSH1 0x20 ADD SWAP1 DUP2 MSTORE PUSH1 0x20 ADD PUSH0 KECCAK256 PUSH1 0x2 ADD SLOAD GT PUSH2 0xA8F JUMPI PUSH1 0x40 MLOAD PUSH32 0x8C379A000000000000000000000000000000000000000000000000000000000 DUP2 MSTORE PUSH1 0x4 ADD PUSH2 0xA86 SWAP1 PUSH2 0x273C JUMP JUMPDEST PUSH1 0x40 MLOAD DUP1 SWAP2 SUB SWAP1 REVERT JUMPDEST PUSH0 DUP1 CALLER PUSH20 0xFFFFFFFFFFFFFFFFFFFFFFFFFFFFFFFFFFFFFFFF AND PUSH20 0xFFFFFFFFFFFFFFFFFFFFFFFFFFFFFFFFFFFFFFFF AND DUP2 MSTORE PUSH1 0x20 ADD SWAP1 DUP2 MSTORE PUSH1 0x20 ADD PUSH0 KECCAK256 PUSH1 0x2 ADD SLOAD PUSH2 0xAD8 CALLER PUSH2 0x1729 JUMP JUMPDEST GT PUSH2 0xB18 JUMPI PUSH1 0x40 MLOAD PUSH32 0x8C379A000000000000000000000000000000000000000000000000000000000 DUP2 MSTORE PUSH1 0x4 ADD PUSH2 0xB0F SWAP1 PUSH2 0x29D6 JUMP JUMPDEST PUSH1 0x40 MLOAD DUP1 SWAP2 SUB SWAP1 REVERT JUMPDEST TIMESTAMP PUSH0 DUP1 CALLER PUSH20 0xFFFFFFFFFFFFFFFFFFFFFFFFFFFFFFFFFFFFFFFF AND PUSH20 0xFFFFFFFFFFFFFFFFFFFFFFFFFFFFFFFFFFFFFFFF AND DUP2 MSTORE PUSH1 0x20 ADD SWAP1 DUP2 MSTORE PUSH1 0x20 ADD PUSH0 KECCAK256 PUSH1 0x3 ADD DUP2 SWAP1 SSTORE POP PUSH0 DUP1 PUSH0 CALLER PUSH20 0xFFFFFFFFFFFFFFFFFFFFFFFFFFFFFFFFFFFFFFFF AND PUSH20 0xFFFFFFFFFFFFFFFFFFFFFFFFFFFFFFFFFFFFFFFF AND DUP2 MSTORE PUSH1 0x20 ADD SWAP1 DUP2 MSTORE PUSH1 0x20 ADD PUSH0 KECCAK256 PUSH1 0x4 ADD DUP2 SWAP1 SSTORE POP PUSH1 0x1 PUSH0 DUP1 CALLER PUSH20 0xFFFFFFFFFFFFFFFFFFFFFFFFFFFFFFFFFFFFFFFF AND PUSH20 0xFFFFFFFFFFFFFFFFFFFFFFFFFFFFFFFFFFFFFFFF AND DUP2 MSTORE PUSH1 0x20 ADD SWAP1 DUP2 MSTORE PUSH1 0x20 ADD PUSH0 KECCAK256 PUSH1 0x5 ADD DUP2 SWAP1 SSTORE POP CALLER PUSH20 0xFFFFFFFFFFFFFFFFFFFFFFFFFFFFFFFFFFFFFFFF AND PUSH32 0xA806CF17BE1FB3CFF26C4A6A46B735DDBF2AC07C138BDEDB6D2ACE798A2CFD40 PUSH1 0x40 MLOAD PUSH1 0x40 MLOAD DUP1 SWAP2 SUB SWAP1 LOG2 PUSH2 0xC31 CALLER PUSH2 0x1989 JUMP JUMPDEST JUMP JUMPDEST PUSH1 0x9 SLOAD DUP2 JUMP JUMPDEST PUSH0 DUP1 PUSH0 CALLER PUSH20 0xFFFFFFFFFFFFFFFFFFFFFFFFFFFFFFFFFFFFFFFF AND PUSH20 0xFFFFFFFFFFFFFFFFFFFFFFFFFFFFFFFFFFFFFFFF AND DUP2 MSTORE PUSH1 0x20 ADD SWAP1 DUP2 MSTORE PUSH1 0x20 ADD PUSH0 KECCAK256 PUSH0 ADD SLOAD EQ PUSH2 0xCB9 JUMPI PUSH1 0x40 MLOAD PUSH32 0x8C379A000000000000000000000000000000000000000000000000000000000 DUP2 MSTORE PUSH1 0x4 ADD PUSH2 0xCB0 SWAP1 PUSH2 0x266C JUMP JUMPDEST PUSH1 0x40 MLOAD DUP1 SWAP2 SUB SWAP1 REVERT JUMPDEST PUSH0 DUP3 GT PUSH2 0xCFB JUMPI PUSH1 0x40 MLOAD PUSH32 0x8C379A000000000000000000000000000000000000000000000000000000000 DUP2 MSTORE PUSH1 0x4 ADD PUSH2 0xCF2 SWAP1 PUSH2 0x26D4 JUMP JUMPDEST PUSH1 0x40 MLOAD DUP1 SWAP2 SUB SWAP1 REVERT JUMPDEST PUSH0 DUP2 GT PUSH2 0xD3D JUMPI PUSH1 0x40 MLOAD PUSH32 0x8C379A000000000000000000000000000000000000000000000000000000000 DUP2 MSTORE PUSH1 0x4 ADD PUSH2 0xD34 SWAP1 PUSH2 0x273C JUMP JUMPDEST PUSH1 0x40 MLOAD DUP1 SWAP2 SUB SWAP1 REVERT JUMPDEST CALLER PUSH1 0x1 PUSH0 PUSH1 0x9 SLOAD DUP2 MSTORE PUSH1 0x20 ADD SWAP1 DUP2 MSTORE PUSH1 0x20 ADD PUSH0 KECCAK256 PUSH0 PUSH2 0x100 EXP DUP2 SLOAD DUP2 PUSH20 0xFFFFFFFFFFFFFFFFFFFFFFFFFFFFFFFFFFFFFFFF MUL NOT AND SWAP1 DUP4 PUSH20 0xFFFFFFFFFFFFFFFFFFFFFFFFFFFFFFFFFFFFFFFF AND MUL OR SWAP1 SSTORE POP PUSH1 0x40 MLOAD DUP1 PUSH1 0xC0 ADD PUSH1 0x40 MSTORE DUP1 PUSH1 0x9 PUSH0 DUP2 SLOAD DUP1 SWAP3 SWAP2 SWAP1 PUSH2 0xDAB SWAP1 PUSH2 0x29F4 JUMP JUMPDEST SWAP2 SWAP1 POP SSTORE DUP2 MSTORE PUSH1 0x20 ADD DUP4 DUP2 MSTORE PUSH1 0x20 ADD DUP3 DUP2 MSTORE PUSH1 0x20 ADD TIMESTAMP DUP2 MSTORE PUSH1 0x20 ADD PUSH0 DUP2 MSTORE PUSH1 0x20 ADD PUSH0 DUP2 MSTORE POP PUSH0 DUP1 CALLER PUSH20 0xFFFFFFFFFFFFFFFFFFFFFFFFFFFFFFFFFFFFFFFF AND PUSH20 0xFFFFFFFFFFFFFFFFFFFFFFFFFFFFFFFFFFFFFFFF AND DUP2 MSTORE PUSH1 0x20 ADD SWAP1 DUP2 MSTORE PUSH1 0x20 ADD PUSH0 KECCAK256 PUSH0 DUP3 ADD MLOAD DUP2 PUSH0 ADD SSTORE PUSH1 0x20 DUP3 ADD MLOAD DUP2 PUSH1 0x1 ADD SSTORE PUSH1 0x40 DUP3 ADD MLOAD DUP2 PUSH1 0x2 ADD SSTORE PUSH1 0x60 DUP3 ADD MLOAD DUP2 PUSH1 0x3 ADD SSTORE PUSH1 0x80 DUP3 ADD MLOAD DUP2 PUSH1 0x4 ADD SSTORE PUSH1 0xA0 DUP3 ADD MLOAD DUP2 PUSH1 0x5 ADD SSTORE SWAP1 POP POP CALLER PUSH20 0xFFFFFFFFFFFFFFFFFFFFFFFFFFFFFFFFFFFFFFFF AND PUSH32 0x89D3F1CDFAD4E5C26535AC23DC61CF9E975667801747518F01B1B653545D736A DUP4 DUP4 PUSH1 0x40 MLOAD PUSH2 0xE91 SWAP3 SWAP2 SWAP1 PUSH2 0x275A JUMP JUMPDEST PUSH1 0x40 MLOAD DUP1 SWAP2 SUB SWAP1 LOG2 PUSH2 0xEA1 PUSH2 0x98E JUMP JUMPDEST POP POP JUMP JUMPDEST PUSH1 0x1 PUSH0 DUP1 DUP4 PUSH20 0xFFFFFFFFFFFFFFFFFFFFFFFFFFFFFFFFFFFFFFFF AND PUSH20 0xFFFFFFFFFFFFFFFFFFFFFFFFFFFFFFFFFFFFFFFF AND DUP2 MSTORE PUSH1 0x20 ADD SWAP1 DUP2 MSTORE PUSH1 0x20 ADD PUSH0 KECCAK256 PUSH1 0x5 ADD SLOAD EQ PUSH2 0xF27 JUMPI PUSH1 0x40 MLOAD PUSH32 0x8C379A000000000000000000000000000000000000000000000000000000000 DUP2 MSTORE PUSH1 0x4 ADD PUSH2 0xF1E SWAP1 PUSH2 0x2A85 JUMP JUMPDEST PUSH1 0x40 MLOAD DUP1 SWAP2 SUB SWAP1 REVERT JUMPDEST PUSH0 DUP1 DUP3 PUSH20 0xFFFFFFFFFFFFFFFFFFFFFFFFFFFFFFFFFFFFFFFF AND PUSH20 0xFFFFFFFFFFFFFFFFFFFFFFFFFFFFFFFFFFFFFFFF AND DUP2 MSTORE PUSH1 0x20 ADD SWAP1 DUP2 MSTORE PUSH1 0x20 ADD PUSH0 KECCAK256 PUSH1 0x2 ADD SLOAD PUSH2 0xF70 DUP3 PUSH2 0x1729 JUMP JUMPDEST GT PUSH2 0xFB0 JUMPI PUSH1 0x40 MLOAD PUSH32 0x8C379A000000000000000000000000000000000000000000000000000000000 DUP2 MSTORE PUSH1 0x4 ADD PUSH2 0xFA7 SWAP1 PUSH2 0x2B13 JUMP JUMPDEST PUSH1 0x40 MLOAD DUP1 SWAP2 SUB SWAP1 REVERT JUMPDEST PUSH1 0x3 PUSH0 DUP3 PUSH20 0xFFFFFFFFFFFFFFFFFFFFFFFFFFFFFFFFFFFFFFFF AND PUSH20 0xFFFFFFFFFFFFFFFFFFFFFFFFFFFFFFFFFFFFFFFF AND DUP2 MSTORE PUSH1 0x20 ADD SWAP1 DUP2 MSTORE PUSH1 0x20 ADD PUSH0 KECCAK256 SLOAD TIMESTAMP LT ISZERO PUSH2 0x1030 JUMPI PUSH1 0x40 MLOAD PUSH32 0x8C379A000000000000000000000000000000000000000000000000000000000 DUP2 MSTORE PUSH1 0x4 ADD PUSH2 0x1027 SWAP1 PUSH2 0x2BA1 JUMP JUMPDEST PUSH1 0x40 MLOAD DUP1 SWAP2 SUB SWAP1 REVERT JUMPDEST PUSH0 DUP1 PUSH0 DUP4 PUSH20 0xFFFFFFFFFFFFFFFFFFFFFFFFFFFFFFFFFFFFFFFF AND PUSH20 0xFFFFFFFFFFFFFFFFFFFFFFFFFFFFFFFFFFFFFFFF AND DUP2 MSTORE PUSH1 0x20 ADD SWAP1 DUP2 MSTORE PUSH1 0x20 ADD PUSH0 KECCAK256 PUSH1 0x2 ADD SLOAD SWAP1 POP PUSH0 PUSH1 0x8 PUSH0 SWAP1 SLOAD SWAP1 PUSH2 0x100 EXP SWAP1 DIV PUSH20 0xFFFFFFFFFFFFFFFFFFFFFFFFFFFFFFFFFFFFFFFF AND PUSH20 0xFFFFFFFFFFFFFFFFFFFFFFFFFFFFFFFFFFFFFFFF AND PUSH4 0xFEAF968C PUSH1 0x40 MLOAD DUP2 PUSH4 0xFFFFFFFF AND PUSH1 0xE0 SHL DUP2 MSTORE PUSH1 0x4 ADD PUSH1 0xA0 PUSH1 0x40 MLOAD DUP1 DUP4 SUB DUP2 DUP7 GAS STATICCALL ISZERO DUP1 ISZERO PUSH2 0x10DE JUMPI RETURNDATASIZE PUSH0 DUP1 RETURNDATACOPY RETURNDATASIZE PUSH0 REVERT JUMPDEST POP POP POP POP PUSH1 0x40 MLOAD RETURNDATASIZE PUSH1 0x1F NOT PUSH1 0x1F DUP3 ADD AND DUP3 ADD DUP1 PUSH1 0x40 MSTORE POP DUP2 ADD SWAP1 PUSH2 0x1102 SWAP2 SWAP1 PUSH2 0x2C45 JUMP JUMPDEST POP POP POP SWAP2 POP POP PUSH0 PUSH1 0x8 PUSH0 SWAP1 SLOAD SWAP1 PUSH2 0x100 EXP SWAP1 DIV PUSH20 0xFFFFFFFFFFFFFFFFFFFFFFFFFFFFFFFFFFFFFFFF AND PUSH20 0xFFFFFFFFFFFFFFFFFFFFFFFFFFFFFFFFFFFFFFFF AND PUSH4 0x313CE567 PUSH1 0x40 MLOAD DUP2 PUSH4 0xFFFFFFFF AND PUSH1 0xE0 SHL DUP2 MSTORE PUSH1 0x4 ADD PUSH1 0x20 PUSH1 0x40 MLOAD DUP1 DUP4 SUB DUP2 DUP7 GAS STATICCALL ISZERO DUP1 ISZERO PUSH2 0x1173 JUMPI RETURNDATASIZE PUSH0 DUP1 RETURNDATACOPY RETURNDATASIZE PUSH0 REVERT JUMPDEST POP POP POP POP PUSH1 0x40 MLOAD RETURNDATASIZE PUSH1 0x1F NOT PUSH1 0x1F DUP3 ADD AND DUP3 ADD DUP1 PUSH1 0x40 MSTORE POP DUP2 ADD SWAP1 PUSH2 0x1197 SWAP2 SWAP1 PUSH2 0x2CF2 JUMP JUMPDEST PUSH1 0xFF AND SWAP1 POP PUSH0 DUP2 PUSH1 0x12 PUSH2 0x11AA SWAP2 SWAP1 PUSH2 0x283B JUMP JUMPDEST PUSH1 0xA PUSH2 0x11B6 SWAP2 SWAP1 PUSH2 0x2E4C JUMP JUMPDEST DUP4 PUSH8 0xDE0B6B3A7640000 DUP7 PUSH2 0x11CB SWAP2 SWAP1 PUSH2 0x2E96 JUMP JUMPDEST PUSH2 0x11D5 SWAP2 SWAP1 PUSH2 0x2ED7 JUMP JUMPDEST PUSH2 0x11DF SWAP2 SWAP1 PUSH2 0x2ED7 JUMP JUMPDEST SWAP1 POP PUSH0 PUSH2 0x3E8 PUSH1 0x5 DUP4 PUSH2 0x11F2 SWAP2 SWAP1 PUSH2 0x2E96 JUMP JUMPDEST PUSH2 0x11FC SWAP2 SWAP1 PUSH2 0x2ED7 JUMP JUMPDEST SWAP1 POP PUSH0 DUP2 DUP4 PUSH2 0x120B SWAP2 SWAP1 PUSH2 0x283B JUMP JUMPDEST SWAP1 POP PUSH2 0x123A PUSH1 0x4 PUSH0 SWAP1 SLOAD SWAP1 PUSH2 0x100 EXP SWAP1 DIV PUSH20 0xFFFFFFFFFFFFFFFFFFFFFFFFFFFFFFFFFFFFFFFF AND DUP9 ADDRESS DUP10 PUSH2 0x1A9E JUMP JUMPDEST PUSH2 0x1287 PUSH1 0x4 PUSH0 SWAP1 SLOAD SWAP1 PUSH2 0x100 EXP SWAP1 DIV PUSH20 0xFFFFFFFFFFFFFFFFFFFFFFFFFFFFFFFFFFFFFFFF AND PUSH1 0x7 PUSH0 SWAP1 SLOAD SWAP1 PUSH2 0x100 EXP SWAP1 DIV PUSH20 0xFFFFFFFFFFFFFFFFFFFFFFFFFFFFFFFFFFFFFFFF AND DUP9 PUSH2 0x1B20 JUMP JUMPDEST PUSH0 PUSH1 0x2 PUSH8 0xFFFFFFFFFFFFFFFF DUP2 GT ISZERO PUSH2 0x12A3 JUMPI PUSH2 0x12A2 PUSH2 0x212B JUMP JUMPDEST JUMPDEST PUSH1 0x40 MLOAD SWAP1 DUP1 DUP3 MSTORE DUP1 PUSH1 0x20 MUL PUSH1 0x20 ADD DUP3 ADD PUSH1 0x40 MSTORE DUP1 ISZERO PUSH2 0x12D1 JUMPI DUP2 PUSH1 0x20 ADD PUSH1 0x20 DUP3 MUL DUP1 CALLDATASIZE DUP4 CALLDATACOPY DUP1 DUP3 ADD SWAP2 POP POP SWAP1 POP JUMPDEST POP SWAP1 POP PUSH1 0x4 PUSH0 SWAP1 SLOAD SWAP1 PUSH2 0x100 EXP SWAP1 DIV PUSH20 0xFFFFFFFFFFFFFFFFFFFFFFFFFFFFFFFFFFFFFFFF AND DUP2 PUSH0 DUP2 MLOAD DUP2 LT PUSH2 0x1309 JUMPI PUSH2 0x1308 PUSH2 0x2F07 JUMP JUMPDEST JUMPDEST PUSH1 0x20 MUL PUSH1 0x20 ADD ADD SWAP1 PUSH20 0xFFFFFFFFFFFFFFFFFFFFFFFFFFFFFFFFFFFFFFFF AND SWAP1 DUP2 PUSH20 0xFFFFFFFFFFFFFFFFFFFFFFFFFFFFFFFFFFFFFFFF AND DUP2 MSTORE POP POP PUSH1 0x7 PUSH0 SWAP1 SLOAD SWAP1 PUSH2 0x100 EXP SWAP1 DIV PUSH20 0xFFFFFFFFFFFFFFFFFFFFFFFFFFFFFFFFFFFFFFFF AND PUSH20 0xFFFFFFFFFFFFFFFFFFFFFFFFFFFFFFFFFFFFFFFF AND PUSH4 0xAD5C4648 PUSH1 0x40 MLOAD DUP2 PUSH4 0xFFFFFFFF AND PUSH1 0xE0 SHL DUP2 MSTORE PUSH1 0x4 ADD PUSH1 0x20 PUSH1 0x40 MLOAD DUP1 DUP4 SUB DUP2 DUP7 GAS STATICCALL ISZERO DUP1 ISZERO PUSH2 0x13AD JUMPI RETURNDATASIZE PUSH0 DUP1 RETURNDATACOPY RETURNDATASIZE PUSH0 REVERT JUMPDEST POP POP POP POP PUSH1 0x40 MLOAD RETURNDATASIZE PUSH1 0x1F NOT PUSH1 0x1F DUP3 ADD AND DUP3 ADD DUP1 PUSH1 0x40 MSTORE POP DUP2 ADD SWAP1 PUSH2 0x13D1 SWAP2 SWAP1 PUSH2 0x2F48 JUMP JUMPDEST DUP2 PUSH1 0x1 DUP2 MLOAD DUP2 LT PUSH2 0x13E5 JUMPI PUSH2 0x13E4 PUSH2 0x2F07 JUMP JUMPDEST JUMPDEST PUSH1 0x20 MUL PUSH1 0x20 ADD ADD SWAP1 PUSH20 0xFFFFFFFFFFFFFFFFFFFFFFFFFFFFFFFFFFFFFFFF AND SWAP1 DUP2 PUSH20 0xFFFFFFFFFFFFFFFFFFFFFFFFFFFFFFFFFFFFFFFF AND DUP2 MSTORE POP POP PUSH0 PUSH1 0x7 PUSH0 SWAP1 SLOAD SWAP1 PUSH2 0x100 EXP SWAP1 DIV PUSH20 0xFFFFFFFFFFFFFFFFFFFFFFFFFFFFFFFFFFFFFFFF AND PUSH20 0xFFFFFFFFFFFFFFFFFFFFFFFFFFFFFFFFFFFFFFFF AND PUSH4 0x18CBAFE5 DUP10 DUP6 DUP6 ADDRESS PUSH2 0xE10 TIMESTAMP PUSH2 0x146F SWAP2 SWAP1 PUSH2 0x28CB JUMP JUMPDEST PUSH1 0x40 MLOAD DUP7 PUSH4 0xFFFFFFFF AND PUSH1 0xE0 SHL DUP2 MSTORE PUSH1 0x4 ADD PUSH2 0x148F SWAP6 SWAP5 SWAP4 SWAP3 SWAP2 SWAP1 PUSH2 0x302A JUMP JUMPDEST PUSH0 PUSH1 0x40 MLOAD DUP1 DUP4 SUB DUP2 PUSH0 DUP8 GAS CALL ISZERO DUP1 ISZERO PUSH2 0x14AA JUMPI RETURNDATASIZE PUSH0 DUP1 RETURNDATACOPY RETURNDATASIZE PUSH0 REVERT JUMPDEST POP POP POP POP PUSH1 0x40 MLOAD RETURNDATASIZE PUSH0 DUP3 RETURNDATACOPY RETURNDATASIZE PUSH1 0x1F NOT PUSH1 0x1F DUP3 ADD AND DUP3 ADD DUP1 PUSH1 0x40 MSTORE POP DUP2 ADD SWAP1 PUSH2 0x14D2 SWAP2 SWAP1 PUSH2 0x3117 JUMP JUMPDEST SWAP1 POP PUSH0 DUP2 PUSH1 0x1 DUP2 MLOAD DUP2 LT PUSH2 0x14E9 JUMPI PUSH2 0x14E8 PUSH2 0x2F07 JUMP JUMPDEST JUMPDEST PUSH1 0x20 MUL PUSH1 0x20 ADD ADD MLOAD SWAP1 POP PUSH0 DUP1 DUP12 PUSH20 0xFFFFFFFFFFFFFFFFFFFFFFFFFFFFFFFFFFFFFFFF AND PUSH20 0xFFFFFFFFFFFFFFFFFFFFFFFFFFFFFFFFFFFFFFFF AND DUP2 MSTORE PUSH1 0x20 ADD SWAP1 DUP2 MSTORE PUSH1 0x20 ADD PUSH0 KECCAK256 PUSH1 0x4 ADD PUSH0 DUP2 SLOAD DUP1 SWAP3 SWAP2 SWAP1 PUSH2 0x1542 SWAP1 PUSH2 0x29F4 JUMP JUMPDEST SWAP2 SWAP1 POP SSTORE POP DUP10 PUSH20 0xFFFFFFFFFFFFFFFFFFFFFFFFFFFFFFFFFFFFFFFF AND PUSH32 0x1A3ABF7E0A472651EBE2C79A31A5F4660C7EA65E3086EE1742D7502999BBF5B5 DUP11 DUP4 PUSH1 0x40 MLOAD PUSH2 0x158F SWAP3 SWAP2 SWAP1 PUSH2 0x275A JUMP JUMPDEST PUSH1 0x40 MLOAD DUP1 SWAP2 SUB SWAP1 LOG2 DUP10 PUSH20 0xFFFFFFFFFFFFFFFFFFFFFFFFFFFFFFFFFFFFFFFF AND PUSH2 0x8FC DUP3 SWAP1 DUP2 ISZERO MUL SWAP1 PUSH1 0x40 MLOAD PUSH0 PUSH1 0x40 MLOAD DUP1 DUP4 SUB DUP2 DUP6 DUP9 DUP9 CALL SWAP4 POP POP POP POP ISZERO DUP1 ISZERO PUSH2 0x15DA JUMPI RETURNDATASIZE PUSH0 DUP1 RETURNDATACOPY RETURNDATASIZE PUSH0 REVERT JUMPDEST POP PUSH2 0x15E4 DUP11 PUSH2 0x1989 JUMP JUMPDEST POP POP POP POP POP POP POP POP POP POP JUMP JUMPDEST PUSH1 0x2 PUSH1 0x20 MSTORE DUP1 PUSH0 MSTORE PUSH1 0x40 PUSH0 KECCAK256 PUSH0 SWAP2 POP SLOAD SWAP1 PUSH2 0x100 EXP SWAP1 DIV PUSH20 0xFFFFFFFFFFFFFFFFFFFFFFFFFFFFFFFFFFFFFFFF AND DUP2 JUMP JUMPDEST PUSH0 DUP1 PUSH0 CALLER PUSH20 0xFFFFFFFFFFFFFFFFFFFFFFFFFFFFFFFFFFFFFFFF AND PUSH20 0xFFFFFFFFFFFFFFFFFFFFFFFFFFFFFFFFFFFFFFFF AND DUP2 MSTORE PUSH1 0x20 ADD SWAP1 DUP2 MSTORE PUSH1 0x20 ADD PUSH0 KECCAK256 PUSH0 ADD SLOAD GT PUSH2 0x16A0 JUMPI PUSH1 0x40 MLOAD PUSH32 0x8C379A000000000000000000000000000000000000000000000000000000000 DUP2 MSTORE PUSH1 0x4 ADD PUSH2 0x1697 SWAP1 PUSH2 0x2948 JUMP JUMPDEST PUSH1 0x40 MLOAD DUP1 SWAP2 SUB SWAP1 REVERT JUMPDEST PUSH0 DUP1 PUSH0 CALLER PUSH20 0xFFFFFFFFFFFFFFFFFFFFFFFFFFFFFFFFFFFFFFFF AND PUSH20 0xFFFFFFFFFFFFFFFFFFFFFFFFFFFFFFFFFFFFFFFF AND DUP2 MSTORE PUSH1 0x20 ADD SWAP1 DUP2 MSTORE PUSH1 0x20 ADD PUSH0 KECCAK256 PUSH1 0x5 ADD DUP2 SWAP1 SSTORE POP CALLER PUSH20 0xFFFFFFFFFFFFFFFFFFFFFFFFFFFFFFFFFFFFFFFF AND PUSH32 0xF222ABD4EE7AFB02F9450183B95D07AAAB2EA2F2D6748F55525C7E875FDD58A1 PUSH1 0x40 MLOAD PUSH1 0x40 MLOAD DUP1 SWAP2 SUB SWAP1 LOG2 JUMP JUMPDEST PUSH0 PUSH1 0x4 PUSH0 SWAP1 SLOAD SWAP1 PUSH2 0x100 EXP SWAP1 DIV PUSH20 0xFFFFFFFFFFFFFFFFFFFFFFFFFFFFFFFFFFFFFFFF AND PUSH20 0xFFFFFFFFFFFFFFFFFFFFFFFFFFFFFFFFFFFFFFFF AND PUSH4 0xDD62ED3E DUP4 ADDRESS PUSH1 0x40 MLOAD DUP4 PUSH4 0xFFFFFFFF AND PUSH1 0xE0 SHL DUP2 MSTORE PUSH1 0x4 ADD PUSH2 0x1786 SWAP3 SWAP2 SWAP1 PUSH2 0x2781 JUMP JUMPDEST PUSH1 0x20 PUSH1 0x40 MLOAD DUP1 DUP4 SUB DUP2 DUP7 GAS STATICCALL ISZERO DUP1 ISZERO PUSH2 0x17A1 JUMPI RETURNDATASIZE PUSH0 DUP1 RETURNDATACOPY RETURNDATASIZE PUSH0 REVERT JUMPDEST POP POP POP POP PUSH1 0x40 MLOAD RETURNDATASIZE PUSH1 0x1F NOT PUSH1 0x1F DUP3 ADD AND DUP3 ADD DUP1 PUSH1 0x40 MSTORE POP DUP2 ADD SWAP1 PUSH2 0x17C5 SWAP2 SWAP1 PUSH2 0x315E JUMP JUMPDEST SWAP1 POP SWAP2 SWAP1 POP JUMP JUMPDEST PUSH0 PUSH1 0x2 PUSH0 DUP5 DUP2 MSTORE PUSH1 0x20 ADD SWAP1 DUP2 MSTORE PUSH1 0x20 ADD PUSH0 KECCAK256 PUSH0 SWAP1 SLOAD SWAP1 PUSH2 0x100 EXP SWAP1 DIV PUSH20 0xFFFFFFFFFFFFFFFFFFFFFFFFFFFFFFFFFFFFFFFF AND SWAP1 POP PUSH0 DUP1 DUP3 PUSH20 0xFFFFFFFFFFFFFFFFFFFFFFFFFFFFFFFFFFFFFFFF AND PUSH20 0xFFFFFFFFFFFFFFFFFFFFFFFFFFFFFFFFFFFFFFFF AND DUP2 MSTORE PUSH1 0x20 ADD SWAP1 DUP2 MSTORE PUSH1 0x20 ADD PUSH0 KECCAK256 PUSH1 0x1 ADD SLOAD DUP3 PUSH0 DUP2 MLOAD DUP2 LT PUSH2 0x1853 JUMPI PUSH2 0x1852 PUSH2 0x2F07 JUMP JUMPDEST JUMPDEST PUSH1 0x20 MUL PUSH1 0x20 ADD ADD MLOAD PUSH2 0x1865 SWAP2 SWAP1 PUSH2 0x289B JUMP JUMPDEST PUSH0 DUP1 DUP4 PUSH20 0xFFFFFFFFFFFFFFFFFFFFFFFFFFFFFFFFFFFFFFFF AND PUSH20 0xFFFFFFFFFFFFFFFFFFFFFFFFFFFFFFFFFFFFFFFF AND DUP2 MSTORE PUSH1 0x20 ADD SWAP1 DUP2 MSTORE PUSH1 0x20 ADD PUSH0 KECCAK256 PUSH1 0x1 ADD SLOAD PUSH0 DUP1 DUP5 PUSH20 0xFFFFFFFFFFFFFFFFFFFFFFFFFFFFFFFFFFFFFFFF AND PUSH20 0xFFFFFFFFFFFFFFFFFFFFFFFFFFFFFFFFFFFFFFFF AND DUP2 MSTORE PUSH1 0x20 ADD SWAP1 DUP2 MSTORE PUSH1 0x20 ADD PUSH0 KECCAK256 PUSH1 0x4 ADD SLOAD PUSH2 0x18EF SWAP2 SWAP1 PUSH2 0x2E96 JUMP JUMPDEST PUSH0 DUP1 DUP5 PUSH20 0xFFFFFFFFFFFFFFFFFFFFFFFFFFFFFFFFFFFFFFFF AND PUSH20 0xFFFFFFFFFFFFFFFFFFFFFFFFFFFFFFFFFFFFFFFF AND DUP2 MSTORE PUSH1 0x20 ADD SWAP1 DUP2 MSTORE PUSH1 0x20 ADD PUSH0 KECCAK256 PUSH1 0x3 ADD SLOAD PUSH2 0x1939 SWAP2 SWAP1 PUSH2 0x28CB JUMP JUMPDEST PUSH2 0x1943 SWAP2 SWAP1 PUSH2 0x28CB JUMP JUMPDEST PUSH1 0x3 PUSH0 DUP4 PUSH20 0xFFFFFFFFFFFFFFFFFFFFFFFFFFFFFFFFFFFFFFFF AND PUSH20 0xFFFFFFFFFFFFFFFFFFFFFFFFFFFFFFFFFFFFFFFF AND DUP2 MSTORE PUSH1 0x20 ADD SWAP1 DUP2 MSTORE PUSH1 0x20 ADD PUSH0 KECCAK256 DUP2 SWAP1 SSTORE POP POP POP POP JUMP JUMPDEST PUSH0 PUSH1 0x6 PUSH0 SWAP1 SLOAD SWAP1 PUSH2 0x100 EXP SWAP1 DIV PUSH20 0xFFFFFFFFFFFFFFFFFFFFFFFFFFFFFFFFFFFFFFFF AND PUSH20 0xFFFFFFFFFFFFFFFFFFFFFFFFFFFFFFFFFFFFFFFF AND PUSH4 0x5D3B1D30 PUSH1 0xA SLOAD PUSH1 0x6 PUSH1 0x14 SWAP1 SLOAD SWAP1 PUSH2 0x100 EXP SWAP1 DIV PUSH8 0xFFFFFFFFFFFFFFFF AND PUSH1 0x3 PUSH3 0x55730 PUSH1 0x1 PUSH1 0x40 MLOAD DUP7 PUSH4 0xFFFFFFFF AND PUSH1 0xE0 SHL DUP2 MSTORE PUSH1 0x4 ADD PUSH2 0x1A09 SWAP6 SWAP5 SWAP4 SWAP3 SWAP2 SWAP1 PUSH2 0x328A JUMP JUMPDEST PUSH1 0x20 PUSH1 0x40 MLOAD DUP1 DUP4 SUB DUP2 PUSH0 DUP8 GAS CALL ISZERO DUP1 ISZERO PUSH2 0x1A25 JUMPI RETURNDATASIZE PUSH0 DUP1 RETURNDATACOPY RETURNDATASIZE PUSH0 REVERT JUMPDEST POP POP POP POP PUSH1 0x40 MLOAD RETURNDATASIZE PUSH1 0x1F NOT PUSH1 0x1F DUP3 ADD AND DUP3 ADD DUP1 PUSH1 0x40 MSTORE POP DUP2 ADD SWAP1 PUSH2 0x1A49 SWAP2 SWAP1 PUSH2 0x315E JUMP JUMPDEST SWAP1 POP DUP2 PUSH1 0x2 PUSH0 DUP4 DUP2 MSTORE PUSH1 0x20 ADD SWAP1 DUP2 MSTORE PUSH1 0x20 ADD PUSH0 KECCAK256 PUSH0 PUSH2 0x100 EXP DUP2 SLOAD DUP2 PUSH20 0xFFFFFFFFFFFFFFFFFFFFFFFFFFFFFFFFFFFFFFFF MUL NOT AND SWAP1 DUP4 PUSH20 0xFFFFFFFFFFFFFFFFFFFFFFFFFFFFFFFFFFFFFFFF AND MUL OR SWAP1 SSTORE POP POP POP JUMP JUMPDEST PUSH2 0x1B1A DUP5 DUP6 PUSH20 0xFFFFFFFFFFFFFFFFFFFFFFFFFFFFFFFFFFFFFFFF AND PUSH4 0x23B872DD DUP7 DUP7 DUP7 PUSH1 0x40 MLOAD PUSH1 0x24 ADD PUSH2 0x1AD3 SWAP4 SWAP3 SWAP2 SWAP1 PUSH2 0x32DB JUMP JUMPDEST PUSH1 0x40 MLOAD PUSH1 0x20 DUP2 DUP4 SUB SUB DUP2 MSTORE SWAP1 PUSH1 0x40 MSTORE SWAP2 POP PUSH1 0xE0 SHL PUSH1 0x20 DUP3 ADD DUP1 MLOAD PUSH28 0xFFFFFFFFFFFFFFFFFFFFFFFFFFFFFFFFFFFFFFFFFFFFFFFFFFFFFFFF DUP4 DUP2 DUP4 AND OR DUP4 MSTORE POP POP POP POP PUSH2 0x1BB9 JUMP JUMPDEST POP POP POP POP JUMP JUMPDEST PUSH0 DUP4 PUSH20 0xFFFFFFFFFFFFFFFFFFFFFFFFFFFFFFFFFFFFFFFF AND PUSH4 0xDD62ED3E ADDRESS DUP6 PUSH1 0x40 MLOAD DUP4 PUSH4 0xFFFFFFFF AND PUSH1 0xE0 SHL DUP2 MSTORE PUSH1 0x4 ADD PUSH2 0x1B5C SWAP3 SWAP2 SWAP1 PUSH2 0x2781 JUMP JUMPDEST PUSH1 0x20 PUSH1 0x40 MLOAD DUP1 DUP4 SUB DUP2 DUP7 GAS STATICCALL ISZERO DUP1 ISZERO PUSH2 0x1B77 JUMPI RETURNDATASIZE PUSH0 DUP1 RETURNDATACOPY RETURNDATASIZE PUSH0 REVERT JUMPDEST POP POP POP POP PUSH1 0x40 MLOAD RETURNDATASIZE PUSH1 0x1F NOT PUSH1 0x1F DUP3 ADD AND DUP3 ADD DUP1 PUSH1 0x40 MSTORE POP DUP2 ADD SWAP1 PUSH2 0x1B9B SWAP2 SWAP1 PUSH2 0x315E JUMP JUMPDEST SWAP1 POP PUSH2 0x1BB3 DUP5 DUP5 DUP5 DUP5 PUSH2 0x1BAE SWAP2 SWAP1 PUSH2 0x28CB JUMP JUMPDEST PUSH2 0x1C4E JUMP JUMPDEST POP POP POP POP JUMP JUMPDEST PUSH0 PUSH2 0x1BE3 DUP3 DUP5 PUSH20 0xFFFFFFFFFFFFFFFFFFFFFFFFFFFFFFFFFFFFFFFF AND PUSH2 0x1D5B SWAP1 SWAP2 SWAP1 PUSH4 0xFFFFFFFF AND JUMP JUMPDEST SWAP1 POP PUSH0 DUP2 MLOAD EQ ISZERO DUP1 ISZERO PUSH2 0x1C07 JUMPI POP DUP1 DUP1 PUSH1 0x20 ADD SWAP1 MLOAD DUP2 ADD SWAP1 PUSH2 0x1C05 SWAP2 SWAP1 PUSH2 0x333A JUMP JUMPDEST ISZERO JUMPDEST ISZERO PUSH2 0x1C49 JUMPI DUP3 PUSH1 0x40 MLOAD PUSH32 0x5274AFE700000000000000000000000000000000000000000000000000000000 DUP2 MSTORE PUSH1 0x4 ADD PUSH2 0x1C40 SWAP2 SWAP1 PUSH2 0x2345 JUMP JUMPDEST PUSH1 0x40 MLOAD DUP1 SWAP2 SUB SWAP1 REVERT JUMPDEST POP POP POP JUMP JUMPDEST PUSH0 DUP4 PUSH20 0xFFFFFFFFFFFFFFFFFFFFFFFFFFFFFFFFFFFFFFFF AND PUSH4 0x95EA7B3 DUP5 DUP5 PUSH1 0x40 MLOAD PUSH1 0x24 ADD PUSH2 0x1C7E SWAP3 SWAP2 SWAP1 PUSH2 0x3365 JUMP JUMPDEST PUSH1 0x40 MLOAD PUSH1 0x20 DUP2 DUP4 SUB SUB DUP2 MSTORE SWAP1 PUSH1 0x40 MSTORE SWAP2 POP PUSH1 0xE0 SHL PUSH1 0x20 DUP3 ADD DUP1 MLOAD PUSH28 0xFFFFFFFFFFFFFFFFFFFFFFFFFFFFFFFFFFFFFFFFFFFFFFFFFFFFFFFF DUP4 DUP2 DUP4 AND OR DUP4 MSTORE POP POP POP POP SWAP1 POP PUSH2 0x1CCC DUP5 DUP3 PUSH2 0x1D70 JUMP JUMPDEST PUSH2 0x1D55 JUMPI PUSH2 0x1D4A DUP5 DUP6 PUSH20 0xFFFFFFFFFFFFFFFFFFFFFFFFFFFFFFFFFFFFFFFF AND PUSH4 0x95EA7B3 DUP7 PUSH0 PUSH1 0x40 MLOAD PUSH1 0x24 ADD PUSH2 0x1D03 SWAP3 SWAP2 SWAP1 PUSH2 0x33C5 JUMP JUMPDEST PUSH1 0x40 MLOAD PUSH1 0x20 DUP2 DUP4 SUB SUB DUP2 MSTORE SWAP1 PUSH1 0x40 MSTORE SWAP2 POP PUSH1 0xE0 SHL PUSH1 0x20 DUP3 ADD DUP1 MLOAD PUSH28 0xFFFFFFFFFFFFFFFFFFFFFFFFFFFFFFFFFFFFFFFFFFFFFFFFFFFFFFFF DUP4 DUP2 DUP4 AND OR DUP4 MSTORE POP POP POP POP PUSH2 0x1BB9 JUMP JUMPDEST PUSH2 0x1D54 DUP5 DUP3 PUSH2 0x1BB9 JUMP JUMPDEST JUMPDEST POP POP POP POP JUMP JUMPDEST PUSH1 0x60 PUSH2 0x1D68 DUP4 DUP4 PUSH0 PUSH2 0x1E2F JUMP JUMPDEST SWAP1 POP SWAP3 SWAP2 POP POP JUMP JUMPDEST PUSH0 DUP1 PUSH0 DUP5 PUSH20 0xFFFFFFFFFFFFFFFFFFFFFFFFFFFFFFFFFFFFFFFF AND DUP5 PUSH1 0x40 MLOAD PUSH2 0x1D98 SWAP2 SWAP1 PUSH2 0x3426 JUMP JUMPDEST PUSH0 PUSH1 0x40 MLOAD DUP1 DUP4 SUB DUP2 PUSH0 DUP7 GAS CALL SWAP2 POP POP RETURNDATASIZE DUP1 PUSH0 DUP2 EQ PUSH2 0x1DD1 JUMPI PUSH1 0x40 MLOAD SWAP2 POP PUSH1 0x1F NOT PUSH1 0x3F RETURNDATASIZE ADD AND DUP3 ADD PUSH1 0x40 MSTORE RETURNDATASIZE DUP3 MSTORE RETURNDATASIZE PUSH0 PUSH1 0x20 DUP5 ADD RETURNDATACOPY PUSH2 0x1DD6 JUMP JUMPDEST PUSH1 0x60 SWAP2 POP JUMPDEST POP SWAP2 POP SWAP2 POP DUP2 DUP1 ISZERO PUSH2 0x1E03 JUMPI POP PUSH0 DUP2 MLOAD EQ DUP1 PUSH2 0x1E02 JUMPI POP DUP1 DUP1 PUSH1 0x20 ADD SWAP1 MLOAD DUP2 ADD SWAP1 PUSH2 0x1E01 SWAP2 SWAP1 PUSH2 0x333A JUMP JUMPDEST JUMPDEST JUMPDEST DUP1 ISZERO PUSH2 0x1E25 JUMPI POP PUSH0 DUP6 PUSH20 0xFFFFFFFFFFFFFFFFFFFFFFFFFFFFFFFFFFFFFFFF AND EXTCODESIZE GT JUMPDEST SWAP3 POP POP POP SWAP3 SWAP2 POP POP JUMP JUMPDEST PUSH1 0x60 DUP2 SELFBALANCE LT ISZERO PUSH2 0x1E76 JUMPI ADDRESS PUSH1 0x40 MLOAD PUSH32 0xCD78605900000000000000000000000000000000000000000000000000000000 DUP2 MSTORE PUSH1 0x4 ADD PUSH2 0x1E6D SWAP2 SWAP1 PUSH2 0x2345 JUMP JUMPDEST PUSH1 0x40 MLOAD DUP1 SWAP2 SUB SWAP1 REVERT JUMPDEST PUSH0 DUP1 DUP6 PUSH20 0xFFFFFFFFFFFFFFFFFFFFFFFFFFFFFFFFFFFFFFFF AND DUP5 DUP7 PUSH1 0x40 MLOAD PUSH2 0x1E9E SWAP2 SWAP1 PUSH2 0x3426 JUMP JUMPDEST PUSH0 PUSH1 0x40 MLOAD DUP1 DUP4 SUB DUP2 DUP6 DUP8 GAS CALL SWAP3 POP POP POP RETURNDATASIZE DUP1 PUSH0 DUP2 EQ PUSH2 0x1ED8 JUMPI PUSH1 0x40 MLOAD SWAP2 POP PUSH1 0x1F NOT PUSH1 0x3F RETURNDATASIZE ADD AND DUP3 ADD PUSH1 0x40 MSTORE RETURNDATASIZE DUP3 MSTORE RETURNDATASIZE PUSH0 PUSH1 0x20 DUP5 ADD RETURNDATACOPY PUSH2 0x1EDD JUMP JUMPDEST PUSH1 0x60 SWAP2 POP JUMPDEST POP SWAP2 POP SWAP2 POP PUSH2 0x1EED DUP7 DUP4 DUP4 PUSH2 0x1EF8 JUMP JUMPDEST SWAP3 POP POP POP SWAP4 SWAP3 POP POP POP JUMP JUMPDEST PUSH1 0x60 DUP3 PUSH2 0x1F0D JUMPI PUSH2 0x1F08 DUP3 PUSH2 0x1F85 JUMP JUMPDEST PUSH2 0x1F7D JUMP JUMPDEST PUSH0 DUP3 MLOAD EQ DUP1 ISZERO PUSH2 0x1F33 JUMPI POP PUSH0 DUP5 PUSH20 0xFFFFFFFFFFFFFFFFFFFFFFFFFFFFFFFFFFFFFFFF AND EXTCODESIZE EQ JUMPDEST ISZERO PUSH2 0x1F75 JUMPI DUP4 PUSH1 0x40 MLOAD PUSH32 0x9996B31500000000000000000000000000000000000000000000000000000000 DUP2 MSTORE PUSH1 0x4 ADD PUSH2 0x1F6C SWAP2 SWAP1 PUSH2 0x2345 JUMP JUMPDEST PUSH1 0x40 MLOAD DUP1 SWAP2 SUB SWAP1 REVERT JUMPDEST DUP2 SWAP1 POP PUSH2 0x1F7E JUMP JUMPDEST JUMPDEST SWAP4 SWAP3 POP POP POP JUMP JUMPDEST PUSH0 DUP2 MLOAD GT ISZERO PUSH2 0x1F97 JUMPI DUP1 MLOAD DUP1 DUP3 PUSH1 0x20 ADD REVERT JUMPDEST PUSH1 0x40 MLOAD PUSH32 0x1425EA4200000000000000000000000000000000000000000000000000000000 DUP2 MSTORE PUSH1 0x4 ADD PUSH1 0x40 MLOAD DUP1 SWAP2 SUB SWAP1 REVERT JUMPDEST PUSH0 PUSH1 0x40 MLOAD SWAP1 POP SWAP1 JUMP JUMPDEST PUSH0 DUP1 REVERT JUMPDEST PUSH0 DUP1 REVERT JUMPDEST PUSH0 DUP2 SWAP1 POP SWAP2 SWAP1 POP JUMP JUMPDEST PUSH2 0x1FEC DUP2 PUSH2 0x1FDA JUMP JUMPDEST DUP2 EQ PUSH2 0x1FF6 JUMPI PUSH0 DUP1 REVERT JUMPDEST POP JUMP JUMPDEST PUSH0 DUP2 CALLDATALOAD SWAP1 POP PUSH2 0x2007 DUP2 PUSH2 0x1FE3 JUMP JUMPDEST SWAP3 SWAP2 POP POP JUMP JUMPDEST PUSH0 DUP1 PUSH1 0x40 DUP4 DUP6 SUB SLT ISZERO PUSH2 0x2023 JUMPI PUSH2 0x2022 PUSH2 0x1FD2 JUMP JUMPDEST JUMPDEST PUSH0 PUSH2 0x2030 DUP6 DUP3 DUP7 ADD PUSH2 0x1FF9 JUMP JUMPDEST SWAP3 POP POP PUSH1 0x20 PUSH2 0x2041 DUP6 DUP3 DUP7 ADD PUSH2 0x1FF9 JUMP JUMPDEST SWAP2 POP POP SWAP3 POP SWAP3 SWAP1 POP JUMP JUMPDEST PUSH0 PUSH20 0xFFFFFFFFFFFFFFFFFFFFFFFFFFFFFFFFFFFFFFFF DUP3 AND SWAP1 POP SWAP2 SWAP1 POP JUMP JUMPDEST PUSH0 DUP2 SWAP1 POP SWAP2 SWAP1 POP JUMP JUMPDEST PUSH0 PUSH2 0x208D PUSH2 0x2088 PUSH2 0x2083 DUP5 PUSH2 0x204B JUMP JUMPDEST PUSH2 0x206A JUMP JUMPDEST PUSH2 0x204B JUMP JUMPDEST SWAP1 POP SWAP2 SWAP1 POP JUMP JUMPDEST PUSH0 PUSH2 0x209E DUP3 PUSH2 0x2073 JUMP JUMPDEST SWAP1 POP SWAP2 SWAP1 POP JUMP JUMPDEST PUSH0 PUSH2 0x20AF DUP3 PUSH2 0x2094 JUMP JUMPDEST SWAP1 POP SWAP2 SWAP1 POP JUMP JUMPDEST PUSH2 0x20BF DUP2 PUSH2 0x20A5 JUMP JUMPDEST DUP3 MSTORE POP POP JUMP JUMPDEST PUSH0 PUSH1 0x20 DUP3 ADD SWAP1 POP PUSH2 0x20D8 PUSH0 DUP4 ADD DUP5 PUSH2 0x20B6 JUMP JUMPDEST SWAP3 SWAP2 POP POP JUMP JUMPDEST PUSH0 PUSH2 0x20E8 DUP3 PUSH2 0x2094 JUMP JUMPDEST SWAP1 POP SWAP2 SWAP1 POP JUMP JUMPDEST PUSH2 0x20F8 DUP2 PUSH2 0x20DE JUMP JUMPDEST DUP3 MSTORE POP POP JUMP JUMPDEST PUSH0 PUSH1 0x20 DUP3 ADD SWAP1 POP PUSH2 0x2111 PUSH0 DUP4 ADD DUP5 PUSH2 0x20EF JUMP JUMPDEST SWAP3 SWAP2 POP POP JUMP JUMPDEST PUSH0 DUP1 REVERT JUMPDEST PUSH0 PUSH1 0x1F NOT PUSH1 0x1F DUP4 ADD AND SWAP1 POP SWAP2 SWAP1 POP JUMP JUMPDEST PUSH32 0x4E487B7100000000000000000000000000000000000000000000000000000000 PUSH0 MSTORE PUSH1 0x41 PUSH1 0x4 MSTORE PUSH1 0x24 PUSH0 REVERT JUMPDEST PUSH2 0x2161 DUP3 PUSH2 0x211B JUMP JUMPDEST DUP2 ADD DUP2 DUP2 LT PUSH8 0xFFFFFFFFFFFFFFFF DUP3 GT OR ISZERO PUSH2 0x2180 JUMPI PUSH2 0x217F PUSH2 0x212B JUMP JUMPDEST JUMPDEST DUP1 PUSH1 0x40 MSTORE POP POP POP JUMP JUMPDEST PUSH0 PUSH2 0x2192 PUSH2 0x1FC9 JUMP JUMPDEST SWAP1 POP PUSH2 0x219E DUP3 DUP3 PUSH2 0x2158 JUMP JUMPDEST SWAP2 SWAP1 POP JUMP JUMPDEST PUSH0 PUSH8 0xFFFFFFFFFFFFFFFF DUP3 GT ISZERO PUSH2 0x21BD JUMPI PUSH2 0x21BC PUSH2 0x212B JUMP JUMPDEST JUMPDEST PUSH1 0x20 DUP3 MUL SWAP1 POP PUSH1 0x20 DUP2 ADD SWAP1 POP SWAP2 SWAP1 POP JUMP JUMPDEST PUSH0 DUP1 REVERT JUMPDEST PUSH0 PUSH2 0x21E4 PUSH2 0x21DF DUP5 PUSH2 0x21A3 JUMP JUMPDEST PUSH2 0x2189 JUMP JUMPDEST SWAP1 POP DUP1 DUP4 DUP3 MSTORE PUSH1 0x20 DUP3 ADD SWAP1 POP PUSH1 0x20 DUP5 MUL DUP4 ADD DUP6 DUP2 GT ISZERO PUSH2 0x2207 JUMPI PUSH2 0x2206 PUSH2 0x21CE JUMP JUMPDEST JUMPDEST DUP4 JUMPDEST DUP2 DUP2 LT ISZERO PUSH2 0x2230 JUMPI DUP1 PUSH2 0x221C DUP9 DUP3 PUSH2 0x1FF9 JUMP JUMPDEST DUP5 MSTORE PUSH1 0x20 DUP5 ADD SWAP4 POP POP PUSH1 0x20 DUP2 ADD SWAP1 POP PUSH2 0x2209 JUMP JUMPDEST POP POP POP SWAP4 SWAP3 POP POP POP JUMP JUMPDEST PUSH0 DUP3 PUSH1 0x1F DUP4 ADD SLT PUSH2 0x224E JUMPI PUSH2 0x224D PUSH2 0x2117 JUMP JUMPDEST JUMPDEST DUP2 CALLDATALOAD PUSH2 0x225E DUP5 DUP3 PUSH1 0x20 DUP7 ADD PUSH2 0x21D2 JUMP JUMPDEST SWAP2 POP POP SWAP3 SWAP2 POP POP JUMP JUMPDEST PUSH0 DUP1 PUSH1 0x40 DUP4 DUP6 SUB SLT ISZERO PUSH2 0x227D JUMPI PUSH2 0x227C PUSH2 0x1FD2 JUMP JUMPDEST JUMPDEST PUSH0 PUSH2 0x228A DUP6 DUP3 DUP7 ADD PUSH2 0x1FF9 JUMP JUMPDEST SWAP3 POP POP PUSH1 0x20 DUP4 ADD CALLDATALOAD PUSH8 0xFFFFFFFFFFFFFFFF DUP2 GT ISZERO PUSH2 0x22AB JUMPI PUSH2 0x22AA PUSH2 0x1FD6 JUMP JUMPDEST JUMPDEST PUSH2 0x22B7 DUP6 DUP3 DUP7 ADD PUSH2 0x223A JUMP JUMPDEST SWAP2 POP POP SWAP3 POP SWAP3 SWAP1 POP JUMP JUMPDEST PUSH0 PUSH2 0x22CB DUP3 PUSH2 0x2094 JUMP JUMPDEST SWAP1 POP SWAP2 SWAP1 POP JUMP JUMPDEST PUSH2 0x22DB DUP2 PUSH2 0x22C1 JUMP JUMPDEST DUP3 MSTORE POP POP JUMP JUMPDEST PUSH0 PUSH1 0x20 DUP3 ADD SWAP1 POP PUSH2 0x22F4 PUSH0 DUP4 ADD DUP5 PUSH2 0x22D2 JUMP JUMPDEST SWAP3 SWAP2 POP POP JUMP JUMPDEST PUSH0 PUSH1 0x20 DUP3 DUP5 SUB SLT ISZERO PUSH2 0x230F JUMPI PUSH2 0x230E PUSH2 0x1FD2 JUMP JUMPDEST JUMPDEST PUSH0 PUSH2 0x231C DUP5 DUP3 DUP6 ADD PUSH2 0x1FF9 JUMP JUMPDEST SWAP2 POP POP SWAP3 SWAP2 POP POP JUMP JUMPDEST PUSH0 PUSH2 0x232F DUP3 PUSH2 0x204B JUMP JUMPDEST SWAP1 POP SWAP2 SWAP1 POP JUMP JUMPDEST PUSH2 0x233F DUP2 PUSH2 0x2325 JUMP JUMPDEST DUP3 MSTORE POP POP JUMP JUMPDEST PUSH0 PUSH1 0x20 DUP3 ADD SWAP1 POP PUSH2 0x2358 PUSH0 DUP4 ADD DUP5 PUSH2 0x2336 JUMP JUMPDEST SWAP3 SWAP2 POP POP JUMP JUMPDEST PUSH0 DUP1 REVERT JUMPDEST PUSH0 DUP1 DUP4 PUSH1 0x1F DUP5 ADD SLT PUSH2 0x2377 JUMPI PUSH2 0x2376 PUSH2 0x2117 JUMP JUMPDEST JUMPDEST DUP3 CALLDATALOAD SWAP1 POP PUSH8 0xFFFFFFFFFFFFFFFF DUP2 GT ISZERO PUSH2 0x2394 JUMPI PUSH2 0x2393 PUSH2 0x235E JUMP JUMPDEST JUMPDEST PUSH1 0x20 DUP4 ADD SWAP2 POP DUP4 PUSH1 0x1 DUP3 MUL DUP4 ADD GT ISZERO PUSH2 0x23B0 JUMPI PUSH2 0x23AF PUSH2 0x21CE JUMP JUMPDEST JUMPDEST SWAP3 POP SWAP3 SWAP1 POP JUMP JUMPDEST PUSH0 DUP1 PUSH1 0x20 DUP4 DUP6 SUB SLT ISZERO PUSH2 0x23CD JUMPI PUSH2 0x23CC PUSH2 0x1FD2 JUMP JUMPDEST JUMPDEST PUSH0 DUP4 ADD CALLDATALOAD PUSH8 0xFFFFFFFFFFFFFFFF DUP2 GT ISZERO PUSH2 0x23EA JUMPI PUSH2 0x23E9 PUSH2 0x1FD6 JUMP JUMPDEST JUMPDEST PUSH2 0x23F6 DUP6 DUP3 DUP7 ADD PUSH2 0x2362 JUMP JUMPDEST SWAP3 POP SWAP3 POP POP SWAP3 POP SWAP3 SWAP1 POP JUMP JUMPDEST PUSH0 DUP2 ISZERO ISZERO SWAP1 POP SWAP2 SWAP1 POP JUMP JUMPDEST PUSH2 0x2416 DUP2 PUSH2 0x2402 JUMP JUMPDEST DUP3 MSTORE POP POP JUMP JUMPDEST PUSH0 DUP2 MLOAD SWAP1 POP SWAP2 SWAP1 POP JUMP JUMPDEST PUSH0 DUP3 DUP3 MSTORE PUSH1 0x20 DUP3 ADD SWAP1 POP SWAP3 SWAP2 POP POP JUMP JUMPDEST PUSH0 JUMPDEST DUP4 DUP2 LT ISZERO PUSH2 0x2453 JUMPI DUP1 DUP3 ADD MLOAD DUP2 DUP5 ADD MSTORE PUSH1 0x20 DUP2 ADD SWAP1 POP PUSH2 0x2438 JUMP JUMPDEST PUSH0 DUP5 DUP5 ADD MSTORE POP POP POP POP JUMP JUMPDEST PUSH0 PUSH2 0x2468 DUP3 PUSH2 0x241C JUMP JUMPDEST PUSH2 0x2472 DUP2 DUP6 PUSH2 0x2426 JUMP JUMPDEST SWAP4 POP PUSH2 0x2482 DUP2 DUP6 PUSH1 0x20 DUP7 ADD PUSH2 0x2436 JUMP JUMPDEST PUSH2 0x248B DUP2 PUSH2 0x211B JUMP JUMPDEST DUP5 ADD SWAP2 POP POP SWAP3 SWAP2 POP POP JUMP JUMPDEST PUSH0 PUSH1 0x40 DUP3 ADD SWAP1 POP PUSH2 0x24A9 PUSH0 DUP4 ADD DUP6 PUSH2 0x240D JUMP JUMPDEST DUP2 DUP2 SUB PUSH1 0x20 DUP4 ADD MSTORE PUSH2 0x24BB DUP2 DUP5 PUSH2 0x245E JUMP JUMPDEST SWAP1 POP SWAP4 SWAP3 POP POP POP JUMP JUMPDEST PUSH0 PUSH2 0x24CE DUP3 PUSH2 0x2094 JUMP JUMPDEST SWAP1 POP SWAP2 SWAP1 POP JUMP JUMPDEST PUSH2 0x24DE DUP2 PUSH2 0x24C4 JUMP JUMPDEST DUP3 MSTORE POP POP JUMP JUMPDEST PUSH0 PUSH1 0x20 DUP3 ADD SWAP1 POP PUSH2 0x24F7 PUSH0 DUP4 ADD DUP5 PUSH2 0x24D5 JUMP JUMPDEST SWAP3 SWAP2 POP POP JUMP JUMPDEST PUSH0 PUSH2 0x2507 DUP3 PUSH2 0x2094 JUMP JUMPDEST SWAP1 POP SWAP2 SWAP1 POP JUMP JUMPDEST PUSH2 0x2517 DUP2 PUSH2 0x24FD JUMP JUMPDEST DUP3 MSTORE POP POP JUMP JUMPDEST PUSH0 PUSH1 0x20 DUP3 ADD SWAP1 POP PUSH2 0x2530 PUSH0 DUP4 ADD DUP5 PUSH2 0x250E JUMP JUMPDEST SWAP3 SWAP2 POP POP JUMP JUMPDEST PUSH2 0x253F DUP2 PUSH2 0x2325 JUMP JUMPDEST DUP2 EQ PUSH2 0x2549 JUMPI PUSH0 DUP1 REVERT JUMPDEST POP JUMP JUMPDEST PUSH0 DUP2 CALLDATALOAD SWAP1 POP PUSH2 0x255A DUP2 PUSH2 0x2536 JUMP JUMPDEST SWAP3 SWAP2 POP POP JUMP JUMPDEST PUSH0 PUSH1 0x20 DUP3 DUP5 SUB SLT ISZERO PUSH2 0x2575 JUMPI PUSH2 0x2574 PUSH2 0x1FD2 JUMP JUMPDEST JUMPDEST PUSH0 PUSH2 0x2582 DUP5 DUP3 DUP6 ADD PUSH2 0x254C JUMP JUMPDEST SWAP2 POP POP SWAP3 SWAP2 POP POP JUMP JUMPDEST PUSH2 0x2594 DUP2 PUSH2 0x1FDA JUMP JUMPDEST DUP3 MSTORE POP POP JUMP JUMPDEST PUSH0 PUSH1 0x20 DUP3 ADD SWAP1 POP PUSH2 0x25AD PUSH0 DUP4 ADD DUP5 PUSH2 0x258B JUMP JUMPDEST SWAP3 SWAP2 POP POP JUMP JUMPDEST PUSH0 PUSH1 0xC0 DUP3 ADD SWAP1 POP PUSH2 0x25C6 PUSH0 DUP4 ADD DUP10 PUSH2 0x258B JUMP JUMPDEST PUSH2 0x25D3 PUSH1 0x20 DUP4 ADD DUP9 PUSH2 0x258B JUMP JUMPDEST PUSH2 0x25E0 PUSH1 0x40 DUP4 ADD DUP8 PUSH2 0x258B JUMP JUMPDEST PUSH2 0x25ED PUSH1 0x60 DUP4 ADD DUP7 PUSH2 0x258B JUMP JUMPDEST PUSH2 0x25FA PUSH1 0x80 DUP4 ADD DUP6 PUSH2 0x258B JUMP JUMPDEST PUSH2 0x2607 PUSH1 0xA0 DUP4 ADD DUP5 PUSH2 0x258B JUMP JUMPDEST SWAP8 SWAP7 POP POP POP POP POP POP POP JUMP JUMPDEST PUSH0 DUP3 DUP3 MSTORE PUSH1 0x20 DUP3 ADD SWAP1 POP SWAP3 SWAP2 POP POP JUMP JUMPDEST PUSH32 0x506C616E20697320657869737400000000000000000000000000000000000000 PUSH0 DUP3 ADD MSTORE POP JUMP JUMPDEST PUSH0 PUSH2 0x2656 PUSH1 0xD DUP4 PUSH2 0x2612 JUMP JUMPDEST SWAP2 POP PUSH2 0x2661 DUP3 PUSH2 0x2622 JUMP JUMPDEST PUSH1 0x20 DUP3 ADD SWAP1 POP SWAP2 SWAP1 POP JUMP JUMPDEST PUSH0 PUSH1 0x20 DUP3 ADD SWAP1 POP DUP2 DUP2 SUB PUSH0 DUP4 ADD MSTORE PUSH2 0x2683 DUP2 PUSH2 0x264A JUMP JUMPDEST SWAP1 POP SWAP2 SWAP1 POP JUMP JUMPDEST PUSH32 0x4672657175656E6379206D7573742062652067726561746572207468616E2030 PUSH0 DUP3 ADD MSTORE POP JUMP JUMPDEST PUSH0 PUSH2 0x26BE PUSH1 0x20 DUP4 PUSH2 0x2612 JUMP JUMPDEST SWAP2 POP PUSH2 0x26C9 DUP3 PUSH2 0x268A JUMP JUMPDEST PUSH1 0x20 DUP3 ADD SWAP1 POP SWAP2 SWAP1 POP JUMP JUMPDEST PUSH0 PUSH1 0x20 DUP3 ADD SWAP1 POP DUP2 DUP2 SUB PUSH0 DUP4 ADD MSTORE PUSH2 0x26EB DUP2 PUSH2 0x26B2 JUMP JUMPDEST SWAP1 POP SWAP2 SWAP1 POP JUMP JUMPDEST PUSH32 0x416D6F756E74206D7573742062652067726561746572207468616E2030000000 PUSH0 DUP3 ADD MSTORE POP JUMP JUMPDEST PUSH0 PUSH2 0x2726 PUSH1 0x1D DUP4 PUSH2 0x2612 JUMP JUMPDEST SWAP2 POP PUSH2 0x2731 DUP3 PUSH2 0x26F2 JUMP JUMPDEST PUSH1 0x20 DUP3 ADD SWAP1 POP SWAP2 SWAP1 POP JUMP JUMPDEST PUSH0 PUSH1 0x20 DUP3 ADD SWAP1 POP DUP2 DUP2 SUB PUSH0 DUP4 ADD MSTORE PUSH2 0x2753 DUP2 PUSH2 0x271A JUMP JUMPDEST SWAP1 POP SWAP2 SWAP1 POP JUMP JUMPDEST PUSH0 PUSH1 0x40 DUP3 ADD SWAP1 POP PUSH2 0x276D PUSH0 DUP4 ADD DUP6 PUSH2 0x258B JUMP JUMPDEST PUSH2 0x277A PUSH1 0x20 DUP4 ADD DUP5 PUSH2 0x258B JUMP JUMPDEST SWAP4 SWAP3 POP POP POP JUMP JUMPDEST PUSH0 PUSH1 0x40 DUP3 ADD SWAP1 POP PUSH2 0x2794 PUSH0 DUP4 ADD DUP6 PUSH2 0x2336 JUMP JUMPDEST PUSH2 0x27A1 PUSH1 0x20 DUP4 ADD DUP5 PUSH2 0x2336 JUMP JUMPDEST SWAP4 SWAP3 POP POP POP JUMP JUMPDEST PUSH0 PUSH2 0x27B2 DUP3 PUSH2 0x204B JUMP JUMPDEST SWAP1 POP SWAP2 SWAP1 POP JUMP JUMPDEST PUSH2 0x27C2 DUP2 PUSH2 0x27A8 JUMP JUMPDEST DUP2 EQ PUSH2 0x27CC JUMPI PUSH0 DUP1 REVERT JUMPDEST POP JUMP JUMPDEST PUSH0 DUP2 CALLDATALOAD SWAP1 POP PUSH2 0x27DD DUP2 PUSH2 0x27B9 JUMP JUMPDEST SWAP3 SWAP2 POP POP JUMP JUMPDEST PUSH0 PUSH1 0x20 DUP3 DUP5 SUB SLT ISZERO PUSH2 0x27F8 JUMPI PUSH2 0x27F7 PUSH2 0x1FD2 JUMP JUMPDEST JUMPDEST PUSH0 PUSH2 0x2805 DUP5 DUP3 DUP6 ADD PUSH2 0x27CF JUMP JUMPDEST SWAP2 POP POP SWAP3 SWAP2 POP POP JUMP JUMPDEST PUSH32 0x4E487B7100000000000000000000000000000000000000000000000000000000 PUSH0 MSTORE PUSH1 0x11 PUSH1 0x4 MSTORE PUSH1 0x24 PUSH0 REVERT JUMPDEST PUSH0 PUSH2 0x2845 DUP3 PUSH2 0x1FDA JUMP JUMPDEST SWAP2 POP PUSH2 0x2850 DUP4 PUSH2 0x1FDA JUMP JUMPDEST SWAP3 POP DUP3 DUP3 SUB SWAP1 POP DUP2 DUP2 GT ISZERO PUSH2 0x2868 JUMPI PUSH2 0x2867 PUSH2 0x280E JUMP JUMPDEST JUMPDEST SWAP3 SWAP2 POP POP JUMP JUMPDEST PUSH32 0x4E487B7100000000000000000000000000000000000000000000000000000000 PUSH0 MSTORE PUSH1 0x12 PUSH1 0x4 MSTORE PUSH1 0x24 PUSH0 REVERT JUMPDEST PUSH0 PUSH2 0x28A5 DUP3 PUSH2 0x1FDA JUMP JUMPDEST SWAP2 POP PUSH2 0x28B0 DUP4 PUSH2 0x1FDA JUMP JUMPDEST SWAP3 POP DUP3 PUSH2 0x28C0 JUMPI PUSH2 0x28BF PUSH2 0x286E JUMP JUMPDEST JUMPDEST DUP3 DUP3 MOD SWAP1 POP SWAP3 SWAP2 POP POP JUMP JUMPDEST PUSH0 PUSH2 0x28D5 DUP3 PUSH2 0x1FDA JUMP JUMPDEST SWAP2 POP PUSH2 0x28E0 DUP4 PUSH2 0x1FDA JUMP JUMPDEST SWAP3 POP DUP3 DUP3 ADD SWAP1 POP DUP1 DUP3 GT ISZERO PUSH2 0x28F8 JUMPI PUSH2 0x28F7 PUSH2 0x280E JUMP JUMPDEST JUMPDEST SWAP3 SWAP2 POP POP JUMP JUMPDEST PUSH32 0x506C616E206973206E6F74206578697374000000000000000000000000000000 PUSH0 DUP3 ADD MSTORE POP JUMP JUMPDEST PUSH0 PUSH2 0x2932 PUSH1 0x11 DUP4 PUSH2 0x2612 JUMP JUMPDEST SWAP2 POP PUSH2 0x293D DUP3 PUSH2 0x28FE JUMP JUMPDEST PUSH1 0x20 DUP3 ADD SWAP1 POP SWAP2 SWAP1 POP JUMP JUMPDEST PUSH0 PUSH1 0x20 DUP3 ADD SWAP1 POP DUP2 DUP2 SUB PUSH0 DUP4 ADD MSTORE PUSH2 0x295F DUP2 PUSH2 0x2926 JUMP JUMPDEST SWAP1 POP SWAP2 SWAP1 POP JUMP JUMPDEST PUSH32 0x546F74616C206D7573742062652067726561746572207468616E20616D6F756E PUSH0 DUP3 ADD MSTORE PUSH32 0x7400000000000000000000000000000000000000000000000000000000000000 PUSH1 0x20 DUP3 ADD MSTORE POP JUMP JUMPDEST PUSH0 PUSH2 0x29C0 PUSH1 0x21 DUP4 PUSH2 0x2612 JUMP JUMPDEST SWAP2 POP PUSH2 0x29CB DUP3 PUSH2 0x2966 JUMP JUMPDEST PUSH1 0x40 DUP3 ADD SWAP1 POP SWAP2 SWAP1 POP JUMP JUMPDEST PUSH0 PUSH1 0x20 DUP3 ADD SWAP1 POP DUP2 DUP2 SUB PUSH0 DUP4 ADD MSTORE PUSH2 0x29ED DUP2 PUSH2 0x29B4 JUMP JUMPDEST SWAP1 POP SWAP2 SWAP1 POP JUMP JUMPDEST PUSH0 PUSH2 0x29FE DUP3 PUSH2 0x1FDA JUMP JUMPDEST SWAP2 POP PUSH32 0xFFFFFFFFFFFFFFFFFFFFFFFFFFFFFFFFFFFFFFFFFFFFFFFFFFFFFFFFFFFFFFFF DUP3 SUB PUSH2 0x2A30 JUMPI PUSH2 0x2A2F PUSH2 0x280E JUMP JUMPDEST JUMPDEST PUSH1 0x1 DUP3 ADD SWAP1 POP SWAP2 SWAP1 POP JUMP JUMPDEST PUSH32 0x506C616E206973206E6F74206163746976650000000000000000000000000000 PUSH0 DUP3 ADD MSTORE POP JUMP JUMPDEST PUSH0 PUSH2 0x2A6F PUSH1 0x12 DUP4 PUSH2 0x2612 JUMP JUMPDEST SWAP2 POP PUSH2 0x2A7A DUP3 PUSH2 0x2A3B JUMP JUMPDEST PUSH1 0x20 DUP3 ADD SWAP1 POP SWAP2 SWAP1 POP JUMP JUMPDEST PUSH0 PUSH1 0x20 DUP3 ADD SWAP1 POP DUP2 DUP2 SUB PUSH0 DUP4 ADD MSTORE PUSH2 0x2A9C DUP2 PUSH2 0x2A63 JUMP JUMPDEST SWAP1 POP SWAP2 SWAP1 POP JUMP JUMPDEST PUSH32 0x43616E6E6F742074726967676572206D6F7265207468616E2072656D61696E69 PUSH0 DUP3 ADD MSTORE PUSH32 0x6E6720616D6F756E740000000000000000000000000000000000000000000000 PUSH1 0x20 DUP3 ADD MSTORE POP JUMP JUMPDEST PUSH0 PUSH2 0x2AFD PUSH1 0x29 DUP4 PUSH2 0x2612 JUMP JUMPDEST SWAP2 POP PUSH2 0x2B08 DUP3 PUSH2 0x2AA3 JUMP JUMPDEST PUSH1 0x40 DUP3 ADD SWAP1 POP SWAP2 SWAP1 POP JUMP JUMPDEST PUSH0 PUSH1 0x20 DUP3 ADD SWAP1 POP DUP2 DUP2 SUB PUSH0 DUP4 ADD MSTORE PUSH2 0x2B2A DUP2 PUSH2 0x2AF1 JUMP JUMPDEST SWAP1 POP SWAP2 SWAP1 POP JUMP JUMPDEST PUSH32 0x43616E6E6F742074726967676572206265666F7265206E657874207472696767 PUSH0 DUP3 ADD MSTORE PUSH32 0x65722074696D6500000000000000000000000000000000000000000000000000 PUSH1 0x20 DUP3 ADD MSTORE POP JUMP JUMPDEST PUSH0 PUSH2 0x2B8B PUSH1 0x27 DUP4 PUSH2 0x2612 JUMP JUMPDEST SWAP2 POP PUSH2 0x2B96 DUP3 PUSH2 0x2B31 JUMP JUMPDEST PUSH1 0x40 DUP3 ADD SWAP1 POP SWAP2 SWAP1 POP JUMP JUMPDEST PUSH0 PUSH1 0x20 DUP3 ADD SWAP1 POP DUP2 DUP2 SUB PUSH0 DUP4 ADD MSTORE PUSH2 0x2BB8 DUP2 PUSH2 0x2B7F JUMP JUMPDEST SWAP1 POP SWAP2 SWAP1 POP JUMP JUMPDEST PUSH0 PUSH10 0xFFFFFFFFFFFFFFFFFFFF DUP3 AND SWAP1 POP SWAP2 SWAP1 POP JUMP JUMPDEST PUSH2 0x2BDD DUP2 PUSH2 0x2BBF JUMP JUMPDEST DUP2 EQ PUSH2 0x2BE7 JUMPI PUSH0 DUP1 REVERT JUMPDEST POP JUMP JUMPDEST PUSH0 DUP2 MLOAD SWAP1 POP PUSH2 0x2BF8 DUP2 PUSH2 0x2BD4 JUMP JUMPDEST SWAP3 SWAP2 POP POP JUMP JUMPDEST PUSH0 DUP2 SWAP1 POP SWAP2 SWAP1 POP JUMP JUMPDEST PUSH2 0x2C10 DUP2 PUSH2 0x2BFE JUMP JUMPDEST DUP2 EQ PUSH2 0x2C1A JUMPI PUSH0 DUP1 REVERT JUMPDEST POP JUMP JUMPDEST PUSH0 DUP2 MLOAD SWAP1 POP PUSH2 0x2C2B DUP2 PUSH2 0x2C07 JUMP JUMPDEST SWAP3 SWAP2 POP POP JUMP JUMPDEST PUSH0 DUP2 MLOAD SWAP1 POP PUSH2 0x2C3F DUP2 PUSH2 0x1FE3 JUMP JUMPDEST SWAP3 SWAP2 POP POP JUMP JUMPDEST PUSH0 DUP1 PUSH0 DUP1 PUSH0 PUSH1 0xA0 DUP7 DUP9 SUB SLT ISZERO PUSH2 0x2C5E JUMPI PUSH2 0x2C5D PUSH2 0x1FD2 JUMP JUMPDEST JUMPDEST PUSH0 PUSH2 0x2C6B DUP9 DUP3 DUP10 ADD PUSH2 0x2BEA JUMP JUMPDEST SWAP6 POP POP PUSH1 0x20 PUSH2 0x2C7C DUP9 DUP3 DUP10 ADD PUSH2 0x2C1D JUMP JUMPDEST SWAP5 POP POP PUSH1 0x40 PUSH2 0x2C8D DUP9 DUP3 DUP10 ADD PUSH2 0x2C31 JUMP JUMPDEST SWAP4 POP POP PUSH1 0x60 PUSH2 0x2C9E DUP9 DUP3 DUP10 ADD PUSH2 0x2C31 JUMP JUMPDEST SWAP3 POP POP PUSH1 0x80 PUSH2 0x2CAF DUP9 DUP3 DUP10 ADD PUSH2 0x2BEA JUMP JUMPDEST SWAP2 POP POP SWAP3 SWAP6 POP SWAP3 SWAP6 SWAP1 SWAP4 POP JUMP JUMPDEST PUSH0 PUSH1 0xFF DUP3 AND SWAP1 POP SWAP2 SWAP1 POP JUMP JUMPDEST PUSH2 0x2CD1 DUP2 PUSH2 0x2CBC JUMP JUMPDEST DUP2 EQ PUSH2 0x2CDB JUMPI PUSH0 DUP1 REVERT JUMPDEST POP JUMP JUMPDEST PUSH0 DUP2 MLOAD SWAP1 POP PUSH2 0x2CEC DUP2 PUSH2 0x2CC8 JUMP JUMPDEST SWAP3 SWAP2 POP POP JUMP JUMPDEST PUSH0 PUSH1 0x20 DUP3 DUP5 SUB SLT ISZERO PUSH2 0x2D07 JUMPI PUSH2 0x2D06 PUSH2 0x1FD2 JUMP JUMPDEST JUMPDEST PUSH0 PUSH2 0x2D14 DUP5 DUP3 DUP6 ADD PUSH2 0x2CDE JUMP JUMPDEST SWAP2 POP POP SWAP3 SWAP2 POP POP JUMP JUMPDEST PUSH0 DUP2 PUSH1 0x1 SHR SWAP1 POP SWAP2 SWAP1 POP JUMP JUMPDEST PUSH0 DUP1 DUP3 SWAP2 POP DUP4 SWAP1 POP JUMPDEST PUSH1 0x1 DUP6 GT ISZERO PUSH2 0x2D72 JUMPI DUP1 DUP7 DIV DUP2 GT ISZERO PUSH2 0x2D4E JUMPI PUSH2 0x2D4D PUSH2 0x280E JUMP JUMPDEST JUMPDEST PUSH1 0x1 DUP6 AND ISZERO PUSH2 0x2D5D JUMPI DUP1 DUP3 MUL SWAP2 POP JUMPDEST DUP1 DUP2 MUL SWAP1 POP PUSH2 0x2D6B DUP6 PUSH2 0x2D1D JUMP JUMPDEST SWAP5 POP PUSH2 0x2D32 JUMP JUMPDEST SWAP5 POP SWAP5 SWAP3 POP POP POP JUMP JUMPDEST PUSH0 DUP3 PUSH2 0x2D8A JUMPI PUSH1 0x1 SWAP1 POP PUSH2 0x2E45 JUMP JUMPDEST DUP2 PUSH2 0x2D97 JUMPI PUSH0 SWAP1 POP PUSH2 0x2E45 JUMP JUMPDEST DUP2 PUSH1 0x1 DUP2 EQ PUSH2 0x2DAD JUMPI PUSH1 0x2 DUP2 EQ PUSH2 0x2DB7 JUMPI PUSH2 0x2DE6 JUMP JUMPDEST PUSH1 0x1 SWAP2 POP POP PUSH2 0x2E45 JUMP JUMPDEST PUSH1 0xFF DUP5 GT ISZERO PUSH2 0x2DC9 JUMPI PUSH2 0x2DC8 PUSH2 0x280E JUMP JUMPDEST JUMPDEST DUP4 PUSH1 0x2 EXP SWAP2 POP DUP5 DUP3 GT ISZERO PUSH2 0x2DE0 JUMPI PUSH2 0x2DDF PUSH2 0x280E JUMP JUMPDEST JUMPDEST POP PUSH2 0x2E45 JUMP JUMPDEST POP PUSH1 0x20 DUP4 LT PUSH2 0x133 DUP4 LT AND PUSH1 0x4E DUP5 LT PUSH1 0xB DUP5 LT AND OR ISZERO PUSH2 0x2E1B JUMPI DUP3 DUP3 EXP SWAP1 POP DUP4 DUP2 GT ISZERO PUSH2 0x2E16 JUMPI PUSH2 0x2E15 PUSH2 0x280E JUMP JUMPDEST JUMPDEST PUSH2 0x2E45 JUMP JUMPDEST PUSH2 0x2E28 DUP5 DUP5 DUP5 PUSH1 0x1 PUSH2 0x2D29 JUMP JUMPDEST SWAP3 POP SWAP1 POP DUP2 DUP5 DIV DUP2 GT ISZERO PUSH2 0x2E3F JUMPI PUSH2 0x2E3E PUSH2 0x280E JUMP JUMPDEST JUMPDEST DUP2 DUP2 MUL SWAP1 POP JUMPDEST SWAP4 SWAP3 POP POP POP JUMP JUMPDEST PUSH0 PUSH2 0x2E56 DUP3 PUSH2 0x1FDA JUMP JUMPDEST SWAP2 POP PUSH2 0x2E61 DUP4 PUSH2 0x1FDA JUMP JUMPDEST SWAP3 POP PUSH2 0x2E8E PUSH32 0xFFFFFFFFFFFFFFFFFFFFFFFFFFFFFFFFFFFFFFFFFFFFFFFFFFFFFFFFFFFFFFFF DUP5 DUP5 PUSH2 0x2D7B JUMP JUMPDEST SWAP1 POP SWAP3 SWAP2 POP POP JUMP JUMPDEST PUSH0 PUSH2 0x2EA0 DUP3 PUSH2 0x1FDA JUMP JUMPDEST SWAP2 POP PUSH2 0x2EAB DUP4 PUSH2 0x1FDA JUMP JUMPDEST SWAP3 POP DUP3 DUP3 MUL PUSH2 0x2EB9 DUP2 PUSH2 0x1FDA JUMP JUMPDEST SWAP2 POP DUP3 DUP3 DIV DUP5 EQ DUP4 ISZERO OR PUSH2 0x2ED0 JUMPI PUSH2 0x2ECF PUSH2 0x280E JUMP JUMPDEST JUMPDEST POP SWAP3 SWAP2 POP POP JUMP JUMPDEST PUSH0 PUSH2 0x2EE1 DUP3 PUSH2 0x1FDA JUMP JUMPDEST SWAP2 POP PUSH2 0x2EEC DUP4 PUSH2 0x1FDA JUMP JUMPDEST SWAP3 POP DUP3 PUSH2 0x2EFC JUMPI PUSH2 0x2EFB PUSH2 0x286E JUMP JUMPDEST JUMPDEST DUP3 DUP3 DIV SWAP1 POP SWAP3 SWAP2 POP POP JUMP JUMPDEST PUSH32 0x4E487B7100000000000000000000000000000000000000000000000000000000 PUSH0 MSTORE PUSH1 0x32 PUSH1 0x4 MSTORE PUSH1 0x24 PUSH0 REVERT JUMPDEST PUSH0 DUP2 MLOAD SWAP1 POP PUSH2 0x2F42 DUP2 PUSH2 0x2536 JUMP JUMPDEST SWAP3 SWAP2 POP POP JUMP JUMPDEST PUSH0 PUSH1 0x20 DUP3 DUP5 SUB SLT ISZERO PUSH2 0x2F5D JUMPI PUSH2 0x2F5C PUSH2 0x1FD2 JUMP JUMPDEST JUMPDEST PUSH0 PUSH2 0x2F6A DUP5 DUP3 DUP6 ADD PUSH2 0x2F34 JUMP JUMPDEST SWAP2 POP POP SWAP3 SWAP2 POP POP JUMP JUMPDEST PUSH0 DUP2 MLOAD SWAP1 POP SWAP2 SWAP1 POP JUMP JUMPDEST PUSH0 DUP3 DUP3 MSTORE PUSH1 0x20 DUP3 ADD SWAP1 POP SWAP3 SWAP2 POP POP JUMP JUMPDEST PUSH0 DUP2 SWAP1 POP PUSH1 0x20 DUP3 ADD SWAP1 POP SWAP2 SWAP1 POP JUMP JUMPDEST PUSH2 0x2FA5 DUP2 PUSH2 0x2325 JUMP JUMPDEST DUP3 MSTORE POP POP JUMP JUMPDEST PUSH0 PUSH2 0x2FB6 DUP4 DUP4 PUSH2 0x2F9C JUMP JUMPDEST PUSH1 0x20 DUP4 ADD SWAP1 POP SWAP3 SWAP2 POP POP JUMP JUMPDEST PUSH0 PUSH1 0x20 DUP3 ADD SWAP1 POP SWAP2 SWAP1 POP JUMP JUMPDEST PUSH0 PUSH2 0x2FD8 DUP3 PUSH2 0x2F73 JUMP JUMPDEST PUSH2 0x2FE2 DUP2 DUP6 PUSH2 0x2F7D JUMP JUMPDEST SWAP4 POP PUSH2 0x2FED DUP4 PUSH2 0x2F8D JUMP JUMPDEST DUP1 PUSH0 JUMPDEST DUP4 DUP2 LT ISZERO PUSH2 0x301D JUMPI DUP2 MLOAD PUSH2 0x3004 DUP9 DUP3 PUSH2 0x2FAB JUMP JUMPDEST SWAP8 POP PUSH2 0x300F DUP4 PUSH2 0x2FC2 JUMP JUMPDEST SWAP3 POP POP PUSH1 0x1 DUP2 ADD SWAP1 POP PUSH2 0x2FF0 JUMP JUMPDEST POP DUP6 SWAP4 POP POP POP POP SWAP3 SWAP2 POP POP JUMP JUMPDEST PUSH0 PUSH1 0xA0 DUP3 ADD SWAP1 POP PUSH2 0x303D PUSH0 DUP4 ADD DUP9 PUSH2 0x258B JUMP JUMPDEST PUSH2 0x304A PUSH1 0x20 DUP4 ADD DUP8 PUSH2 0x258B JUMP JUMPDEST DUP2 DUP2 SUB PUSH1 0x40 DUP4 ADD MSTORE PUSH2 0x305C DUP2 DUP7 PUSH2 0x2FCE JUMP JUMPDEST SWAP1 POP PUSH2 0x306B PUSH1 0x60 DUP4 ADD DUP6 PUSH2 0x2336 JUMP JUMPDEST PUSH2 0x3078 PUSH1 0x80 DUP4 ADD DUP5 PUSH2 0x258B JUMP JUMPDEST SWAP7 SWAP6 POP POP POP POP POP POP JUMP JUMPDEST PUSH0 PUSH2 0x3094 PUSH2 0x308F DUP5 PUSH2 0x21A3 JUMP JUMPDEST PUSH2 0x2189 JUMP JUMPDEST SWAP1 POP DUP1 DUP4 DUP3 MSTORE PUSH1 0x20 DUP3 ADD SWAP1 POP PUSH1 0x20 DUP5 MUL DUP4 ADD DUP6 DUP2 GT ISZERO PUSH2 0x30B7 JUMPI PUSH2 0x30B6 PUSH2 0x21CE JUMP JUMPDEST JUMPDEST DUP4 JUMPDEST DUP2 DUP2 LT ISZERO PUSH2 0x30E0 JUMPI DUP1 PUSH2 0x30CC DUP9 DUP3 PUSH2 0x2C31 JUMP JUMPDEST DUP5 MSTORE PUSH1 0x20 DUP5 ADD SWAP4 POP POP PUSH1 0x20 DUP2 ADD SWAP1 POP PUSH2 0x30B9 JUMP JUMPDEST POP POP POP SWAP4 SWAP3 POP POP POP JUMP JUMPDEST PUSH0 DUP3 PUSH1 0x1F DUP4 ADD SLT PUSH2 0x30FE JUMPI PUSH2 0x30FD PUSH2 0x2117 JUMP JUMPDEST JUMPDEST DUP2 MLOAD PUSH2 0x310E DUP5 DUP3 PUSH1 0x20 DUP7 ADD PUSH2 0x3082 JUMP JUMPDEST SWAP2 POP POP SWAP3 SWAP2 POP POP JUMP JUMPDEST PUSH0 PUSH1 0x20 DUP3 DUP5 SUB SLT ISZERO PUSH2 0x312C JUMPI PUSH2 0x312B PUSH2 0x1FD2 JUMP JUMPDEST JUMPDEST PUSH0 DUP3 ADD MLOAD PUSH8 0xFFFFFFFFFFFFFFFF DUP2 GT ISZERO PUSH2 0x3149 JUMPI PUSH2 0x3148 PUSH2 0x1FD6 JUMP JUMPDEST JUMPDEST PUSH2 0x3155 DUP5 DUP3 DUP6 ADD PUSH2 0x30EA JUMP JUMPDEST SWAP2 POP POP SWAP3 SWAP2 POP POP JUMP JUMPDEST PUSH0 PUSH1 0x20 DUP3 DUP5 SUB SLT ISZERO PUSH2 0x3173 JUMPI PUSH2 0x3172 PUSH2 0x1FD2 JUMP JUMPDEST JUMPDEST PUSH0 PUSH2 0x3180 DUP5 DUP3 DUP6 ADD PUSH2 0x2C31 JUMP JUMPDEST SWAP2 POP POP SWAP3 SWAP2 POP POP JUMP JUMPDEST PUSH0 DUP2 SWAP1 POP SWAP2 SWAP1 POP JUMP JUMPDEST PUSH2 0x319B DUP2 PUSH2 0x3189 JUMP JUMPDEST DUP3 MSTORE POP POP JUMP JUMPDEST PUSH0 PUSH8 0xFFFFFFFFFFFFFFFF DUP3 AND SWAP1 POP SWAP2 SWAP1 POP JUMP JUMPDEST PUSH2 0x31BD DUP2 PUSH2 0x31A1 JUMP JUMPDEST DUP3 MSTORE POP POP JUMP JUMPDEST PUSH0 DUP2 SWAP1 POP SWAP2 SWAP1 POP JUMP JUMPDEST PUSH0 PUSH2 0xFFFF DUP3 AND SWAP1 POP SWAP2 SWAP1 POP JUMP JUMPDEST PUSH0 PUSH2 0x31F3 PUSH2 0x31EE PUSH2 0x31E9 DUP5 PUSH2 0x31C3 JUMP JUMPDEST PUSH2 0x206A JUMP JUMPDEST PUSH2 0x31CC JUMP JUMPDEST SWAP1 POP SWAP2 SWAP1 POP JUMP JUMPDEST PUSH2 0x3203 DUP2 PUSH2 0x31D9 JUMP JUMPDEST DUP3 MSTORE POP POP JUMP JUMPDEST PUSH0 DUP2 SWAP1 POP SWAP2 SWAP1 POP JUMP JUMPDEST PUSH0 PUSH4 0xFFFFFFFF DUP3 AND SWAP1 POP SWAP2 SWAP1 POP JUMP JUMPDEST PUSH0 PUSH2 0x323B PUSH2 0x3236 PUSH2 0x3231 DUP5 PUSH2 0x3209 JUMP JUMPDEST PUSH2 0x206A JUMP JUMPDEST PUSH2 0x3212 JUMP JUMPDEST SWAP1 POP SWAP2 SWAP1 POP JUMP JUMPDEST PUSH2 0x324B DUP2 PUSH2 0x3221 JUMP JUMPDEST DUP3 MSTORE POP POP JUMP JUMPDEST PUSH0 DUP2 SWAP1 POP SWAP2 SWAP1 POP JUMP JUMPDEST PUSH0 PUSH2 0x3274 PUSH2 0x326F PUSH2 0x326A DUP5 PUSH2 0x3251 JUMP JUMPDEST PUSH2 0x206A JUMP JUMPDEST PUSH2 0x3212 JUMP JUMPDEST SWAP1 POP SWAP2 SWAP1 POP JUMP JUMPDEST PUSH2 0x3284 DUP2 PUSH2 0x325A JUMP JUMPDEST DUP3 MSTORE POP POP JUMP JUMPDEST PUSH0 PUSH1 0xA0 DUP3 ADD SWAP1 POP PUSH2 0x329D PUSH0 DUP4 ADD DUP9 PUSH2 0x3192 JUMP JUMPDEST PUSH2 0x32AA PUSH1 0x20 DUP4 ADD DUP8 PUSH2 0x31B4 JUMP JUMPDEST PUSH2 0x32B7 PUSH1 0x40 DUP4 ADD DUP7 PUSH2 0x31FA JUMP JUMPDEST PUSH2 0x32C4 PUSH1 0x60 DUP4 ADD DUP6 PUSH2 0x3242 JUMP JUMPDEST PUSH2 0x32D1 PUSH1 0x80 DUP4 ADD DUP5 PUSH2 0x327B JUMP JUMPDEST SWAP7 SWAP6 POP POP POP POP POP POP JUMP JUMPDEST PUSH0 PUSH1 0x60 DUP3 ADD SWAP1 POP PUSH2 0x32EE PUSH0 DUP4 ADD DUP7 PUSH2 0x2336 JUMP JUMPDEST PUSH2 0x32FB PUSH1 0x20 DUP4 ADD DUP6 PUSH2 0x2336 JUMP JUMPDEST PUSH2 0x3308 PUSH1 0x40 DUP4 ADD DUP5 PUSH2 0x258B JUMP JUMPDEST SWAP5 SWAP4 POP POP POP POP JUMP JUMPDEST PUSH2 0x3319 DUP2 PUSH2 0x2402 JUMP JUMPDEST DUP2 EQ PUSH2 0x3323 JUMPI PUSH0 DUP1 REVERT JUMPDEST POP JUMP JUMPDEST PUSH0 DUP2 MLOAD SWAP1 POP PUSH2 0x3334 DUP2 PUSH2 0x3310 JUMP JUMPDEST SWAP3 SWAP2 POP POP JUMP JUMPDEST PUSH0 PUSH1 0x20 DUP3 DUP5 SUB SLT ISZERO PUSH2 0x334F JUMPI PUSH2 0x334E PUSH2 0x1FD2 JUMP JUMPDEST JUMPDEST PUSH0 PUSH2 0x335C DUP5 DUP3 DUP6 ADD PUSH2 0x3326 JUMP JUMPDEST SWAP2 POP POP SWAP3 SWAP2 POP POP JUMP JUMPDEST PUSH0 PUSH1 0x40 DUP3 ADD SWAP1 POP PUSH2 0x3378 PUSH0 DUP4 ADD DUP6 PUSH2 0x2336 JUMP JUMPDEST PUSH2 0x3385 PUSH1 0x20 DUP4 ADD DUP5 PUSH2 0x258B JUMP JUMPDEST SWAP4 SWAP3 POP POP POP JUMP JUMPDEST PUSH0 DUP2 SWAP1 POP SWAP2 SWAP1 POP JUMP JUMPDEST PUSH0 PUSH2 0x33AF PUSH2 0x33AA PUSH2 0x33A5 DUP5 PUSH2 0x338C JUMP JUMPDEST PUSH2 0x206A JUMP JUMPDEST PUSH2 0x1FDA JUMP JUMPDEST SWAP1 POP SWAP2 SWAP1 POP JUMP JUMPDEST PUSH2 0x33BF DUP2 PUSH2 0x3395 JUMP JUMPDEST DUP3 MSTORE POP POP JUMP JUMPDEST PUSH0 PUSH1 0x40 DUP3 ADD SWAP1 POP PUSH2 0x33D8 PUSH0 DUP4 ADD DUP6 PUSH2 0x2336 JUMP JUMPDEST PUSH2 0x33E5 PUSH1 0x20 DUP4 ADD DUP5 PUSH2 0x33B6 JUMP JUMPDEST SWAP4 SWAP3 POP POP POP JUMP JUMPDEST PUSH0 DUP2 SWAP1 POP SWAP3 SWAP2 POP POP JUMP JUMPDEST PUSH0 PUSH2 0x3400 DUP3 PUSH2 0x241C JUMP JUMPDEST PUSH2 0x340A DUP2 DUP6 PUSH2 0x33EC JUMP JUMPDEST SWAP4 POP PUSH2 0x341A DUP2 DUP6 PUSH1 0x20 DUP7 ADD PUSH2 0x2436 JUMP JUMPDEST DUP1 DUP5 ADD SWAP2 POP POP SWAP3 SWAP2 POP POP JUMP JUMPDEST PUSH0 PUSH2 0x3431 DUP3 DUP5 PUSH2 0x33F6 JUMP JUMPDEST SWAP2 POP DUP2 SWAP1 POP SWAP3 SWAP2 POP POP JUMP INVALID LOG2 PUSH5 0x6970667358 0x22 SLT KECCAK256 0x2D CALLDATASIZE DUP4 MSTORE DUP5 CALLER ISZERO 0xE3 0xB1 STOP SIGNEXTEND CALLDATALOAD 0xC PUSH2 0x9F13 PUSH12 0xD47BE8C8112A7E4B4C627E03 0xE2 SHL SGT PUSH5 0x736F6C6343 STOP ADDMOD AND STOP CALLER "
				},
				"gasEstimates": {
					"creation": {
						"codeDepositCost": "2685200",
						"executionCost": "infinite",
						"totalCost": "infinite"
					},
					"external": {
						"checkUpkeep(bytes)": "infinite",
						"coordinator()": "infinite",
						"createPlan(uint256,uint256)": "infinite",
						"getAllowance(address)": "infinite",
						"link()": "infinite",
						"nextTriggerTime(address)": "2847",
						"nonce()": "2536",
						"oracle()": "infinite",
						"performUpkeep(bytes)": "infinite",
						"plans(address)": "infinite",
						"rawFulfillRandomWords(uint256,uint256[])": "infinite",
						"startPlan()": "infinite",
						"stopPlan()": "8711",
						"triggerPlan(address)": "infinite",
						"uniswapRouter()": "infinite",
						"updatePlan(uint256,uint256)": "infinite",
						"usdt()": "infinite",
						"userRandomRequestId(uint256)": "2893",
						"users(uint256)": "2872"
					},
					"internal": {
						"fulfillRandomWords(uint256,uint256[] memory)": "infinite",
						"requestRandom(address)": "infinite"
					}
				},
				"methodIdentifiers": {
					"checkUpkeep(bytes)": "6e04ff0d",
					"coordinator()": "0a009097",
					"createPlan(uint256,uint256)": "b197df54",
					"getAllowance(address)": "eb5a662e",
					"link()": "1c4695f4",
					"nextTriggerTime(address)": "83ceae8d",
					"nonce()": "affed0e0",
					"oracle()": "7dc0d1d0",
					"performUpkeep(bytes)": "4585e33b",
					"plans(address)": "86d86d84",
					"rawFulfillRandomWords(uint256,uint256[])": "1fe543e3",
					"startPlan()": "a63661a5",
					"stopPlan()": "d930da60",
					"triggerPlan(address)": "c440fa0f",
					"uniswapRouter()": "735de9f7",
					"updatePlan(uint256,uint256)": "00e1801c",
					"usdt()": "2f48ab7d",
					"userRandomRequestId(uint256)": "c966494e",
					"users(uint256)": "365b98b2"
				}
			},
			"storageLayout": {
				"storage": [
					{
						"astId": 2187,
						"contract": "src/DollarCostAveraging.sol:DollarCostAveraging",
						"label": "plans",
						"offset": 0,
						"slot": "0",
						"type": "t_mapping(t_address,t_struct(Plan)2182_storage)"
					},
					{
						"astId": 2191,
						"contract": "src/DollarCostAveraging.sol:DollarCostAveraging",
						"label": "users",
						"offset": 0,
						"slot": "1",
						"type": "t_mapping(t_uint256,t_address)"
					},
					{
						"astId": 2195,
						"contract": "src/DollarCostAveraging.sol:DollarCostAveraging",
						"label": "userRandomRequestId",
						"offset": 0,
						"slot": "2",
						"type": "t_mapping(t_uint256,t_address)"
					},
					{
						"astId": 2199,
						"contract": "src/DollarCostAveraging.sol:DollarCostAveraging",
						"label": "nextTriggerTime",
						"offset": 0,
						"slot": "3",
						"type": "t_mapping(t_address,t_uint256)"
					},
					{
						"astId": 2202,
						"contract": "src/DollarCostAveraging.sol:DollarCostAveraging",
						"label": "usdt",
						"offset": 0,
						"slot": "4",
						"type": "t_contract(ERC20)1022"
					},
					{
						"astId": 2205,
						"contract": "src/DollarCostAveraging.sol:DollarCostAveraging",
						"label": "link",
						"offset": 0,
						"slot": "5",
						"type": "t_contract(LinkTokenInterface)312"
					},
					{
						"astId": 2208,
						"contract": "src/DollarCostAveraging.sol:DollarCostAveraging",
						"label": "coordinator",
						"offset": 0,
						"slot": "6",
						"type": "t_contract(VRFCoordinatorV2Interface)217"
					},
					{
						"astId": 2210,
						"contract": "src/DollarCostAveraging.sol:DollarCostAveraging",
						"label": "subscriptionId",
						"offset": 20,
						"slot": "6",
						"type": "t_uint64"
					},
					{
						"astId": 2213,
						"contract": "src/DollarCostAveraging.sol:DollarCostAveraging",
						"label": "uniswapRouter",
						"offset": 0,
						"slot": "7",
						"type": "t_contract(IUniswapV2Router02)2123"
					},
					{
						"astId": 2216,
						"contract": "src/DollarCostAveraging.sol:DollarCostAveraging",
						"label": "oracle",
						"offset": 0,
						"slot": "8",
						"type": "t_contract(AggregatorV2V3Interface)75"
					},
					{
						"astId": 2218,
						"contract": "src/DollarCostAveraging.sol:DollarCostAveraging",
						"label": "nonce",
						"offset": 0,
						"slot": "9",
						"type": "t_uint256"
					},
					{
						"astId": 2220,
						"contract": "src/DollarCostAveraging.sol:DollarCostAveraging",
						"label": "keyHash",
						"offset": 0,
						"slot": "10",
						"type": "t_bytes32"
					},
					{
						"astId": 2222,
						"contract": "src/DollarCostAveraging.sol:DollarCostAveraging",
						"label": "fee",
						"offset": 0,
						"slot": "11",
						"type": "t_uint256"
					}
				],
				"types": {
					"t_address": {
						"encoding": "inplace",
						"label": "address",
						"numberOfBytes": "20"
					},
					"t_bytes32": {
						"encoding": "inplace",
						"label": "bytes32",
						"numberOfBytes": "32"
					},
					"t_contract(AggregatorV2V3Interface)75": {
						"encoding": "inplace",
						"label": "contract AggregatorV2V3Interface",
						"numberOfBytes": "20"
					},
					"t_contract(ERC20)1022": {
						"encoding": "inplace",
						"label": "contract ERC20",
						"numberOfBytes": "20"
					},
					"t_contract(IUniswapV2Router02)2123": {
						"encoding": "inplace",
						"label": "contract IUniswapV2Router02",
						"numberOfBytes": "20"
					},
					"t_contract(LinkTokenInterface)312": {
						"encoding": "inplace",
						"label": "contract LinkTokenInterface",
						"numberOfBytes": "20"
					},
					"t_contract(VRFCoordinatorV2Interface)217": {
						"encoding": "inplace",
						"label": "contract VRFCoordinatorV2Interface",
						"numberOfBytes": "20"
					},
					"t_mapping(t_address,t_struct(Plan)2182_storage)": {
						"encoding": "mapping",
						"key": "t_address",
						"label": "mapping(address => struct DollarCostAveraging.Plan)",
						"numberOfBytes": "32",
						"value": "t_struct(Plan)2182_storage"
					},
					"t_mapping(t_address,t_uint256)": {
						"encoding": "mapping",
						"key": "t_address",
						"label": "mapping(address => uint256)",
						"numberOfBytes": "32",
						"value": "t_uint256"
					},
					"t_mapping(t_uint256,t_address)": {
						"encoding": "mapping",
						"key": "t_uint256",
						"label": "mapping(uint256 => address)",
						"numberOfBytes": "32",
						"value": "t_address"
					},
					"t_struct(Plan)2182_storage": {
						"encoding": "inplace",
						"label": "struct DollarCostAveraging.Plan",
						"members": [
							{
								"astId": 2171,
								"contract": "src/DollarCostAveraging.sol:DollarCostAveraging",
								"label": "index",
								"offset": 0,
								"slot": "0",
								"type": "t_uint256"
							},
							{
								"astId": 2173,
								"contract": "src/DollarCostAveraging.sol:DollarCostAveraging",
								"label": "frequency",
								"offset": 0,
								"slot": "1",
								"type": "t_uint256"
							},
							{
								"astId": 2175,
								"contract": "src/DollarCostAveraging.sol:DollarCostAveraging",
								"label": "amount",
								"offset": 0,
								"slot": "2",
								"type": "t_uint256"
							},
							{
								"astId": 2177,
								"contract": "src/DollarCostAveraging.sol:DollarCostAveraging",
								"label": "startAt",
								"offset": 0,
								"slot": "3",
								"type": "t_uint256"
							},
							{
								"astId": 2179,
								"contract": "src/DollarCostAveraging.sol:DollarCostAveraging",
								"label": "times",
								"offset": 0,
								"slot": "4",
								"type": "t_uint256"
							},
							{
								"astId": 2181,
								"contract": "src/DollarCostAveraging.sol:DollarCostAveraging",
								"label": "status",
								"offset": 0,
								"slot": "5",
								"type": "t_uint256"
							}
						],
						"numberOfBytes": "192"
					},
					"t_uint256": {
						"encoding": "inplace",
						"label": "uint256",
						"numberOfBytes": "32"
					},
					"t_uint64": {
						"encoding": "inplace",
						"label": "uint64",
						"numberOfBytes": "8"
					}
				}
			},
			"userdoc": {
				"kind": "user",
				"methods": {
					"performUpkeep(bytes)": {
						"notice": "method that is actually executed by the keepers, via the registry. The data returned by the checkUpkeep simulation will be passed into this method to actually be executed."
					}
				},
				"version": 1
			}
		}
	}
}