{
	"src/DollarCostAveraging.sol": {
		"DollarCostAveraging": {
			"abi": [
				{
					"inputs": [
						{
							"internalType": "address",
							"name": "_usdt",
							"type": "address"
						},
						{
							"internalType": "address",
							"name": "_uniswapRouter",
							"type": "address"
						}
					],
					"stateMutability": "nonpayable",
					"type": "constructor"
				},
				{
					"inputs": [
						{
							"internalType": "address",
							"name": "target",
							"type": "address"
						}
					],
					"name": "AddressEmptyCode",
					"type": "error"
				},
				{
					"inputs": [
						{
							"internalType": "address",
							"name": "account",
							"type": "address"
						}
					],
					"name": "AddressInsufficientBalance",
					"type": "error"
				},
				{
					"inputs": [],
					"name": "FailedInnerCall",
					"type": "error"
				},
				{
					"inputs": [
						{
							"internalType": "address",
							"name": "token",
							"type": "address"
						}
					],
					"name": "SafeERC20FailedOperation",
					"type": "error"
				},
				{
					"anonymous": false,
					"inputs": [
						{
							"indexed": true,
							"internalType": "address",
							"name": "user",
							"type": "address"
						},
						{
							"indexed": false,
							"internalType": "uint256",
							"name": "frequency",
							"type": "uint256"
						},
						{
							"indexed": false,
							"internalType": "uint256",
							"name": "amount",
							"type": "uint256"
						}
					],
					"name": "PlanCreated",
					"type": "event"
				},
				{
					"anonymous": false,
					"inputs": [
						{
							"indexed": true,
							"internalType": "address",
							"name": "user",
							"type": "address"
						}
					],
					"name": "PlanStarted",
					"type": "event"
				},
				{
					"anonymous": false,
					"inputs": [
						{
							"indexed": true,
							"internalType": "address",
							"name": "user",
							"type": "address"
						}
					],
					"name": "PlanStoped",
					"type": "event"
				},
				{
					"anonymous": false,
					"inputs": [
						{
							"indexed": true,
							"internalType": "address",
							"name": "user",
							"type": "address"
						},
						{
							"indexed": false,
							"internalType": "uint256",
							"name": "amount",
							"type": "uint256"
						},
						{
							"indexed": false,
							"internalType": "uint256",
							"name": "ethReceived",
							"type": "uint256"
						}
					],
					"name": "PlanTriggered",
					"type": "event"
				},
				{
					"anonymous": false,
					"inputs": [
						{
							"indexed": true,
							"internalType": "address",
							"name": "user",
							"type": "address"
						},
						{
							"indexed": false,
							"internalType": "uint256",
							"name": "frequency",
							"type": "uint256"
						},
						{
							"indexed": false,
							"internalType": "uint256",
							"name": "amount",
							"type": "uint256"
						}
					],
					"name": "PlanUpdated",
					"type": "event"
				},
				{
					"inputs": [
						{
							"internalType": "uint256",
							"name": "frequency",
							"type": "uint256"
						},
						{
							"internalType": "uint256",
							"name": "amount",
							"type": "uint256"
						}
					],
					"name": "createPlan",
					"outputs": [],
					"stateMutability": "nonpayable",
					"type": "function"
				},
				{
					"inputs": [
						{
							"internalType": "address",
							"name": "user",
							"type": "address"
						}
					],
					"name": "getAllowance",
					"outputs": [
						{
							"internalType": "uint256",
							"name": "",
							"type": "uint256"
						}
					],
					"stateMutability": "view",
					"type": "function"
				},
				{
					"inputs": [],
					"name": "nonce",
					"outputs": [
						{
							"internalType": "uint256",
							"name": "",
							"type": "uint256"
						}
					],
					"stateMutability": "view",
					"type": "function"
				},
				{
					"inputs": [
						{
							"internalType": "address",
							"name": "",
							"type": "address"
						}
					],
					"name": "plans",
					"outputs": [
						{
							"internalType": "uint256",
							"name": "index",
							"type": "uint256"
						},
						{
							"internalType": "uint256",
							"name": "frequency",
							"type": "uint256"
						},
						{
							"internalType": "uint256",
							"name": "amount",
							"type": "uint256"
						},
						{
							"internalType": "uint256",
							"name": "status",
							"type": "uint256"
						},
						{
							"internalType": "uint256",
							"name": "lastTriggeredAt",
							"type": "uint256"
						}
					],
					"stateMutability": "view",
					"type": "function"
				},
				{
					"inputs": [],
					"name": "startPlan",
					"outputs": [],
					"stateMutability": "nonpayable",
					"type": "function"
				},
				{
					"inputs": [],
					"name": "stopPlan",
					"outputs": [],
					"stateMutability": "nonpayable",
					"type": "function"
				},
				{
					"inputs": [
						{
							"internalType": "address",
							"name": "user",
							"type": "address"
						}
					],
					"name": "triggerPlan",
					"outputs": [],
					"stateMutability": "nonpayable",
					"type": "function"
				},
				{
					"inputs": [],
					"name": "uniswapRouter",
					"outputs": [
						{
							"internalType": "contract IUniswapV2Router02",
							"name": "",
							"type": "address"
						}
					],
					"stateMutability": "view",
					"type": "function"
				},
				{
					"inputs": [
						{
							"internalType": "uint256",
							"name": "frequency",
							"type": "uint256"
						},
						{
							"internalType": "uint256",
							"name": "amount",
							"type": "uint256"
						}
					],
					"name": "updatePlan",
					"outputs": [],
					"stateMutability": "nonpayable",
					"type": "function"
				},
				{
					"inputs": [],
					"name": "usdt",
					"outputs": [
						{
							"internalType": "contract ERC20",
							"name": "",
							"type": "address"
						}
					],
					"stateMutability": "view",
					"type": "function"
				}
			],
			"devdoc": {
				"errors": {
					"AddressEmptyCode(address)": [
						{
							"details": "There's no code at `target` (it is not a contract)."
						}
					],
					"AddressInsufficientBalance(address)": [
						{
							"details": "The ETH balance of the account is not enough to perform the operation."
						}
					],
					"FailedInnerCall()": [
						{
							"details": "A call to an address target failed. The target may have reverted."
						}
					],
					"SafeERC20FailedOperation(address)": [
						{
							"details": "An operation with an ERC20 token failed."
						}
					]
				},
				"kind": "dev",
				"methods": {},
				"version": 1
			},
			"evm": {
				"assembly": "    /* \"src/DollarCostAveraging.sol\":231:3855  contract DollarCostAveraging {... */\n  mstore(0x40, 0x80)\n    /* \"src/DollarCostAveraging.sol\":873:1029  constructor(address _usdt, address _uniswapRouter) {... */\n  callvalue\n  dup1\n  iszero\n  tag_1\n  jumpi\n  0x00\n  dup1\n  revert\ntag_1:\n  pop\n  mload(0x40)\n  sub(codesize, bytecodeSize)\n  dup1\n  bytecodeSize\n  dup4\n  codecopy\n  dup2\n  dup2\n  add\n  0x40\n  mstore\n  dup2\n  add\n  swap1\n  tag_2\n  swap2\n  swap1\n  tag_3\n  jump\t// in\ntag_2:\n    /* \"src/DollarCostAveraging.sol\":944:949  _usdt */\n  dup2\n    /* \"src/DollarCostAveraging.sol\":931:935  usdt */\n  0x02\n  0x00\n    /* \"src/DollarCostAveraging.sol\":931:950  usdt = ERC20(_usdt) */\n  0x0100\n  exp\n  dup2\n  sload\n  dup2\n  0xffffffffffffffffffffffffffffffffffffffff\n  mul\n  not\n  and\n  swap1\n  dup4\n  0xffffffffffffffffffffffffffffffffffffffff\n  and\n  mul\n  or\n  swap1\n  sstore\n  pop\n    /* \"src/DollarCostAveraging.sol\":992:1006  _uniswapRouter */\n  dup1\n    /* \"src/DollarCostAveraging.sol\":957:970  uniswapRouter */\n  0x03\n  0x00\n    /* \"src/DollarCostAveraging.sol\":957:1007  uniswapRouter = IUniswapV2Router02(_uniswapRouter) */\n  0x0100\n  exp\n  dup2\n  sload\n  dup2\n  0xffffffffffffffffffffffffffffffffffffffff\n  mul\n  not\n  and\n  swap1\n  dup4\n  0xffffffffffffffffffffffffffffffffffffffff\n  and\n  mul\n  or\n  swap1\n  sstore\n  pop\n    /* \"src/DollarCostAveraging.sol\":1022:1023  1 */\n  0x01\n    /* \"src/DollarCostAveraging.sol\":1014:1019  nonce */\n  0x00\n    /* \"src/DollarCostAveraging.sol\":1014:1023  nonce = 1 */\n  dup2\n  swap1\n  sstore\n  pop\n    /* \"src/DollarCostAveraging.sol\":873:1029  constructor(address _usdt, address _uniswapRouter) {... */\n  pop\n  pop\n    /* \"src/DollarCostAveraging.sol\":231:3855  contract DollarCostAveraging {... */\n  jump(tag_6)\n    /* \"#utility.yul\":88:205   */\ntag_8:\n    /* \"#utility.yul\":197:198   */\n  0x00\n    /* \"#utility.yul\":194:195   */\n  dup1\n    /* \"#utility.yul\":187:199   */\n  revert\n    /* \"#utility.yul\":334:460   */\ntag_10:\n    /* \"#utility.yul\":371:378   */\n  0x00\n    /* \"#utility.yul\":411:453   */\n  0xffffffffffffffffffffffffffffffffffffffff\n    /* \"#utility.yul\":404:409   */\n  dup3\n    /* \"#utility.yul\":400:454   */\n  and\n    /* \"#utility.yul\":389:454   */\n  swap1\n  pop\n    /* \"#utility.yul\":334:460   */\n  swap2\n  swap1\n  pop\n  jump\t// out\n    /* \"#utility.yul\":466:562   */\ntag_11:\n    /* \"#utility.yul\":503:510   */\n  0x00\n    /* \"#utility.yul\":532:556   */\n  tag_20\n    /* \"#utility.yul\":550:555   */\n  dup3\n    /* \"#utility.yul\":532:556   */\n  tag_10\n  jump\t// in\ntag_20:\n    /* \"#utility.yul\":521:556   */\n  swap1\n  pop\n    /* \"#utility.yul\":466:562   */\n  swap2\n  swap1\n  pop\n  jump\t// out\n    /* \"#utility.yul\":568:690   */\ntag_12:\n    /* \"#utility.yul\":641:665   */\n  tag_22\n    /* \"#utility.yul\":659:664   */\n  dup2\n    /* \"#utility.yul\":641:665   */\n  tag_11\n  jump\t// in\ntag_22:\n    /* \"#utility.yul\":634:639   */\n  dup2\n    /* \"#utility.yul\":631:666   */\n  eq\n    /* \"#utility.yul\":621:684   */\n  tag_23\n  jumpi\n    /* \"#utility.yul\":680:681   */\n  0x00\n    /* \"#utility.yul\":677:678   */\n  dup1\n    /* \"#utility.yul\":670:682   */\n  revert\n    /* \"#utility.yul\":621:684   */\ntag_23:\n    /* \"#utility.yul\":568:690   */\n  pop\n  jump\t// out\n    /* \"#utility.yul\":696:839   */\ntag_13:\n    /* \"#utility.yul\":753:758   */\n  0x00\n    /* \"#utility.yul\":784:790   */\n  dup2\n    /* \"#utility.yul\":778:791   */\n  mload\n    /* \"#utility.yul\":769:791   */\n  swap1\n  pop\n    /* \"#utility.yul\":800:833   */\n  tag_25\n    /* \"#utility.yul\":827:832   */\n  dup2\n    /* \"#utility.yul\":800:833   */\n  tag_12\n  jump\t// in\ntag_25:\n    /* \"#utility.yul\":696:839   */\n  swap3\n  swap2\n  pop\n  pop\n  jump\t// out\n    /* \"#utility.yul\":845:1352   */\ntag_3:\n    /* \"#utility.yul\":924:930   */\n  0x00\n    /* \"#utility.yul\":932:938   */\n  dup1\n    /* \"#utility.yul\":981:983   */\n  0x40\n    /* \"#utility.yul\":969:978   */\n  dup4\n    /* \"#utility.yul\":960:967   */\n  dup6\n    /* \"#utility.yul\":956:979   */\n  sub\n    /* \"#utility.yul\":952:984   */\n  slt\n    /* \"#utility.yul\":949:1068   */\n  iszero\n  tag_27\n  jumpi\n    /* \"#utility.yul\":987:1066   */\n  tag_28\n  tag_8\n  jump\t// in\ntag_28:\n    /* \"#utility.yul\":949:1068   */\ntag_27:\n    /* \"#utility.yul\":1107:1108   */\n  0x00\n    /* \"#utility.yul\":1132:1196   */\n  tag_29\n    /* \"#utility.yul\":1188:1195   */\n  dup6\n    /* \"#utility.yul\":1179:1185   */\n  dup3\n    /* \"#utility.yul\":1168:1177   */\n  dup7\n    /* \"#utility.yul\":1164:1186   */\n  add\n    /* \"#utility.yul\":1132:1196   */\n  tag_13\n  jump\t// in\ntag_29:\n    /* \"#utility.yul\":1122:1196   */\n  swap3\n  pop\n    /* \"#utility.yul\":1078:1206   */\n  pop\n    /* \"#utility.yul\":1245:1247   */\n  0x20\n    /* \"#utility.yul\":1271:1335   */\n  tag_30\n    /* \"#utility.yul\":1327:1334   */\n  dup6\n    /* \"#utility.yul\":1318:1324   */\n  dup3\n    /* \"#utility.yul\":1307:1316   */\n  dup7\n    /* \"#utility.yul\":1303:1325   */\n  add\n    /* \"#utility.yul\":1271:1335   */\n  tag_13\n  jump\t// in\ntag_30:\n    /* \"#utility.yul\":1261:1335   */\n  swap2\n  pop\n    /* \"#utility.yul\":1216:1345   */\n  pop\n    /* \"#utility.yul\":845:1352   */\n  swap3\n  pop\n  swap3\n  swap1\n  pop\n  jump\t// out\n    /* \"src/DollarCostAveraging.sol\":231:3855  contract DollarCostAveraging {... */\ntag_6:\n  dataSize(sub_0)\n  dup1\n  dataOffset(sub_0)\n  0x00\n  codecopy\n  0x00\n  return\nstop\n\nsub_0: assembly {\n        /* \"src/DollarCostAveraging.sol\":231:3855  contract DollarCostAveraging {... */\n      mstore(0x40, 0x80)\n      callvalue\n      dup1\n      iszero\n      tag_1\n      jumpi\n      0x00\n      dup1\n      revert\n    tag_1:\n      pop\n      jumpi(tag_2, lt(calldatasize, 0x04))\n      shr(0xe0, calldataload(0x00))\n      dup1\n      0xaffed0e0\n      gt\n      tag_13\n      jumpi\n      dup1\n      0xaffed0e0\n      eq\n      tag_8\n      jumpi\n      dup1\n      0xb197df54\n      eq\n      tag_9\n      jumpi\n      dup1\n      0xc440fa0f\n      eq\n      tag_10\n      jumpi\n      dup1\n      0xd930da60\n      eq\n      tag_11\n      jumpi\n      dup1\n      0xeb5a662e\n      eq\n      tag_12\n      jumpi\n      jump(tag_2)\n    tag_13:\n      dup1\n      0xe1801c\n      eq\n      tag_3\n      jumpi\n      dup1\n      0x2f48ab7d\n      eq\n      tag_4\n      jumpi\n      dup1\n      0x735de9f7\n      eq\n      tag_5\n      jumpi\n      dup1\n      0x86d86d84\n      eq\n      tag_6\n      jumpi\n      dup1\n      0xa63661a5\n      eq\n      tag_7\n      jumpi\n    tag_2:\n      0x00\n      dup1\n      revert\n        /* \"src/DollarCostAveraging.sol\":1658:2054  function updatePlan(uint256 frequency, uint256 amount) public {... */\n    tag_3:\n      tag_14\n      0x04\n      dup1\n      calldatasize\n      sub\n      dup2\n      add\n      swap1\n      tag_15\n      swap2\n      swap1\n      tag_16\n      jump\t// in\n    tag_15:\n      tag_17\n      jump\t// in\n    tag_14:\n      stop\n        /* \"src/DollarCostAveraging.sol\":805:822  ERC20 public usdt */\n    tag_4:\n      tag_18\n      tag_19\n      jump\t// in\n    tag_18:\n      mload(0x40)\n      tag_20\n      swap2\n      swap1\n      tag_21\n      jump\t// in\n    tag_20:\n      mload(0x40)\n      dup1\n      swap2\n      sub\n      swap1\n      return\n        /* \"src/DollarCostAveraging.sol\":827:866  IUniswapV2Router02 public uniswapRouter */\n    tag_5:\n      tag_22\n      tag_23\n      jump\t// in\n    tag_22:\n      mload(0x40)\n      tag_24\n      swap2\n      swap1\n      tag_25\n      jump\t// in\n    tag_24:\n      mload(0x40)\n      dup1\n      swap2\n      sub\n      swap1\n      return\n        /* \"src/DollarCostAveraging.sol\":761:798  mapping(address => Plan) public plans */\n    tag_6:\n      tag_26\n      0x04\n      dup1\n      calldatasize\n      sub\n      dup2\n      add\n      swap1\n      tag_27\n      swap2\n      swap1\n      tag_28\n      jump\t// in\n    tag_27:\n      tag_29\n      jump\t// in\n    tag_26:\n      mload(0x40)\n      tag_30\n      swap6\n      swap5\n      swap4\n      swap3\n      swap2\n      swap1\n      tag_31\n      jump\t// in\n    tag_30:\n      mload(0x40)\n      dup1\n      swap2\n      sub\n      swap1\n      return\n        /* \"src/DollarCostAveraging.sol\":2060:2419  function startPlan() public {    ... */\n    tag_7:\n      tag_32\n      tag_33\n      jump\t// in\n    tag_32:\n      stop\n        /* \"src/DollarCostAveraging.sol\":597:617  uint256 public nonce */\n    tag_8:\n      tag_34\n      tag_35\n      jump\t// in\n    tag_34:\n      mload(0x40)\n      tag_36\n      swap2\n      swap1\n      tag_37\n      jump\t// in\n    tag_36:\n      mload(0x40)\n      dup1\n      swap2\n      sub\n      swap1\n      return\n        /* \"src/DollarCostAveraging.sol\":1162:1652  function createPlan(uint256 frequency, uint256 amount) public {... */\n    tag_9:\n      tag_38\n      0x04\n      dup1\n      calldatasize\n      sub\n      dup2\n      add\n      swap1\n      tag_39\n      swap2\n      swap1\n      tag_16\n      jump\t// in\n    tag_39:\n      tag_40\n      jump\t// in\n    tag_38:\n      stop\n        /* \"src/DollarCostAveraging.sol\":2599:3852  function triggerPlan(address user) public {... */\n    tag_10:\n      tag_41\n      0x04\n      dup1\n      calldatasize\n      sub\n      dup2\n      add\n      swap1\n      tag_42\n      swap2\n      swap1\n      tag_28\n      jump\t// in\n    tag_42:\n      tag_43\n      jump\t// in\n    tag_41:\n      stop\n        /* \"src/DollarCostAveraging.sol\":2425:2593  function stopPlan() public {... */\n    tag_11:\n      tag_44\n      tag_45\n      jump\t// in\n    tag_44:\n      stop\n        /* \"src/DollarCostAveraging.sol\":1035:1156  function getAllowance(address user) public view returns (uint256) {... */\n    tag_12:\n      tag_46\n      0x04\n      dup1\n      calldatasize\n      sub\n      dup2\n      add\n      swap1\n      tag_47\n      swap2\n      swap1\n      tag_28\n      jump\t// in\n    tag_47:\n      tag_48\n      jump\t// in\n    tag_46:\n      mload(0x40)\n      tag_49\n      swap2\n      swap1\n      tag_37\n      jump\t// in\n    tag_49:\n      mload(0x40)\n      dup1\n      swap2\n      sub\n      swap1\n      return\n        /* \"src/DollarCostAveraging.sol\":1658:2054  function updatePlan(uint256 frequency, uint256 amount) public {... */\n    tag_17:\n        /* \"src/DollarCostAveraging.sol\":1761:1762  0 */\n      0x00\n        /* \"src/DollarCostAveraging.sol\":1735:1740  plans */\n      0x01\n        /* \"src/DollarCostAveraging.sol\":1735:1752  plans[msg.sender] */\n      0x00\n        /* \"src/DollarCostAveraging.sol\":1741:1751  msg.sender */\n      caller\n        /* \"src/DollarCostAveraging.sol\":1735:1752  plans[msg.sender] */\n      0xffffffffffffffffffffffffffffffffffffffff\n      and\n      0xffffffffffffffffffffffffffffffffffffffff\n      and\n      dup2\n      mstore\n      0x20\n      add\n      swap1\n      dup2\n      mstore\n      0x20\n      add\n      0x00\n      keccak256\n        /* \"src/DollarCostAveraging.sol\":1735:1758  plans[msg.sender].index */\n      0x00\n      add\n      sload\n        /* \"src/DollarCostAveraging.sol\":1735:1762  plans[msg.sender].index > 0 */\n      gt\n        /* \"src/DollarCostAveraging.sol\":1727:1780  require(plans[msg.sender].index > 0, \"Plan is exist\") */\n      tag_51\n      jumpi\n      mload(0x40)\n      0x08c379a000000000000000000000000000000000000000000000000000000000\n      dup2\n      mstore\n      0x04\n      add\n      tag_52\n      swap1\n      tag_53\n      jump\t// in\n    tag_52:\n      mload(0x40)\n      dup1\n      swap2\n      sub\n      swap1\n      revert\n    tag_51:\n        /* \"src/DollarCostAveraging.sol\":1807:1808  0 */\n      0x00\n        /* \"src/DollarCostAveraging.sol\":1795:1804  frequency */\n      dup3\n        /* \"src/DollarCostAveraging.sol\":1795:1808  frequency > 0 */\n      gt\n        /* \"src/DollarCostAveraging.sol\":1787:1845  require(frequency > 0, \"Frequency must be greater than 0\") */\n      tag_54\n      jumpi\n      mload(0x40)\n      0x08c379a000000000000000000000000000000000000000000000000000000000\n      dup2\n      mstore\n      0x04\n      add\n      tag_55\n      swap1\n      tag_56\n      jump\t// in\n    tag_55:\n      mload(0x40)\n      dup1\n      swap2\n      sub\n      swap1\n      revert\n    tag_54:\n        /* \"src/DollarCostAveraging.sol\":1869:1870  0 */\n      0x00\n        /* \"src/DollarCostAveraging.sol\":1860:1866  amount */\n      dup2\n        /* \"src/DollarCostAveraging.sol\":1860:1870  amount > 0 */\n      gt\n        /* \"src/DollarCostAveraging.sol\":1852:1904  require(amount > 0, \"Amount must be greater than 0\") */\n      tag_57\n      jumpi\n      mload(0x40)\n      0x08c379a000000000000000000000000000000000000000000000000000000000\n      dup2\n      mstore\n      0x04\n      add\n      tag_58\n      swap1\n      tag_59\n      jump\t// in\n    tag_58:\n      mload(0x40)\n      dup1\n      swap2\n      sub\n      swap1\n      revert\n    tag_57:\n        /* \"src/DollarCostAveraging.sol\":1940:1946  amount */\n      dup1\n        /* \"src/DollarCostAveraging.sol\":1913:1918  plans */\n      0x01\n        /* \"src/DollarCostAveraging.sol\":1913:1930  plans[msg.sender] */\n      0x00\n        /* \"src/DollarCostAveraging.sol\":1919:1929  msg.sender */\n      caller\n        /* \"src/DollarCostAveraging.sol\":1913:1930  plans[msg.sender] */\n      0xffffffffffffffffffffffffffffffffffffffff\n      and\n      0xffffffffffffffffffffffffffffffffffffffff\n      and\n      dup2\n      mstore\n      0x20\n      add\n      swap1\n      dup2\n      mstore\n      0x20\n      add\n      0x00\n      keccak256\n        /* \"src/DollarCostAveraging.sol\":1913:1937  plans[msg.sender].amount */\n      0x02\n      add\n        /* \"src/DollarCostAveraging.sol\":1913:1946  plans[msg.sender].amount = amount */\n      dup2\n      swap1\n      sstore\n      pop\n        /* \"src/DollarCostAveraging.sol\":1983:1992  frequency */\n      dup2\n        /* \"src/DollarCostAveraging.sol\":1953:1958  plans */\n      0x01\n        /* \"src/DollarCostAveraging.sol\":1953:1970  plans[msg.sender] */\n      0x00\n        /* \"src/DollarCostAveraging.sol\":1959:1969  msg.sender */\n      caller\n        /* \"src/DollarCostAveraging.sol\":1953:1970  plans[msg.sender] */\n      0xffffffffffffffffffffffffffffffffffffffff\n      and\n      0xffffffffffffffffffffffffffffffffffffffff\n      and\n      dup2\n      mstore\n      0x20\n      add\n      swap1\n      dup2\n      mstore\n      0x20\n      add\n      0x00\n      keccak256\n        /* \"src/DollarCostAveraging.sol\":1953:1980  plans[msg.sender].frequency */\n      0x01\n      add\n        /* \"src/DollarCostAveraging.sol\":1953:1992  plans[msg.sender].frequency = frequency */\n      dup2\n      swap1\n      sstore\n      pop\n        /* \"src/DollarCostAveraging.sol\":2018:2028  msg.sender */\n      caller\n        /* \"src/DollarCostAveraging.sol\":2006:2048  PlanUpdated(msg.sender, frequency, amount) */\n      0xffffffffffffffffffffffffffffffffffffffff\n      and\n      0xc8108639f5e0627bac90449607e60d516a5082452e397808a067b57f755515fc\n        /* \"src/DollarCostAveraging.sol\":2030:2039  frequency */\n      dup4\n        /* \"src/DollarCostAveraging.sol\":2041:2047  amount */\n      dup4\n        /* \"src/DollarCostAveraging.sol\":2006:2048  PlanUpdated(msg.sender, frequency, amount) */\n      mload(0x40)\n      tag_60\n      swap3\n      swap2\n      swap1\n      tag_61\n      jump\t// in\n    tag_60:\n      mload(0x40)\n      dup1\n      swap2\n      sub\n      swap1\n      log2\n        /* \"src/DollarCostAveraging.sol\":1658:2054  function updatePlan(uint256 frequency, uint256 amount) public {... */\n      pop\n      pop\n      jump\t// out\n        /* \"src/DollarCostAveraging.sol\":805:822  ERC20 public usdt */\n    tag_19:\n      0x02\n      0x00\n      swap1\n      sload\n      swap1\n      0x0100\n      exp\n      swap1\n      div\n      0xffffffffffffffffffffffffffffffffffffffff\n      and\n      dup2\n      jump\t// out\n        /* \"src/DollarCostAveraging.sol\":827:866  IUniswapV2Router02 public uniswapRouter */\n    tag_23:\n      0x03\n      0x00\n      swap1\n      sload\n      swap1\n      0x0100\n      exp\n      swap1\n      div\n      0xffffffffffffffffffffffffffffffffffffffff\n      and\n      dup2\n      jump\t// out\n        /* \"src/DollarCostAveraging.sol\":761:798  mapping(address => Plan) public plans */\n    tag_29:\n      mstore(0x20, 0x01)\n      dup1\n      0x00\n      mstore\n      keccak256(0x00, 0x40)\n      0x00\n      swap2\n      pop\n      swap1\n      pop\n      dup1\n      0x00\n      add\n      sload\n      swap1\n      dup1\n      0x01\n      add\n      sload\n      swap1\n      dup1\n      0x02\n      add\n      sload\n      swap1\n      dup1\n      0x03\n      add\n      sload\n      swap1\n      dup1\n      0x04\n      add\n      sload\n      swap1\n      pop\n      dup6\n      jump\t// out\n        /* \"src/DollarCostAveraging.sol\":2060:2419  function startPlan() public {    ... */\n    tag_33:\n        /* \"src/DollarCostAveraging.sol\":2133:2134  0 */\n      0x00\n        /* \"src/DollarCostAveraging.sol\":2107:2112  plans */\n      0x01\n        /* \"src/DollarCostAveraging.sol\":2107:2124  plans[msg.sender] */\n      0x00\n        /* \"src/DollarCostAveraging.sol\":2113:2123  msg.sender */\n      caller\n        /* \"src/DollarCostAveraging.sol\":2107:2124  plans[msg.sender] */\n      0xffffffffffffffffffffffffffffffffffffffff\n      and\n      0xffffffffffffffffffffffffffffffffffffffff\n      and\n      dup2\n      mstore\n      0x20\n      add\n      swap1\n      dup2\n      mstore\n      0x20\n      add\n      0x00\n      keccak256\n        /* \"src/DollarCostAveraging.sol\":2107:2130  plans[msg.sender].index */\n      0x00\n      add\n      sload\n        /* \"src/DollarCostAveraging.sol\":2107:2134  plans[msg.sender].index > 0 */\n      gt\n        /* \"src/DollarCostAveraging.sol\":2099:2156  require(plans[msg.sender].index > 0, \"Plan is not exist\") */\n      tag_63\n      jumpi\n      mload(0x40)\n      0x08c379a000000000000000000000000000000000000000000000000000000000\n      dup2\n      mstore\n      0x04\n      add\n      tag_64\n      swap1\n      tag_65\n      jump\t// in\n    tag_64:\n      mload(0x40)\n      dup1\n      swap2\n      sub\n      swap1\n      revert\n    tag_63:\n        /* \"src/DollarCostAveraging.sol\":2198:2199  0 */\n      0x00\n        /* \"src/DollarCostAveraging.sol\":2171:2176  plans */\n      0x01\n        /* \"src/DollarCostAveraging.sol\":2171:2188  plans[msg.sender] */\n      0x00\n        /* \"src/DollarCostAveraging.sol\":2177:2187  msg.sender */\n      caller\n        /* \"src/DollarCostAveraging.sol\":2171:2188  plans[msg.sender] */\n      0xffffffffffffffffffffffffffffffffffffffff\n      and\n      0xffffffffffffffffffffffffffffffffffffffff\n      and\n      dup2\n      mstore\n      0x20\n      add\n      swap1\n      dup2\n      mstore\n      0x20\n      add\n      0x00\n      keccak256\n        /* \"src/DollarCostAveraging.sol\":2171:2195  plans[msg.sender].amount */\n      0x02\n      add\n      sload\n        /* \"src/DollarCostAveraging.sol\":2171:2199  plans[msg.sender].amount > 0 */\n      gt\n        /* \"src/DollarCostAveraging.sol\":2163:2233  require(plans[msg.sender].amount > 0, \"Amount must be greater than 0\") */\n      tag_66\n      jumpi\n      mload(0x40)\n      0x08c379a000000000000000000000000000000000000000000000000000000000\n      dup2\n      mstore\n      0x04\n      add\n      tag_67\n      swap1\n      tag_59\n      jump\t// in\n    tag_67:\n      mload(0x40)\n      dup1\n      swap2\n      sub\n      swap1\n      revert\n    tag_66:\n        /* \"src/DollarCostAveraging.sol\":2275:2280  plans */\n      0x01\n        /* \"src/DollarCostAveraging.sol\":2275:2292  plans[msg.sender] */\n      0x00\n        /* \"src/DollarCostAveraging.sol\":2281:2291  msg.sender */\n      caller\n        /* \"src/DollarCostAveraging.sol\":2275:2292  plans[msg.sender] */\n      0xffffffffffffffffffffffffffffffffffffffff\n      and\n      0xffffffffffffffffffffffffffffffffffffffff\n      and\n      dup2\n      mstore\n      0x20\n      add\n      swap1\n      dup2\n      mstore\n      0x20\n      add\n      0x00\n      keccak256\n        /* \"src/DollarCostAveraging.sol\":2275:2299  plans[msg.sender].amount */\n      0x02\n      add\n      sload\n        /* \"src/DollarCostAveraging.sol\":2248:2272  getAllowance(msg.sender) */\n      tag_68\n        /* \"src/DollarCostAveraging.sol\":2261:2271  msg.sender */\n      caller\n        /* \"src/DollarCostAveraging.sol\":2248:2260  getAllowance */\n      tag_48\n        /* \"src/DollarCostAveraging.sol\":2248:2272  getAllowance(msg.sender) */\n      jump\t// in\n    tag_68:\n        /* \"src/DollarCostAveraging.sol\":2248:2299  getAllowance(msg.sender) > plans[msg.sender].amount */\n      gt\n        /* \"src/DollarCostAveraging.sol\":2240:2337  require(getAllowance(msg.sender) > plans[msg.sender].amount, \"Total must be greater than amount\") */\n      tag_69\n      jumpi\n      mload(0x40)\n      0x08c379a000000000000000000000000000000000000000000000000000000000\n      dup2\n      mstore\n      0x04\n      add\n      tag_70\n      swap1\n      tag_71\n      jump\t// in\n    tag_70:\n      mload(0x40)\n      dup1\n      swap2\n      sub\n      swap1\n      revert\n    tag_69:\n        /* \"src/DollarCostAveraging.sol\":2377:2378  1 */\n      0x01\n        /* \"src/DollarCostAveraging.sol\":2350:2355  plans */\n      dup1\n        /* \"src/DollarCostAveraging.sol\":2350:2367  plans[msg.sender] */\n      0x00\n        /* \"src/DollarCostAveraging.sol\":2356:2366  msg.sender */\n      caller\n        /* \"src/DollarCostAveraging.sol\":2350:2367  plans[msg.sender] */\n      0xffffffffffffffffffffffffffffffffffffffff\n      and\n      0xffffffffffffffffffffffffffffffffffffffff\n      and\n      dup2\n      mstore\n      0x20\n      add\n      swap1\n      dup2\n      mstore\n      0x20\n      add\n      0x00\n      keccak256\n        /* \"src/DollarCostAveraging.sol\":2350:2374  plans[msg.sender].status */\n      0x03\n      add\n        /* \"src/DollarCostAveraging.sol\":2350:2378  plans[msg.sender].status = 1 */\n      dup2\n      swap1\n      sstore\n      pop\n        /* \"src/DollarCostAveraging.sol\":2402:2412  msg.sender */\n      caller\n        /* \"src/DollarCostAveraging.sol\":2390:2413  PlanStarted(msg.sender) */\n      0xffffffffffffffffffffffffffffffffffffffff\n      and\n      0xa806cf17be1fb3cff26c4a6a46b735ddbf2ac07c138bdedb6d2ace798a2cfd40\n      mload(0x40)\n      mload(0x40)\n      dup1\n      swap2\n      sub\n      swap1\n      log2\n        /* \"src/DollarCostAveraging.sol\":2060:2419  function startPlan() public {    ... */\n      jump\t// out\n        /* \"src/DollarCostAveraging.sol\":597:617  uint256 public nonce */\n    tag_35:\n      sload(0x00)\n      dup2\n      jump\t// out\n        /* \"src/DollarCostAveraging.sol\":1162:1652  function createPlan(uint256 frequency, uint256 amount) public {... */\n    tag_40:\n        /* \"src/DollarCostAveraging.sol\":1266:1267  0 */\n      0x00\n        /* \"src/DollarCostAveraging.sol\":1239:1244  plans */\n      0x01\n        /* \"src/DollarCostAveraging.sol\":1239:1256  plans[msg.sender] */\n      0x00\n        /* \"src/DollarCostAveraging.sol\":1245:1255  msg.sender */\n      caller\n        /* \"src/DollarCostAveraging.sol\":1239:1256  plans[msg.sender] */\n      0xffffffffffffffffffffffffffffffffffffffff\n      and\n      0xffffffffffffffffffffffffffffffffffffffff\n      and\n      dup2\n      mstore\n      0x20\n      add\n      swap1\n      dup2\n      mstore\n      0x20\n      add\n      0x00\n      keccak256\n        /* \"src/DollarCostAveraging.sol\":1239:1262  plans[msg.sender].index */\n      0x00\n      add\n      sload\n        /* \"src/DollarCostAveraging.sol\":1239:1267  plans[msg.sender].index == 0 */\n      eq\n        /* \"src/DollarCostAveraging.sol\":1231:1285  require(plans[msg.sender].index == 0, \"Plan is exist\") */\n      tag_73\n      jumpi\n      mload(0x40)\n      0x08c379a000000000000000000000000000000000000000000000000000000000\n      dup2\n      mstore\n      0x04\n      add\n      tag_74\n      swap1\n      tag_53\n      jump\t// in\n    tag_74:\n      mload(0x40)\n      dup1\n      swap2\n      sub\n      swap1\n      revert\n    tag_73:\n        /* \"src/DollarCostAveraging.sol\":1312:1313  0 */\n      0x00\n        /* \"src/DollarCostAveraging.sol\":1300:1309  frequency */\n      dup3\n        /* \"src/DollarCostAveraging.sol\":1300:1313  frequency > 0 */\n      gt\n        /* \"src/DollarCostAveraging.sol\":1292:1350  require(frequency > 0, \"Frequency must be greater than 0\") */\n      tag_75\n      jumpi\n      mload(0x40)\n      0x08c379a000000000000000000000000000000000000000000000000000000000\n      dup2\n      mstore\n      0x04\n      add\n      tag_76\n      swap1\n      tag_56\n      jump\t// in\n    tag_76:\n      mload(0x40)\n      dup1\n      swap2\n      sub\n      swap1\n      revert\n    tag_75:\n        /* \"src/DollarCostAveraging.sol\":1374:1375  0 */\n      0x00\n        /* \"src/DollarCostAveraging.sol\":1365:1371  amount */\n      dup2\n        /* \"src/DollarCostAveraging.sol\":1365:1375  amount > 0 */\n      gt\n        /* \"src/DollarCostAveraging.sol\":1357:1409  require(amount > 0, \"Amount must be greater than 0\") */\n      tag_77\n      jumpi\n      mload(0x40)\n      0x08c379a000000000000000000000000000000000000000000000000000000000\n      dup2\n      mstore\n      0x04\n      add\n      tag_78\n      swap1\n      tag_59\n      jump\t// in\n    tag_78:\n      mload(0x40)\n      dup1\n      swap2\n      sub\n      swap1\n      revert\n    tag_77:\n        /* \"src/DollarCostAveraging.sol\":1438:1571  Plan({... */\n      mload(0x40)\n      dup1\n      0xa0\n      add\n      0x40\n      mstore\n      dup1\n        /* \"src/DollarCostAveraging.sol\":1459:1464  nonce */\n      0x00\n      dup1\n        /* \"src/DollarCostAveraging.sol\":1459:1466  nonce++ */\n      dup2\n      sload\n      dup1\n      swap3\n      swap2\n      swap1\n      tag_79\n      swap1\n      tag_80\n      jump\t// in\n    tag_79:\n      swap2\n      swap1\n      pop\n      sstore\n        /* \"src/DollarCostAveraging.sol\":1438:1571  Plan({... */\n      dup2\n      mstore\n      0x20\n      add\n        /* \"src/DollarCostAveraging.sol\":1486:1495  frequency */\n      dup4\n        /* \"src/DollarCostAveraging.sol\":1438:1571  Plan({... */\n      dup2\n      mstore\n      0x20\n      add\n        /* \"src/DollarCostAveraging.sol\":1512:1518  amount */\n      dup3\n        /* \"src/DollarCostAveraging.sol\":1438:1571  Plan({... */\n      dup2\n      mstore\n      0x20\n      add\n        /* \"src/DollarCostAveraging.sol\":1535:1536  0 */\n      0x00\n        /* \"src/DollarCostAveraging.sol\":1438:1571  Plan({... */\n      dup2\n      mstore\n      0x20\n      add\n        /* \"src/DollarCostAveraging.sol\":1562:1563  0 */\n      0x00\n        /* \"src/DollarCostAveraging.sol\":1438:1571  Plan({... */\n      dup2\n      mstore\n      pop\n        /* \"src/DollarCostAveraging.sol\":1418:1423  plans */\n      0x01\n        /* \"src/DollarCostAveraging.sol\":1418:1435  plans[msg.sender] */\n      0x00\n        /* \"src/DollarCostAveraging.sol\":1424:1434  msg.sender */\n      caller\n        /* \"src/DollarCostAveraging.sol\":1418:1435  plans[msg.sender] */\n      0xffffffffffffffffffffffffffffffffffffffff\n      and\n      0xffffffffffffffffffffffffffffffffffffffff\n      and\n      dup2\n      mstore\n      0x20\n      add\n      swap1\n      dup2\n      mstore\n      0x20\n      add\n      0x00\n      keccak256\n        /* \"src/DollarCostAveraging.sol\":1418:1571  plans[msg.sender] = Plan({... */\n      0x00\n      dup3\n      add\n      mload\n      dup2\n      0x00\n      add\n      sstore\n      0x20\n      dup3\n      add\n      mload\n      dup2\n      0x01\n      add\n      sstore\n      0x40\n      dup3\n      add\n      mload\n      dup2\n      0x02\n      add\n      sstore\n      0x60\n      dup3\n      add\n      mload\n      dup2\n      0x03\n      add\n      sstore\n      0x80\n      dup3\n      add\n      mload\n      dup2\n      0x04\n      add\n      sstore\n      swap1\n      pop\n      pop\n        /* \"src/DollarCostAveraging.sol\":1595:1605  msg.sender */\n      caller\n        /* \"src/DollarCostAveraging.sol\":1583:1625  PlanCreated(msg.sender, frequency, amount) */\n      0xffffffffffffffffffffffffffffffffffffffff\n      and\n      0x89d3f1cdfad4e5c26535ac23dc61cf9e975667801747518f01b1b653545d736a\n        /* \"src/DollarCostAveraging.sol\":1607:1616  frequency */\n      dup4\n        /* \"src/DollarCostAveraging.sol\":1618:1624  amount */\n      dup4\n        /* \"src/DollarCostAveraging.sol\":1583:1625  PlanCreated(msg.sender, frequency, amount) */\n      mload(0x40)\n      tag_81\n      swap3\n      swap2\n      swap1\n      tag_61\n      jump\t// in\n    tag_81:\n      mload(0x40)\n      dup1\n      swap2\n      sub\n      swap1\n      log2\n        /* \"src/DollarCostAveraging.sol\":1635:1646  startPlan() */\n      tag_82\n        /* \"src/DollarCostAveraging.sol\":1635:1644  startPlan */\n      tag_33\n        /* \"src/DollarCostAveraging.sol\":1635:1646  startPlan() */\n      jump\t// in\n    tag_82:\n        /* \"src/DollarCostAveraging.sol\":1162:1652  function createPlan(uint256 frequency, uint256 amount) public {... */\n      pop\n      pop\n      jump\t// out\n        /* \"src/DollarCostAveraging.sol\":2599:3852  function triggerPlan(address user) public {... */\n    tag_43:\n        /* \"src/DollarCostAveraging.sol\":2678:2679  1 */\n      0x01\n        /* \"src/DollarCostAveraging.sol\":2656:2661  plans */\n      dup1\n        /* \"src/DollarCostAveraging.sol\":2656:2667  plans[user] */\n      0x00\n        /* \"src/DollarCostAveraging.sol\":2662:2666  user */\n      dup4\n        /* \"src/DollarCostAveraging.sol\":2656:2667  plans[user] */\n      0xffffffffffffffffffffffffffffffffffffffff\n      and\n      0xffffffffffffffffffffffffffffffffffffffff\n      and\n      dup2\n      mstore\n      0x20\n      add\n      swap1\n      dup2\n      mstore\n      0x20\n      add\n      0x00\n      keccak256\n        /* \"src/DollarCostAveraging.sol\":2656:2674  plans[user].status */\n      0x03\n      add\n      sload\n        /* \"src/DollarCostAveraging.sol\":2656:2679  plans[user].status == 1 */\n      eq\n        /* \"src/DollarCostAveraging.sol\":2648:2702  require(plans[user].status == 1, \"Plan is not active\") */\n      tag_84\n      jumpi\n      mload(0x40)\n      0x08c379a000000000000000000000000000000000000000000000000000000000\n      dup2\n      mstore\n      0x04\n      add\n      tag_85\n      swap1\n      tag_86\n      jump\t// in\n    tag_85:\n      mload(0x40)\n      dup1\n      swap2\n      sub\n      swap1\n      revert\n    tag_84:\n        /* \"src/DollarCostAveraging.sol\":2744:2749  plans */\n      0x01\n        /* \"src/DollarCostAveraging.sol\":2744:2755  plans[user] */\n      0x00\n        /* \"src/DollarCostAveraging.sol\":2750:2754  user */\n      dup3\n        /* \"src/DollarCostAveraging.sol\":2744:2755  plans[user] */\n      0xffffffffffffffffffffffffffffffffffffffff\n      and\n      0xffffffffffffffffffffffffffffffffffffffff\n      and\n      dup2\n      mstore\n      0x20\n      add\n      swap1\n      dup2\n      mstore\n      0x20\n      add\n      0x00\n      keccak256\n        /* \"src/DollarCostAveraging.sol\":2744:2762  plans[user].amount */\n      0x02\n      add\n      sload\n        /* \"src/DollarCostAveraging.sol\":2717:2741  getAllowance(msg.sender) */\n      tag_87\n        /* \"src/DollarCostAveraging.sol\":2730:2740  msg.sender */\n      caller\n        /* \"src/DollarCostAveraging.sol\":2717:2729  getAllowance */\n      tag_48\n        /* \"src/DollarCostAveraging.sol\":2717:2741  getAllowance(msg.sender) */\n      jump\t// in\n    tag_87:\n        /* \"src/DollarCostAveraging.sol\":2717:2762  getAllowance(msg.sender) > plans[user].amount */\n      gt\n        /* \"src/DollarCostAveraging.sol\":2709:2808  require(getAllowance(msg.sender) > plans[user].amount, \"Cannot trigger more than remaining amount\") */\n      tag_88\n      jumpi\n      mload(0x40)\n      0x08c379a000000000000000000000000000000000000000000000000000000000\n      dup2\n      mstore\n      0x04\n      add\n      tag_89\n      swap1\n      tag_90\n      jump\t// in\n    tag_89:\n      mload(0x40)\n      dup1\n      swap2\n      sub\n      swap1\n      revert\n    tag_88:\n        /* \"src/DollarCostAveraging.sol\":2896:2904  24 hours */\n      0x015180\n        /* \"src/DollarCostAveraging.sol\":2872:2877  plans */\n      0x01\n        /* \"src/DollarCostAveraging.sol\":2872:2883  plans[user] */\n      0x00\n        /* \"src/DollarCostAveraging.sol\":2878:2882  user */\n      dup4\n        /* \"src/DollarCostAveraging.sol\":2872:2883  plans[user] */\n      0xffffffffffffffffffffffffffffffffffffffff\n      and\n      0xffffffffffffffffffffffffffffffffffffffff\n      and\n      dup2\n      mstore\n      0x20\n      add\n      swap1\n      dup2\n      mstore\n      0x20\n      add\n      0x00\n      keccak256\n        /* \"src/DollarCostAveraging.sol\":2872:2893  plans[user].frequency */\n      0x01\n      add\n      sload\n        /* \"src/DollarCostAveraging.sol\":2872:2904  plans[user].frequency * 24 hours */\n      tag_91\n      swap2\n      swap1\n      tag_92\n      jump\t// in\n    tag_91:\n        /* \"src/DollarCostAveraging.sol\":2842:2847  plans */\n      0x01\n        /* \"src/DollarCostAveraging.sol\":2842:2853  plans[user] */\n      0x00\n        /* \"src/DollarCostAveraging.sol\":2848:2852  user */\n      dup4\n        /* \"src/DollarCostAveraging.sol\":2842:2853  plans[user] */\n      0xffffffffffffffffffffffffffffffffffffffff\n      and\n      0xffffffffffffffffffffffffffffffffffffffff\n      and\n      dup2\n      mstore\n      0x20\n      add\n      swap1\n      dup2\n      mstore\n      0x20\n      add\n      0x00\n      keccak256\n        /* \"src/DollarCostAveraging.sol\":2842:2869  plans[user].lastTriggeredAt */\n      0x04\n      add\n      sload\n        /* \"src/DollarCostAveraging.sol\":2842:2904  plans[user].lastTriggeredAt + plans[user].frequency * 24 hours */\n      tag_93\n      swap2\n      swap1\n      tag_94\n      jump\t// in\n    tag_93:\n        /* \"src/DollarCostAveraging.sol\":2823:2838  block.timestamp */\n      timestamp\n        /* \"src/DollarCostAveraging.sol\":2823:2904  block.timestamp >= plans[user].lastTriggeredAt + plans[user].frequency * 24 hours */\n      lt\n      iszero\n        /* \"src/DollarCostAveraging.sol\":2815:2943  require(block.timestamp >= plans[user].lastTriggeredAt + plans[user].frequency * 24 hours, \"Can only trigger plan once per day\") */\n      tag_95\n      jumpi\n      mload(0x40)\n      0x08c379a000000000000000000000000000000000000000000000000000000000\n      dup2\n      mstore\n      0x04\n      add\n      tag_96\n      swap1\n      tag_97\n      jump\t// in\n    tag_96:\n      mload(0x40)\n      dup1\n      swap2\n      sub\n      swap1\n      revert\n    tag_95:\n        /* \"src/DollarCostAveraging.sol\":2952:2966  uint256 amount */\n      0x00\n        /* \"src/DollarCostAveraging.sol\":2969:2974  plans */\n      0x01\n        /* \"src/DollarCostAveraging.sol\":2969:2980  plans[user] */\n      0x00\n        /* \"src/DollarCostAveraging.sol\":2975:2979  user */\n      dup4\n        /* \"src/DollarCostAveraging.sol\":2969:2980  plans[user] */\n      0xffffffffffffffffffffffffffffffffffffffff\n      and\n      0xffffffffffffffffffffffffffffffffffffffff\n      and\n      dup2\n      mstore\n      0x20\n      add\n      swap1\n      dup2\n      mstore\n      0x20\n      add\n      0x00\n      keccak256\n        /* \"src/DollarCostAveraging.sol\":2969:2987  plans[user].amount */\n      0x02\n      add\n      sload\n        /* \"src/DollarCostAveraging.sol\":2952:2987  uint256 amount = plans[user].amount */\n      swap1\n      pop\n        /* \"src/DollarCostAveraging.sol\":3054:3115  SafeERC20.safeTransferFrom(usdt, user, address(this), amount) */\n      tag_98\n        /* \"src/DollarCostAveraging.sol\":3081:3085  usdt */\n      0x02\n      0x00\n      swap1\n      sload\n      swap1\n      0x0100\n      exp\n      swap1\n      div\n      0xffffffffffffffffffffffffffffffffffffffff\n      and\n        /* \"src/DollarCostAveraging.sol\":3087:3091  user */\n      dup4\n        /* \"src/DollarCostAveraging.sol\":3101:3105  this */\n      address\n        /* \"src/DollarCostAveraging.sol\":3108:3114  amount */\n      dup5\n        /* \"src/DollarCostAveraging.sol\":3054:3080  SafeERC20.safeTransferFrom */\n      tag_99\n        /* \"src/DollarCostAveraging.sol\":3054:3115  SafeERC20.safeTransferFrom(usdt, user, address(this), amount) */\n      jump\t// in\n    tag_98:\n        /* \"src/DollarCostAveraging.sol\":3171:3240  SafeERC20.safeIncreaseAllowance(usdt, address(uniswapRouter), amount) */\n      tag_100\n        /* \"src/DollarCostAveraging.sol\":3203:3207  usdt */\n      0x02\n      0x00\n      swap1\n      sload\n      swap1\n      0x0100\n      exp\n      swap1\n      div\n      0xffffffffffffffffffffffffffffffffffffffff\n      and\n        /* \"src/DollarCostAveraging.sol\":3217:3230  uniswapRouter */\n      0x03\n      0x00\n      swap1\n      sload\n      swap1\n      0x0100\n      exp\n      swap1\n      div\n      0xffffffffffffffffffffffffffffffffffffffff\n      and\n        /* \"src/DollarCostAveraging.sol\":3233:3239  amount */\n      dup4\n        /* \"src/DollarCostAveraging.sol\":3171:3202  SafeERC20.safeIncreaseAllowance */\n      tag_101\n        /* \"src/DollarCostAveraging.sol\":3171:3240  SafeERC20.safeIncreaseAllowance(usdt, address(uniswapRouter), amount) */\n      jump\t// in\n    tag_100:\n        /* \"src/DollarCostAveraging.sol\":3276:3297  address[] memory path */\n      0x00\n        /* \"src/DollarCostAveraging.sol\":3314:3315  2 */\n      0x02\n        /* \"src/DollarCostAveraging.sol\":3300:3316  new address[](2) */\n      0xffffffffffffffff\n      dup2\n      gt\n      iszero\n      tag_102\n      jumpi\n      tag_103\n      tag_104\n      jump\t// in\n    tag_103:\n    tag_102:\n      mload(0x40)\n      swap1\n      dup1\n      dup3\n      mstore\n      dup1\n      0x20\n      mul\n      0x20\n      add\n      dup3\n      add\n      0x40\n      mstore\n      dup1\n      iszero\n      tag_105\n      jumpi\n      dup2\n      0x20\n      add\n      0x20\n      dup3\n      mul\n      dup1\n      calldatasize\n      dup4\n      calldatacopy\n      dup1\n      dup3\n      add\n      swap2\n      pop\n      pop\n      swap1\n      pop\n    tag_105:\n      pop\n        /* \"src/DollarCostAveraging.sol\":3276:3316  address[] memory path = new address[](2) */\n      swap1\n      pop\n        /* \"src/DollarCostAveraging.sol\":3341:3345  usdt */\n      0x02\n      0x00\n      swap1\n      sload\n      swap1\n      0x0100\n      exp\n      swap1\n      div\n      0xffffffffffffffffffffffffffffffffffffffff\n      and\n        /* \"src/DollarCostAveraging.sol\":3323:3327  path */\n      dup2\n        /* \"src/DollarCostAveraging.sol\":3328:3329  0 */\n      0x00\n        /* \"src/DollarCostAveraging.sol\":3323:3330  path[0] */\n      dup2\n      mload\n      dup2\n      lt\n      tag_106\n      jumpi\n      tag_107\n      tag_108\n      jump\t// in\n    tag_107:\n    tag_106:\n      0x20\n      mul\n      0x20\n      add\n      add\n        /* \"src/DollarCostAveraging.sol\":3323:3346  path[0] = address(usdt) */\n      swap1\n      0xffffffffffffffffffffffffffffffffffffffff\n      and\n      swap1\n      dup2\n      0xffffffffffffffffffffffffffffffffffffffff\n      and\n      dup2\n      mstore\n      pop\n      pop\n        /* \"src/DollarCostAveraging.sol\":3377:3390  uniswapRouter */\n      0x03\n      0x00\n      swap1\n      sload\n      swap1\n      0x0100\n      exp\n      swap1\n      div\n      0xffffffffffffffffffffffffffffffffffffffff\n      and\n        /* \"src/DollarCostAveraging.sol\":3377:3395  uniswapRouter.WETH */\n      0xffffffffffffffffffffffffffffffffffffffff\n      and\n      0xad5c4648\n        /* \"src/DollarCostAveraging.sol\":3377:3397  uniswapRouter.WETH() */\n      mload(0x40)\n      dup2\n      0xffffffff\n      and\n      0xe0\n      shl\n      dup2\n      mstore\n      0x04\n      add\n      0x20\n      mload(0x40)\n      dup1\n      dup4\n      sub\n      dup2\n      dup7\n      gas\n      staticcall\n      iszero\n      dup1\n      iszero\n      tag_110\n      jumpi\n      returndatasize\n      0x00\n      dup1\n      returndatacopy\n      revert(0x00, returndatasize)\n    tag_110:\n      pop\n      pop\n      pop\n      pop\n      mload(0x40)\n      returndatasize\n      not(0x1f)\n      0x1f\n      dup3\n      add\n      and\n      dup3\n      add\n      dup1\n      0x40\n      mstore\n      pop\n      dup2\n      add\n      swap1\n      tag_111\n      swap2\n      swap1\n      tag_112\n      jump\t// in\n    tag_111:\n        /* \"src/DollarCostAveraging.sol\":3367:3371  path */\n      dup2\n        /* \"src/DollarCostAveraging.sol\":3372:3373  1 */\n      0x01\n        /* \"src/DollarCostAveraging.sol\":3367:3374  path[1] */\n      dup2\n      mload\n      dup2\n      lt\n      tag_113\n      jumpi\n      tag_114\n      tag_108\n      jump\t// in\n    tag_114:\n    tag_113:\n      0x20\n      mul\n      0x20\n      add\n      add\n        /* \"src/DollarCostAveraging.sol\":3367:3397  path[1] = uniswapRouter.WETH() */\n      swap1\n      0xffffffffffffffffffffffffffffffffffffffff\n      and\n      swap1\n      dup2\n      0xffffffffffffffffffffffffffffffffffffffff\n      and\n      dup2\n      mstore\n      pop\n      pop\n        /* \"src/DollarCostAveraging.sol\":3456:3477  uint[] memory amounts */\n      0x00\n        /* \"src/DollarCostAveraging.sol\":3481:3494  uniswapRouter */\n      0x03\n      0x00\n      swap1\n      sload\n      swap1\n      0x0100\n      exp\n      swap1\n      div\n      0xffffffffffffffffffffffffffffffffffffffff\n      and\n        /* \"src/DollarCostAveraging.sol\":3481:3516  uniswapRouter.swapExactTokensForETH */\n      0xffffffffffffffffffffffffffffffffffffffff\n      and\n      0x18cbafe5\n        /* \"src/DollarCostAveraging.sol\":3517:3523  amount */\n      dup5\n        /* \"src/DollarCostAveraging.sol\":3525:3526  0 */\n      0x00\n        /* \"src/DollarCostAveraging.sol\":3528:3532  path */\n      dup6\n        /* \"src/DollarCostAveraging.sol\":3542:3546  this */\n      address\n        /* \"src/DollarCostAveraging.sol\":3567:3574  1 hours */\n      0x0e10\n        /* \"src/DollarCostAveraging.sol\":3549:3564  block.timestamp */\n      timestamp\n        /* \"src/DollarCostAveraging.sol\":3549:3574  block.timestamp + 1 hours */\n      tag_115\n      swap2\n      swap1\n      tag_94\n      jump\t// in\n    tag_115:\n        /* \"src/DollarCostAveraging.sol\":3481:3575  uniswapRouter.swapExactTokensForETH(amount, 0, path, address(this), block.timestamp + 1 hours) */\n      mload(0x40)\n      dup7\n      0xffffffff\n      and\n      0xe0\n      shl\n      dup2\n      mstore\n      0x04\n      add\n      tag_116\n      swap6\n      swap5\n      swap4\n      swap3\n      swap2\n      swap1\n      tag_117\n      jump\t// in\n    tag_116:\n      0x00\n      mload(0x40)\n      dup1\n      dup4\n      sub\n      dup2\n      0x00\n      dup8\n      gas\n      call\n      iszero\n      dup1\n      iszero\n      tag_119\n      jumpi\n      returndatasize\n      0x00\n      dup1\n      returndatacopy\n      revert(0x00, returndatasize)\n    tag_119:\n      pop\n      pop\n      pop\n      pop\n      mload(0x40)\n      returndatasize\n      0x00\n      dup3\n      returndatacopy\n      returndatasize\n      not(0x1f)\n      0x1f\n      dup3\n      add\n      and\n      dup3\n      add\n      dup1\n      0x40\n      mstore\n      pop\n      dup2\n      add\n      swap1\n      tag_120\n      swap2\n      swap1\n      tag_121\n      jump\t// in\n    tag_120:\n        /* \"src/DollarCostAveraging.sol\":3455:3575  (uint[] memory amounts) = uniswapRouter.swapExactTokensForETH(amount, 0, path, address(this), block.timestamp + 1 hours) */\n      swap1\n      pop\n        /* \"src/DollarCostAveraging.sol\":3584:3603  uint256 ethReceived */\n      0x00\n        /* \"src/DollarCostAveraging.sol\":3606:3613  amounts */\n      dup2\n        /* \"src/DollarCostAveraging.sol\":3614:3615  1 */\n      0x01\n        /* \"src/DollarCostAveraging.sol\":3606:3616  amounts[1] */\n      dup2\n      mload\n      dup2\n      lt\n      tag_122\n      jumpi\n      tag_123\n      tag_108\n      jump\t// in\n    tag_123:\n    tag_122:\n      0x20\n      mul\n      0x20\n      add\n      add\n      mload\n        /* \"src/DollarCostAveraging.sol\":3584:3616  uint256 ethReceived = amounts[1] */\n      swap1\n      pop\n        /* \"src/DollarCostAveraging.sol\":3687:3702  block.timestamp */\n      timestamp\n        /* \"src/DollarCostAveraging.sol\":3657:3662  plans */\n      0x01\n        /* \"src/DollarCostAveraging.sol\":3657:3668  plans[user] */\n      0x00\n        /* \"src/DollarCostAveraging.sol\":3663:3667  user */\n      dup8\n        /* \"src/DollarCostAveraging.sol\":3657:3668  plans[user] */\n      0xffffffffffffffffffffffffffffffffffffffff\n      and\n      0xffffffffffffffffffffffffffffffffffffffff\n      and\n      dup2\n      mstore\n      0x20\n      add\n      swap1\n      dup2\n      mstore\n      0x20\n      add\n      0x00\n      keccak256\n        /* \"src/DollarCostAveraging.sol\":3657:3684  plans[user].lastTriggeredAt */\n      0x04\n      add\n        /* \"src/DollarCostAveraging.sol\":3657:3702  plans[user].lastTriggeredAt = block.timestamp */\n      dup2\n      swap1\n      sstore\n      pop\n        /* \"src/DollarCostAveraging.sol\":3730:3734  user */\n      dup5\n        /* \"src/DollarCostAveraging.sol\":3716:3756  PlanTriggered(user, amount, ethReceived) */\n      0xffffffffffffffffffffffffffffffffffffffff\n      and\n      0x1a3abf7e0a472651ebe2c79a31a5f4660c7ea65e3086ee1742d7502999bbf5b5\n        /* \"src/DollarCostAveraging.sol\":3736:3742  amount */\n      dup6\n        /* \"src/DollarCostAveraging.sol\":3744:3755  ethReceived */\n      dup4\n        /* \"src/DollarCostAveraging.sol\":3716:3756  PlanTriggered(user, amount, ethReceived) */\n      mload(0x40)\n      tag_124\n      swap3\n      swap2\n      swap1\n      tag_61\n      jump\t// in\n    tag_124:\n      mload(0x40)\n      dup1\n      swap2\n      sub\n      swap1\n      log2\n        /* \"src/DollarCostAveraging.sol\":3799:3846  SafeERC20.safeTransfer(usdt, user, ethReceived) */\n      tag_125\n        /* \"src/DollarCostAveraging.sol\":3822:3826  usdt */\n      0x02\n      0x00\n      swap1\n      sload\n      swap1\n      0x0100\n      exp\n      swap1\n      div\n      0xffffffffffffffffffffffffffffffffffffffff\n      and\n        /* \"src/DollarCostAveraging.sol\":3828:3832  user */\n      dup7\n        /* \"src/DollarCostAveraging.sol\":3834:3845  ethReceived */\n      dup4\n        /* \"src/DollarCostAveraging.sol\":3799:3821  SafeERC20.safeTransfer */\n      tag_126\n        /* \"src/DollarCostAveraging.sol\":3799:3846  SafeERC20.safeTransfer(usdt, user, ethReceived) */\n      jump\t// in\n    tag_125:\n        /* \"src/DollarCostAveraging.sol\":2641:3852  {... */\n      pop\n      pop\n      pop\n      pop\n        /* \"src/DollarCostAveraging.sol\":2599:3852  function triggerPlan(address user) public {... */\n      pop\n      jump\t// out\n        /* \"src/DollarCostAveraging.sol\":2425:2593  function stopPlan() public {... */\n    tag_45:\n        /* \"src/DollarCostAveraging.sol\":2493:2494  0 */\n      0x00\n        /* \"src/DollarCostAveraging.sol\":2467:2472  plans */\n      0x01\n        /* \"src/DollarCostAveraging.sol\":2467:2484  plans[msg.sender] */\n      0x00\n        /* \"src/DollarCostAveraging.sol\":2473:2483  msg.sender */\n      caller\n        /* \"src/DollarCostAveraging.sol\":2467:2484  plans[msg.sender] */\n      0xffffffffffffffffffffffffffffffffffffffff\n      and\n      0xffffffffffffffffffffffffffffffffffffffff\n      and\n      dup2\n      mstore\n      0x20\n      add\n      swap1\n      dup2\n      mstore\n      0x20\n      add\n      0x00\n      keccak256\n        /* \"src/DollarCostAveraging.sol\":2467:2490  plans[msg.sender].index */\n      0x00\n      add\n      sload\n        /* \"src/DollarCostAveraging.sol\":2467:2494  plans[msg.sender].index > 0 */\n      gt\n        /* \"src/DollarCostAveraging.sol\":2459:2516  require(plans[msg.sender].index > 0, \"Plan is not exist\") */\n      tag_128\n      jumpi\n      mload(0x40)\n      0x08c379a000000000000000000000000000000000000000000000000000000000\n      dup2\n      mstore\n      0x04\n      add\n      tag_129\n      swap1\n      tag_65\n      jump\t// in\n    tag_129:\n      mload(0x40)\n      dup1\n      swap2\n      sub\n      swap1\n      revert\n    tag_128:\n        /* \"src/DollarCostAveraging.sol\":2552:2553  0 */\n      0x00\n        /* \"src/DollarCostAveraging.sol\":2525:2530  plans */\n      0x01\n        /* \"src/DollarCostAveraging.sol\":2525:2542  plans[msg.sender] */\n      0x00\n        /* \"src/DollarCostAveraging.sol\":2531:2541  msg.sender */\n      caller\n        /* \"src/DollarCostAveraging.sol\":2525:2542  plans[msg.sender] */\n      0xffffffffffffffffffffffffffffffffffffffff\n      and\n      0xffffffffffffffffffffffffffffffffffffffff\n      and\n      dup2\n      mstore\n      0x20\n      add\n      swap1\n      dup2\n      mstore\n      0x20\n      add\n      0x00\n      keccak256\n        /* \"src/DollarCostAveraging.sol\":2525:2549  plans[msg.sender].status */\n      0x03\n      add\n        /* \"src/DollarCostAveraging.sol\":2525:2553  plans[msg.sender].status = 0 */\n      dup2\n      swap1\n      sstore\n      pop\n        /* \"src/DollarCostAveraging.sol\":2576:2586  msg.sender */\n      caller\n        /* \"src/DollarCostAveraging.sol\":2565:2587  PlanStoped(msg.sender) */\n      0xffffffffffffffffffffffffffffffffffffffff\n      and\n      0xf222abd4ee7afb02f9450183b95d07aaab2ea2f2d6748f55525c7e875fdd58a1\n      mload(0x40)\n      mload(0x40)\n      dup1\n      swap2\n      sub\n      swap1\n      log2\n        /* \"src/DollarCostAveraging.sol\":2425:2593  function stopPlan() public {... */\n      jump\t// out\n        /* \"src/DollarCostAveraging.sol\":1035:1156  function getAllowance(address user) public view returns (uint256) {... */\n    tag_48:\n        /* \"src/DollarCostAveraging.sol\":1092:1099  uint256 */\n      0x00\n        /* \"src/DollarCostAveraging.sol\":1115:1119  usdt */\n      0x02\n      0x00\n      swap1\n      sload\n      swap1\n      0x0100\n      exp\n      swap1\n      div\n      0xffffffffffffffffffffffffffffffffffffffff\n      and\n        /* \"src/DollarCostAveraging.sol\":1115:1129  usdt.allowance */\n      0xffffffffffffffffffffffffffffffffffffffff\n      and\n      0xdd62ed3e\n        /* \"src/DollarCostAveraging.sol\":1130:1134  user */\n      dup4\n        /* \"src/DollarCostAveraging.sol\":1144:1148  this */\n      address\n        /* \"src/DollarCostAveraging.sol\":1115:1150  usdt.allowance(user, address(this)) */\n      mload(0x40)\n      dup4\n      0xffffffff\n      and\n      0xe0\n      shl\n      dup2\n      mstore\n      0x04\n      add\n      tag_131\n      swap3\n      swap2\n      swap1\n      tag_132\n      jump\t// in\n    tag_131:\n      0x20\n      mload(0x40)\n      dup1\n      dup4\n      sub\n      dup2\n      dup7\n      gas\n      staticcall\n      iszero\n      dup1\n      iszero\n      tag_134\n      jumpi\n      returndatasize\n      0x00\n      dup1\n      returndatacopy\n      revert(0x00, returndatasize)\n    tag_134:\n      pop\n      pop\n      pop\n      pop\n      mload(0x40)\n      returndatasize\n      not(0x1f)\n      0x1f\n      dup3\n      add\n      and\n      dup3\n      add\n      dup1\n      0x40\n      mstore\n      pop\n      dup2\n      add\n      swap1\n      tag_135\n      swap2\n      swap1\n      tag_136\n      jump\t// in\n    tag_135:\n        /* \"src/DollarCostAveraging.sol\":1108:1150  return usdt.allowance(user, address(this)) */\n      swap1\n      pop\n        /* \"src/DollarCostAveraging.sol\":1035:1156  function getAllowance(address user) public view returns (uint256) {... */\n      swap2\n      swap1\n      pop\n      jump\t// out\n        /* \"@openzeppelin/contracts/token/ERC20/utils/SafeERC20.sol\":1702:1890  function safeTransferFrom(IERC20 token, address from, address to, uint256 value) internal {... */\n    tag_99:\n        /* \"@openzeppelin/contracts/token/ERC20/utils/SafeERC20.sol\":1802:1883  _callOptionalReturn(token, abi.encodeCall(token.transferFrom, (from, to, value))) */\n      tag_138\n        /* \"@openzeppelin/contracts/token/ERC20/utils/SafeERC20.sol\":1822:1827  token */\n      dup5\n        /* \"@openzeppelin/contracts/token/ERC20/utils/SafeERC20.sol\":1844:1849  token */\n      dup6\n        /* \"@openzeppelin/contracts/token/ERC20/utils/SafeERC20.sol\":1844:1862  token.transferFrom */\n      0xffffffffffffffffffffffffffffffffffffffff\n      and\n      0x23b872dd\n        /* \"@openzeppelin/contracts/token/ERC20/utils/SafeERC20.sol\":1865:1869  from */\n      dup7\n        /* \"@openzeppelin/contracts/token/ERC20/utils/SafeERC20.sol\":1871:1873  to */\n      dup7\n        /* \"@openzeppelin/contracts/token/ERC20/utils/SafeERC20.sol\":1875:1880  value */\n      dup7\n        /* \"@openzeppelin/contracts/token/ERC20/utils/SafeERC20.sol\":1829:1882  abi.encodeCall(token.transferFrom, (from, to, value)) */\n      add(0x24, mload(0x40))\n      tag_139\n      swap4\n      swap3\n      swap2\n      swap1\n      tag_140\n      jump\t// in\n    tag_139:\n      mload(0x40)\n      0x20\n      dup2\n      dup4\n      sub\n      sub\n      dup2\n      mstore\n      swap1\n      0x40\n      mstore\n      swap2\n      pop\n      0xe0\n      shl\n      0x20\n      dup3\n      add\n      dup1\n      mload\n      0xffffffffffffffffffffffffffffffffffffffffffffffffffffffff\n      dup4\n      dup2\n      dup4\n      and\n      or\n      dup4\n      mstore\n      pop\n      pop\n      pop\n      pop\n        /* \"@openzeppelin/contracts/token/ERC20/utils/SafeERC20.sol\":1802:1821  _callOptionalReturn */\n      tag_141\n        /* \"@openzeppelin/contracts/token/ERC20/utils/SafeERC20.sol\":1802:1883  _callOptionalReturn(token, abi.encodeCall(token.transferFrom, (from, to, value))) */\n      jump\t// in\n    tag_138:\n        /* \"@openzeppelin/contracts/token/ERC20/utils/SafeERC20.sol\":1702:1890  function safeTransferFrom(IERC20 token, address from, address to, uint256 value) internal {... */\n      pop\n      pop\n      pop\n      pop\n      jump\t// out\n        /* \"@openzeppelin/contracts/token/ERC20/utils/SafeERC20.sol\":2081:2306  function safeIncreaseAllowance(IERC20 token, address spender, uint256 value) internal {... */\n    tag_101:\n        /* \"@openzeppelin/contracts/token/ERC20/utils/SafeERC20.sol\":2177:2197  uint256 oldAllowance */\n      0x00\n        /* \"@openzeppelin/contracts/token/ERC20/utils/SafeERC20.sol\":2200:2205  token */\n      dup4\n        /* \"@openzeppelin/contracts/token/ERC20/utils/SafeERC20.sol\":2200:2215  token.allowance */\n      0xffffffffffffffffffffffffffffffffffffffff\n      and\n      0xdd62ed3e\n        /* \"@openzeppelin/contracts/token/ERC20/utils/SafeERC20.sol\":2224:2228  this */\n      address\n        /* \"@openzeppelin/contracts/token/ERC20/utils/SafeERC20.sol\":2231:2238  spender */\n      dup6\n        /* \"@openzeppelin/contracts/token/ERC20/utils/SafeERC20.sol\":2200:2239  token.allowance(address(this), spender) */\n      mload(0x40)\n      dup4\n      0xffffffff\n      and\n      0xe0\n      shl\n      dup2\n      mstore\n      0x04\n      add\n      tag_143\n      swap3\n      swap2\n      swap1\n      tag_132\n      jump\t// in\n    tag_143:\n      0x20\n      mload(0x40)\n      dup1\n      dup4\n      sub\n      dup2\n      dup7\n      gas\n      staticcall\n      iszero\n      dup1\n      iszero\n      tag_145\n      jumpi\n      returndatasize\n      0x00\n      dup1\n      returndatacopy\n      revert(0x00, returndatasize)\n    tag_145:\n      pop\n      pop\n      pop\n      pop\n      mload(0x40)\n      returndatasize\n      not(0x1f)\n      0x1f\n      dup3\n      add\n      and\n      dup3\n      add\n      dup1\n      0x40\n      mstore\n      pop\n      dup2\n      add\n      swap1\n      tag_146\n      swap2\n      swap1\n      tag_136\n      jump\t// in\n    tag_146:\n        /* \"@openzeppelin/contracts/token/ERC20/utils/SafeERC20.sol\":2177:2239  uint256 oldAllowance = token.allowance(address(this), spender) */\n      swap1\n      pop\n        /* \"@openzeppelin/contracts/token/ERC20/utils/SafeERC20.sol\":2249:2299  forceApprove(token, spender, oldAllowance + value) */\n      tag_147\n        /* \"@openzeppelin/contracts/token/ERC20/utils/SafeERC20.sol\":2262:2267  token */\n      dup5\n        /* \"@openzeppelin/contracts/token/ERC20/utils/SafeERC20.sol\":2269:2276  spender */\n      dup5\n        /* \"@openzeppelin/contracts/token/ERC20/utils/SafeERC20.sol\":2293:2298  value */\n      dup5\n        /* \"@openzeppelin/contracts/token/ERC20/utils/SafeERC20.sol\":2278:2290  oldAllowance */\n      dup5\n        /* \"@openzeppelin/contracts/token/ERC20/utils/SafeERC20.sol\":2278:2298  oldAllowance + value */\n      tag_148\n      swap2\n      swap1\n      tag_94\n      jump\t// in\n    tag_148:\n        /* \"@openzeppelin/contracts/token/ERC20/utils/SafeERC20.sol\":2249:2261  forceApprove */\n      tag_149\n        /* \"@openzeppelin/contracts/token/ERC20/utils/SafeERC20.sol\":2249:2299  forceApprove(token, spender, oldAllowance + value) */\n      jump\t// in\n    tag_147:\n        /* \"@openzeppelin/contracts/token/ERC20/utils/SafeERC20.sol\":2167:2306  {... */\n      pop\n        /* \"@openzeppelin/contracts/token/ERC20/utils/SafeERC20.sol\":2081:2306  function safeIncreaseAllowance(IERC20 token, address spender, uint256 value) internal {... */\n      pop\n      pop\n      pop\n      jump\t// out\n        /* \"@openzeppelin/contracts/token/ERC20/utils/SafeERC20.sol\":1303:1463  function safeTransfer(IERC20 token, address to, uint256 value) internal {... */\n    tag_126:\n        /* \"@openzeppelin/contracts/token/ERC20/utils/SafeERC20.sol\":1385:1456  _callOptionalReturn(token, abi.encodeCall(token.transfer, (to, value))) */\n      tag_151\n        /* \"@openzeppelin/contracts/token/ERC20/utils/SafeERC20.sol\":1405:1410  token */\n      dup4\n        /* \"@openzeppelin/contracts/token/ERC20/utils/SafeERC20.sol\":1427:1432  token */\n      dup5\n        /* \"@openzeppelin/contracts/token/ERC20/utils/SafeERC20.sol\":1427:1441  token.transfer */\n      0xffffffffffffffffffffffffffffffffffffffff\n      and\n      0xa9059cbb\n        /* \"@openzeppelin/contracts/token/ERC20/utils/SafeERC20.sol\":1444:1446  to */\n      dup6\n        /* \"@openzeppelin/contracts/token/ERC20/utils/SafeERC20.sol\":1448:1453  value */\n      dup6\n        /* \"@openzeppelin/contracts/token/ERC20/utils/SafeERC20.sol\":1412:1455  abi.encodeCall(token.transfer, (to, value)) */\n      add(0x24, mload(0x40))\n      tag_152\n      swap3\n      swap2\n      swap1\n      tag_153\n      jump\t// in\n    tag_152:\n      mload(0x40)\n      0x20\n      dup2\n      dup4\n      sub\n      sub\n      dup2\n      mstore\n      swap1\n      0x40\n      mstore\n      swap2\n      pop\n      0xe0\n      shl\n      0x20\n      dup3\n      add\n      dup1\n      mload\n      0xffffffffffffffffffffffffffffffffffffffffffffffffffffffff\n      dup4\n      dup2\n      dup4\n      and\n      or\n      dup4\n      mstore\n      pop\n      pop\n      pop\n      pop\n        /* \"@openzeppelin/contracts/token/ERC20/utils/SafeERC20.sol\":1385:1404  _callOptionalReturn */\n      tag_141\n        /* \"@openzeppelin/contracts/token/ERC20/utils/SafeERC20.sol\":1385:1456  _callOptionalReturn(token, abi.encodeCall(token.transfer, (to, value))) */\n      jump\t// in\n    tag_151:\n        /* \"@openzeppelin/contracts/token/ERC20/utils/SafeERC20.sol\":1303:1463  function safeTransfer(IERC20 token, address to, uint256 value) internal {... */\n      pop\n      pop\n      pop\n      jump\t// out\n        /* \"@openzeppelin/contracts/token/ERC20/utils/SafeERC20.sol\":4059:4688  function _callOptionalReturn(IERC20 token, bytes memory data) private {... */\n    tag_141:\n        /* \"@openzeppelin/contracts/token/ERC20/utils/SafeERC20.sol\":4478:4501  bytes memory returndata */\n      0x00\n        /* \"@openzeppelin/contracts/token/ERC20/utils/SafeERC20.sol\":4504:4537  address(token).functionCall(data) */\n      tag_155\n        /* \"@openzeppelin/contracts/token/ERC20/utils/SafeERC20.sol\":4532:4536  data */\n      dup3\n        /* \"@openzeppelin/contracts/token/ERC20/utils/SafeERC20.sol\":4512:4517  token */\n      dup5\n        /* \"@openzeppelin/contracts/token/ERC20/utils/SafeERC20.sol\":4504:4531  address(token).functionCall */\n      0xffffffffffffffffffffffffffffffffffffffff\n      and\n      tag_156\n      swap1\n        /* \"@openzeppelin/contracts/token/ERC20/utils/SafeERC20.sol\":4504:4537  address(token).functionCall(data) */\n      swap2\n      swap1\n      0xffffffff\n      and\n      jump\t// in\n    tag_155:\n        /* \"@openzeppelin/contracts/token/ERC20/utils/SafeERC20.sol\":4478:4537  bytes memory returndata = address(token).functionCall(data) */\n      swap1\n      pop\n        /* \"@openzeppelin/contracts/token/ERC20/utils/SafeERC20.sol\":4572:4573  0 */\n      0x00\n        /* \"@openzeppelin/contracts/token/ERC20/utils/SafeERC20.sol\":4551:4561  returndata */\n      dup2\n        /* \"@openzeppelin/contracts/token/ERC20/utils/SafeERC20.sol\":4551:4568  returndata.length */\n      mload\n        /* \"@openzeppelin/contracts/token/ERC20/utils/SafeERC20.sol\":4551:4573  returndata.length != 0 */\n      eq\n      iszero\n        /* \"@openzeppelin/contracts/token/ERC20/utils/SafeERC20.sol\":4551:4608  returndata.length != 0 && !abi.decode(returndata, (bool)) */\n      dup1\n      iszero\n      tag_157\n      jumpi\n      pop\n        /* \"@openzeppelin/contracts/token/ERC20/utils/SafeERC20.sol\":4589:4599  returndata */\n      dup1\n        /* \"@openzeppelin/contracts/token/ERC20/utils/SafeERC20.sol\":4578:4608  abi.decode(returndata, (bool)) */\n      dup1\n      0x20\n      add\n      swap1\n      mload\n      dup2\n      add\n      swap1\n      tag_158\n      swap2\n      swap1\n      tag_159\n      jump\t// in\n    tag_158:\n        /* \"@openzeppelin/contracts/token/ERC20/utils/SafeERC20.sol\":4577:4608  !abi.decode(returndata, (bool)) */\n      iszero\n        /* \"@openzeppelin/contracts/token/ERC20/utils/SafeERC20.sol\":4551:4608  returndata.length != 0 && !abi.decode(returndata, (bool)) */\n    tag_157:\n        /* \"@openzeppelin/contracts/token/ERC20/utils/SafeERC20.sol\":4547:4682  if (returndata.length != 0 && !abi.decode(returndata, (bool))) {... */\n      iszero\n      tag_160\n      jumpi\n        /* \"@openzeppelin/contracts/token/ERC20/utils/SafeERC20.sol\":4664:4669  token */\n      dup3\n        /* \"@openzeppelin/contracts/token/ERC20/utils/SafeERC20.sol\":4631:4671  SafeERC20FailedOperation(address(token)) */\n      mload(0x40)\n      0x5274afe700000000000000000000000000000000000000000000000000000000\n      dup2\n      mstore\n      0x04\n      add\n      tag_161\n      swap2\n      swap1\n      tag_162\n      jump\t// in\n    tag_161:\n      mload(0x40)\n      dup1\n      swap2\n      sub\n      swap1\n      revert\n        /* \"@openzeppelin/contracts/token/ERC20/utils/SafeERC20.sol\":4547:4682  if (returndata.length != 0 && !abi.decode(returndata, (bool))) {... */\n    tag_160:\n        /* \"@openzeppelin/contracts/token/ERC20/utils/SafeERC20.sol\":4129:4688  {... */\n      pop\n        /* \"@openzeppelin/contracts/token/ERC20/utils/SafeERC20.sol\":4059:4688  function _callOptionalReturn(IERC20 token, bytes memory data) private {... */\n      pop\n      pop\n      jump\t// out\n        /* \"@openzeppelin/contracts/token/ERC20/utils/SafeERC20.sol\":3296:3676  function forceApprove(IERC20 token, address spender, uint256 value) internal {... */\n    tag_149:\n        /* \"@openzeppelin/contracts/token/ERC20/utils/SafeERC20.sol\":3383:3408  bytes memory approvalCall */\n      0x00\n        /* \"@openzeppelin/contracts/token/ERC20/utils/SafeERC20.sol\":3426:3431  token */\n      dup4\n        /* \"@openzeppelin/contracts/token/ERC20/utils/SafeERC20.sol\":3426:3439  token.approve */\n      0xffffffffffffffffffffffffffffffffffffffff\n      and\n      0x095ea7b3\n        /* \"@openzeppelin/contracts/token/ERC20/utils/SafeERC20.sol\":3442:3449  spender */\n      dup5\n        /* \"@openzeppelin/contracts/token/ERC20/utils/SafeERC20.sol\":3451:3456  value */\n      dup5\n        /* \"@openzeppelin/contracts/token/ERC20/utils/SafeERC20.sol\":3411:3458  abi.encodeCall(token.approve, (spender, value)) */\n      add(0x24, mload(0x40))\n      tag_164\n      swap3\n      swap2\n      swap1\n      tag_153\n      jump\t// in\n    tag_164:\n      mload(0x40)\n      0x20\n      dup2\n      dup4\n      sub\n      sub\n      dup2\n      mstore\n      swap1\n      0x40\n      mstore\n      swap2\n      pop\n      0xe0\n      shl\n      0x20\n      dup3\n      add\n      dup1\n      mload\n      0xffffffffffffffffffffffffffffffffffffffffffffffffffffffff\n      dup4\n      dup2\n      dup4\n      and\n      or\n      dup4\n      mstore\n      pop\n      pop\n      pop\n      pop\n        /* \"@openzeppelin/contracts/token/ERC20/utils/SafeERC20.sol\":3383:3458  bytes memory approvalCall = abi.encodeCall(token.approve, (spender, value)) */\n      swap1\n      pop\n        /* \"@openzeppelin/contracts/token/ERC20/utils/SafeERC20.sol\":3474:3518  _callOptionalReturnBool(token, approvalCall) */\n      tag_165\n        /* \"@openzeppelin/contracts/token/ERC20/utils/SafeERC20.sol\":3498:3503  token */\n      dup5\n        /* \"@openzeppelin/contracts/token/ERC20/utils/SafeERC20.sol\":3505:3517  approvalCall */\n      dup3\n        /* \"@openzeppelin/contracts/token/ERC20/utils/SafeERC20.sol\":3474:3497  _callOptionalReturnBool */\n      tag_166\n        /* \"@openzeppelin/contracts/token/ERC20/utils/SafeERC20.sol\":3474:3518  _callOptionalReturnBool(token, approvalCall) */\n      jump\t// in\n    tag_165:\n        /* \"@openzeppelin/contracts/token/ERC20/utils/SafeERC20.sol\":3469:3670  if (!_callOptionalReturnBool(token, approvalCall)) {... */\n      tag_167\n      jumpi\n        /* \"@openzeppelin/contracts/token/ERC20/utils/SafeERC20.sol\":3534:3605  _callOptionalReturn(token, abi.encodeCall(token.approve, (spender, 0))) */\n      tag_168\n        /* \"@openzeppelin/contracts/token/ERC20/utils/SafeERC20.sol\":3554:3559  token */\n      dup5\n        /* \"@openzeppelin/contracts/token/ERC20/utils/SafeERC20.sol\":3576:3581  token */\n      dup6\n        /* \"@openzeppelin/contracts/token/ERC20/utils/SafeERC20.sol\":3576:3589  token.approve */\n      0xffffffffffffffffffffffffffffffffffffffff\n      and\n      0x095ea7b3\n        /* \"@openzeppelin/contracts/token/ERC20/utils/SafeERC20.sol\":3592:3599  spender */\n      dup7\n        /* \"@openzeppelin/contracts/token/ERC20/utils/SafeERC20.sol\":3601:3602  0 */\n      0x00\n        /* \"@openzeppelin/contracts/token/ERC20/utils/SafeERC20.sol\":3561:3604  abi.encodeCall(token.approve, (spender, 0)) */\n      add(0x24, mload(0x40))\n      tag_169\n      swap3\n      swap2\n      swap1\n      tag_170\n      jump\t// in\n    tag_169:\n      mload(0x40)\n      0x20\n      dup2\n      dup4\n      sub\n      sub\n      dup2\n      mstore\n      swap1\n      0x40\n      mstore\n      swap2\n      pop\n      0xe0\n      shl\n      0x20\n      dup3\n      add\n      dup1\n      mload\n      0xffffffffffffffffffffffffffffffffffffffffffffffffffffffff\n      dup4\n      dup2\n      dup4\n      and\n      or\n      dup4\n      mstore\n      pop\n      pop\n      pop\n      pop\n        /* \"@openzeppelin/contracts/token/ERC20/utils/SafeERC20.sol\":3534:3553  _callOptionalReturn */\n      tag_141\n        /* \"@openzeppelin/contracts/token/ERC20/utils/SafeERC20.sol\":3534:3605  _callOptionalReturn(token, abi.encodeCall(token.approve, (spender, 0))) */\n      jump\t// in\n    tag_168:\n        /* \"@openzeppelin/contracts/token/ERC20/utils/SafeERC20.sol\":3619:3659  _callOptionalReturn(token, approvalCall) */\n      tag_171\n        /* \"@openzeppelin/contracts/token/ERC20/utils/SafeERC20.sol\":3639:3644  token */\n      dup5\n        /* \"@openzeppelin/contracts/token/ERC20/utils/SafeERC20.sol\":3646:3658  approvalCall */\n      dup3\n        /* \"@openzeppelin/contracts/token/ERC20/utils/SafeERC20.sol\":3619:3638  _callOptionalReturn */\n      tag_141\n        /* \"@openzeppelin/contracts/token/ERC20/utils/SafeERC20.sol\":3619:3659  _callOptionalReturn(token, approvalCall) */\n      jump\t// in\n    tag_171:\n        /* \"@openzeppelin/contracts/token/ERC20/utils/SafeERC20.sol\":3469:3670  if (!_callOptionalReturnBool(token, approvalCall)) {... */\n    tag_167:\n        /* \"@openzeppelin/contracts/token/ERC20/utils/SafeERC20.sol\":3373:3676  {... */\n      pop\n        /* \"@openzeppelin/contracts/token/ERC20/utils/SafeERC20.sol\":3296:3676  function forceApprove(IERC20 token, address spender, uint256 value) internal {... */\n      pop\n      pop\n      pop\n      jump\t// out\n        /* \"@openzeppelin/contracts/utils/Address.sol\":2705:2856  function functionCall(address target, bytes memory data) internal returns (bytes memory) {... */\n    tag_156:\n        /* \"@openzeppelin/contracts/utils/Address.sol\":2780:2792  bytes memory */\n      0x60\n        /* \"@openzeppelin/contracts/utils/Address.sol\":2811:2849  functionCallWithValue(target, data, 0) */\n      tag_173\n        /* \"@openzeppelin/contracts/utils/Address.sol\":2833:2839  target */\n      dup4\n        /* \"@openzeppelin/contracts/utils/Address.sol\":2841:2845  data */\n      dup4\n        /* \"@openzeppelin/contracts/utils/Address.sol\":2847:2848  0 */\n      0x00\n        /* \"@openzeppelin/contracts/utils/Address.sol\":2811:2832  functionCallWithValue */\n      tag_174\n        /* \"@openzeppelin/contracts/utils/Address.sol\":2811:2849  functionCallWithValue(target, data, 0) */\n      jump\t// in\n    tag_173:\n        /* \"@openzeppelin/contracts/utils/Address.sol\":2804:2849  return functionCallWithValue(target, data, 0) */\n      swap1\n      pop\n        /* \"@openzeppelin/contracts/utils/Address.sol\":2705:2856  function functionCall(address target, bytes memory data) internal returns (bytes memory) {... */\n      swap3\n      swap2\n      pop\n      pop\n      jump\t// out\n        /* \"@openzeppelin/contracts/token/ERC20/utils/SafeERC20.sol\":5189:5767  function _callOptionalReturnBool(IERC20 token, bytes memory data) private returns (bool) {... */\n    tag_166:\n        /* \"@openzeppelin/contracts/token/ERC20/utils/SafeERC20.sol\":5272:5276  bool */\n      0x00\n        /* \"@openzeppelin/contracts/token/ERC20/utils/SafeERC20.sol\":5574:5586  bool success */\n      dup1\n        /* \"@openzeppelin/contracts/token/ERC20/utils/SafeERC20.sol\":5588:5611  bytes memory returndata */\n      0x00\n        /* \"@openzeppelin/contracts/token/ERC20/utils/SafeERC20.sol\":5623:5628  token */\n      dup5\n        /* \"@openzeppelin/contracts/token/ERC20/utils/SafeERC20.sol\":5615:5634  address(token).call */\n      0xffffffffffffffffffffffffffffffffffffffff\n      and\n        /* \"@openzeppelin/contracts/token/ERC20/utils/SafeERC20.sol\":5635:5639  data */\n      dup5\n        /* \"@openzeppelin/contracts/token/ERC20/utils/SafeERC20.sol\":5615:5640  address(token).call(data) */\n      mload(0x40)\n      tag_176\n      swap2\n      swap1\n      tag_177\n      jump\t// in\n    tag_176:\n      0x00\n      mload(0x40)\n      dup1\n      dup4\n      sub\n      dup2\n      0x00\n      dup7\n      gas\n      call\n      swap2\n      pop\n      pop\n      returndatasize\n      dup1\n      0x00\n      dup2\n      eq\n      tag_180\n      jumpi\n      mload(0x40)\n      swap2\n      pop\n      and(add(returndatasize, 0x3f), not(0x1f))\n      dup3\n      add\n      0x40\n      mstore\n      returndatasize\n      dup3\n      mstore\n      returndatasize\n      0x00\n      0x20\n      dup5\n      add\n      returndatacopy\n      jump(tag_179)\n    tag_180:\n      0x60\n      swap2\n      pop\n    tag_179:\n      pop\n        /* \"@openzeppelin/contracts/token/ERC20/utils/SafeERC20.sol\":5573:5640  (bool success, bytes memory returndata) = address(token).call(data) */\n      swap2\n      pop\n      swap2\n      pop\n        /* \"@openzeppelin/contracts/token/ERC20/utils/SafeERC20.sol\":5657:5664  success */\n      dup2\n        /* \"@openzeppelin/contracts/token/ERC20/utils/SafeERC20.sol\":5657:5726  success && (returndata.length == 0 || abi.decode(returndata, (bool))) */\n      dup1\n      iszero\n      tag_181\n      jumpi\n      pop\n        /* \"@openzeppelin/contracts/token/ERC20/utils/SafeERC20.sol\":5690:5691  0 */\n      0x00\n        /* \"@openzeppelin/contracts/token/ERC20/utils/SafeERC20.sol\":5669:5679  returndata */\n      dup2\n        /* \"@openzeppelin/contracts/token/ERC20/utils/SafeERC20.sol\":5669:5686  returndata.length */\n      mload\n        /* \"@openzeppelin/contracts/token/ERC20/utils/SafeERC20.sol\":5669:5691  returndata.length == 0 */\n      eq\n        /* \"@openzeppelin/contracts/token/ERC20/utils/SafeERC20.sol\":5669:5725  returndata.length == 0 || abi.decode(returndata, (bool)) */\n      dup1\n      tag_182\n      jumpi\n      pop\n        /* \"@openzeppelin/contracts/token/ERC20/utils/SafeERC20.sol\":5706:5716  returndata */\n      dup1\n        /* \"@openzeppelin/contracts/token/ERC20/utils/SafeERC20.sol\":5695:5725  abi.decode(returndata, (bool)) */\n      dup1\n      0x20\n      add\n      swap1\n      mload\n      dup2\n      add\n      swap1\n      tag_183\n      swap2\n      swap1\n      tag_159\n      jump\t// in\n    tag_183:\n        /* \"@openzeppelin/contracts/token/ERC20/utils/SafeERC20.sol\":5669:5725  returndata.length == 0 || abi.decode(returndata, (bool)) */\n    tag_182:\n        /* \"@openzeppelin/contracts/token/ERC20/utils/SafeERC20.sol\":5657:5726  success && (returndata.length == 0 || abi.decode(returndata, (bool))) */\n    tag_181:\n        /* \"@openzeppelin/contracts/token/ERC20/utils/SafeERC20.sol\":5657:5760  success && (returndata.length == 0 || abi.decode(returndata, (bool))) && address(token).code.length > 0 */\n      dup1\n      iszero\n      tag_184\n      jumpi\n      pop\n        /* \"@openzeppelin/contracts/token/ERC20/utils/SafeERC20.sol\":5759:5760  0 */\n      0x00\n        /* \"@openzeppelin/contracts/token/ERC20/utils/SafeERC20.sol\":5738:5743  token */\n      dup6\n        /* \"@openzeppelin/contracts/token/ERC20/utils/SafeERC20.sol\":5730:5756  address(token).code.length */\n      0xffffffffffffffffffffffffffffffffffffffff\n      and\n      extcodesize\n        /* \"@openzeppelin/contracts/token/ERC20/utils/SafeERC20.sol\":5730:5760  address(token).code.length > 0 */\n      gt\n        /* \"@openzeppelin/contracts/token/ERC20/utils/SafeERC20.sol\":5657:5760  success && (returndata.length == 0 || abi.decode(returndata, (bool))) && address(token).code.length > 0 */\n    tag_184:\n        /* \"@openzeppelin/contracts/token/ERC20/utils/SafeERC20.sol\":5650:5760  return success && (returndata.length == 0 || abi.decode(returndata, (bool))) && address(token).code.length > 0 */\n      swap3\n      pop\n      pop\n      pop\n        /* \"@openzeppelin/contracts/token/ERC20/utils/SafeERC20.sol\":5189:5767  function _callOptionalReturnBool(IERC20 token, bytes memory data) private returns (bool) {... */\n      swap3\n      swap2\n      pop\n      pop\n      jump\t// out\n        /* \"@openzeppelin/contracts/utils/Address.sol\":3180:3572  function functionCallWithValue(address target, bytes memory data, uint256 value) internal returns (bytes memory) {... */\n    tag_174:\n        /* \"@openzeppelin/contracts/utils/Address.sol\":3279:3291  bytes memory */\n      0x60\n        /* \"@openzeppelin/contracts/utils/Address.sol\":3331:3336  value */\n      dup2\n        /* \"@openzeppelin/contracts/utils/Address.sol\":3307:3328  address(this).balance */\n      selfbalance\n        /* \"@openzeppelin/contracts/utils/Address.sol\":3307:3336  address(this).balance < value */\n      lt\n        /* \"@openzeppelin/contracts/utils/Address.sol\":3303:3411  if (address(this).balance < value) {... */\n      iszero\n      tag_186\n      jumpi\n        /* \"@openzeppelin/contracts/utils/Address.sol\":3394:3398  this */\n      address\n        /* \"@openzeppelin/contracts/utils/Address.sol\":3359:3400  AddressInsufficientBalance(address(this)) */\n      mload(0x40)\n      0xcd78605900000000000000000000000000000000000000000000000000000000\n      dup2\n      mstore\n      0x04\n      add\n      tag_187\n      swap2\n      swap1\n      tag_162\n      jump\t// in\n    tag_187:\n      mload(0x40)\n      dup1\n      swap2\n      sub\n      swap1\n      revert\n        /* \"@openzeppelin/contracts/utils/Address.sol\":3303:3411  if (address(this).balance < value) {... */\n    tag_186:\n        /* \"@openzeppelin/contracts/utils/Address.sol\":3421:3433  bool success */\n      0x00\n        /* \"@openzeppelin/contracts/utils/Address.sol\":3435:3458  bytes memory returndata */\n      dup1\n        /* \"@openzeppelin/contracts/utils/Address.sol\":3462:3468  target */\n      dup6\n        /* \"@openzeppelin/contracts/utils/Address.sol\":3462:3473  target.call */\n      0xffffffffffffffffffffffffffffffffffffffff\n      and\n        /* \"@openzeppelin/contracts/utils/Address.sol\":3481:3486  value */\n      dup5\n        /* \"@openzeppelin/contracts/utils/Address.sol\":3488:3492  data */\n      dup7\n        /* \"@openzeppelin/contracts/utils/Address.sol\":3462:3493  target.call{value: value}(data) */\n      mload(0x40)\n      tag_188\n      swap2\n      swap1\n      tag_177\n      jump\t// in\n    tag_188:\n      0x00\n      mload(0x40)\n      dup1\n      dup4\n      sub\n      dup2\n      dup6\n      dup8\n      gas\n      call\n      swap3\n      pop\n      pop\n      pop\n      returndatasize\n      dup1\n      0x00\n      dup2\n      eq\n      tag_191\n      jumpi\n      mload(0x40)\n      swap2\n      pop\n      and(add(returndatasize, 0x3f), not(0x1f))\n      dup3\n      add\n      0x40\n      mstore\n      returndatasize\n      dup3\n      mstore\n      returndatasize\n      0x00\n      0x20\n      dup5\n      add\n      returndatacopy\n      jump(tag_190)\n    tag_191:\n      0x60\n      swap2\n      pop\n    tag_190:\n      pop\n        /* \"@openzeppelin/contracts/utils/Address.sol\":3420:3493  (bool success, bytes memory returndata) = target.call{value: value}(data) */\n      swap2\n      pop\n      swap2\n      pop\n        /* \"@openzeppelin/contracts/utils/Address.sol\":3510:3565  verifyCallResultFromTarget(target, success, returndata) */\n      tag_192\n        /* \"@openzeppelin/contracts/utils/Address.sol\":3537:3543  target */\n      dup7\n        /* \"@openzeppelin/contracts/utils/Address.sol\":3545:3552  success */\n      dup4\n        /* \"@openzeppelin/contracts/utils/Address.sol\":3554:3564  returndata */\n      dup4\n        /* \"@openzeppelin/contracts/utils/Address.sol\":3510:3536  verifyCallResultFromTarget */\n      tag_193\n        /* \"@openzeppelin/contracts/utils/Address.sol\":3510:3565  verifyCallResultFromTarget(target, success, returndata) */\n      jump\t// in\n    tag_192:\n        /* \"@openzeppelin/contracts/utils/Address.sol\":3503:3565  return verifyCallResultFromTarget(target, success, returndata) */\n      swap3\n      pop\n      pop\n      pop\n        /* \"@openzeppelin/contracts/utils/Address.sol\":3180:3572  function functionCallWithValue(address target, bytes memory data, uint256 value) internal returns (bytes memory) {... */\n      swap4\n      swap3\n      pop\n      pop\n      pop\n      jump\t// out\n        /* \"@openzeppelin/contracts/utils/Address.sol\":4625:5207  function verifyCallResultFromTarget(... */\n    tag_193:\n        /* \"@openzeppelin/contracts/utils/Address.sol\":4769:4781  bytes memory */\n      0x60\n        /* \"@openzeppelin/contracts/utils/Address.sol\":4798:4805  success */\n      dup3\n        /* \"@openzeppelin/contracts/utils/Address.sol\":4793:5201  if (!success) {... */\n      tag_195\n      jumpi\n        /* \"@openzeppelin/contracts/utils/Address.sol\":4821:4840  _revert(returndata) */\n      tag_196\n        /* \"@openzeppelin/contracts/utils/Address.sol\":4829:4839  returndata */\n      dup3\n        /* \"@openzeppelin/contracts/utils/Address.sol\":4821:4828  _revert */\n      tag_197\n        /* \"@openzeppelin/contracts/utils/Address.sol\":4821:4840  _revert(returndata) */\n      jump\t// in\n    tag_196:\n        /* \"@openzeppelin/contracts/utils/Address.sol\":4793:5201  if (!success) {... */\n      jump(tag_198)\n    tag_195:\n        /* \"@openzeppelin/contracts/utils/Address.sol\":5066:5067  0 */\n      0x00\n        /* \"@openzeppelin/contracts/utils/Address.sol\":5045:5055  returndata */\n      dup3\n        /* \"@openzeppelin/contracts/utils/Address.sol\":5045:5062  returndata.length */\n      mload\n        /* \"@openzeppelin/contracts/utils/Address.sol\":5045:5067  returndata.length == 0 */\n      eq\n        /* \"@openzeppelin/contracts/utils/Address.sol\":5045:5094  returndata.length == 0 && target.code.length == 0 */\n      dup1\n      iszero\n      tag_199\n      jumpi\n      pop\n        /* \"@openzeppelin/contracts/utils/Address.sol\":5093:5094  0 */\n      0x00\n        /* \"@openzeppelin/contracts/utils/Address.sol\":5071:5077  target */\n      dup5\n        /* \"@openzeppelin/contracts/utils/Address.sol\":5071:5089  target.code.length */\n      0xffffffffffffffffffffffffffffffffffffffff\n      and\n      extcodesize\n        /* \"@openzeppelin/contracts/utils/Address.sol\":5071:5094  target.code.length == 0 */\n      eq\n        /* \"@openzeppelin/contracts/utils/Address.sol\":5045:5094  returndata.length == 0 && target.code.length == 0 */\n    tag_199:\n        /* \"@openzeppelin/contracts/utils/Address.sol\":5041:5160  if (returndata.length == 0 && target.code.length == 0) {... */\n      iszero\n      tag_200\n      jumpi\n        /* \"@openzeppelin/contracts/utils/Address.sol\":5138:5144  target */\n      dup4\n        /* \"@openzeppelin/contracts/utils/Address.sol\":5121:5145  AddressEmptyCode(target) */\n      mload(0x40)\n      0x9996b31500000000000000000000000000000000000000000000000000000000\n      dup2\n      mstore\n      0x04\n      add\n      tag_201\n      swap2\n      swap1\n      tag_162\n      jump\t// in\n    tag_201:\n      mload(0x40)\n      dup1\n      swap2\n      sub\n      swap1\n      revert\n        /* \"@openzeppelin/contracts/utils/Address.sol\":5041:5160  if (returndata.length == 0 && target.code.length == 0) {... */\n    tag_200:\n        /* \"@openzeppelin/contracts/utils/Address.sol\":5180:5190  returndata */\n      dup2\n        /* \"@openzeppelin/contracts/utils/Address.sol\":5173:5190  return returndata */\n      swap1\n      pop\n      jump(tag_194)\n        /* \"@openzeppelin/contracts/utils/Address.sol\":4793:5201  if (!success) {... */\n    tag_198:\n        /* \"@openzeppelin/contracts/utils/Address.sol\":4625:5207  function verifyCallResultFromTarget(... */\n    tag_194:\n      swap4\n      swap3\n      pop\n      pop\n      pop\n      jump\t// out\n        /* \"@openzeppelin/contracts/utils/Address.sol\":5743:6259  function _revert(bytes memory returndata) private pure {... */\n    tag_197:\n        /* \"@openzeppelin/contracts/utils/Address.sol\":5894:5895  0 */\n      0x00\n        /* \"@openzeppelin/contracts/utils/Address.sol\":5874:5884  returndata */\n      dup2\n        /* \"@openzeppelin/contracts/utils/Address.sol\":5874:5891  returndata.length */\n      mload\n        /* \"@openzeppelin/contracts/utils/Address.sol\":5874:5895  returndata.length > 0 */\n      gt\n        /* \"@openzeppelin/contracts/utils/Address.sol\":5870:6253  if (returndata.length > 0) {... */\n      iszero\n      tag_203\n      jumpi\n        /* \"@openzeppelin/contracts/utils/Address.sol\":6102:6112  returndata */\n      dup1\n        /* \"@openzeppelin/contracts/utils/Address.sol\":6096:6113  mload(returndata) */\n      mload\n        /* \"@openzeppelin/contracts/utils/Address.sol\":6158:6173  returndata_size */\n      dup1\n        /* \"@openzeppelin/contracts/utils/Address.sol\":6145:6155  returndata */\n      dup3\n        /* \"@openzeppelin/contracts/utils/Address.sol\":6141:6143  32 */\n      0x20\n        /* \"@openzeppelin/contracts/utils/Address.sol\":6137:6156  add(32, returndata) */\n      add\n        /* \"@openzeppelin/contracts/utils/Address.sol\":6130:6174  revert(add(32, returndata), returndata_size) */\n      revert\n        /* \"@openzeppelin/contracts/utils/Address.sol\":5870:6253  if (returndata.length > 0) {... */\n    tag_203:\n        /* \"@openzeppelin/contracts/utils/Address.sol\":6225:6242  FailedInnerCall() */\n      mload(0x40)\n      0x1425ea4200000000000000000000000000000000000000000000000000000000\n      dup2\n      mstore\n      0x04\n      add\n      mload(0x40)\n      dup1\n      swap2\n      sub\n      swap1\n      revert\n        /* \"#utility.yul\":7:82   */\n    tag_205:\n        /* \"#utility.yul\":40:46   */\n      0x00\n        /* \"#utility.yul\":73:75   */\n      0x40\n        /* \"#utility.yul\":67:76   */\n      mload\n        /* \"#utility.yul\":57:76   */\n      swap1\n      pop\n        /* \"#utility.yul\":7:82   */\n      swap1\n      jump\t// out\n        /* \"#utility.yul\":88:205   */\n    tag_206:\n        /* \"#utility.yul\":197:198   */\n      0x00\n        /* \"#utility.yul\":194:195   */\n      dup1\n        /* \"#utility.yul\":187:199   */\n      revert\n        /* \"#utility.yul\":211:328   */\n    tag_207:\n        /* \"#utility.yul\":320:321   */\n      0x00\n        /* \"#utility.yul\":317:318   */\n      dup1\n        /* \"#utility.yul\":310:322   */\n      revert\n        /* \"#utility.yul\":334:411   */\n    tag_208:\n        /* \"#utility.yul\":371:378   */\n      0x00\n        /* \"#utility.yul\":400:405   */\n      dup2\n        /* \"#utility.yul\":389:405   */\n      swap1\n      pop\n        /* \"#utility.yul\":334:411   */\n      swap2\n      swap1\n      pop\n      jump\t// out\n        /* \"#utility.yul\":417:539   */\n    tag_209:\n        /* \"#utility.yul\":490:514   */\n      tag_275\n        /* \"#utility.yul\":508:513   */\n      dup2\n        /* \"#utility.yul\":490:514   */\n      tag_208\n      jump\t// in\n    tag_275:\n        /* \"#utility.yul\":483:488   */\n      dup2\n        /* \"#utility.yul\":480:515   */\n      eq\n        /* \"#utility.yul\":470:533   */\n      tag_276\n      jumpi\n        /* \"#utility.yul\":529:530   */\n      0x00\n        /* \"#utility.yul\":526:527   */\n      dup1\n        /* \"#utility.yul\":519:531   */\n      revert\n        /* \"#utility.yul\":470:533   */\n    tag_276:\n        /* \"#utility.yul\":417:539   */\n      pop\n      jump\t// out\n        /* \"#utility.yul\":545:684   */\n    tag_210:\n        /* \"#utility.yul\":591:596   */\n      0x00\n        /* \"#utility.yul\":629:635   */\n      dup2\n        /* \"#utility.yul\":616:636   */\n      calldataload\n        /* \"#utility.yul\":607:636   */\n      swap1\n      pop\n        /* \"#utility.yul\":645:678   */\n      tag_278\n        /* \"#utility.yul\":672:677   */\n      dup2\n        /* \"#utility.yul\":645:678   */\n      tag_209\n      jump\t// in\n    tag_278:\n        /* \"#utility.yul\":545:684   */\n      swap3\n      swap2\n      pop\n      pop\n      jump\t// out\n        /* \"#utility.yul\":690:1164   */\n    tag_16:\n        /* \"#utility.yul\":758:764   */\n      0x00\n        /* \"#utility.yul\":766:772   */\n      dup1\n        /* \"#utility.yul\":815:817   */\n      0x40\n        /* \"#utility.yul\":803:812   */\n      dup4\n        /* \"#utility.yul\":794:801   */\n      dup6\n        /* \"#utility.yul\":790:813   */\n      sub\n        /* \"#utility.yul\":786:818   */\n      slt\n        /* \"#utility.yul\":783:902   */\n      iszero\n      tag_280\n      jumpi\n        /* \"#utility.yul\":821:900   */\n      tag_281\n      tag_206\n      jump\t// in\n    tag_281:\n        /* \"#utility.yul\":783:902   */\n    tag_280:\n        /* \"#utility.yul\":941:942   */\n      0x00\n        /* \"#utility.yul\":966:1019   */\n      tag_282\n        /* \"#utility.yul\":1011:1018   */\n      dup6\n        /* \"#utility.yul\":1002:1008   */\n      dup3\n        /* \"#utility.yul\":991:1000   */\n      dup7\n        /* \"#utility.yul\":987:1009   */\n      add\n        /* \"#utility.yul\":966:1019   */\n      tag_210\n      jump\t// in\n    tag_282:\n        /* \"#utility.yul\":956:1019   */\n      swap3\n      pop\n        /* \"#utility.yul\":912:1029   */\n      pop\n        /* \"#utility.yul\":1068:1070   */\n      0x20\n        /* \"#utility.yul\":1094:1147   */\n      tag_283\n        /* \"#utility.yul\":1139:1146   */\n      dup6\n        /* \"#utility.yul\":1130:1136   */\n      dup3\n        /* \"#utility.yul\":1119:1128   */\n      dup7\n        /* \"#utility.yul\":1115:1137   */\n      add\n        /* \"#utility.yul\":1094:1147   */\n      tag_210\n      jump\t// in\n    tag_283:\n        /* \"#utility.yul\":1084:1147   */\n      swap2\n      pop\n        /* \"#utility.yul\":1039:1157   */\n      pop\n        /* \"#utility.yul\":690:1164   */\n      swap3\n      pop\n      swap3\n      swap1\n      pop\n      jump\t// out\n        /* \"#utility.yul\":1170:1296   */\n    tag_211:\n        /* \"#utility.yul\":1207:1214   */\n      0x00\n        /* \"#utility.yul\":1247:1289   */\n      0xffffffffffffffffffffffffffffffffffffffff\n        /* \"#utility.yul\":1240:1245   */\n      dup3\n        /* \"#utility.yul\":1236:1290   */\n      and\n        /* \"#utility.yul\":1225:1290   */\n      swap1\n      pop\n        /* \"#utility.yul\":1170:1296   */\n      swap2\n      swap1\n      pop\n      jump\t// out\n        /* \"#utility.yul\":1302:1362   */\n    tag_212:\n        /* \"#utility.yul\":1330:1333   */\n      0x00\n        /* \"#utility.yul\":1351:1356   */\n      dup2\n        /* \"#utility.yul\":1344:1356   */\n      swap1\n      pop\n        /* \"#utility.yul\":1302:1362   */\n      swap2\n      swap1\n      pop\n      jump\t// out\n        /* \"#utility.yul\":1368:1510   */\n    tag_213:\n        /* \"#utility.yul\":1418:1427   */\n      0x00\n        /* \"#utility.yul\":1451:1504   */\n      tag_287\n        /* \"#utility.yul\":1469:1503   */\n      tag_288\n        /* \"#utility.yul\":1478:1502   */\n      tag_289\n        /* \"#utility.yul\":1496:1501   */\n      dup5\n        /* \"#utility.yul\":1478:1502   */\n      tag_211\n      jump\t// in\n    tag_289:\n        /* \"#utility.yul\":1469:1503   */\n      tag_212\n      jump\t// in\n    tag_288:\n        /* \"#utility.yul\":1451:1504   */\n      tag_211\n      jump\t// in\n    tag_287:\n        /* \"#utility.yul\":1438:1504   */\n      swap1\n      pop\n        /* \"#utility.yul\":1368:1510   */\n      swap2\n      swap1\n      pop\n      jump\t// out\n        /* \"#utility.yul\":1516:1642   */\n    tag_214:\n        /* \"#utility.yul\":1566:1575   */\n      0x00\n        /* \"#utility.yul\":1599:1636   */\n      tag_291\n        /* \"#utility.yul\":1630:1635   */\n      dup3\n        /* \"#utility.yul\":1599:1636   */\n      tag_213\n      jump\t// in\n    tag_291:\n        /* \"#utility.yul\":1586:1636   */\n      swap1\n      pop\n        /* \"#utility.yul\":1516:1642   */\n      swap2\n      swap1\n      pop\n      jump\t// out\n        /* \"#utility.yul\":1648:1787   */\n    tag_215:\n        /* \"#utility.yul\":1711:1720   */\n      0x00\n        /* \"#utility.yul\":1744:1781   */\n      tag_293\n        /* \"#utility.yul\":1775:1780   */\n      dup3\n        /* \"#utility.yul\":1744:1781   */\n      tag_214\n      jump\t// in\n    tag_293:\n        /* \"#utility.yul\":1731:1781   */\n      swap1\n      pop\n        /* \"#utility.yul\":1648:1787   */\n      swap2\n      swap1\n      pop\n      jump\t// out\n        /* \"#utility.yul\":1793:1950   */\n    tag_216:\n        /* \"#utility.yul\":1893:1943   */\n      tag_295\n        /* \"#utility.yul\":1937:1942   */\n      dup2\n        /* \"#utility.yul\":1893:1943   */\n      tag_215\n      jump\t// in\n    tag_295:\n        /* \"#utility.yul\":1888:1891   */\n      dup3\n        /* \"#utility.yul\":1881:1944   */\n      mstore\n        /* \"#utility.yul\":1793:1950   */\n      pop\n      pop\n      jump\t// out\n        /* \"#utility.yul\":1956:2204   */\n    tag_21:\n        /* \"#utility.yul\":2062:2066   */\n      0x00\n        /* \"#utility.yul\":2100:2102   */\n      0x20\n        /* \"#utility.yul\":2089:2098   */\n      dup3\n        /* \"#utility.yul\":2085:2103   */\n      add\n        /* \"#utility.yul\":2077:2103   */\n      swap1\n      pop\n        /* \"#utility.yul\":2113:2197   */\n      tag_297\n        /* \"#utility.yul\":2194:2195   */\n      0x00\n        /* \"#utility.yul\":2183:2192   */\n      dup4\n        /* \"#utility.yul\":2179:2196   */\n      add\n        /* \"#utility.yul\":2170:2176   */\n      dup5\n        /* \"#utility.yul\":2113:2197   */\n      tag_216\n      jump\t// in\n    tag_297:\n        /* \"#utility.yul\":1956:2204   */\n      swap3\n      swap2\n      pop\n      pop\n      jump\t// out\n        /* \"#utility.yul\":2210:2363   */\n    tag_217:\n        /* \"#utility.yul\":2287:2296   */\n      0x00\n        /* \"#utility.yul\":2320:2357   */\n      tag_299\n        /* \"#utility.yul\":2351:2356   */\n      dup3\n        /* \"#utility.yul\":2320:2357   */\n      tag_214\n      jump\t// in\n    tag_299:\n        /* \"#utility.yul\":2307:2357   */\n      swap1\n      pop\n        /* \"#utility.yul\":2210:2363   */\n      swap2\n      swap1\n      pop\n      jump\t// out\n        /* \"#utility.yul\":2369:2554   */\n    tag_218:\n        /* \"#utility.yul\":2483:2547   */\n      tag_301\n        /* \"#utility.yul\":2541:2546   */\n      dup2\n        /* \"#utility.yul\":2483:2547   */\n      tag_217\n      jump\t// in\n    tag_301:\n        /* \"#utility.yul\":2478:2481   */\n      dup3\n        /* \"#utility.yul\":2471:2548   */\n      mstore\n        /* \"#utility.yul\":2369:2554   */\n      pop\n      pop\n      jump\t// out\n        /* \"#utility.yul\":2560:2836   */\n    tag_25:\n        /* \"#utility.yul\":2680:2684   */\n      0x00\n        /* \"#utility.yul\":2718:2720   */\n      0x20\n        /* \"#utility.yul\":2707:2716   */\n      dup3\n        /* \"#utility.yul\":2703:2721   */\n      add\n        /* \"#utility.yul\":2695:2721   */\n      swap1\n      pop\n        /* \"#utility.yul\":2731:2829   */\n      tag_303\n        /* \"#utility.yul\":2826:2827   */\n      0x00\n        /* \"#utility.yul\":2815:2824   */\n      dup4\n        /* \"#utility.yul\":2811:2828   */\n      add\n        /* \"#utility.yul\":2802:2808   */\n      dup5\n        /* \"#utility.yul\":2731:2829   */\n      tag_218\n      jump\t// in\n    tag_303:\n        /* \"#utility.yul\":2560:2836   */\n      swap3\n      swap2\n      pop\n      pop\n      jump\t// out\n        /* \"#utility.yul\":2842:2938   */\n    tag_219:\n        /* \"#utility.yul\":2879:2886   */\n      0x00\n        /* \"#utility.yul\":2908:2932   */\n      tag_305\n        /* \"#utility.yul\":2926:2931   */\n      dup3\n        /* \"#utility.yul\":2908:2932   */\n      tag_211\n      jump\t// in\n    tag_305:\n        /* \"#utility.yul\":2897:2932   */\n      swap1\n      pop\n        /* \"#utility.yul\":2842:2938   */\n      swap2\n      swap1\n      pop\n      jump\t// out\n        /* \"#utility.yul\":2944:3066   */\n    tag_220:\n        /* \"#utility.yul\":3017:3041   */\n      tag_307\n        /* \"#utility.yul\":3035:3040   */\n      dup2\n        /* \"#utility.yul\":3017:3041   */\n      tag_219\n      jump\t// in\n    tag_307:\n        /* \"#utility.yul\":3010:3015   */\n      dup2\n        /* \"#utility.yul\":3007:3042   */\n      eq\n        /* \"#utility.yul\":2997:3060   */\n      tag_308\n      jumpi\n        /* \"#utility.yul\":3056:3057   */\n      0x00\n        /* \"#utility.yul\":3053:3054   */\n      dup1\n        /* \"#utility.yul\":3046:3058   */\n      revert\n        /* \"#utility.yul\":2997:3060   */\n    tag_308:\n        /* \"#utility.yul\":2944:3066   */\n      pop\n      jump\t// out\n        /* \"#utility.yul\":3072:3211   */\n    tag_221:\n        /* \"#utility.yul\":3118:3123   */\n      0x00\n        /* \"#utility.yul\":3156:3162   */\n      dup2\n        /* \"#utility.yul\":3143:3163   */\n      calldataload\n        /* \"#utility.yul\":3134:3163   */\n      swap1\n      pop\n        /* \"#utility.yul\":3172:3205   */\n      tag_310\n        /* \"#utility.yul\":3199:3204   */\n      dup2\n        /* \"#utility.yul\":3172:3205   */\n      tag_220\n      jump\t// in\n    tag_310:\n        /* \"#utility.yul\":3072:3211   */\n      swap3\n      swap2\n      pop\n      pop\n      jump\t// out\n        /* \"#utility.yul\":3217:3546   */\n    tag_28:\n        /* \"#utility.yul\":3276:3282   */\n      0x00\n        /* \"#utility.yul\":3325:3327   */\n      0x20\n        /* \"#utility.yul\":3313:3322   */\n      dup3\n        /* \"#utility.yul\":3304:3311   */\n      dup5\n        /* \"#utility.yul\":3300:3323   */\n      sub\n        /* \"#utility.yul\":3296:3328   */\n      slt\n        /* \"#utility.yul\":3293:3412   */\n      iszero\n      tag_312\n      jumpi\n        /* \"#utility.yul\":3331:3410   */\n      tag_313\n      tag_206\n      jump\t// in\n    tag_313:\n        /* \"#utility.yul\":3293:3412   */\n    tag_312:\n        /* \"#utility.yul\":3451:3452   */\n      0x00\n        /* \"#utility.yul\":3476:3529   */\n      tag_314\n        /* \"#utility.yul\":3521:3528   */\n      dup5\n        /* \"#utility.yul\":3512:3518   */\n      dup3\n        /* \"#utility.yul\":3501:3510   */\n      dup6\n        /* \"#utility.yul\":3497:3519   */\n      add\n        /* \"#utility.yul\":3476:3529   */\n      tag_221\n      jump\t// in\n    tag_314:\n        /* \"#utility.yul\":3466:3529   */\n      swap2\n      pop\n        /* \"#utility.yul\":3422:3539   */\n      pop\n        /* \"#utility.yul\":3217:3546   */\n      swap3\n      swap2\n      pop\n      pop\n      jump\t// out\n        /* \"#utility.yul\":3552:3670   */\n    tag_222:\n        /* \"#utility.yul\":3639:3663   */\n      tag_316\n        /* \"#utility.yul\":3657:3662   */\n      dup2\n        /* \"#utility.yul\":3639:3663   */\n      tag_208\n      jump\t// in\n    tag_316:\n        /* \"#utility.yul\":3634:3637   */\n      dup3\n        /* \"#utility.yul\":3627:3664   */\n      mstore\n        /* \"#utility.yul\":3552:3670   */\n      pop\n      pop\n      jump\t// out\n        /* \"#utility.yul\":3676:4340   */\n    tag_31:\n        /* \"#utility.yul\":3881:3885   */\n      0x00\n        /* \"#utility.yul\":3919:3922   */\n      0xa0\n        /* \"#utility.yul\":3908:3917   */\n      dup3\n        /* \"#utility.yul\":3904:3923   */\n      add\n        /* \"#utility.yul\":3896:3923   */\n      swap1\n      pop\n        /* \"#utility.yul\":3933:4004   */\n      tag_318\n        /* \"#utility.yul\":4001:4002   */\n      0x00\n        /* \"#utility.yul\":3990:3999   */\n      dup4\n        /* \"#utility.yul\":3986:4003   */\n      add\n        /* \"#utility.yul\":3977:3983   */\n      dup9\n        /* \"#utility.yul\":3933:4004   */\n      tag_222\n      jump\t// in\n    tag_318:\n        /* \"#utility.yul\":4014:4086   */\n      tag_319\n        /* \"#utility.yul\":4082:4084   */\n      0x20\n        /* \"#utility.yul\":4071:4080   */\n      dup4\n        /* \"#utility.yul\":4067:4085   */\n      add\n        /* \"#utility.yul\":4058:4064   */\n      dup8\n        /* \"#utility.yul\":4014:4086   */\n      tag_222\n      jump\t// in\n    tag_319:\n        /* \"#utility.yul\":4096:4168   */\n      tag_320\n        /* \"#utility.yul\":4164:4166   */\n      0x40\n        /* \"#utility.yul\":4153:4162   */\n      dup4\n        /* \"#utility.yul\":4149:4167   */\n      add\n        /* \"#utility.yul\":4140:4146   */\n      dup7\n        /* \"#utility.yul\":4096:4168   */\n      tag_222\n      jump\t// in\n    tag_320:\n        /* \"#utility.yul\":4178:4250   */\n      tag_321\n        /* \"#utility.yul\":4246:4248   */\n      0x60\n        /* \"#utility.yul\":4235:4244   */\n      dup4\n        /* \"#utility.yul\":4231:4249   */\n      add\n        /* \"#utility.yul\":4222:4228   */\n      dup6\n        /* \"#utility.yul\":4178:4250   */\n      tag_222\n      jump\t// in\n    tag_321:\n        /* \"#utility.yul\":4260:4333   */\n      tag_322\n        /* \"#utility.yul\":4328:4331   */\n      0x80\n        /* \"#utility.yul\":4317:4326   */\n      dup4\n        /* \"#utility.yul\":4313:4332   */\n      add\n        /* \"#utility.yul\":4304:4310   */\n      dup5\n        /* \"#utility.yul\":4260:4333   */\n      tag_222\n      jump\t// in\n    tag_322:\n        /* \"#utility.yul\":3676:4340   */\n      swap7\n      swap6\n      pop\n      pop\n      pop\n      pop\n      pop\n      pop\n      jump\t// out\n        /* \"#utility.yul\":4346:4568   */\n    tag_37:\n        /* \"#utility.yul\":4439:4443   */\n      0x00\n        /* \"#utility.yul\":4477:4479   */\n      0x20\n        /* \"#utility.yul\":4466:4475   */\n      dup3\n        /* \"#utility.yul\":4462:4480   */\n      add\n        /* \"#utility.yul\":4454:4480   */\n      swap1\n      pop\n        /* \"#utility.yul\":4490:4561   */\n      tag_324\n        /* \"#utility.yul\":4558:4559   */\n      0x00\n        /* \"#utility.yul\":4547:4556   */\n      dup4\n        /* \"#utility.yul\":4543:4560   */\n      add\n        /* \"#utility.yul\":4534:4540   */\n      dup5\n        /* \"#utility.yul\":4490:4561   */\n      tag_222\n      jump\t// in\n    tag_324:\n        /* \"#utility.yul\":4346:4568   */\n      swap3\n      swap2\n      pop\n      pop\n      jump\t// out\n        /* \"#utility.yul\":4574:4743   */\n    tag_223:\n        /* \"#utility.yul\":4658:4669   */\n      0x00\n        /* \"#utility.yul\":4692:4698   */\n      dup3\n        /* \"#utility.yul\":4687:4690   */\n      dup3\n        /* \"#utility.yul\":4680:4699   */\n      mstore\n        /* \"#utility.yul\":4732:4736   */\n      0x20\n        /* \"#utility.yul\":4727:4730   */\n      dup3\n        /* \"#utility.yul\":4723:4737   */\n      add\n        /* \"#utility.yul\":4708:4737   */\n      swap1\n      pop\n        /* \"#utility.yul\":4574:4743   */\n      swap3\n      swap2\n      pop\n      pop\n      jump\t// out\n        /* \"#utility.yul\":4749:4912   */\n    tag_224:\n        /* \"#utility.yul\":4889:4904   */\n      0x506c616e20697320657869737400000000000000000000000000000000000000\n        /* \"#utility.yul\":4885:4886   */\n      0x00\n        /* \"#utility.yul\":4877:4883   */\n      dup3\n        /* \"#utility.yul\":4873:4887   */\n      add\n        /* \"#utility.yul\":4866:4905   */\n      mstore\n        /* \"#utility.yul\":4749:4912   */\n      pop\n      jump\t// out\n        /* \"#utility.yul\":4918:5284   */\n    tag_225:\n        /* \"#utility.yul\":5060:5063   */\n      0x00\n        /* \"#utility.yul\":5081:5148   */\n      tag_328\n        /* \"#utility.yul\":5145:5147   */\n      0x0d\n        /* \"#utility.yul\":5140:5143   */\n      dup4\n        /* \"#utility.yul\":5081:5148   */\n      tag_223\n      jump\t// in\n    tag_328:\n        /* \"#utility.yul\":5074:5148   */\n      swap2\n      pop\n        /* \"#utility.yul\":5157:5250   */\n      tag_329\n        /* \"#utility.yul\":5246:5249   */\n      dup3\n        /* \"#utility.yul\":5157:5250   */\n      tag_224\n      jump\t// in\n    tag_329:\n        /* \"#utility.yul\":5275:5277   */\n      0x20\n        /* \"#utility.yul\":5270:5273   */\n      dup3\n        /* \"#utility.yul\":5266:5278   */\n      add\n        /* \"#utility.yul\":5259:5278   */\n      swap1\n      pop\n        /* \"#utility.yul\":4918:5284   */\n      swap2\n      swap1\n      pop\n      jump\t// out\n        /* \"#utility.yul\":5290:5709   */\n    tag_53:\n        /* \"#utility.yul\":5456:5460   */\n      0x00\n        /* \"#utility.yul\":5494:5496   */\n      0x20\n        /* \"#utility.yul\":5483:5492   */\n      dup3\n        /* \"#utility.yul\":5479:5497   */\n      add\n        /* \"#utility.yul\":5471:5497   */\n      swap1\n      pop\n        /* \"#utility.yul\":5543:5552   */\n      dup2\n        /* \"#utility.yul\":5537:5541   */\n      dup2\n        /* \"#utility.yul\":5533:5553   */\n      sub\n        /* \"#utility.yul\":5529:5530   */\n      0x00\n        /* \"#utility.yul\":5518:5527   */\n      dup4\n        /* \"#utility.yul\":5514:5531   */\n      add\n        /* \"#utility.yul\":5507:5554   */\n      mstore\n        /* \"#utility.yul\":5571:5702   */\n      tag_331\n        /* \"#utility.yul\":5697:5701   */\n      dup2\n        /* \"#utility.yul\":5571:5702   */\n      tag_225\n      jump\t// in\n    tag_331:\n        /* \"#utility.yul\":5563:5702   */\n      swap1\n      pop\n        /* \"#utility.yul\":5290:5709   */\n      swap2\n      swap1\n      pop\n      jump\t// out\n        /* \"#utility.yul\":5715:5897   */\n    tag_226:\n        /* \"#utility.yul\":5855:5889   */\n      0x4672657175656e6379206d7573742062652067726561746572207468616e2030\n        /* \"#utility.yul\":5851:5852   */\n      0x00\n        /* \"#utility.yul\":5843:5849   */\n      dup3\n        /* \"#utility.yul\":5839:5853   */\n      add\n        /* \"#utility.yul\":5832:5890   */\n      mstore\n        /* \"#utility.yul\":5715:5897   */\n      pop\n      jump\t// out\n        /* \"#utility.yul\":5903:6269   */\n    tag_227:\n        /* \"#utility.yul\":6045:6048   */\n      0x00\n        /* \"#utility.yul\":6066:6133   */\n      tag_334\n        /* \"#utility.yul\":6130:6132   */\n      0x20\n        /* \"#utility.yul\":6125:6128   */\n      dup4\n        /* \"#utility.yul\":6066:6133   */\n      tag_223\n      jump\t// in\n    tag_334:\n        /* \"#utility.yul\":6059:6133   */\n      swap2\n      pop\n        /* \"#utility.yul\":6142:6235   */\n      tag_335\n        /* \"#utility.yul\":6231:6234   */\n      dup3\n        /* \"#utility.yul\":6142:6235   */\n      tag_226\n      jump\t// in\n    tag_335:\n        /* \"#utility.yul\":6260:6262   */\n      0x20\n        /* \"#utility.yul\":6255:6258   */\n      dup3\n        /* \"#utility.yul\":6251:6263   */\n      add\n        /* \"#utility.yul\":6244:6263   */\n      swap1\n      pop\n        /* \"#utility.yul\":5903:6269   */\n      swap2\n      swap1\n      pop\n      jump\t// out\n        /* \"#utility.yul\":6275:6694   */\n    tag_56:\n        /* \"#utility.yul\":6441:6445   */\n      0x00\n        /* \"#utility.yul\":6479:6481   */\n      0x20\n        /* \"#utility.yul\":6468:6477   */\n      dup3\n        /* \"#utility.yul\":6464:6482   */\n      add\n        /* \"#utility.yul\":6456:6482   */\n      swap1\n      pop\n        /* \"#utility.yul\":6528:6537   */\n      dup2\n        /* \"#utility.yul\":6522:6526   */\n      dup2\n        /* \"#utility.yul\":6518:6538   */\n      sub\n        /* \"#utility.yul\":6514:6515   */\n      0x00\n        /* \"#utility.yul\":6503:6512   */\n      dup4\n        /* \"#utility.yul\":6499:6516   */\n      add\n        /* \"#utility.yul\":6492:6539   */\n      mstore\n        /* \"#utility.yul\":6556:6687   */\n      tag_337\n        /* \"#utility.yul\":6682:6686   */\n      dup2\n        /* \"#utility.yul\":6556:6687   */\n      tag_227\n      jump\t// in\n    tag_337:\n        /* \"#utility.yul\":6548:6687   */\n      swap1\n      pop\n        /* \"#utility.yul\":6275:6694   */\n      swap2\n      swap1\n      pop\n      jump\t// out\n        /* \"#utility.yul\":6700:6879   */\n    tag_228:\n        /* \"#utility.yul\":6840:6871   */\n      0x416d6f756e74206d7573742062652067726561746572207468616e2030000000\n        /* \"#utility.yul\":6836:6837   */\n      0x00\n        /* \"#utility.yul\":6828:6834   */\n      dup3\n        /* \"#utility.yul\":6824:6838   */\n      add\n        /* \"#utility.yul\":6817:6872   */\n      mstore\n        /* \"#utility.yul\":6700:6879   */\n      pop\n      jump\t// out\n        /* \"#utility.yul\":6885:7251   */\n    tag_229:\n        /* \"#utility.yul\":7027:7030   */\n      0x00\n        /* \"#utility.yul\":7048:7115   */\n      tag_340\n        /* \"#utility.yul\":7112:7114   */\n      0x1d\n        /* \"#utility.yul\":7107:7110   */\n      dup4\n        /* \"#utility.yul\":7048:7115   */\n      tag_223\n      jump\t// in\n    tag_340:\n        /* \"#utility.yul\":7041:7115   */\n      swap2\n      pop\n        /* \"#utility.yul\":7124:7217   */\n      tag_341\n        /* \"#utility.yul\":7213:7216   */\n      dup3\n        /* \"#utility.yul\":7124:7217   */\n      tag_228\n      jump\t// in\n    tag_341:\n        /* \"#utility.yul\":7242:7244   */\n      0x20\n        /* \"#utility.yul\":7237:7240   */\n      dup3\n        /* \"#utility.yul\":7233:7245   */\n      add\n        /* \"#utility.yul\":7226:7245   */\n      swap1\n      pop\n        /* \"#utility.yul\":6885:7251   */\n      swap2\n      swap1\n      pop\n      jump\t// out\n        /* \"#utility.yul\":7257:7676   */\n    tag_59:\n        /* \"#utility.yul\":7423:7427   */\n      0x00\n        /* \"#utility.yul\":7461:7463   */\n      0x20\n        /* \"#utility.yul\":7450:7459   */\n      dup3\n        /* \"#utility.yul\":7446:7464   */\n      add\n        /* \"#utility.yul\":7438:7464   */\n      swap1\n      pop\n        /* \"#utility.yul\":7510:7519   */\n      dup2\n        /* \"#utility.yul\":7504:7508   */\n      dup2\n        /* \"#utility.yul\":7500:7520   */\n      sub\n        /* \"#utility.yul\":7496:7497   */\n      0x00\n        /* \"#utility.yul\":7485:7494   */\n      dup4\n        /* \"#utility.yul\":7481:7498   */\n      add\n        /* \"#utility.yul\":7474:7521   */\n      mstore\n        /* \"#utility.yul\":7538:7669   */\n      tag_343\n        /* \"#utility.yul\":7664:7668   */\n      dup2\n        /* \"#utility.yul\":7538:7669   */\n      tag_229\n      jump\t// in\n    tag_343:\n        /* \"#utility.yul\":7530:7669   */\n      swap1\n      pop\n        /* \"#utility.yul\":7257:7676   */\n      swap2\n      swap1\n      pop\n      jump\t// out\n        /* \"#utility.yul\":7682:8014   */\n    tag_61:\n        /* \"#utility.yul\":7803:7807   */\n      0x00\n        /* \"#utility.yul\":7841:7843   */\n      0x40\n        /* \"#utility.yul\":7830:7839   */\n      dup3\n        /* \"#utility.yul\":7826:7844   */\n      add\n        /* \"#utility.yul\":7818:7844   */\n      swap1\n      pop\n        /* \"#utility.yul\":7854:7925   */\n      tag_345\n        /* \"#utility.yul\":7922:7923   */\n      0x00\n        /* \"#utility.yul\":7911:7920   */\n      dup4\n        /* \"#utility.yul\":7907:7924   */\n      add\n        /* \"#utility.yul\":7898:7904   */\n      dup6\n        /* \"#utility.yul\":7854:7925   */\n      tag_222\n      jump\t// in\n    tag_345:\n        /* \"#utility.yul\":7935:8007   */\n      tag_346\n        /* \"#utility.yul\":8003:8005   */\n      0x20\n        /* \"#utility.yul\":7992:8001   */\n      dup4\n        /* \"#utility.yul\":7988:8006   */\n      add\n        /* \"#utility.yul\":7979:7985   */\n      dup5\n        /* \"#utility.yul\":7935:8007   */\n      tag_222\n      jump\t// in\n    tag_346:\n        /* \"#utility.yul\":7682:8014   */\n      swap4\n      swap3\n      pop\n      pop\n      pop\n      jump\t// out\n        /* \"#utility.yul\":8020:8187   */\n    tag_230:\n        /* \"#utility.yul\":8160:8179   */\n      0x506c616e206973206e6f74206578697374000000000000000000000000000000\n        /* \"#utility.yul\":8156:8157   */\n      0x00\n        /* \"#utility.yul\":8148:8154   */\n      dup3\n        /* \"#utility.yul\":8144:8158   */\n      add\n        /* \"#utility.yul\":8137:8180   */\n      mstore\n        /* \"#utility.yul\":8020:8187   */\n      pop\n      jump\t// out\n        /* \"#utility.yul\":8193:8559   */\n    tag_231:\n        /* \"#utility.yul\":8335:8338   */\n      0x00\n        /* \"#utility.yul\":8356:8423   */\n      tag_349\n        /* \"#utility.yul\":8420:8422   */\n      0x11\n        /* \"#utility.yul\":8415:8418   */\n      dup4\n        /* \"#utility.yul\":8356:8423   */\n      tag_223\n      jump\t// in\n    tag_349:\n        /* \"#utility.yul\":8349:8423   */\n      swap2\n      pop\n        /* \"#utility.yul\":8432:8525   */\n      tag_350\n        /* \"#utility.yul\":8521:8524   */\n      dup3\n        /* \"#utility.yul\":8432:8525   */\n      tag_230\n      jump\t// in\n    tag_350:\n        /* \"#utility.yul\":8550:8552   */\n      0x20\n        /* \"#utility.yul\":8545:8548   */\n      dup3\n        /* \"#utility.yul\":8541:8553   */\n      add\n        /* \"#utility.yul\":8534:8553   */\n      swap1\n      pop\n        /* \"#utility.yul\":8193:8559   */\n      swap2\n      swap1\n      pop\n      jump\t// out\n        /* \"#utility.yul\":8565:8984   */\n    tag_65:\n        /* \"#utility.yul\":8731:8735   */\n      0x00\n        /* \"#utility.yul\":8769:8771   */\n      0x20\n        /* \"#utility.yul\":8758:8767   */\n      dup3\n        /* \"#utility.yul\":8754:8772   */\n      add\n        /* \"#utility.yul\":8746:8772   */\n      swap1\n      pop\n        /* \"#utility.yul\":8818:8827   */\n      dup2\n        /* \"#utility.yul\":8812:8816   */\n      dup2\n        /* \"#utility.yul\":8808:8828   */\n      sub\n        /* \"#utility.yul\":8804:8805   */\n      0x00\n        /* \"#utility.yul\":8793:8802   */\n      dup4\n        /* \"#utility.yul\":8789:8806   */\n      add\n        /* \"#utility.yul\":8782:8829   */\n      mstore\n        /* \"#utility.yul\":8846:8977   */\n      tag_352\n        /* \"#utility.yul\":8972:8976   */\n      dup2\n        /* \"#utility.yul\":8846:8977   */\n      tag_231\n      jump\t// in\n    tag_352:\n        /* \"#utility.yul\":8838:8977   */\n      swap1\n      pop\n        /* \"#utility.yul\":8565:8984   */\n      swap2\n      swap1\n      pop\n      jump\t// out\n        /* \"#utility.yul\":8990:9210   */\n    tag_232:\n        /* \"#utility.yul\":9130:9164   */\n      0x546f74616c206d7573742062652067726561746572207468616e20616d6f756e\n        /* \"#utility.yul\":9126:9127   */\n      0x00\n        /* \"#utility.yul\":9118:9124   */\n      dup3\n        /* \"#utility.yul\":9114:9128   */\n      add\n        /* \"#utility.yul\":9107:9165   */\n      mstore\n        /* \"#utility.yul\":9199:9202   */\n      0x7400000000000000000000000000000000000000000000000000000000000000\n        /* \"#utility.yul\":9194:9196   */\n      0x20\n        /* \"#utility.yul\":9186:9192   */\n      dup3\n        /* \"#utility.yul\":9182:9197   */\n      add\n        /* \"#utility.yul\":9175:9203   */\n      mstore\n        /* \"#utility.yul\":8990:9210   */\n      pop\n      jump\t// out\n        /* \"#utility.yul\":9216:9582   */\n    tag_233:\n        /* \"#utility.yul\":9358:9361   */\n      0x00\n        /* \"#utility.yul\":9379:9446   */\n      tag_355\n        /* \"#utility.yul\":9443:9445   */\n      0x21\n        /* \"#utility.yul\":9438:9441   */\n      dup4\n        /* \"#utility.yul\":9379:9446   */\n      tag_223\n      jump\t// in\n    tag_355:\n        /* \"#utility.yul\":9372:9446   */\n      swap2\n      pop\n        /* \"#utility.yul\":9455:9548   */\n      tag_356\n        /* \"#utility.yul\":9544:9547   */\n      dup3\n        /* \"#utility.yul\":9455:9548   */\n      tag_232\n      jump\t// in\n    tag_356:\n        /* \"#utility.yul\":9573:9575   */\n      0x40\n        /* \"#utility.yul\":9568:9571   */\n      dup3\n        /* \"#utility.yul\":9564:9576   */\n      add\n        /* \"#utility.yul\":9557:9576   */\n      swap1\n      pop\n        /* \"#utility.yul\":9216:9582   */\n      swap2\n      swap1\n      pop\n      jump\t// out\n        /* \"#utility.yul\":9588:10007   */\n    tag_71:\n        /* \"#utility.yul\":9754:9758   */\n      0x00\n        /* \"#utility.yul\":9792:9794   */\n      0x20\n        /* \"#utility.yul\":9781:9790   */\n      dup3\n        /* \"#utility.yul\":9777:9795   */\n      add\n        /* \"#utility.yul\":9769:9795   */\n      swap1\n      pop\n        /* \"#utility.yul\":9841:9850   */\n      dup2\n        /* \"#utility.yul\":9835:9839   */\n      dup2\n        /* \"#utility.yul\":9831:9851   */\n      sub\n        /* \"#utility.yul\":9827:9828   */\n      0x00\n        /* \"#utility.yul\":9816:9825   */\n      dup4\n        /* \"#utility.yul\":9812:9829   */\n      add\n        /* \"#utility.yul\":9805:9852   */\n      mstore\n        /* \"#utility.yul\":9869:10000   */\n      tag_358\n        /* \"#utility.yul\":9995:9999   */\n      dup2\n        /* \"#utility.yul\":9869:10000   */\n      tag_233\n      jump\t// in\n    tag_358:\n        /* \"#utility.yul\":9861:10000   */\n      swap1\n      pop\n        /* \"#utility.yul\":9588:10007   */\n      swap2\n      swap1\n      pop\n      jump\t// out\n        /* \"#utility.yul\":10013:10193   */\n    tag_234:\n        /* \"#utility.yul\":10061:10138   */\n      0x4e487b7100000000000000000000000000000000000000000000000000000000\n        /* \"#utility.yul\":10058:10059   */\n      0x00\n        /* \"#utility.yul\":10051:10139   */\n      mstore\n        /* \"#utility.yul\":10158:10162   */\n      0x11\n        /* \"#utility.yul\":10155:10156   */\n      0x04\n        /* \"#utility.yul\":10148:10163   */\n      mstore\n        /* \"#utility.yul\":10182:10186   */\n      0x24\n        /* \"#utility.yul\":10179:10180   */\n      0x00\n        /* \"#utility.yul\":10172:10187   */\n      revert\n        /* \"#utility.yul\":10199:10432   */\n    tag_80:\n        /* \"#utility.yul\":10238:10241   */\n      0x00\n        /* \"#utility.yul\":10261:10285   */\n      tag_361\n        /* \"#utility.yul\":10279:10284   */\n      dup3\n        /* \"#utility.yul\":10261:10285   */\n      tag_208\n      jump\t// in\n    tag_361:\n        /* \"#utility.yul\":10252:10285   */\n      swap2\n      pop\n        /* \"#utility.yul\":10307:10373   */\n      0xffffffffffffffffffffffffffffffffffffffffffffffffffffffffffffffff\n        /* \"#utility.yul\":10300:10305   */\n      dup3\n        /* \"#utility.yul\":10297:10374   */\n      sub\n        /* \"#utility.yul\":10294:10397   */\n      tag_362\n      jumpi\n        /* \"#utility.yul\":10377:10395   */\n      tag_363\n      tag_234\n      jump\t// in\n    tag_363:\n        /* \"#utility.yul\":10294:10397   */\n    tag_362:\n        /* \"#utility.yul\":10424:10425   */\n      0x01\n        /* \"#utility.yul\":10417:10422   */\n      dup3\n        /* \"#utility.yul\":10413:10426   */\n      add\n        /* \"#utility.yul\":10406:10426   */\n      swap1\n      pop\n        /* \"#utility.yul\":10199:10432   */\n      swap2\n      swap1\n      pop\n      jump\t// out\n        /* \"#utility.yul\":10438:10606   */\n    tag_235:\n        /* \"#utility.yul\":10578:10598   */\n      0x506c616e206973206e6f74206163746976650000000000000000000000000000\n        /* \"#utility.yul\":10574:10575   */\n      0x00\n        /* \"#utility.yul\":10566:10572   */\n      dup3\n        /* \"#utility.yul\":10562:10576   */\n      add\n        /* \"#utility.yul\":10555:10599   */\n      mstore\n        /* \"#utility.yul\":10438:10606   */\n      pop\n      jump\t// out\n        /* \"#utility.yul\":10612:10978   */\n    tag_236:\n        /* \"#utility.yul\":10754:10757   */\n      0x00\n        /* \"#utility.yul\":10775:10842   */\n      tag_366\n        /* \"#utility.yul\":10839:10841   */\n      0x12\n        /* \"#utility.yul\":10834:10837   */\n      dup4\n        /* \"#utility.yul\":10775:10842   */\n      tag_223\n      jump\t// in\n    tag_366:\n        /* \"#utility.yul\":10768:10842   */\n      swap2\n      pop\n        /* \"#utility.yul\":10851:10944   */\n      tag_367\n        /* \"#utility.yul\":10940:10943   */\n      dup3\n        /* \"#utility.yul\":10851:10944   */\n      tag_235\n      jump\t// in\n    tag_367:\n        /* \"#utility.yul\":10969:10971   */\n      0x20\n        /* \"#utility.yul\":10964:10967   */\n      dup3\n        /* \"#utility.yul\":10960:10972   */\n      add\n        /* \"#utility.yul\":10953:10972   */\n      swap1\n      pop\n        /* \"#utility.yul\":10612:10978   */\n      swap2\n      swap1\n      pop\n      jump\t// out\n        /* \"#utility.yul\":10984:11403   */\n    tag_86:\n        /* \"#utility.yul\":11150:11154   */\n      0x00\n        /* \"#utility.yul\":11188:11190   */\n      0x20\n        /* \"#utility.yul\":11177:11186   */\n      dup3\n        /* \"#utility.yul\":11173:11191   */\n      add\n        /* \"#utility.yul\":11165:11191   */\n      swap1\n      pop\n        /* \"#utility.yul\":11237:11246   */\n      dup2\n        /* \"#utility.yul\":11231:11235   */\n      dup2\n        /* \"#utility.yul\":11227:11247   */\n      sub\n        /* \"#utility.yul\":11223:11224   */\n      0x00\n        /* \"#utility.yul\":11212:11221   */\n      dup4\n        /* \"#utility.yul\":11208:11225   */\n      add\n        /* \"#utility.yul\":11201:11248   */\n      mstore\n        /* \"#utility.yul\":11265:11396   */\n      tag_369\n        /* \"#utility.yul\":11391:11395   */\n      dup2\n        /* \"#utility.yul\":11265:11396   */\n      tag_236\n      jump\t// in\n    tag_369:\n        /* \"#utility.yul\":11257:11396   */\n      swap1\n      pop\n        /* \"#utility.yul\":10984:11403   */\n      swap2\n      swap1\n      pop\n      jump\t// out\n        /* \"#utility.yul\":11409:11637   */\n    tag_237:\n        /* \"#utility.yul\":11549:11583   */\n      0x43616e6e6f742074726967676572206d6f7265207468616e2072656d61696e69\n        /* \"#utility.yul\":11545:11546   */\n      0x00\n        /* \"#utility.yul\":11537:11543   */\n      dup3\n        /* \"#utility.yul\":11533:11547   */\n      add\n        /* \"#utility.yul\":11526:11584   */\n      mstore\n        /* \"#utility.yul\":11618:11629   */\n      0x6e6720616d6f756e740000000000000000000000000000000000000000000000\n        /* \"#utility.yul\":11613:11615   */\n      0x20\n        /* \"#utility.yul\":11605:11611   */\n      dup3\n        /* \"#utility.yul\":11601:11616   */\n      add\n        /* \"#utility.yul\":11594:11630   */\n      mstore\n        /* \"#utility.yul\":11409:11637   */\n      pop\n      jump\t// out\n        /* \"#utility.yul\":11643:12009   */\n    tag_238:\n        /* \"#utility.yul\":11785:11788   */\n      0x00\n        /* \"#utility.yul\":11806:11873   */\n      tag_372\n        /* \"#utility.yul\":11870:11872   */\n      0x29\n        /* \"#utility.yul\":11865:11868   */\n      dup4\n        /* \"#utility.yul\":11806:11873   */\n      tag_223\n      jump\t// in\n    tag_372:\n        /* \"#utility.yul\":11799:11873   */\n      swap2\n      pop\n        /* \"#utility.yul\":11882:11975   */\n      tag_373\n        /* \"#utility.yul\":11971:11974   */\n      dup3\n        /* \"#utility.yul\":11882:11975   */\n      tag_237\n      jump\t// in\n    tag_373:\n        /* \"#utility.yul\":12000:12002   */\n      0x40\n        /* \"#utility.yul\":11995:11998   */\n      dup3\n        /* \"#utility.yul\":11991:12003   */\n      add\n        /* \"#utility.yul\":11984:12003   */\n      swap1\n      pop\n        /* \"#utility.yul\":11643:12009   */\n      swap2\n      swap1\n      pop\n      jump\t// out\n        /* \"#utility.yul\":12015:12434   */\n    tag_90:\n        /* \"#utility.yul\":12181:12185   */\n      0x00\n        /* \"#utility.yul\":12219:12221   */\n      0x20\n        /* \"#utility.yul\":12208:12217   */\n      dup3\n        /* \"#utility.yul\":12204:12222   */\n      add\n        /* \"#utility.yul\":12196:12222   */\n      swap1\n      pop\n        /* \"#utility.yul\":12268:12277   */\n      dup2\n        /* \"#utility.yul\":12262:12266   */\n      dup2\n        /* \"#utility.yul\":12258:12278   */\n      sub\n        /* \"#utility.yul\":12254:12255   */\n      0x00\n        /* \"#utility.yul\":12243:12252   */\n      dup4\n        /* \"#utility.yul\":12239:12256   */\n      add\n        /* \"#utility.yul\":12232:12279   */\n      mstore\n        /* \"#utility.yul\":12296:12427   */\n      tag_375\n        /* \"#utility.yul\":12422:12426   */\n      dup2\n        /* \"#utility.yul\":12296:12427   */\n      tag_238\n      jump\t// in\n    tag_375:\n        /* \"#utility.yul\":12288:12427   */\n      swap1\n      pop\n        /* \"#utility.yul\":12015:12434   */\n      swap2\n      swap1\n      pop\n      jump\t// out\n        /* \"#utility.yul\":12440:12850   */\n    tag_92:\n        /* \"#utility.yul\":12480:12487   */\n      0x00\n        /* \"#utility.yul\":12503:12523   */\n      tag_377\n        /* \"#utility.yul\":12521:12522   */\n      dup3\n        /* \"#utility.yul\":12503:12523   */\n      tag_208\n      jump\t// in\n    tag_377:\n        /* \"#utility.yul\":12498:12523   */\n      swap2\n      pop\n        /* \"#utility.yul\":12537:12557   */\n      tag_378\n        /* \"#utility.yul\":12555:12556   */\n      dup4\n        /* \"#utility.yul\":12537:12557   */\n      tag_208\n      jump\t// in\n    tag_378:\n        /* \"#utility.yul\":12532:12557   */\n      swap3\n      pop\n        /* \"#utility.yul\":12592:12593   */\n      dup3\n        /* \"#utility.yul\":12589:12590   */\n      dup3\n        /* \"#utility.yul\":12585:12594   */\n      mul\n        /* \"#utility.yul\":12614:12644   */\n      tag_379\n        /* \"#utility.yul\":12632:12643   */\n      dup2\n        /* \"#utility.yul\":12614:12644   */\n      tag_208\n      jump\t// in\n    tag_379:\n        /* \"#utility.yul\":12603:12644   */\n      swap2\n      pop\n        /* \"#utility.yul\":12793:12794   */\n      dup3\n        /* \"#utility.yul\":12784:12791   */\n      dup3\n        /* \"#utility.yul\":12780:12795   */\n      div\n        /* \"#utility.yul\":12777:12778   */\n      dup5\n        /* \"#utility.yul\":12774:12796   */\n      eq\n        /* \"#utility.yul\":12754:12755   */\n      dup4\n        /* \"#utility.yul\":12747:12756   */\n      iszero\n        /* \"#utility.yul\":12727:12810   */\n      or\n        /* \"#utility.yul\":12704:12843   */\n      tag_380\n      jumpi\n        /* \"#utility.yul\":12823:12841   */\n      tag_381\n      tag_234\n      jump\t// in\n    tag_381:\n        /* \"#utility.yul\":12704:12843   */\n    tag_380:\n        /* \"#utility.yul\":12488:12850   */\n      pop\n        /* \"#utility.yul\":12440:12850   */\n      swap3\n      swap2\n      pop\n      pop\n      jump\t// out\n        /* \"#utility.yul\":12856:13047   */\n    tag_94:\n        /* \"#utility.yul\":12896:12899   */\n      0x00\n        /* \"#utility.yul\":12915:12935   */\n      tag_383\n        /* \"#utility.yul\":12933:12934   */\n      dup3\n        /* \"#utility.yul\":12915:12935   */\n      tag_208\n      jump\t// in\n    tag_383:\n        /* \"#utility.yul\":12910:12935   */\n      swap2\n      pop\n        /* \"#utility.yul\":12949:12969   */\n      tag_384\n        /* \"#utility.yul\":12967:12968   */\n      dup4\n        /* \"#utility.yul\":12949:12969   */\n      tag_208\n      jump\t// in\n    tag_384:\n        /* \"#utility.yul\":12944:12969   */\n      swap3\n      pop\n        /* \"#utility.yul\":12992:12993   */\n      dup3\n        /* \"#utility.yul\":12989:12990   */\n      dup3\n        /* \"#utility.yul\":12985:12994   */\n      add\n        /* \"#utility.yul\":12978:12994   */\n      swap1\n      pop\n        /* \"#utility.yul\":13013:13016   */\n      dup1\n        /* \"#utility.yul\":13010:13011   */\n      dup3\n        /* \"#utility.yul\":13007:13017   */\n      gt\n        /* \"#utility.yul\":13004:13040   */\n      iszero\n      tag_385\n      jumpi\n        /* \"#utility.yul\":13020:13038   */\n      tag_386\n      tag_234\n      jump\t// in\n    tag_386:\n        /* \"#utility.yul\":13004:13040   */\n    tag_385:\n        /* \"#utility.yul\":12856:13047   */\n      swap3\n      swap2\n      pop\n      pop\n      jump\t// out\n        /* \"#utility.yul\":13053:13274   */\n    tag_239:\n        /* \"#utility.yul\":13193:13227   */\n      0x43616e206f6e6c79207472696767657220706c616e206f6e6365207065722064\n        /* \"#utility.yul\":13189:13190   */\n      0x00\n        /* \"#utility.yul\":13181:13187   */\n      dup3\n        /* \"#utility.yul\":13177:13191   */\n      add\n        /* \"#utility.yul\":13170:13228   */\n      mstore\n        /* \"#utility.yul\":13262:13266   */\n      0x6179000000000000000000000000000000000000000000000000000000000000\n        /* \"#utility.yul\":13257:13259   */\n      0x20\n        /* \"#utility.yul\":13249:13255   */\n      dup3\n        /* \"#utility.yul\":13245:13260   */\n      add\n        /* \"#utility.yul\":13238:13267   */\n      mstore\n        /* \"#utility.yul\":13053:13274   */\n      pop\n      jump\t// out\n        /* \"#utility.yul\":13280:13646   */\n    tag_240:\n        /* \"#utility.yul\":13422:13425   */\n      0x00\n        /* \"#utility.yul\":13443:13510   */\n      tag_389\n        /* \"#utility.yul\":13507:13509   */\n      0x22\n        /* \"#utility.yul\":13502:13505   */\n      dup4\n        /* \"#utility.yul\":13443:13510   */\n      tag_223\n      jump\t// in\n    tag_389:\n        /* \"#utility.yul\":13436:13510   */\n      swap2\n      pop\n        /* \"#utility.yul\":13519:13612   */\n      tag_390\n        /* \"#utility.yul\":13608:13611   */\n      dup3\n        /* \"#utility.yul\":13519:13612   */\n      tag_239\n      jump\t// in\n    tag_390:\n        /* \"#utility.yul\":13637:13639   */\n      0x40\n        /* \"#utility.yul\":13632:13635   */\n      dup3\n        /* \"#utility.yul\":13628:13640   */\n      add\n        /* \"#utility.yul\":13621:13640   */\n      swap1\n      pop\n        /* \"#utility.yul\":13280:13646   */\n      swap2\n      swap1\n      pop\n      jump\t// out\n        /* \"#utility.yul\":13652:14071   */\n    tag_97:\n        /* \"#utility.yul\":13818:13822   */\n      0x00\n        /* \"#utility.yul\":13856:13858   */\n      0x20\n        /* \"#utility.yul\":13845:13854   */\n      dup3\n        /* \"#utility.yul\":13841:13859   */\n      add\n        /* \"#utility.yul\":13833:13859   */\n      swap1\n      pop\n        /* \"#utility.yul\":13905:13914   */\n      dup2\n        /* \"#utility.yul\":13899:13903   */\n      dup2\n        /* \"#utility.yul\":13895:13915   */\n      sub\n        /* \"#utility.yul\":13891:13892   */\n      0x00\n        /* \"#utility.yul\":13880:13889   */\n      dup4\n        /* \"#utility.yul\":13876:13893   */\n      add\n        /* \"#utility.yul\":13869:13916   */\n      mstore\n        /* \"#utility.yul\":13933:14064   */\n      tag_392\n        /* \"#utility.yul\":14059:14063   */\n      dup2\n        /* \"#utility.yul\":13933:14064   */\n      tag_240\n      jump\t// in\n    tag_392:\n        /* \"#utility.yul\":13925:14064   */\n      swap1\n      pop\n        /* \"#utility.yul\":13652:14071   */\n      swap2\n      swap1\n      pop\n      jump\t// out\n        /* \"#utility.yul\":14077:14257   */\n    tag_104:\n        /* \"#utility.yul\":14125:14202   */\n      0x4e487b7100000000000000000000000000000000000000000000000000000000\n        /* \"#utility.yul\":14122:14123   */\n      0x00\n        /* \"#utility.yul\":14115:14203   */\n      mstore\n        /* \"#utility.yul\":14222:14226   */\n      0x41\n        /* \"#utility.yul\":14219:14220   */\n      0x04\n        /* \"#utility.yul\":14212:14227   */\n      mstore\n        /* \"#utility.yul\":14246:14250   */\n      0x24\n        /* \"#utility.yul\":14243:14244   */\n      0x00\n        /* \"#utility.yul\":14236:14251   */\n      revert\n        /* \"#utility.yul\":14263:14443   */\n    tag_108:\n        /* \"#utility.yul\":14311:14388   */\n      0x4e487b7100000000000000000000000000000000000000000000000000000000\n        /* \"#utility.yul\":14308:14309   */\n      0x00\n        /* \"#utility.yul\":14301:14389   */\n      mstore\n        /* \"#utility.yul\":14408:14412   */\n      0x32\n        /* \"#utility.yul\":14405:14406   */\n      0x04\n        /* \"#utility.yul\":14398:14413   */\n      mstore\n        /* \"#utility.yul\":14432:14436   */\n      0x24\n        /* \"#utility.yul\":14429:14430   */\n      0x00\n        /* \"#utility.yul\":14422:14437   */\n      revert\n        /* \"#utility.yul\":14449:14592   */\n    tag_241:\n        /* \"#utility.yul\":14506:14511   */\n      0x00\n        /* \"#utility.yul\":14537:14543   */\n      dup2\n        /* \"#utility.yul\":14531:14544   */\n      mload\n        /* \"#utility.yul\":14522:14544   */\n      swap1\n      pop\n        /* \"#utility.yul\":14553:14586   */\n      tag_396\n        /* \"#utility.yul\":14580:14585   */\n      dup2\n        /* \"#utility.yul\":14553:14586   */\n      tag_220\n      jump\t// in\n    tag_396:\n        /* \"#utility.yul\":14449:14592   */\n      swap3\n      swap2\n      pop\n      pop\n      jump\t// out\n        /* \"#utility.yul\":14598:14949   */\n    tag_112:\n        /* \"#utility.yul\":14668:14674   */\n      0x00\n        /* \"#utility.yul\":14717:14719   */\n      0x20\n        /* \"#utility.yul\":14705:14714   */\n      dup3\n        /* \"#utility.yul\":14696:14703   */\n      dup5\n        /* \"#utility.yul\":14692:14715   */\n      sub\n        /* \"#utility.yul\":14688:14720   */\n      slt\n        /* \"#utility.yul\":14685:14804   */\n      iszero\n      tag_398\n      jumpi\n        /* \"#utility.yul\":14723:14802   */\n      tag_399\n      tag_206\n      jump\t// in\n    tag_399:\n        /* \"#utility.yul\":14685:14804   */\n    tag_398:\n        /* \"#utility.yul\":14843:14844   */\n      0x00\n        /* \"#utility.yul\":14868:14932   */\n      tag_400\n        /* \"#utility.yul\":14924:14931   */\n      dup5\n        /* \"#utility.yul\":14915:14921   */\n      dup3\n        /* \"#utility.yul\":14904:14913   */\n      dup6\n        /* \"#utility.yul\":14900:14922   */\n      add\n        /* \"#utility.yul\":14868:14932   */\n      tag_241\n      jump\t// in\n    tag_400:\n        /* \"#utility.yul\":14858:14932   */\n      swap2\n      pop\n        /* \"#utility.yul\":14814:14942   */\n      pop\n        /* \"#utility.yul\":14598:14949   */\n      swap3\n      swap2\n      pop\n      pop\n      jump\t// out\n        /* \"#utility.yul\":14955:15040   */\n    tag_242:\n        /* \"#utility.yul\":15000:15007   */\n      0x00\n        /* \"#utility.yul\":15029:15034   */\n      dup2\n        /* \"#utility.yul\":15018:15034   */\n      swap1\n      pop\n        /* \"#utility.yul\":14955:15040   */\n      swap2\n      swap1\n      pop\n      jump\t// out\n        /* \"#utility.yul\":15046:15204   */\n    tag_243:\n        /* \"#utility.yul\":15104:15113   */\n      0x00\n        /* \"#utility.yul\":15137:15198   */\n      tag_403\n        /* \"#utility.yul\":15155:15197   */\n      tag_404\n        /* \"#utility.yul\":15164:15196   */\n      tag_405\n        /* \"#utility.yul\":15190:15195   */\n      dup5\n        /* \"#utility.yul\":15164:15196   */\n      tag_242\n      jump\t// in\n    tag_405:\n        /* \"#utility.yul\":15155:15197   */\n      tag_212\n      jump\t// in\n    tag_404:\n        /* \"#utility.yul\":15137:15198   */\n      tag_208\n      jump\t// in\n    tag_403:\n        /* \"#utility.yul\":15124:15198   */\n      swap1\n      pop\n        /* \"#utility.yul\":15046:15204   */\n      swap2\n      swap1\n      pop\n      jump\t// out\n        /* \"#utility.yul\":15210:15357   */\n    tag_244:\n        /* \"#utility.yul\":15305:15350   */\n      tag_407\n        /* \"#utility.yul\":15344:15349   */\n      dup2\n        /* \"#utility.yul\":15305:15350   */\n      tag_243\n      jump\t// in\n    tag_407:\n        /* \"#utility.yul\":15300:15303   */\n      dup3\n        /* \"#utility.yul\":15293:15351   */\n      mstore\n        /* \"#utility.yul\":15210:15357   */\n      pop\n      pop\n      jump\t// out\n        /* \"#utility.yul\":15363:15477   */\n    tag_245:\n        /* \"#utility.yul\":15430:15436   */\n      0x00\n        /* \"#utility.yul\":15464:15469   */\n      dup2\n        /* \"#utility.yul\":15458:15470   */\n      mload\n        /* \"#utility.yul\":15448:15470   */\n      swap1\n      pop\n        /* \"#utility.yul\":15363:15477   */\n      swap2\n      swap1\n      pop\n      jump\t// out\n        /* \"#utility.yul\":15483:15667   */\n    tag_246:\n        /* \"#utility.yul\":15582:15593   */\n      0x00\n        /* \"#utility.yul\":15616:15622   */\n      dup3\n        /* \"#utility.yul\":15611:15614   */\n      dup3\n        /* \"#utility.yul\":15604:15623   */\n      mstore\n        /* \"#utility.yul\":15656:15660   */\n      0x20\n        /* \"#utility.yul\":15651:15654   */\n      dup3\n        /* \"#utility.yul\":15647:15661   */\n      add\n        /* \"#utility.yul\":15632:15661   */\n      swap1\n      pop\n        /* \"#utility.yul\":15483:15667   */\n      swap3\n      swap2\n      pop\n      pop\n      jump\t// out\n        /* \"#utility.yul\":15673:15805   */\n    tag_247:\n        /* \"#utility.yul\":15740:15744   */\n      0x00\n        /* \"#utility.yul\":15763:15766   */\n      dup2\n        /* \"#utility.yul\":15755:15766   */\n      swap1\n      pop\n        /* \"#utility.yul\":15793:15797   */\n      0x20\n        /* \"#utility.yul\":15788:15791   */\n      dup3\n        /* \"#utility.yul\":15784:15798   */\n      add\n        /* \"#utility.yul\":15776:15798   */\n      swap1\n      pop\n        /* \"#utility.yul\":15673:15805   */\n      swap2\n      swap1\n      pop\n      jump\t// out\n        /* \"#utility.yul\":15811:15919   */\n    tag_248:\n        /* \"#utility.yul\":15888:15912   */\n      tag_412\n        /* \"#utility.yul\":15906:15911   */\n      dup2\n        /* \"#utility.yul\":15888:15912   */\n      tag_219\n      jump\t// in\n    tag_412:\n        /* \"#utility.yul\":15883:15886   */\n      dup3\n        /* \"#utility.yul\":15876:15913   */\n      mstore\n        /* \"#utility.yul\":15811:15919   */\n      pop\n      pop\n      jump\t// out\n        /* \"#utility.yul\":15925:16104   */\n    tag_249:\n        /* \"#utility.yul\":15994:16004   */\n      0x00\n        /* \"#utility.yul\":16015:16061   */\n      tag_414\n        /* \"#utility.yul\":16057:16060   */\n      dup4\n        /* \"#utility.yul\":16049:16055   */\n      dup4\n        /* \"#utility.yul\":16015:16061   */\n      tag_248\n      jump\t// in\n    tag_414:\n        /* \"#utility.yul\":16093:16097   */\n      0x20\n        /* \"#utility.yul\":16088:16091   */\n      dup4\n        /* \"#utility.yul\":16084:16098   */\n      add\n        /* \"#utility.yul\":16070:16098   */\n      swap1\n      pop\n        /* \"#utility.yul\":15925:16104   */\n      swap3\n      swap2\n      pop\n      pop\n      jump\t// out\n        /* \"#utility.yul\":16110:16223   */\n    tag_250:\n        /* \"#utility.yul\":16180:16184   */\n      0x00\n        /* \"#utility.yul\":16212:16216   */\n      0x20\n        /* \"#utility.yul\":16207:16210   */\n      dup3\n        /* \"#utility.yul\":16203:16217   */\n      add\n        /* \"#utility.yul\":16195:16217   */\n      swap1\n      pop\n        /* \"#utility.yul\":16110:16223   */\n      swap2\n      swap1\n      pop\n      jump\t// out\n        /* \"#utility.yul\":16259:16991   */\n    tag_251:\n        /* \"#utility.yul\":16378:16381   */\n      0x00\n        /* \"#utility.yul\":16407:16461   */\n      tag_417\n        /* \"#utility.yul\":16455:16460   */\n      dup3\n        /* \"#utility.yul\":16407:16461   */\n      tag_245\n      jump\t// in\n    tag_417:\n        /* \"#utility.yul\":16477:16563   */\n      tag_418\n        /* \"#utility.yul\":16556:16562   */\n      dup2\n        /* \"#utility.yul\":16551:16554   */\n      dup6\n        /* \"#utility.yul\":16477:16563   */\n      tag_246\n      jump\t// in\n    tag_418:\n        /* \"#utility.yul\":16470:16563   */\n      swap4\n      pop\n        /* \"#utility.yul\":16587:16643   */\n      tag_419\n        /* \"#utility.yul\":16637:16642   */\n      dup4\n        /* \"#utility.yul\":16587:16643   */\n      tag_247\n      jump\t// in\n    tag_419:\n        /* \"#utility.yul\":16666:16673   */\n      dup1\n        /* \"#utility.yul\":16697:16698   */\n      0x00\n        /* \"#utility.yul\":16682:16966   */\n    tag_420:\n        /* \"#utility.yul\":16707:16713   */\n      dup4\n        /* \"#utility.yul\":16704:16705   */\n      dup2\n        /* \"#utility.yul\":16701:16714   */\n      lt\n        /* \"#utility.yul\":16682:16966   */\n      iszero\n      tag_422\n      jumpi\n        /* \"#utility.yul\":16783:16789   */\n      dup2\n        /* \"#utility.yul\":16777:16790   */\n      mload\n        /* \"#utility.yul\":16810:16873   */\n      tag_423\n        /* \"#utility.yul\":16869:16872   */\n      dup9\n        /* \"#utility.yul\":16854:16867   */\n      dup3\n        /* \"#utility.yul\":16810:16873   */\n      tag_249\n      jump\t// in\n    tag_423:\n        /* \"#utility.yul\":16803:16873   */\n      swap8\n      pop\n        /* \"#utility.yul\":16896:16956   */\n      tag_424\n        /* \"#utility.yul\":16949:16955   */\n      dup4\n        /* \"#utility.yul\":16896:16956   */\n      tag_250\n      jump\t// in\n    tag_424:\n        /* \"#utility.yul\":16886:16956   */\n      swap3\n      pop\n        /* \"#utility.yul\":16742:16966   */\n      pop\n        /* \"#utility.yul\":16729:16730   */\n      0x01\n        /* \"#utility.yul\":16726:16727   */\n      dup2\n        /* \"#utility.yul\":16722:16731   */\n      add\n        /* \"#utility.yul\":16717:16731   */\n      swap1\n      pop\n        /* \"#utility.yul\":16682:16966   */\n      jump(tag_420)\n    tag_422:\n        /* \"#utility.yul\":16686:16700   */\n      pop\n        /* \"#utility.yul\":16982:16985   */\n      dup6\n        /* \"#utility.yul\":16975:16985   */\n      swap4\n      pop\n        /* \"#utility.yul\":16383:16991   */\n      pop\n      pop\n      pop\n        /* \"#utility.yul\":16259:16991   */\n      swap3\n      swap2\n      pop\n      pop\n      jump\t// out\n        /* \"#utility.yul\":16997:17115   */\n    tag_252:\n        /* \"#utility.yul\":17084:17108   */\n      tag_426\n        /* \"#utility.yul\":17102:17107   */\n      dup2\n        /* \"#utility.yul\":17084:17108   */\n      tag_219\n      jump\t// in\n    tag_426:\n        /* \"#utility.yul\":17079:17082   */\n      dup3\n        /* \"#utility.yul\":17072:17109   */\n      mstore\n        /* \"#utility.yul\":16997:17115   */\n      pop\n      pop\n      jump\t// out\n        /* \"#utility.yul\":17121:17952   */\n    tag_117:\n        /* \"#utility.yul\":17384:17388   */\n      0x00\n        /* \"#utility.yul\":17422:17425   */\n      0xa0\n        /* \"#utility.yul\":17411:17420   */\n      dup3\n        /* \"#utility.yul\":17407:17426   */\n      add\n        /* \"#utility.yul\":17399:17426   */\n      swap1\n      pop\n        /* \"#utility.yul\":17436:17507   */\n      tag_428\n        /* \"#utility.yul\":17504:17505   */\n      0x00\n        /* \"#utility.yul\":17493:17502   */\n      dup4\n        /* \"#utility.yul\":17489:17506   */\n      add\n        /* \"#utility.yul\":17480:17486   */\n      dup9\n        /* \"#utility.yul\":17436:17507   */\n      tag_222\n      jump\t// in\n    tag_428:\n        /* \"#utility.yul\":17517:17597   */\n      tag_429\n        /* \"#utility.yul\":17593:17595   */\n      0x20\n        /* \"#utility.yul\":17582:17591   */\n      dup4\n        /* \"#utility.yul\":17578:17596   */\n      add\n        /* \"#utility.yul\":17569:17575   */\n      dup8\n        /* \"#utility.yul\":17517:17597   */\n      tag_244\n      jump\t// in\n    tag_429:\n        /* \"#utility.yul\":17644:17653   */\n      dup2\n        /* \"#utility.yul\":17638:17642   */\n      dup2\n        /* \"#utility.yul\":17634:17654   */\n      sub\n        /* \"#utility.yul\":17629:17631   */\n      0x40\n        /* \"#utility.yul\":17618:17627   */\n      dup4\n        /* \"#utility.yul\":17614:17632   */\n      add\n        /* \"#utility.yul\":17607:17655   */\n      mstore\n        /* \"#utility.yul\":17672:17780   */\n      tag_430\n        /* \"#utility.yul\":17775:17779   */\n      dup2\n        /* \"#utility.yul\":17766:17772   */\n      dup7\n        /* \"#utility.yul\":17672:17780   */\n      tag_251\n      jump\t// in\n    tag_430:\n        /* \"#utility.yul\":17664:17780   */\n      swap1\n      pop\n        /* \"#utility.yul\":17790:17862   */\n      tag_431\n        /* \"#utility.yul\":17858:17860   */\n      0x60\n        /* \"#utility.yul\":17847:17856   */\n      dup4\n        /* \"#utility.yul\":17843:17861   */\n      add\n        /* \"#utility.yul\":17834:17840   */\n      dup6\n        /* \"#utility.yul\":17790:17862   */\n      tag_252\n      jump\t// in\n    tag_431:\n        /* \"#utility.yul\":17872:17945   */\n      tag_432\n        /* \"#utility.yul\":17940:17943   */\n      0x80\n        /* \"#utility.yul\":17929:17938   */\n      dup4\n        /* \"#utility.yul\":17925:17944   */\n      add\n        /* \"#utility.yul\":17916:17922   */\n      dup5\n        /* \"#utility.yul\":17872:17945   */\n      tag_222\n      jump\t// in\n    tag_432:\n        /* \"#utility.yul\":17121:17952   */\n      swap7\n      swap6\n      pop\n      pop\n      pop\n      pop\n      pop\n      pop\n      jump\t// out\n        /* \"#utility.yul\":17958:18075   */\n    tag_253:\n        /* \"#utility.yul\":18067:18068   */\n      0x00\n        /* \"#utility.yul\":18064:18065   */\n      dup1\n        /* \"#utility.yul\":18057:18069   */\n      revert\n        /* \"#utility.yul\":18081:18183   */\n    tag_254:\n        /* \"#utility.yul\":18122:18128   */\n      0x00\n        /* \"#utility.yul\":18173:18175   */\n      0x1f\n        /* \"#utility.yul\":18169:18176   */\n      not\n        /* \"#utility.yul\":18164:18166   */\n      0x1f\n        /* \"#utility.yul\":18157:18162   */\n      dup4\n        /* \"#utility.yul\":18153:18167   */\n      add\n        /* \"#utility.yul\":18149:18177   */\n      and\n        /* \"#utility.yul\":18139:18177   */\n      swap1\n      pop\n        /* \"#utility.yul\":18081:18183   */\n      swap2\n      swap1\n      pop\n      jump\t// out\n        /* \"#utility.yul\":18189:18470   */\n    tag_255:\n        /* \"#utility.yul\":18272:18299   */\n      tag_436\n        /* \"#utility.yul\":18294:18298   */\n      dup3\n        /* \"#utility.yul\":18272:18299   */\n      tag_254\n      jump\t// in\n    tag_436:\n        /* \"#utility.yul\":18264:18270   */\n      dup2\n        /* \"#utility.yul\":18260:18300   */\n      add\n        /* \"#utility.yul\":18402:18408   */\n      dup2\n        /* \"#utility.yul\":18390:18400   */\n      dup2\n        /* \"#utility.yul\":18387:18409   */\n      lt\n        /* \"#utility.yul\":18366:18384   */\n      0xffffffffffffffff\n        /* \"#utility.yul\":18354:18364   */\n      dup3\n        /* \"#utility.yul\":18351:18385   */\n      gt\n        /* \"#utility.yul\":18348:18410   */\n      or\n        /* \"#utility.yul\":18345:18433   */\n      iszero\n      tag_437\n      jumpi\n        /* \"#utility.yul\":18413:18431   */\n      tag_438\n      tag_104\n      jump\t// in\n    tag_438:\n        /* \"#utility.yul\":18345:18433   */\n    tag_437:\n        /* \"#utility.yul\":18453:18463   */\n      dup1\n        /* \"#utility.yul\":18449:18451   */\n      0x40\n        /* \"#utility.yul\":18442:18464   */\n      mstore\n        /* \"#utility.yul\":18232:18470   */\n      pop\n        /* \"#utility.yul\":18189:18470   */\n      pop\n      pop\n      jump\t// out\n        /* \"#utility.yul\":18476:18605   */\n    tag_256:\n        /* \"#utility.yul\":18510:18516   */\n      0x00\n        /* \"#utility.yul\":18537:18557   */\n      tag_440\n      tag_205\n      jump\t// in\n    tag_440:\n        /* \"#utility.yul\":18527:18557   */\n      swap1\n      pop\n        /* \"#utility.yul\":18566:18599   */\n      tag_441\n        /* \"#utility.yul\":18594:18598   */\n      dup3\n        /* \"#utility.yul\":18586:18592   */\n      dup3\n        /* \"#utility.yul\":18566:18599   */\n      tag_255\n      jump\t// in\n    tag_441:\n        /* \"#utility.yul\":18476:18605   */\n      swap2\n      swap1\n      pop\n      jump\t// out\n        /* \"#utility.yul\":18611:18922   */\n    tag_257:\n        /* \"#utility.yul\":18688:18692   */\n      0x00\n        /* \"#utility.yul\":18778:18796   */\n      0xffffffffffffffff\n        /* \"#utility.yul\":18770:18776   */\n      dup3\n        /* \"#utility.yul\":18767:18797   */\n      gt\n        /* \"#utility.yul\":18764:18820   */\n      iszero\n      tag_443\n      jumpi\n        /* \"#utility.yul\":18800:18818   */\n      tag_444\n      tag_104\n      jump\t// in\n    tag_444:\n        /* \"#utility.yul\":18764:18820   */\n    tag_443:\n        /* \"#utility.yul\":18850:18854   */\n      0x20\n        /* \"#utility.yul\":18842:18848   */\n      dup3\n        /* \"#utility.yul\":18838:18855   */\n      mul\n        /* \"#utility.yul\":18830:18855   */\n      swap1\n      pop\n        /* \"#utility.yul\":18910:18914   */\n      0x20\n        /* \"#utility.yul\":18904:18908   */\n      dup2\n        /* \"#utility.yul\":18900:18915   */\n      add\n        /* \"#utility.yul\":18892:18915   */\n      swap1\n      pop\n        /* \"#utility.yul\":18611:18922   */\n      swap2\n      swap1\n      pop\n      jump\t// out\n        /* \"#utility.yul\":18928:19045   */\n    tag_258:\n        /* \"#utility.yul\":19037:19038   */\n      0x00\n        /* \"#utility.yul\":19034:19035   */\n      dup1\n        /* \"#utility.yul\":19027:19039   */\n      revert\n        /* \"#utility.yul\":19051:19194   */\n    tag_259:\n        /* \"#utility.yul\":19108:19113   */\n      0x00\n        /* \"#utility.yul\":19139:19145   */\n      dup2\n        /* \"#utility.yul\":19133:19146   */\n      mload\n        /* \"#utility.yul\":19124:19146   */\n      swap1\n      pop\n        /* \"#utility.yul\":19155:19188   */\n      tag_447\n        /* \"#utility.yul\":19182:19187   */\n      dup2\n        /* \"#utility.yul\":19155:19188   */\n      tag_209\n      jump\t// in\n    tag_447:\n        /* \"#utility.yul\":19051:19194   */\n      swap3\n      swap2\n      pop\n      pop\n      jump\t// out\n        /* \"#utility.yul\":19217:19949   */\n    tag_260:\n        /* \"#utility.yul\":19324:19329   */\n      0x00\n        /* \"#utility.yul\":19349:19430   */\n      tag_449\n        /* \"#utility.yul\":19365:19429   */\n      tag_450\n        /* \"#utility.yul\":19422:19428   */\n      dup5\n        /* \"#utility.yul\":19365:19429   */\n      tag_257\n      jump\t// in\n    tag_450:\n        /* \"#utility.yul\":19349:19430   */\n      tag_256\n      jump\t// in\n    tag_449:\n        /* \"#utility.yul\":19340:19430   */\n      swap1\n      pop\n        /* \"#utility.yul\":19450:19455   */\n      dup1\n        /* \"#utility.yul\":19479:19485   */\n      dup4\n        /* \"#utility.yul\":19472:19477   */\n      dup3\n        /* \"#utility.yul\":19465:19486   */\n      mstore\n        /* \"#utility.yul\":19513:19517   */\n      0x20\n        /* \"#utility.yul\":19506:19511   */\n      dup3\n        /* \"#utility.yul\":19502:19518   */\n      add\n        /* \"#utility.yul\":19495:19518   */\n      swap1\n      pop\n        /* \"#utility.yul\":19566:19570   */\n      0x20\n        /* \"#utility.yul\":19558:19564   */\n      dup5\n        /* \"#utility.yul\":19554:19571   */\n      mul\n        /* \"#utility.yul\":19546:19552   */\n      dup4\n        /* \"#utility.yul\":19542:19572   */\n      add\n        /* \"#utility.yul\":19595:19598   */\n      dup6\n        /* \"#utility.yul\":19587:19593   */\n      dup2\n        /* \"#utility.yul\":19584:19599   */\n      gt\n        /* \"#utility.yul\":19581:19703   */\n      iszero\n      tag_451\n      jumpi\n        /* \"#utility.yul\":19614:19693   */\n      tag_452\n      tag_258\n      jump\t// in\n    tag_452:\n        /* \"#utility.yul\":19581:19703   */\n    tag_451:\n        /* \"#utility.yul\":19729:19735   */\n      dup4\n        /* \"#utility.yul\":19712:19943   */\n    tag_453:\n        /* \"#utility.yul\":19746:19752   */\n      dup2\n        /* \"#utility.yul\":19741:19744   */\n      dup2\n        /* \"#utility.yul\":19738:19753   */\n      lt\n        /* \"#utility.yul\":19712:19943   */\n      iszero\n      tag_455\n      jumpi\n        /* \"#utility.yul\":19821:19824   */\n      dup1\n        /* \"#utility.yul\":19850:19898   */\n      tag_456\n        /* \"#utility.yul\":19894:19897   */\n      dup9\n        /* \"#utility.yul\":19882:19892   */\n      dup3\n        /* \"#utility.yul\":19850:19898   */\n      tag_259\n      jump\t// in\n    tag_456:\n        /* \"#utility.yul\":19845:19848   */\n      dup5\n        /* \"#utility.yul\":19838:19899   */\n      mstore\n        /* \"#utility.yul\":19928:19932   */\n      0x20\n        /* \"#utility.yul\":19923:19926   */\n      dup5\n        /* \"#utility.yul\":19919:19933   */\n      add\n        /* \"#utility.yul\":19912:19933   */\n      swap4\n      pop\n        /* \"#utility.yul\":19788:19943   */\n      pop\n        /* \"#utility.yul\":19772:19776   */\n      0x20\n        /* \"#utility.yul\":19767:19770   */\n      dup2\n        /* \"#utility.yul\":19763:19777   */\n      add\n        /* \"#utility.yul\":19756:19777   */\n      swap1\n      pop\n        /* \"#utility.yul\":19712:19943   */\n      jump(tag_453)\n    tag_455:\n        /* \"#utility.yul\":19716:19737   */\n      pop\n        /* \"#utility.yul\":19330:19949   */\n      pop\n      pop\n        /* \"#utility.yul\":19217:19949   */\n      swap4\n      swap3\n      pop\n      pop\n      pop\n      jump\t// out\n        /* \"#utility.yul\":19972:20357   */\n    tag_261:\n        /* \"#utility.yul\":20054:20059   */\n      0x00\n        /* \"#utility.yul\":20103:20106   */\n      dup3\n        /* \"#utility.yul\":20096:20100   */\n      0x1f\n        /* \"#utility.yul\":20088:20094   */\n      dup4\n        /* \"#utility.yul\":20084:20101   */\n      add\n        /* \"#utility.yul\":20080:20107   */\n      slt\n        /* \"#utility.yul\":20070:20192   */\n      tag_458\n      jumpi\n        /* \"#utility.yul\":20111:20190   */\n      tag_459\n      tag_253\n      jump\t// in\n    tag_459:\n        /* \"#utility.yul\":20070:20192   */\n    tag_458:\n        /* \"#utility.yul\":20221:20227   */\n      dup2\n        /* \"#utility.yul\":20215:20228   */\n      mload\n        /* \"#utility.yul\":20246:20351   */\n      tag_460\n        /* \"#utility.yul\":20347:20350   */\n      dup5\n        /* \"#utility.yul\":20339:20345   */\n      dup3\n        /* \"#utility.yul\":20332:20336   */\n      0x20\n        /* \"#utility.yul\":20324:20330   */\n      dup7\n        /* \"#utility.yul\":20320:20337   */\n      add\n        /* \"#utility.yul\":20246:20351   */\n      tag_260\n      jump\t// in\n    tag_460:\n        /* \"#utility.yul\":20237:20351   */\n      swap2\n      pop\n        /* \"#utility.yul\":20060:20357   */\n      pop\n        /* \"#utility.yul\":19972:20357   */\n      swap3\n      swap2\n      pop\n      pop\n      jump\t// out\n        /* \"#utility.yul\":20363:20917   */\n    tag_121:\n        /* \"#utility.yul\":20458:20464   */\n      0x00\n        /* \"#utility.yul\":20507:20509   */\n      0x20\n        /* \"#utility.yul\":20495:20504   */\n      dup3\n        /* \"#utility.yul\":20486:20493   */\n      dup5\n        /* \"#utility.yul\":20482:20505   */\n      sub\n        /* \"#utility.yul\":20478:20510   */\n      slt\n        /* \"#utility.yul\":20475:20594   */\n      iszero\n      tag_462\n      jumpi\n        /* \"#utility.yul\":20513:20592   */\n      tag_463\n      tag_206\n      jump\t// in\n    tag_463:\n        /* \"#utility.yul\":20475:20594   */\n    tag_462:\n        /* \"#utility.yul\":20654:20655   */\n      0x00\n        /* \"#utility.yul\":20643:20652   */\n      dup3\n        /* \"#utility.yul\":20639:20656   */\n      add\n        /* \"#utility.yul\":20633:20657   */\n      mload\n        /* \"#utility.yul\":20684:20702   */\n      0xffffffffffffffff\n        /* \"#utility.yul\":20676:20682   */\n      dup2\n        /* \"#utility.yul\":20673:20703   */\n      gt\n        /* \"#utility.yul\":20670:20787   */\n      iszero\n      tag_464\n      jumpi\n        /* \"#utility.yul\":20706:20785   */\n      tag_465\n      tag_207\n      jump\t// in\n    tag_465:\n        /* \"#utility.yul\":20670:20787   */\n    tag_464:\n        /* \"#utility.yul\":20811:20900   */\n      tag_466\n        /* \"#utility.yul\":20892:20899   */\n      dup5\n        /* \"#utility.yul\":20883:20889   */\n      dup3\n        /* \"#utility.yul\":20872:20881   */\n      dup6\n        /* \"#utility.yul\":20868:20890   */\n      add\n        /* \"#utility.yul\":20811:20900   */\n      tag_261\n      jump\t// in\n    tag_466:\n        /* \"#utility.yul\":20801:20900   */\n      swap2\n      pop\n        /* \"#utility.yul\":20604:20910   */\n      pop\n        /* \"#utility.yul\":20363:20917   */\n      swap3\n      swap2\n      pop\n      pop\n      jump\t// out\n        /* \"#utility.yul\":20923:21255   */\n    tag_132:\n        /* \"#utility.yul\":21044:21048   */\n      0x00\n        /* \"#utility.yul\":21082:21084   */\n      0x40\n        /* \"#utility.yul\":21071:21080   */\n      dup3\n        /* \"#utility.yul\":21067:21085   */\n      add\n        /* \"#utility.yul\":21059:21085   */\n      swap1\n      pop\n        /* \"#utility.yul\":21095:21166   */\n      tag_468\n        /* \"#utility.yul\":21163:21164   */\n      0x00\n        /* \"#utility.yul\":21152:21161   */\n      dup4\n        /* \"#utility.yul\":21148:21165   */\n      add\n        /* \"#utility.yul\":21139:21145   */\n      dup6\n        /* \"#utility.yul\":21095:21166   */\n      tag_252\n      jump\t// in\n    tag_468:\n        /* \"#utility.yul\":21176:21248   */\n      tag_469\n        /* \"#utility.yul\":21244:21246   */\n      0x20\n        /* \"#utility.yul\":21233:21242   */\n      dup4\n        /* \"#utility.yul\":21229:21247   */\n      add\n        /* \"#utility.yul\":21220:21226   */\n      dup5\n        /* \"#utility.yul\":21176:21248   */\n      tag_252\n      jump\t// in\n    tag_469:\n        /* \"#utility.yul\":20923:21255   */\n      swap4\n      swap3\n      pop\n      pop\n      pop\n      jump\t// out\n        /* \"#utility.yul\":21261:21612   */\n    tag_136:\n        /* \"#utility.yul\":21331:21337   */\n      0x00\n        /* \"#utility.yul\":21380:21382   */\n      0x20\n        /* \"#utility.yul\":21368:21377   */\n      dup3\n        /* \"#utility.yul\":21359:21366   */\n      dup5\n        /* \"#utility.yul\":21355:21378   */\n      sub\n        /* \"#utility.yul\":21351:21383   */\n      slt\n        /* \"#utility.yul\":21348:21467   */\n      iszero\n      tag_471\n      jumpi\n        /* \"#utility.yul\":21386:21465   */\n      tag_472\n      tag_206\n      jump\t// in\n    tag_472:\n        /* \"#utility.yul\":21348:21467   */\n    tag_471:\n        /* \"#utility.yul\":21506:21507   */\n      0x00\n        /* \"#utility.yul\":21531:21595   */\n      tag_473\n        /* \"#utility.yul\":21587:21594   */\n      dup5\n        /* \"#utility.yul\":21578:21584   */\n      dup3\n        /* \"#utility.yul\":21567:21576   */\n      dup6\n        /* \"#utility.yul\":21563:21585   */\n      add\n        /* \"#utility.yul\":21531:21595   */\n      tag_259\n      jump\t// in\n    tag_473:\n        /* \"#utility.yul\":21521:21595   */\n      swap2\n      pop\n        /* \"#utility.yul\":21477:21605   */\n      pop\n        /* \"#utility.yul\":21261:21612   */\n      swap3\n      swap2\n      pop\n      pop\n      jump\t// out\n        /* \"#utility.yul\":21618:22060   */\n    tag_140:\n        /* \"#utility.yul\":21767:21771   */\n      0x00\n        /* \"#utility.yul\":21805:21807   */\n      0x60\n        /* \"#utility.yul\":21794:21803   */\n      dup3\n        /* \"#utility.yul\":21790:21808   */\n      add\n        /* \"#utility.yul\":21782:21808   */\n      swap1\n      pop\n        /* \"#utility.yul\":21818:21889   */\n      tag_475\n        /* \"#utility.yul\":21886:21887   */\n      0x00\n        /* \"#utility.yul\":21875:21884   */\n      dup4\n        /* \"#utility.yul\":21871:21888   */\n      add\n        /* \"#utility.yul\":21862:21868   */\n      dup7\n        /* \"#utility.yul\":21818:21889   */\n      tag_252\n      jump\t// in\n    tag_475:\n        /* \"#utility.yul\":21899:21971   */\n      tag_476\n        /* \"#utility.yul\":21967:21969   */\n      0x20\n        /* \"#utility.yul\":21956:21965   */\n      dup4\n        /* \"#utility.yul\":21952:21970   */\n      add\n        /* \"#utility.yul\":21943:21949   */\n      dup6\n        /* \"#utility.yul\":21899:21971   */\n      tag_252\n      jump\t// in\n    tag_476:\n        /* \"#utility.yul\":21981:22053   */\n      tag_477\n        /* \"#utility.yul\":22049:22051   */\n      0x40\n        /* \"#utility.yul\":22038:22047   */\n      dup4\n        /* \"#utility.yul\":22034:22052   */\n      add\n        /* \"#utility.yul\":22025:22031   */\n      dup5\n        /* \"#utility.yul\":21981:22053   */\n      tag_222\n      jump\t// in\n    tag_477:\n        /* \"#utility.yul\":21618:22060   */\n      swap5\n      swap4\n      pop\n      pop\n      pop\n      pop\n      jump\t// out\n        /* \"#utility.yul\":22066:22398   */\n    tag_153:\n        /* \"#utility.yul\":22187:22191   */\n      0x00\n        /* \"#utility.yul\":22225:22227   */\n      0x40\n        /* \"#utility.yul\":22214:22223   */\n      dup3\n        /* \"#utility.yul\":22210:22228   */\n      add\n        /* \"#utility.yul\":22202:22228   */\n      swap1\n      pop\n        /* \"#utility.yul\":22238:22309   */\n      tag_479\n        /* \"#utility.yul\":22306:22307   */\n      0x00\n        /* \"#utility.yul\":22295:22304   */\n      dup4\n        /* \"#utility.yul\":22291:22308   */\n      add\n        /* \"#utility.yul\":22282:22288   */\n      dup6\n        /* \"#utility.yul\":22238:22309   */\n      tag_252\n      jump\t// in\n    tag_479:\n        /* \"#utility.yul\":22319:22391   */\n      tag_480\n        /* \"#utility.yul\":22387:22389   */\n      0x20\n        /* \"#utility.yul\":22376:22385   */\n      dup4\n        /* \"#utility.yul\":22372:22390   */\n      add\n        /* \"#utility.yul\":22363:22369   */\n      dup5\n        /* \"#utility.yul\":22319:22391   */\n      tag_222\n      jump\t// in\n    tag_480:\n        /* \"#utility.yul\":22066:22398   */\n      swap4\n      swap3\n      pop\n      pop\n      pop\n      jump\t// out\n        /* \"#utility.yul\":22404:22494   */\n    tag_262:\n        /* \"#utility.yul\":22438:22445   */\n      0x00\n        /* \"#utility.yul\":22481:22486   */\n      dup2\n        /* \"#utility.yul\":22474:22487   */\n      iszero\n        /* \"#utility.yul\":22467:22488   */\n      iszero\n        /* \"#utility.yul\":22456:22488   */\n      swap1\n      pop\n        /* \"#utility.yul\":22404:22494   */\n      swap2\n      swap1\n      pop\n      jump\t// out\n        /* \"#utility.yul\":22500:22616   */\n    tag_263:\n        /* \"#utility.yul\":22570:22591   */\n      tag_483\n        /* \"#utility.yul\":22585:22590   */\n      dup2\n        /* \"#utility.yul\":22570:22591   */\n      tag_262\n      jump\t// in\n    tag_483:\n        /* \"#utility.yul\":22563:22568   */\n      dup2\n        /* \"#utility.yul\":22560:22592   */\n      eq\n        /* \"#utility.yul\":22550:22610   */\n      tag_484\n      jumpi\n        /* \"#utility.yul\":22606:22607   */\n      0x00\n        /* \"#utility.yul\":22603:22604   */\n      dup1\n        /* \"#utility.yul\":22596:22608   */\n      revert\n        /* \"#utility.yul\":22550:22610   */\n    tag_484:\n        /* \"#utility.yul\":22500:22616   */\n      pop\n      jump\t// out\n        /* \"#utility.yul\":22622:22759   */\n    tag_264:\n        /* \"#utility.yul\":22676:22681   */\n      0x00\n        /* \"#utility.yul\":22707:22713   */\n      dup2\n        /* \"#utility.yul\":22701:22714   */\n      mload\n        /* \"#utility.yul\":22692:22714   */\n      swap1\n      pop\n        /* \"#utility.yul\":22723:22753   */\n      tag_486\n        /* \"#utility.yul\":22747:22752   */\n      dup2\n        /* \"#utility.yul\":22723:22753   */\n      tag_263\n      jump\t// in\n    tag_486:\n        /* \"#utility.yul\":22622:22759   */\n      swap3\n      swap2\n      pop\n      pop\n      jump\t// out\n        /* \"#utility.yul\":22765:23110   */\n    tag_159:\n        /* \"#utility.yul\":22832:22838   */\n      0x00\n        /* \"#utility.yul\":22881:22883   */\n      0x20\n        /* \"#utility.yul\":22869:22878   */\n      dup3\n        /* \"#utility.yul\":22860:22867   */\n      dup5\n        /* \"#utility.yul\":22856:22879   */\n      sub\n        /* \"#utility.yul\":22852:22884   */\n      slt\n        /* \"#utility.yul\":22849:22968   */\n      iszero\n      tag_488\n      jumpi\n        /* \"#utility.yul\":22887:22966   */\n      tag_489\n      tag_206\n      jump\t// in\n    tag_489:\n        /* \"#utility.yul\":22849:22968   */\n    tag_488:\n        /* \"#utility.yul\":23007:23008   */\n      0x00\n        /* \"#utility.yul\":23032:23093   */\n      tag_490\n        /* \"#utility.yul\":23085:23092   */\n      dup5\n        /* \"#utility.yul\":23076:23082   */\n      dup3\n        /* \"#utility.yul\":23065:23074   */\n      dup6\n        /* \"#utility.yul\":23061:23083   */\n      add\n        /* \"#utility.yul\":23032:23093   */\n      tag_264\n      jump\t// in\n    tag_490:\n        /* \"#utility.yul\":23022:23093   */\n      swap2\n      pop\n        /* \"#utility.yul\":22978:23103   */\n      pop\n        /* \"#utility.yul\":22765:23110   */\n      swap3\n      swap2\n      pop\n      pop\n      jump\t// out\n        /* \"#utility.yul\":23116:23338   */\n    tag_162:\n        /* \"#utility.yul\":23209:23213   */\n      0x00\n        /* \"#utility.yul\":23247:23249   */\n      0x20\n        /* \"#utility.yul\":23236:23245   */\n      dup3\n        /* \"#utility.yul\":23232:23250   */\n      add\n        /* \"#utility.yul\":23224:23250   */\n      swap1\n      pop\n        /* \"#utility.yul\":23260:23331   */\n      tag_492\n        /* \"#utility.yul\":23328:23329   */\n      0x00\n        /* \"#utility.yul\":23317:23326   */\n      dup4\n        /* \"#utility.yul\":23313:23330   */\n      add\n        /* \"#utility.yul\":23304:23310   */\n      dup5\n        /* \"#utility.yul\":23260:23331   */\n      tag_252\n      jump\t// in\n    tag_492:\n        /* \"#utility.yul\":23116:23338   */\n      swap3\n      swap2\n      pop\n      pop\n      jump\t// out\n        /* \"#utility.yul\":23344:23692   */\n    tag_170:\n        /* \"#utility.yul\":23473:23477   */\n      0x00\n        /* \"#utility.yul\":23511:23513   */\n      0x40\n        /* \"#utility.yul\":23500:23509   */\n      dup3\n        /* \"#utility.yul\":23496:23514   */\n      add\n        /* \"#utility.yul\":23488:23514   */\n      swap1\n      pop\n        /* \"#utility.yul\":23524:23595   */\n      tag_494\n        /* \"#utility.yul\":23592:23593   */\n      0x00\n        /* \"#utility.yul\":23581:23590   */\n      dup4\n        /* \"#utility.yul\":23577:23594   */\n      add\n        /* \"#utility.yul\":23568:23574   */\n      dup6\n        /* \"#utility.yul\":23524:23595   */\n      tag_252\n      jump\t// in\n    tag_494:\n        /* \"#utility.yul\":23605:23685   */\n      tag_495\n        /* \"#utility.yul\":23681:23683   */\n      0x20\n        /* \"#utility.yul\":23670:23679   */\n      dup4\n        /* \"#utility.yul\":23666:23684   */\n      add\n        /* \"#utility.yul\":23657:23663   */\n      dup5\n        /* \"#utility.yul\":23605:23685   */\n      tag_244\n      jump\t// in\n    tag_495:\n        /* \"#utility.yul\":23344:23692   */\n      swap4\n      swap3\n      pop\n      pop\n      pop\n      jump\t// out\n        /* \"#utility.yul\":23698:23796   */\n    tag_265:\n        /* \"#utility.yul\":23749:23755   */\n      0x00\n        /* \"#utility.yul\":23783:23788   */\n      dup2\n        /* \"#utility.yul\":23777:23789   */\n      mload\n        /* \"#utility.yul\":23767:23789   */\n      swap1\n      pop\n        /* \"#utility.yul\":23698:23796   */\n      swap2\n      swap1\n      pop\n      jump\t// out\n        /* \"#utility.yul\":23802:23949   */\n    tag_266:\n        /* \"#utility.yul\":23903:23914   */\n      0x00\n        /* \"#utility.yul\":23940:23943   */\n      dup2\n        /* \"#utility.yul\":23925:23943   */\n      swap1\n      pop\n        /* \"#utility.yul\":23802:23949   */\n      swap3\n      swap2\n      pop\n      pop\n      jump\t// out\n        /* \"#utility.yul\":23955:24201   */\n    tag_267:\n        /* \"#utility.yul\":24036:24037   */\n      0x00\n        /* \"#utility.yul\":24046:24159   */\n    tag_499:\n        /* \"#utility.yul\":24060:24066   */\n      dup4\n        /* \"#utility.yul\":24057:24058   */\n      dup2\n        /* \"#utility.yul\":24054:24067   */\n      lt\n        /* \"#utility.yul\":24046:24159   */\n      iszero\n      tag_501\n      jumpi\n        /* \"#utility.yul\":24145:24146   */\n      dup1\n        /* \"#utility.yul\":24140:24143   */\n      dup3\n        /* \"#utility.yul\":24136:24147   */\n      add\n        /* \"#utility.yul\":24130:24148   */\n      mload\n        /* \"#utility.yul\":24126:24127   */\n      dup2\n        /* \"#utility.yul\":24121:24124   */\n      dup5\n        /* \"#utility.yul\":24117:24128   */\n      add\n        /* \"#utility.yul\":24110:24149   */\n      mstore\n        /* \"#utility.yul\":24082:24084   */\n      0x20\n        /* \"#utility.yul\":24079:24080   */\n      dup2\n        /* \"#utility.yul\":24075:24085   */\n      add\n        /* \"#utility.yul\":24070:24085   */\n      swap1\n      pop\n        /* \"#utility.yul\":24046:24159   */\n      jump(tag_499)\n    tag_501:\n        /* \"#utility.yul\":24193:24194   */\n      0x00\n        /* \"#utility.yul\":24184:24190   */\n      dup5\n        /* \"#utility.yul\":24179:24182   */\n      dup5\n        /* \"#utility.yul\":24175:24191   */\n      add\n        /* \"#utility.yul\":24168:24195   */\n      mstore\n        /* \"#utility.yul\":24017:24201   */\n      pop\n        /* \"#utility.yul\":23955:24201   */\n      pop\n      pop\n      pop\n      jump\t// out\n        /* \"#utility.yul\":24207:24593   */\n    tag_268:\n        /* \"#utility.yul\":24311:24314   */\n      0x00\n        /* \"#utility.yul\":24339:24377   */\n      tag_503\n        /* \"#utility.yul\":24371:24376   */\n      dup3\n        /* \"#utility.yul\":24339:24377   */\n      tag_265\n      jump\t// in\n    tag_503:\n        /* \"#utility.yul\":24393:24481   */\n      tag_504\n        /* \"#utility.yul\":24474:24480   */\n      dup2\n        /* \"#utility.yul\":24469:24472   */\n      dup6\n        /* \"#utility.yul\":24393:24481   */\n      tag_266\n      jump\t// in\n    tag_504:\n        /* \"#utility.yul\":24386:24481   */\n      swap4\n      pop\n        /* \"#utility.yul\":24490:24555   */\n      tag_505\n        /* \"#utility.yul\":24548:24554   */\n      dup2\n        /* \"#utility.yul\":24543:24546   */\n      dup6\n        /* \"#utility.yul\":24536:24540   */\n      0x20\n        /* \"#utility.yul\":24529:24534   */\n      dup7\n        /* \"#utility.yul\":24525:24541   */\n      add\n        /* \"#utility.yul\":24490:24555   */\n      tag_267\n      jump\t// in\n    tag_505:\n        /* \"#utility.yul\":24580:24586   */\n      dup1\n        /* \"#utility.yul\":24575:24578   */\n      dup5\n        /* \"#utility.yul\":24571:24587   */\n      add\n        /* \"#utility.yul\":24564:24587   */\n      swap2\n      pop\n        /* \"#utility.yul\":24315:24593   */\n      pop\n        /* \"#utility.yul\":24207:24593   */\n      swap3\n      swap2\n      pop\n      pop\n      jump\t// out\n        /* \"#utility.yul\":24599:24870   */\n    tag_177:\n        /* \"#utility.yul\":24729:24732   */\n      0x00\n        /* \"#utility.yul\":24751:24844   */\n      tag_507\n        /* \"#utility.yul\":24840:24843   */\n      dup3\n        /* \"#utility.yul\":24831:24837   */\n      dup5\n        /* \"#utility.yul\":24751:24844   */\n      tag_268\n      jump\t// in\n    tag_507:\n        /* \"#utility.yul\":24744:24844   */\n      swap2\n      pop\n        /* \"#utility.yul\":24861:24864   */\n      dup2\n        /* \"#utility.yul\":24854:24864   */\n      swap1\n      pop\n        /* \"#utility.yul\":24599:24870   */\n      swap3\n      swap2\n      pop\n      pop\n      jump\t// out\n\n    auxdata: 0xa2646970667358221220311e4c1d4546bf94d2c90bc7f16c1d29ed287fc3da017696b204dab072873dd764736f6c63430008160033\n}\n",
				"bytecode": {
					"linkReferences": {},
					"object": "608060405234801562000010575f80fd5b506040516200236d3803806200236d83398181016040528101906200003691906200012a565b8160025f6101000a81548173ffffffffffffffffffffffffffffffffffffffff021916908373ffffffffffffffffffffffffffffffffffffffff1602179055508060035f6101000a81548173ffffffffffffffffffffffffffffffffffffffff021916908373ffffffffffffffffffffffffffffffffffffffff16021790555060015f8190555050506200016f565b5f80fd5b5f73ffffffffffffffffffffffffffffffffffffffff82169050919050565b5f620000f482620000c9565b9050919050565b6200010681620000e8565b811462000111575f80fd5b50565b5f815190506200012481620000fb565b92915050565b5f8060408385031215620001435762000142620000c5565b5b5f620001528582860162000114565b9250506020620001658582860162000114565b9150509250929050565b6121f0806200017d5f395ff3fe608060405234801561000f575f80fd5b506004361061009b575f3560e01c8063affed0e011610064578063affed0e014610135578063b197df5414610153578063c440fa0f1461016f578063d930da601461018b578063eb5a662e146101955761009b565b8062e1801c1461009f5780632f48ab7d146100bb578063735de9f7146100d957806386d86d84146100f7578063a63661a51461012b575b5f80fd5b6100b960048036038101906100b491906115c2565b6101c5565b005b6100c36103a8565b6040516100d0919061167a565b60405180910390f35b6100e16103cd565b6040516100ee91906116b3565b60405180910390f35b610111600480360381019061010c9190611707565b6103f2565b604051610122959493929190611741565b60405180910390f35b610133610424565b005b61013d61063b565b60405161014a9190611792565b60405180910390f35b61016d600480360381019061016891906115c2565b610640565b005b61018960048036038101906101849190611707565b61084c565b005b610193610e26565b005b6101af60048036038101906101aa9190611707565b610f31565b6040516101bc9190611792565b60405180910390f35b5f60015f3373ffffffffffffffffffffffffffffffffffffffff1673ffffffffffffffffffffffffffffffffffffffff1681526020019081526020015f205f015411610246576040517f08c379a000000000000000000000000000000000000000000000000000000000815260040161023d90611805565b60405180910390fd5b5f8211610288576040517f08c379a000000000000000000000000000000000000000000000000000000000815260040161027f9061186d565b60405180910390fd5b5f81116102ca576040517f08c379a00000000000000000000000000000000000000000000000000000000081526004016102c1906118d5565b60405180910390fd5b8060015f3373ffffffffffffffffffffffffffffffffffffffff1673ffffffffffffffffffffffffffffffffffffffff1681526020019081526020015f20600201819055508160015f3373ffffffffffffffffffffffffffffffffffffffff1673ffffffffffffffffffffffffffffffffffffffff1681526020019081526020015f20600101819055503373ffffffffffffffffffffffffffffffffffffffff167fc8108639f5e0627bac90449607e60d516a5082452e397808a067b57f755515fc838360405161039c9291906118f3565b60405180910390a25050565b60025f9054906101000a900473ffffffffffffffffffffffffffffffffffffffff1681565b60035f9054906101000a900473ffffffffffffffffffffffffffffffffffffffff1681565b6001602052805f5260405f205f91509050805f0154908060010154908060020154908060030154908060040154905085565b5f60015f3373ffffffffffffffffffffffffffffffffffffffff1673ffffffffffffffffffffffffffffffffffffffff1681526020019081526020015f205f0154116104a5576040517f08c379a000000000000000000000000000000000000000000000000000000000815260040161049c90611964565b60405180910390fd5b5f60015f3373ffffffffffffffffffffffffffffffffffffffff1673ffffffffffffffffffffffffffffffffffffffff1681526020019081526020015f206002015411610527576040517f08c379a000000000000000000000000000000000000000000000000000000000815260040161051e906118d5565b60405180910390fd5b60015f3373ffffffffffffffffffffffffffffffffffffffff1673ffffffffffffffffffffffffffffffffffffffff1681526020019081526020015f206002015461057133610f31565b116105b1576040517f08c379a00000000000000000000000000000000000000000000000000000000081526004016105a8906119f2565b60405180910390fd5b6001805f3373ffffffffffffffffffffffffffffffffffffffff1673ffffffffffffffffffffffffffffffffffffffff1681526020019081526020015f20600301819055503373ffffffffffffffffffffffffffffffffffffffff167fa806cf17be1fb3cff26c4a6a46b735ddbf2ac07c138bdedb6d2ace798a2cfd4060405160405180910390a2565b5f5481565b5f60015f3373ffffffffffffffffffffffffffffffffffffffff1673ffffffffffffffffffffffffffffffffffffffff1681526020019081526020015f205f0154146106c1576040517f08c379a00000000000000000000000000000000000000000000000000000000081526004016106b890611805565b60405180910390fd5b5f8211610703576040517f08c379a00000000000000000000000000000000000000000000000000000000081526004016106fa9061186d565b60405180910390fd5b5f8111610745576040517f08c379a000000000000000000000000000000000000000000000000000000000815260040161073c906118d5565b60405180910390fd5b6040518060a001604052805f8081548092919061076190611a3d565b9190505581526020018381526020018281526020015f81526020015f81525060015f3373ffffffffffffffffffffffffffffffffffffffff1673ffffffffffffffffffffffffffffffffffffffff1681526020019081526020015f205f820151815f0155602082015181600101556040820151816002015560608201518160030155608082015181600401559050503373ffffffffffffffffffffffffffffffffffffffff167f89d3f1cdfad4e5c26535ac23dc61cf9e975667801747518f01b1b653545d736a83836040516108389291906118f3565b60405180910390a2610848610424565b5050565b6001805f8373ffffffffffffffffffffffffffffffffffffffff1673ffffffffffffffffffffffffffffffffffffffff1681526020019081526020015f2060030154146108ce576040517f08c379a00000000000000000000000000000000000000000000000000000000081526004016108c590611ace565b60405180910390fd5b60015f8273ffffffffffffffffffffffffffffffffffffffff1673ffffffffffffffffffffffffffffffffffffffff1681526020019081526020015f206002015461091833610f31565b11610958576040517f08c379a000000000000000000000000000000000000000000000000000000000815260040161094f90611b5c565b60405180910390fd5b6201518060015f8373ffffffffffffffffffffffffffffffffffffffff1673ffffffffffffffffffffffffffffffffffffffff1681526020019081526020015f20600101546109a79190611b7a565b60015f8373ffffffffffffffffffffffffffffffffffffffff1673ffffffffffffffffffffffffffffffffffffffff1681526020019081526020015f20600401546109f29190611bbb565b421015610a34576040517f08c379a0000000000000000000000000000000000000000000000000000000008152600401610a2b90611c5e565b60405180910390fd5b5f60015f8373ffffffffffffffffffffffffffffffffffffffff1673ffffffffffffffffffffffffffffffffffffffff1681526020019081526020015f20600201549050610aa560025f9054906101000a900473ffffffffffffffffffffffffffffffffffffffff16833084610fd4565b610af260025f9054906101000a900473ffffffffffffffffffffffffffffffffffffffff1660035f9054906101000a900473ffffffffffffffffffffffffffffffffffffffff1683611056565b5f600267ffffffffffffffff811115610b0e57610b0d611c7c565b5b604051908082528060200260200182016040528015610b3c5781602001602082028036833780820191505090505b50905060025f9054906101000a900473ffffffffffffffffffffffffffffffffffffffff16815f81518110610b7457610b73611ca9565b5b602002602001019073ffffffffffffffffffffffffffffffffffffffff16908173ffffffffffffffffffffffffffffffffffffffff168152505060035f9054906101000a900473ffffffffffffffffffffffffffffffffffffffff1673ffffffffffffffffffffffffffffffffffffffff1663ad5c46486040518163ffffffff1660e01b8152600401602060405180830381865afa158015610c18573d5f803e3d5ffd5b505050506040513d601f19601f82011682018060405250810190610c3c9190611cea565b81600181518110610c5057610c4f611ca9565b5b602002602001019073ffffffffffffffffffffffffffffffffffffffff16908173ffffffffffffffffffffffffffffffffffffffff16815250505f60035f9054906101000a900473ffffffffffffffffffffffffffffffffffffffff1673ffffffffffffffffffffffffffffffffffffffff166318cbafe5845f8530610e1042610cda9190611bbb565b6040518663ffffffff1660e01b8152600401610cfa959493929190611e14565b5f604051808303815f875af1158015610d15573d5f803e3d5ffd5b505050506040513d5f823e3d601f19601f82011682018060405250810190610d3d9190611fa3565b90505f81600181518110610d5457610d53611ca9565b5b602002602001015190504260015f8773ffffffffffffffffffffffffffffffffffffffff1673ffffffffffffffffffffffffffffffffffffffff1681526020019081526020015f20600401819055508473ffffffffffffffffffffffffffffffffffffffff167f1a3abf7e0a472651ebe2c79a31a5f4660c7ea65e3086ee1742d7502999bbf5b58583604051610deb9291906118f3565b60405180910390a2610e1f60025f9054906101000a900473ffffffffffffffffffffffffffffffffffffffff1686836110ef565b5050505050565b5f60015f3373ffffffffffffffffffffffffffffffffffffffff1673ffffffffffffffffffffffffffffffffffffffff1681526020019081526020015f205f015411610ea7576040517f08c379a0000000000000000000000000000000000000000000000000000000008152600401610e9e90611964565b60405180910390fd5b5f60015f3373ffffffffffffffffffffffffffffffffffffffff1673ffffffffffffffffffffffffffffffffffffffff1681526020019081526020015f20600301819055503373ffffffffffffffffffffffffffffffffffffffff167ff222abd4ee7afb02f9450183b95d07aaab2ea2f2d6748f55525c7e875fdd58a160405160405180910390a2565b5f60025f9054906101000a900473ffffffffffffffffffffffffffffffffffffffff1673ffffffffffffffffffffffffffffffffffffffff1663dd62ed3e83306040518363ffffffff1660e01b8152600401610f8e929190611fea565b602060405180830381865afa158015610fa9573d5f803e3d5ffd5b505050506040513d601f19601f82011682018060405250810190610fcd9190612011565b9050919050565b611050848573ffffffffffffffffffffffffffffffffffffffff166323b872dd8686866040516024016110099392919061203c565b604051602081830303815290604052915060e01b6020820180517bffffffffffffffffffffffffffffffffffffffffffffffffffffffff838183161783525050505061116e565b50505050565b5f8373ffffffffffffffffffffffffffffffffffffffff1663dd62ed3e30856040518363ffffffff1660e01b8152600401611092929190611fea565b602060405180830381865afa1580156110ad573d5f803e3d5ffd5b505050506040513d601f19601f820116820180604052508101906110d19190612011565b90506110e9848484846110e49190611bbb565b611203565b50505050565b611169838473ffffffffffffffffffffffffffffffffffffffff1663a9059cbb8585604051602401611122929190612071565b604051602081830303815290604052915060e01b6020820180517bffffffffffffffffffffffffffffffffffffffffffffffffffffffff838183161783525050505061116e565b505050565b5f611198828473ffffffffffffffffffffffffffffffffffffffff1661131090919063ffffffff16565b90505f8151141580156111bc5750808060200190518101906111ba91906120cd565b155b156111fe57826040517f5274afe70000000000000000000000000000000000000000000000000000000081526004016111f591906120f8565b60405180910390fd5b505050565b5f8373ffffffffffffffffffffffffffffffffffffffff1663095ea7b38484604051602401611233929190612071565b604051602081830303815290604052915060e01b6020820180517bffffffffffffffffffffffffffffffffffffffffffffffffffffffff838183161783525050505090506112818482611325565b61130a576112ff848573ffffffffffffffffffffffffffffffffffffffff1663095ea7b3865f6040516024016112b8929190612111565b604051602081830303815290604052915060e01b6020820180517bffffffffffffffffffffffffffffffffffffffffffffffffffffffff838183161783525050505061116e565b611309848261116e565b5b50505050565b606061131d83835f6113e4565b905092915050565b5f805f8473ffffffffffffffffffffffffffffffffffffffff168460405161134d91906121a4565b5f604051808303815f865af19150503d805f8114611386576040519150601f19603f3d011682016040523d82523d5f602084013e61138b565b606091505b50915091508180156113b857505f815114806113b75750808060200190518101906113b691906120cd565b5b5b80156113da57505f8573ffffffffffffffffffffffffffffffffffffffff163b115b9250505092915050565b60608147101561142b57306040517fcd78605900000000000000000000000000000000000000000000000000000000815260040161142291906120f8565b60405180910390fd5b5f808573ffffffffffffffffffffffffffffffffffffffff16848660405161145391906121a4565b5f6040518083038185875af1925050503d805f811461148d576040519150601f19603f3d011682016040523d82523d5f602084013e611492565b606091505b50915091506114a28683836114ad565b925050509392505050565b6060826114c2576114bd8261153a565b611532565b5f82511480156114e857505f8473ffffffffffffffffffffffffffffffffffffffff163b145b1561152a57836040517f9996b31500000000000000000000000000000000000000000000000000000000815260040161152191906120f8565b60405180910390fd5b819050611533565b5b9392505050565b5f8151111561154c5780518082602001fd5b6040517f1425ea4200000000000000000000000000000000000000000000000000000000815260040160405180910390fd5b5f604051905090565b5f80fd5b5f80fd5b5f819050919050565b6115a18161158f565b81146115ab575f80fd5b50565b5f813590506115bc81611598565b92915050565b5f80604083850312156115d8576115d7611587565b5b5f6115e5858286016115ae565b92505060206115f6858286016115ae565b9150509250929050565b5f73ffffffffffffffffffffffffffffffffffffffff82169050919050565b5f819050919050565b5f61164261163d61163884611600565b61161f565b611600565b9050919050565b5f61165382611628565b9050919050565b5f61166482611649565b9050919050565b6116748161165a565b82525050565b5f60208201905061168d5f83018461166b565b92915050565b5f61169d82611649565b9050919050565b6116ad81611693565b82525050565b5f6020820190506116c65f8301846116a4565b92915050565b5f6116d682611600565b9050919050565b6116e6816116cc565b81146116f0575f80fd5b50565b5f81359050611701816116dd565b92915050565b5f6020828403121561171c5761171b611587565b5b5f611729848285016116f3565b91505092915050565b61173b8161158f565b82525050565b5f60a0820190506117545f830188611732565b6117616020830187611732565b61176e6040830186611732565b61177b6060830185611732565b6117886080830184611732565b9695505050505050565b5f6020820190506117a55f830184611732565b92915050565b5f82825260208201905092915050565b7f506c616e206973206578697374000000000000000000000000000000000000005f82015250565b5f6117ef600d836117ab565b91506117fa826117bb565b602082019050919050565b5f6020820190508181035f83015261181c816117e3565b9050919050565b7f4672657175656e6379206d7573742062652067726561746572207468616e20305f82015250565b5f6118576020836117ab565b915061186282611823565b602082019050919050565b5f6020820190508181035f8301526118848161184b565b9050919050565b7f416d6f756e74206d7573742062652067726561746572207468616e20300000005f82015250565b5f6118bf601d836117ab565b91506118ca8261188b565b602082019050919050565b5f6020820190508181035f8301526118ec816118b3565b9050919050565b5f6040820190506119065f830185611732565b6119136020830184611732565b9392505050565b7f506c616e206973206e6f742065786973740000000000000000000000000000005f82015250565b5f61194e6011836117ab565b91506119598261191a565b602082019050919050565b5f6020820190508181035f83015261197b81611942565b9050919050565b7f546f74616c206d7573742062652067726561746572207468616e20616d6f756e5f8201527f7400000000000000000000000000000000000000000000000000000000000000602082015250565b5f6119dc6021836117ab565b91506119e782611982565b604082019050919050565b5f6020820190508181035f830152611a09816119d0565b9050919050565b7f4e487b71000000000000000000000000000000000000000000000000000000005f52601160045260245ffd5b5f611a478261158f565b91507fffffffffffffffffffffffffffffffffffffffffffffffffffffffffffffffff8203611a7957611a78611a10565b5b600182019050919050565b7f506c616e206973206e6f742061637469766500000000000000000000000000005f82015250565b5f611ab86012836117ab565b9150611ac382611a84565b602082019050919050565b5f6020820190508181035f830152611ae581611aac565b9050919050565b7f43616e6e6f742074726967676572206d6f7265207468616e2072656d61696e695f8201527f6e6720616d6f756e740000000000000000000000000000000000000000000000602082015250565b5f611b466029836117ab565b9150611b5182611aec565b604082019050919050565b5f6020820190508181035f830152611b7381611b3a565b9050919050565b5f611b848261158f565b9150611b8f8361158f565b9250828202611b9d8161158f565b91508282048414831517611bb457611bb3611a10565b5b5092915050565b5f611bc58261158f565b9150611bd08361158f565b9250828201905080821115611be857611be7611a10565b5b92915050565b7f43616e206f6e6c79207472696767657220706c616e206f6e63652070657220645f8201527f6179000000000000000000000000000000000000000000000000000000000000602082015250565b5f611c486022836117ab565b9150611c5382611bee565b604082019050919050565b5f6020820190508181035f830152611c7581611c3c565b9050919050565b7f4e487b71000000000000000000000000000000000000000000000000000000005f52604160045260245ffd5b7f4e487b71000000000000000000000000000000000000000000000000000000005f52603260045260245ffd5b5f81519050611ce4816116dd565b92915050565b5f60208284031215611cff57611cfe611587565b5b5f611d0c84828501611cd6565b91505092915050565b5f819050919050565b5f611d38611d33611d2e84611d15565b61161f565b61158f565b9050919050565b611d4881611d1e565b82525050565b5f81519050919050565b5f82825260208201905092915050565b5f819050602082019050919050565b611d80816116cc565b82525050565b5f611d918383611d77565b60208301905092915050565b5f602082019050919050565b5f611db382611d4e565b611dbd8185611d58565b9350611dc883611d68565b805f5b83811015611df8578151611ddf8882611d86565b9750611dea83611d9d565b925050600181019050611dcb565b5085935050505092915050565b611e0e816116cc565b82525050565b5f60a082019050611e275f830188611732565b611e346020830187611d3f565b8181036040830152611e468186611da9565b9050611e556060830185611e05565b611e626080830184611732565b9695505050505050565b5f80fd5b5f601f19601f8301169050919050565b611e8982611e70565b810181811067ffffffffffffffff82111715611ea857611ea7611c7c565b5b80604052505050565b5f611eba61157e565b9050611ec68282611e80565b919050565b5f67ffffffffffffffff821115611ee557611ee4611c7c565b5b602082029050602081019050919050565b5f80fd5b5f81519050611f0881611598565b92915050565b5f611f20611f1b84611ecb565b611eb1565b90508083825260208201905060208402830185811115611f4357611f42611ef6565b5b835b81811015611f6c5780611f588882611efa565b845260208401935050602081019050611f45565b5050509392505050565b5f82601f830112611f8a57611f89611e6c565b5b8151611f9a848260208601611f0e565b91505092915050565b5f60208284031215611fb857611fb7611587565b5b5f82015167ffffffffffffffff811115611fd557611fd461158b565b5b611fe184828501611f76565b91505092915050565b5f604082019050611ffd5f830185611e05565b61200a6020830184611e05565b9392505050565b5f6020828403121561202657612025611587565b5b5f61203384828501611efa565b91505092915050565b5f60608201905061204f5f830186611e05565b61205c6020830185611e05565b6120696040830184611732565b949350505050565b5f6040820190506120845f830185611e05565b6120916020830184611732565b9392505050565b5f8115159050919050565b6120ac81612098565b81146120b6575f80fd5b50565b5f815190506120c7816120a3565b92915050565b5f602082840312156120e2576120e1611587565b5b5f6120ef848285016120b9565b91505092915050565b5f60208201905061210b5f830184611e05565b92915050565b5f6040820190506121245f830185611e05565b6121316020830184611d3f565b9392505050565b5f81519050919050565b5f81905092915050565b5f5b8381101561216957808201518184015260208101905061214e565b5f8484015250505050565b5f61217e82612138565b6121888185612142565b935061219881856020860161214c565b80840191505092915050565b5f6121af8284612174565b91508190509291505056fea2646970667358221220311e4c1d4546bf94d2c90bc7f16c1d29ed287fc3da017696b204dab072873dd764736f6c63430008160033",
					"opcodes": "PUSH1 0x80 PUSH1 0x40 MSTORE CALLVALUE DUP1 ISZERO PUSH3 0x10 JUMPI PUSH0 DUP1 REVERT JUMPDEST POP PUSH1 0x40 MLOAD PUSH3 0x236D CODESIZE SUB DUP1 PUSH3 0x236D DUP4 CODECOPY DUP2 DUP2 ADD PUSH1 0x40 MSTORE DUP2 ADD SWAP1 PUSH3 0x36 SWAP2 SWAP1 PUSH3 0x12A JUMP JUMPDEST DUP2 PUSH1 0x2 PUSH0 PUSH2 0x100 EXP DUP2 SLOAD DUP2 PUSH20 0xFFFFFFFFFFFFFFFFFFFFFFFFFFFFFFFFFFFFFFFF MUL NOT AND SWAP1 DUP4 PUSH20 0xFFFFFFFFFFFFFFFFFFFFFFFFFFFFFFFFFFFFFFFF AND MUL OR SWAP1 SSTORE POP DUP1 PUSH1 0x3 PUSH0 PUSH2 0x100 EXP DUP2 SLOAD DUP2 PUSH20 0xFFFFFFFFFFFFFFFFFFFFFFFFFFFFFFFFFFFFFFFF MUL NOT AND SWAP1 DUP4 PUSH20 0xFFFFFFFFFFFFFFFFFFFFFFFFFFFFFFFFFFFFFFFF AND MUL OR SWAP1 SSTORE POP PUSH1 0x1 PUSH0 DUP2 SWAP1 SSTORE POP POP POP PUSH3 0x16F JUMP JUMPDEST PUSH0 DUP1 REVERT JUMPDEST PUSH0 PUSH20 0xFFFFFFFFFFFFFFFFFFFFFFFFFFFFFFFFFFFFFFFF DUP3 AND SWAP1 POP SWAP2 SWAP1 POP JUMP JUMPDEST PUSH0 PUSH3 0xF4 DUP3 PUSH3 0xC9 JUMP JUMPDEST SWAP1 POP SWAP2 SWAP1 POP JUMP JUMPDEST PUSH3 0x106 DUP2 PUSH3 0xE8 JUMP JUMPDEST DUP2 EQ PUSH3 0x111 JUMPI PUSH0 DUP1 REVERT JUMPDEST POP JUMP JUMPDEST PUSH0 DUP2 MLOAD SWAP1 POP PUSH3 0x124 DUP2 PUSH3 0xFB JUMP JUMPDEST SWAP3 SWAP2 POP POP JUMP JUMPDEST PUSH0 DUP1 PUSH1 0x40 DUP4 DUP6 SUB SLT ISZERO PUSH3 0x143 JUMPI PUSH3 0x142 PUSH3 0xC5 JUMP JUMPDEST JUMPDEST PUSH0 PUSH3 0x152 DUP6 DUP3 DUP7 ADD PUSH3 0x114 JUMP JUMPDEST SWAP3 POP POP PUSH1 0x20 PUSH3 0x165 DUP6 DUP3 DUP7 ADD PUSH3 0x114 JUMP JUMPDEST SWAP2 POP POP SWAP3 POP SWAP3 SWAP1 POP JUMP JUMPDEST PUSH2 0x21F0 DUP1 PUSH3 0x17D PUSH0 CODECOPY PUSH0 RETURN INVALID PUSH1 0x80 PUSH1 0x40 MSTORE CALLVALUE DUP1 ISZERO PUSH2 0xF JUMPI PUSH0 DUP1 REVERT JUMPDEST POP PUSH1 0x4 CALLDATASIZE LT PUSH2 0x9B JUMPI PUSH0 CALLDATALOAD PUSH1 0xE0 SHR DUP1 PUSH4 0xAFFED0E0 GT PUSH2 0x64 JUMPI DUP1 PUSH4 0xAFFED0E0 EQ PUSH2 0x135 JUMPI DUP1 PUSH4 0xB197DF54 EQ PUSH2 0x153 JUMPI DUP1 PUSH4 0xC440FA0F EQ PUSH2 0x16F JUMPI DUP1 PUSH4 0xD930DA60 EQ PUSH2 0x18B JUMPI DUP1 PUSH4 0xEB5A662E EQ PUSH2 0x195 JUMPI PUSH2 0x9B JUMP JUMPDEST DUP1 PUSH3 0xE1801C EQ PUSH2 0x9F JUMPI DUP1 PUSH4 0x2F48AB7D EQ PUSH2 0xBB JUMPI DUP1 PUSH4 0x735DE9F7 EQ PUSH2 0xD9 JUMPI DUP1 PUSH4 0x86D86D84 EQ PUSH2 0xF7 JUMPI DUP1 PUSH4 0xA63661A5 EQ PUSH2 0x12B JUMPI JUMPDEST PUSH0 DUP1 REVERT JUMPDEST PUSH2 0xB9 PUSH1 0x4 DUP1 CALLDATASIZE SUB DUP2 ADD SWAP1 PUSH2 0xB4 SWAP2 SWAP1 PUSH2 0x15C2 JUMP JUMPDEST PUSH2 0x1C5 JUMP JUMPDEST STOP JUMPDEST PUSH2 0xC3 PUSH2 0x3A8 JUMP JUMPDEST PUSH1 0x40 MLOAD PUSH2 0xD0 SWAP2 SWAP1 PUSH2 0x167A JUMP JUMPDEST PUSH1 0x40 MLOAD DUP1 SWAP2 SUB SWAP1 RETURN JUMPDEST PUSH2 0xE1 PUSH2 0x3CD JUMP JUMPDEST PUSH1 0x40 MLOAD PUSH2 0xEE SWAP2 SWAP1 PUSH2 0x16B3 JUMP JUMPDEST PUSH1 0x40 MLOAD DUP1 SWAP2 SUB SWAP1 RETURN JUMPDEST PUSH2 0x111 PUSH1 0x4 DUP1 CALLDATASIZE SUB DUP2 ADD SWAP1 PUSH2 0x10C SWAP2 SWAP1 PUSH2 0x1707 JUMP JUMPDEST PUSH2 0x3F2 JUMP JUMPDEST PUSH1 0x40 MLOAD PUSH2 0x122 SWAP6 SWAP5 SWAP4 SWAP3 SWAP2 SWAP1 PUSH2 0x1741 JUMP JUMPDEST PUSH1 0x40 MLOAD DUP1 SWAP2 SUB SWAP1 RETURN JUMPDEST PUSH2 0x133 PUSH2 0x424 JUMP JUMPDEST STOP JUMPDEST PUSH2 0x13D PUSH2 0x63B JUMP JUMPDEST PUSH1 0x40 MLOAD PUSH2 0x14A SWAP2 SWAP1 PUSH2 0x1792 JUMP JUMPDEST PUSH1 0x40 MLOAD DUP1 SWAP2 SUB SWAP1 RETURN JUMPDEST PUSH2 0x16D PUSH1 0x4 DUP1 CALLDATASIZE SUB DUP2 ADD SWAP1 PUSH2 0x168 SWAP2 SWAP1 PUSH2 0x15C2 JUMP JUMPDEST PUSH2 0x640 JUMP JUMPDEST STOP JUMPDEST PUSH2 0x189 PUSH1 0x4 DUP1 CALLDATASIZE SUB DUP2 ADD SWAP1 PUSH2 0x184 SWAP2 SWAP1 PUSH2 0x1707 JUMP JUMPDEST PUSH2 0x84C JUMP JUMPDEST STOP JUMPDEST PUSH2 0x193 PUSH2 0xE26 JUMP JUMPDEST STOP JUMPDEST PUSH2 0x1AF PUSH1 0x4 DUP1 CALLDATASIZE SUB DUP2 ADD SWAP1 PUSH2 0x1AA SWAP2 SWAP1 PUSH2 0x1707 JUMP JUMPDEST PUSH2 0xF31 JUMP JUMPDEST PUSH1 0x40 MLOAD PUSH2 0x1BC SWAP2 SWAP1 PUSH2 0x1792 JUMP JUMPDEST PUSH1 0x40 MLOAD DUP1 SWAP2 SUB SWAP1 RETURN JUMPDEST PUSH0 PUSH1 0x1 PUSH0 CALLER PUSH20 0xFFFFFFFFFFFFFFFFFFFFFFFFFFFFFFFFFFFFFFFF AND PUSH20 0xFFFFFFFFFFFFFFFFFFFFFFFFFFFFFFFFFFFFFFFF AND DUP2 MSTORE PUSH1 0x20 ADD SWAP1 DUP2 MSTORE PUSH1 0x20 ADD PUSH0 KECCAK256 PUSH0 ADD SLOAD GT PUSH2 0x246 JUMPI PUSH1 0x40 MLOAD PUSH32 0x8C379A000000000000000000000000000000000000000000000000000000000 DUP2 MSTORE PUSH1 0x4 ADD PUSH2 0x23D SWAP1 PUSH2 0x1805 JUMP JUMPDEST PUSH1 0x40 MLOAD DUP1 SWAP2 SUB SWAP1 REVERT JUMPDEST PUSH0 DUP3 GT PUSH2 0x288 JUMPI PUSH1 0x40 MLOAD PUSH32 0x8C379A000000000000000000000000000000000000000000000000000000000 DUP2 MSTORE PUSH1 0x4 ADD PUSH2 0x27F SWAP1 PUSH2 0x186D JUMP JUMPDEST PUSH1 0x40 MLOAD DUP1 SWAP2 SUB SWAP1 REVERT JUMPDEST PUSH0 DUP2 GT PUSH2 0x2CA JUMPI PUSH1 0x40 MLOAD PUSH32 0x8C379A000000000000000000000000000000000000000000000000000000000 DUP2 MSTORE PUSH1 0x4 ADD PUSH2 0x2C1 SWAP1 PUSH2 0x18D5 JUMP JUMPDEST PUSH1 0x40 MLOAD DUP1 SWAP2 SUB SWAP1 REVERT JUMPDEST DUP1 PUSH1 0x1 PUSH0 CALLER PUSH20 0xFFFFFFFFFFFFFFFFFFFFFFFFFFFFFFFFFFFFFFFF AND PUSH20 0xFFFFFFFFFFFFFFFFFFFFFFFFFFFFFFFFFFFFFFFF AND DUP2 MSTORE PUSH1 0x20 ADD SWAP1 DUP2 MSTORE PUSH1 0x20 ADD PUSH0 KECCAK256 PUSH1 0x2 ADD DUP2 SWAP1 SSTORE POP DUP2 PUSH1 0x1 PUSH0 CALLER PUSH20 0xFFFFFFFFFFFFFFFFFFFFFFFFFFFFFFFFFFFFFFFF AND PUSH20 0xFFFFFFFFFFFFFFFFFFFFFFFFFFFFFFFFFFFFFFFF AND DUP2 MSTORE PUSH1 0x20 ADD SWAP1 DUP2 MSTORE PUSH1 0x20 ADD PUSH0 KECCAK256 PUSH1 0x1 ADD DUP2 SWAP1 SSTORE POP CALLER PUSH20 0xFFFFFFFFFFFFFFFFFFFFFFFFFFFFFFFFFFFFFFFF AND PUSH32 0xC8108639F5E0627BAC90449607E60D516A5082452E397808A067B57F755515FC DUP4 DUP4 PUSH1 0x40 MLOAD PUSH2 0x39C SWAP3 SWAP2 SWAP1 PUSH2 0x18F3 JUMP JUMPDEST PUSH1 0x40 MLOAD DUP1 SWAP2 SUB SWAP1 LOG2 POP POP JUMP JUMPDEST PUSH1 0x2 PUSH0 SWAP1 SLOAD SWAP1 PUSH2 0x100 EXP SWAP1 DIV PUSH20 0xFFFFFFFFFFFFFFFFFFFFFFFFFFFFFFFFFFFFFFFF AND DUP2 JUMP JUMPDEST PUSH1 0x3 PUSH0 SWAP1 SLOAD SWAP1 PUSH2 0x100 EXP SWAP1 DIV PUSH20 0xFFFFFFFFFFFFFFFFFFFFFFFFFFFFFFFFFFFFFFFF AND DUP2 JUMP JUMPDEST PUSH1 0x1 PUSH1 0x20 MSTORE DUP1 PUSH0 MSTORE PUSH1 0x40 PUSH0 KECCAK256 PUSH0 SWAP2 POP SWAP1 POP DUP1 PUSH0 ADD SLOAD SWAP1 DUP1 PUSH1 0x1 ADD SLOAD SWAP1 DUP1 PUSH1 0x2 ADD SLOAD SWAP1 DUP1 PUSH1 0x3 ADD SLOAD SWAP1 DUP1 PUSH1 0x4 ADD SLOAD SWAP1 POP DUP6 JUMP JUMPDEST PUSH0 PUSH1 0x1 PUSH0 CALLER PUSH20 0xFFFFFFFFFFFFFFFFFFFFFFFFFFFFFFFFFFFFFFFF AND PUSH20 0xFFFFFFFFFFFFFFFFFFFFFFFFFFFFFFFFFFFFFFFF AND DUP2 MSTORE PUSH1 0x20 ADD SWAP1 DUP2 MSTORE PUSH1 0x20 ADD PUSH0 KECCAK256 PUSH0 ADD SLOAD GT PUSH2 0x4A5 JUMPI PUSH1 0x40 MLOAD PUSH32 0x8C379A000000000000000000000000000000000000000000000000000000000 DUP2 MSTORE PUSH1 0x4 ADD PUSH2 0x49C SWAP1 PUSH2 0x1964 JUMP JUMPDEST PUSH1 0x40 MLOAD DUP1 SWAP2 SUB SWAP1 REVERT JUMPDEST PUSH0 PUSH1 0x1 PUSH0 CALLER PUSH20 0xFFFFFFFFFFFFFFFFFFFFFFFFFFFFFFFFFFFFFFFF AND PUSH20 0xFFFFFFFFFFFFFFFFFFFFFFFFFFFFFFFFFFFFFFFF AND DUP2 MSTORE PUSH1 0x20 ADD SWAP1 DUP2 MSTORE PUSH1 0x20 ADD PUSH0 KECCAK256 PUSH1 0x2 ADD SLOAD GT PUSH2 0x527 JUMPI PUSH1 0x40 MLOAD PUSH32 0x8C379A000000000000000000000000000000000000000000000000000000000 DUP2 MSTORE PUSH1 0x4 ADD PUSH2 0x51E SWAP1 PUSH2 0x18D5 JUMP JUMPDEST PUSH1 0x40 MLOAD DUP1 SWAP2 SUB SWAP1 REVERT JUMPDEST PUSH1 0x1 PUSH0 CALLER PUSH20 0xFFFFFFFFFFFFFFFFFFFFFFFFFFFFFFFFFFFFFFFF AND PUSH20 0xFFFFFFFFFFFFFFFFFFFFFFFFFFFFFFFFFFFFFFFF AND DUP2 MSTORE PUSH1 0x20 ADD SWAP1 DUP2 MSTORE PUSH1 0x20 ADD PUSH0 KECCAK256 PUSH1 0x2 ADD SLOAD PUSH2 0x571 CALLER PUSH2 0xF31 JUMP JUMPDEST GT PUSH2 0x5B1 JUMPI PUSH1 0x40 MLOAD PUSH32 0x8C379A000000000000000000000000000000000000000000000000000000000 DUP2 MSTORE PUSH1 0x4 ADD PUSH2 0x5A8 SWAP1 PUSH2 0x19F2 JUMP JUMPDEST PUSH1 0x40 MLOAD DUP1 SWAP2 SUB SWAP1 REVERT JUMPDEST PUSH1 0x1 DUP1 PUSH0 CALLER PUSH20 0xFFFFFFFFFFFFFFFFFFFFFFFFFFFFFFFFFFFFFFFF AND PUSH20 0xFFFFFFFFFFFFFFFFFFFFFFFFFFFFFFFFFFFFFFFF AND DUP2 MSTORE PUSH1 0x20 ADD SWAP1 DUP2 MSTORE PUSH1 0x20 ADD PUSH0 KECCAK256 PUSH1 0x3 ADD DUP2 SWAP1 SSTORE POP CALLER PUSH20 0xFFFFFFFFFFFFFFFFFFFFFFFFFFFFFFFFFFFFFFFF AND PUSH32 0xA806CF17BE1FB3CFF26C4A6A46B735DDBF2AC07C138BDEDB6D2ACE798A2CFD40 PUSH1 0x40 MLOAD PUSH1 0x40 MLOAD DUP1 SWAP2 SUB SWAP1 LOG2 JUMP JUMPDEST PUSH0 SLOAD DUP2 JUMP JUMPDEST PUSH0 PUSH1 0x1 PUSH0 CALLER PUSH20 0xFFFFFFFFFFFFFFFFFFFFFFFFFFFFFFFFFFFFFFFF AND PUSH20 0xFFFFFFFFFFFFFFFFFFFFFFFFFFFFFFFFFFFFFFFF AND DUP2 MSTORE PUSH1 0x20 ADD SWAP1 DUP2 MSTORE PUSH1 0x20 ADD PUSH0 KECCAK256 PUSH0 ADD SLOAD EQ PUSH2 0x6C1 JUMPI PUSH1 0x40 MLOAD PUSH32 0x8C379A000000000000000000000000000000000000000000000000000000000 DUP2 MSTORE PUSH1 0x4 ADD PUSH2 0x6B8 SWAP1 PUSH2 0x1805 JUMP JUMPDEST PUSH1 0x40 MLOAD DUP1 SWAP2 SUB SWAP1 REVERT JUMPDEST PUSH0 DUP3 GT PUSH2 0x703 JUMPI PUSH1 0x40 MLOAD PUSH32 0x8C379A000000000000000000000000000000000000000000000000000000000 DUP2 MSTORE PUSH1 0x4 ADD PUSH2 0x6FA SWAP1 PUSH2 0x186D JUMP JUMPDEST PUSH1 0x40 MLOAD DUP1 SWAP2 SUB SWAP1 REVERT JUMPDEST PUSH0 DUP2 GT PUSH2 0x745 JUMPI PUSH1 0x40 MLOAD PUSH32 0x8C379A000000000000000000000000000000000000000000000000000000000 DUP2 MSTORE PUSH1 0x4 ADD PUSH2 0x73C SWAP1 PUSH2 0x18D5 JUMP JUMPDEST PUSH1 0x40 MLOAD DUP1 SWAP2 SUB SWAP1 REVERT JUMPDEST PUSH1 0x40 MLOAD DUP1 PUSH1 0xA0 ADD PUSH1 0x40 MSTORE DUP1 PUSH0 DUP1 DUP2 SLOAD DUP1 SWAP3 SWAP2 SWAP1 PUSH2 0x761 SWAP1 PUSH2 0x1A3D JUMP JUMPDEST SWAP2 SWAP1 POP SSTORE DUP2 MSTORE PUSH1 0x20 ADD DUP4 DUP2 MSTORE PUSH1 0x20 ADD DUP3 DUP2 MSTORE PUSH1 0x20 ADD PUSH0 DUP2 MSTORE PUSH1 0x20 ADD PUSH0 DUP2 MSTORE POP PUSH1 0x1 PUSH0 CALLER PUSH20 0xFFFFFFFFFFFFFFFFFFFFFFFFFFFFFFFFFFFFFFFF AND PUSH20 0xFFFFFFFFFFFFFFFFFFFFFFFFFFFFFFFFFFFFFFFF AND DUP2 MSTORE PUSH1 0x20 ADD SWAP1 DUP2 MSTORE PUSH1 0x20 ADD PUSH0 KECCAK256 PUSH0 DUP3 ADD MLOAD DUP2 PUSH0 ADD SSTORE PUSH1 0x20 DUP3 ADD MLOAD DUP2 PUSH1 0x1 ADD SSTORE PUSH1 0x40 DUP3 ADD MLOAD DUP2 PUSH1 0x2 ADD SSTORE PUSH1 0x60 DUP3 ADD MLOAD DUP2 PUSH1 0x3 ADD SSTORE PUSH1 0x80 DUP3 ADD MLOAD DUP2 PUSH1 0x4 ADD SSTORE SWAP1 POP POP CALLER PUSH20 0xFFFFFFFFFFFFFFFFFFFFFFFFFFFFFFFFFFFFFFFF AND PUSH32 0x89D3F1CDFAD4E5C26535AC23DC61CF9E975667801747518F01B1B653545D736A DUP4 DUP4 PUSH1 0x40 MLOAD PUSH2 0x838 SWAP3 SWAP2 SWAP1 PUSH2 0x18F3 JUMP JUMPDEST PUSH1 0x40 MLOAD DUP1 SWAP2 SUB SWAP1 LOG2 PUSH2 0x848 PUSH2 0x424 JUMP JUMPDEST POP POP JUMP JUMPDEST PUSH1 0x1 DUP1 PUSH0 DUP4 PUSH20 0xFFFFFFFFFFFFFFFFFFFFFFFFFFFFFFFFFFFFFFFF AND PUSH20 0xFFFFFFFFFFFFFFFFFFFFFFFFFFFFFFFFFFFFFFFF AND DUP2 MSTORE PUSH1 0x20 ADD SWAP1 DUP2 MSTORE PUSH1 0x20 ADD PUSH0 KECCAK256 PUSH1 0x3 ADD SLOAD EQ PUSH2 0x8CE JUMPI PUSH1 0x40 MLOAD PUSH32 0x8C379A000000000000000000000000000000000000000000000000000000000 DUP2 MSTORE PUSH1 0x4 ADD PUSH2 0x8C5 SWAP1 PUSH2 0x1ACE JUMP JUMPDEST PUSH1 0x40 MLOAD DUP1 SWAP2 SUB SWAP1 REVERT JUMPDEST PUSH1 0x1 PUSH0 DUP3 PUSH20 0xFFFFFFFFFFFFFFFFFFFFFFFFFFFFFFFFFFFFFFFF AND PUSH20 0xFFFFFFFFFFFFFFFFFFFFFFFFFFFFFFFFFFFFFFFF AND DUP2 MSTORE PUSH1 0x20 ADD SWAP1 DUP2 MSTORE PUSH1 0x20 ADD PUSH0 KECCAK256 PUSH1 0x2 ADD SLOAD PUSH2 0x918 CALLER PUSH2 0xF31 JUMP JUMPDEST GT PUSH2 0x958 JUMPI PUSH1 0x40 MLOAD PUSH32 0x8C379A000000000000000000000000000000000000000000000000000000000 DUP2 MSTORE PUSH1 0x4 ADD PUSH2 0x94F SWAP1 PUSH2 0x1B5C JUMP JUMPDEST PUSH1 0x40 MLOAD DUP1 SWAP2 SUB SWAP1 REVERT JUMPDEST PUSH3 0x15180 PUSH1 0x1 PUSH0 DUP4 PUSH20 0xFFFFFFFFFFFFFFFFFFFFFFFFFFFFFFFFFFFFFFFF AND PUSH20 0xFFFFFFFFFFFFFFFFFFFFFFFFFFFFFFFFFFFFFFFF AND DUP2 MSTORE PUSH1 0x20 ADD SWAP1 DUP2 MSTORE PUSH1 0x20 ADD PUSH0 KECCAK256 PUSH1 0x1 ADD SLOAD PUSH2 0x9A7 SWAP2 SWAP1 PUSH2 0x1B7A JUMP JUMPDEST PUSH1 0x1 PUSH0 DUP4 PUSH20 0xFFFFFFFFFFFFFFFFFFFFFFFFFFFFFFFFFFFFFFFF AND PUSH20 0xFFFFFFFFFFFFFFFFFFFFFFFFFFFFFFFFFFFFFFFF AND DUP2 MSTORE PUSH1 0x20 ADD SWAP1 DUP2 MSTORE PUSH1 0x20 ADD PUSH0 KECCAK256 PUSH1 0x4 ADD SLOAD PUSH2 0x9F2 SWAP2 SWAP1 PUSH2 0x1BBB JUMP JUMPDEST TIMESTAMP LT ISZERO PUSH2 0xA34 JUMPI PUSH1 0x40 MLOAD PUSH32 0x8C379A000000000000000000000000000000000000000000000000000000000 DUP2 MSTORE PUSH1 0x4 ADD PUSH2 0xA2B SWAP1 PUSH2 0x1C5E JUMP JUMPDEST PUSH1 0x40 MLOAD DUP1 SWAP2 SUB SWAP1 REVERT JUMPDEST PUSH0 PUSH1 0x1 PUSH0 DUP4 PUSH20 0xFFFFFFFFFFFFFFFFFFFFFFFFFFFFFFFFFFFFFFFF AND PUSH20 0xFFFFFFFFFFFFFFFFFFFFFFFFFFFFFFFFFFFFFFFF AND DUP2 MSTORE PUSH1 0x20 ADD SWAP1 DUP2 MSTORE PUSH1 0x20 ADD PUSH0 KECCAK256 PUSH1 0x2 ADD SLOAD SWAP1 POP PUSH2 0xAA5 PUSH1 0x2 PUSH0 SWAP1 SLOAD SWAP1 PUSH2 0x100 EXP SWAP1 DIV PUSH20 0xFFFFFFFFFFFFFFFFFFFFFFFFFFFFFFFFFFFFFFFF AND DUP4 ADDRESS DUP5 PUSH2 0xFD4 JUMP JUMPDEST PUSH2 0xAF2 PUSH1 0x2 PUSH0 SWAP1 SLOAD SWAP1 PUSH2 0x100 EXP SWAP1 DIV PUSH20 0xFFFFFFFFFFFFFFFFFFFFFFFFFFFFFFFFFFFFFFFF AND PUSH1 0x3 PUSH0 SWAP1 SLOAD SWAP1 PUSH2 0x100 EXP SWAP1 DIV PUSH20 0xFFFFFFFFFFFFFFFFFFFFFFFFFFFFFFFFFFFFFFFF AND DUP4 PUSH2 0x1056 JUMP JUMPDEST PUSH0 PUSH1 0x2 PUSH8 0xFFFFFFFFFFFFFFFF DUP2 GT ISZERO PUSH2 0xB0E JUMPI PUSH2 0xB0D PUSH2 0x1C7C JUMP JUMPDEST JUMPDEST PUSH1 0x40 MLOAD SWAP1 DUP1 DUP3 MSTORE DUP1 PUSH1 0x20 MUL PUSH1 0x20 ADD DUP3 ADD PUSH1 0x40 MSTORE DUP1 ISZERO PUSH2 0xB3C JUMPI DUP2 PUSH1 0x20 ADD PUSH1 0x20 DUP3 MUL DUP1 CALLDATASIZE DUP4 CALLDATACOPY DUP1 DUP3 ADD SWAP2 POP POP SWAP1 POP JUMPDEST POP SWAP1 POP PUSH1 0x2 PUSH0 SWAP1 SLOAD SWAP1 PUSH2 0x100 EXP SWAP1 DIV PUSH20 0xFFFFFFFFFFFFFFFFFFFFFFFFFFFFFFFFFFFFFFFF AND DUP2 PUSH0 DUP2 MLOAD DUP2 LT PUSH2 0xB74 JUMPI PUSH2 0xB73 PUSH2 0x1CA9 JUMP JUMPDEST JUMPDEST PUSH1 0x20 MUL PUSH1 0x20 ADD ADD SWAP1 PUSH20 0xFFFFFFFFFFFFFFFFFFFFFFFFFFFFFFFFFFFFFFFF AND SWAP1 DUP2 PUSH20 0xFFFFFFFFFFFFFFFFFFFFFFFFFFFFFFFFFFFFFFFF AND DUP2 MSTORE POP POP PUSH1 0x3 PUSH0 SWAP1 SLOAD SWAP1 PUSH2 0x100 EXP SWAP1 DIV PUSH20 0xFFFFFFFFFFFFFFFFFFFFFFFFFFFFFFFFFFFFFFFF AND PUSH20 0xFFFFFFFFFFFFFFFFFFFFFFFFFFFFFFFFFFFFFFFF AND PUSH4 0xAD5C4648 PUSH1 0x40 MLOAD DUP2 PUSH4 0xFFFFFFFF AND PUSH1 0xE0 SHL DUP2 MSTORE PUSH1 0x4 ADD PUSH1 0x20 PUSH1 0x40 MLOAD DUP1 DUP4 SUB DUP2 DUP7 GAS STATICCALL ISZERO DUP1 ISZERO PUSH2 0xC18 JUMPI RETURNDATASIZE PUSH0 DUP1 RETURNDATACOPY RETURNDATASIZE PUSH0 REVERT JUMPDEST POP POP POP POP PUSH1 0x40 MLOAD RETURNDATASIZE PUSH1 0x1F NOT PUSH1 0x1F DUP3 ADD AND DUP3 ADD DUP1 PUSH1 0x40 MSTORE POP DUP2 ADD SWAP1 PUSH2 0xC3C SWAP2 SWAP1 PUSH2 0x1CEA JUMP JUMPDEST DUP2 PUSH1 0x1 DUP2 MLOAD DUP2 LT PUSH2 0xC50 JUMPI PUSH2 0xC4F PUSH2 0x1CA9 JUMP JUMPDEST JUMPDEST PUSH1 0x20 MUL PUSH1 0x20 ADD ADD SWAP1 PUSH20 0xFFFFFFFFFFFFFFFFFFFFFFFFFFFFFFFFFFFFFFFF AND SWAP1 DUP2 PUSH20 0xFFFFFFFFFFFFFFFFFFFFFFFFFFFFFFFFFFFFFFFF AND DUP2 MSTORE POP POP PUSH0 PUSH1 0x3 PUSH0 SWAP1 SLOAD SWAP1 PUSH2 0x100 EXP SWAP1 DIV PUSH20 0xFFFFFFFFFFFFFFFFFFFFFFFFFFFFFFFFFFFFFFFF AND PUSH20 0xFFFFFFFFFFFFFFFFFFFFFFFFFFFFFFFFFFFFFFFF AND PUSH4 0x18CBAFE5 DUP5 PUSH0 DUP6 ADDRESS PUSH2 0xE10 TIMESTAMP PUSH2 0xCDA SWAP2 SWAP1 PUSH2 0x1BBB JUMP JUMPDEST PUSH1 0x40 MLOAD DUP7 PUSH4 0xFFFFFFFF AND PUSH1 0xE0 SHL DUP2 MSTORE PUSH1 0x4 ADD PUSH2 0xCFA SWAP6 SWAP5 SWAP4 SWAP3 SWAP2 SWAP1 PUSH2 0x1E14 JUMP JUMPDEST PUSH0 PUSH1 0x40 MLOAD DUP1 DUP4 SUB DUP2 PUSH0 DUP8 GAS CALL ISZERO DUP1 ISZERO PUSH2 0xD15 JUMPI RETURNDATASIZE PUSH0 DUP1 RETURNDATACOPY RETURNDATASIZE PUSH0 REVERT JUMPDEST POP POP POP POP PUSH1 0x40 MLOAD RETURNDATASIZE PUSH0 DUP3 RETURNDATACOPY RETURNDATASIZE PUSH1 0x1F NOT PUSH1 0x1F DUP3 ADD AND DUP3 ADD DUP1 PUSH1 0x40 MSTORE POP DUP2 ADD SWAP1 PUSH2 0xD3D SWAP2 SWAP1 PUSH2 0x1FA3 JUMP JUMPDEST SWAP1 POP PUSH0 DUP2 PUSH1 0x1 DUP2 MLOAD DUP2 LT PUSH2 0xD54 JUMPI PUSH2 0xD53 PUSH2 0x1CA9 JUMP JUMPDEST JUMPDEST PUSH1 0x20 MUL PUSH1 0x20 ADD ADD MLOAD SWAP1 POP TIMESTAMP PUSH1 0x1 PUSH0 DUP8 PUSH20 0xFFFFFFFFFFFFFFFFFFFFFFFFFFFFFFFFFFFFFFFF AND PUSH20 0xFFFFFFFFFFFFFFFFFFFFFFFFFFFFFFFFFFFFFFFF AND DUP2 MSTORE PUSH1 0x20 ADD SWAP1 DUP2 MSTORE PUSH1 0x20 ADD PUSH0 KECCAK256 PUSH1 0x4 ADD DUP2 SWAP1 SSTORE POP DUP5 PUSH20 0xFFFFFFFFFFFFFFFFFFFFFFFFFFFFFFFFFFFFFFFF AND PUSH32 0x1A3ABF7E0A472651EBE2C79A31A5F4660C7EA65E3086EE1742D7502999BBF5B5 DUP6 DUP4 PUSH1 0x40 MLOAD PUSH2 0xDEB SWAP3 SWAP2 SWAP1 PUSH2 0x18F3 JUMP JUMPDEST PUSH1 0x40 MLOAD DUP1 SWAP2 SUB SWAP1 LOG2 PUSH2 0xE1F PUSH1 0x2 PUSH0 SWAP1 SLOAD SWAP1 PUSH2 0x100 EXP SWAP1 DIV PUSH20 0xFFFFFFFFFFFFFFFFFFFFFFFFFFFFFFFFFFFFFFFF AND DUP7 DUP4 PUSH2 0x10EF JUMP JUMPDEST POP POP POP POP POP JUMP JUMPDEST PUSH0 PUSH1 0x1 PUSH0 CALLER PUSH20 0xFFFFFFFFFFFFFFFFFFFFFFFFFFFFFFFFFFFFFFFF AND PUSH20 0xFFFFFFFFFFFFFFFFFFFFFFFFFFFFFFFFFFFFFFFF AND DUP2 MSTORE PUSH1 0x20 ADD SWAP1 DUP2 MSTORE PUSH1 0x20 ADD PUSH0 KECCAK256 PUSH0 ADD SLOAD GT PUSH2 0xEA7 JUMPI PUSH1 0x40 MLOAD PUSH32 0x8C379A000000000000000000000000000000000000000000000000000000000 DUP2 MSTORE PUSH1 0x4 ADD PUSH2 0xE9E SWAP1 PUSH2 0x1964 JUMP JUMPDEST PUSH1 0x40 MLOAD DUP1 SWAP2 SUB SWAP1 REVERT JUMPDEST PUSH0 PUSH1 0x1 PUSH0 CALLER PUSH20 0xFFFFFFFFFFFFFFFFFFFFFFFFFFFFFFFFFFFFFFFF AND PUSH20 0xFFFFFFFFFFFFFFFFFFFFFFFFFFFFFFFFFFFFFFFF AND DUP2 MSTORE PUSH1 0x20 ADD SWAP1 DUP2 MSTORE PUSH1 0x20 ADD PUSH0 KECCAK256 PUSH1 0x3 ADD DUP2 SWAP1 SSTORE POP CALLER PUSH20 0xFFFFFFFFFFFFFFFFFFFFFFFFFFFFFFFFFFFFFFFF AND PUSH32 0xF222ABD4EE7AFB02F9450183B95D07AAAB2EA2F2D6748F55525C7E875FDD58A1 PUSH1 0x40 MLOAD PUSH1 0x40 MLOAD DUP1 SWAP2 SUB SWAP1 LOG2 JUMP JUMPDEST PUSH0 PUSH1 0x2 PUSH0 SWAP1 SLOAD SWAP1 PUSH2 0x100 EXP SWAP1 DIV PUSH20 0xFFFFFFFFFFFFFFFFFFFFFFFFFFFFFFFFFFFFFFFF AND PUSH20 0xFFFFFFFFFFFFFFFFFFFFFFFFFFFFFFFFFFFFFFFF AND PUSH4 0xDD62ED3E DUP4 ADDRESS PUSH1 0x40 MLOAD DUP4 PUSH4 0xFFFFFFFF AND PUSH1 0xE0 SHL DUP2 MSTORE PUSH1 0x4 ADD PUSH2 0xF8E SWAP3 SWAP2 SWAP1 PUSH2 0x1FEA JUMP JUMPDEST PUSH1 0x20 PUSH1 0x40 MLOAD DUP1 DUP4 SUB DUP2 DUP7 GAS STATICCALL ISZERO DUP1 ISZERO PUSH2 0xFA9 JUMPI RETURNDATASIZE PUSH0 DUP1 RETURNDATACOPY RETURNDATASIZE PUSH0 REVERT JUMPDEST POP POP POP POP PUSH1 0x40 MLOAD RETURNDATASIZE PUSH1 0x1F NOT PUSH1 0x1F DUP3 ADD AND DUP3 ADD DUP1 PUSH1 0x40 MSTORE POP DUP2 ADD SWAP1 PUSH2 0xFCD SWAP2 SWAP1 PUSH2 0x2011 JUMP JUMPDEST SWAP1 POP SWAP2 SWAP1 POP JUMP JUMPDEST PUSH2 0x1050 DUP5 DUP6 PUSH20 0xFFFFFFFFFFFFFFFFFFFFFFFFFFFFFFFFFFFFFFFF AND PUSH4 0x23B872DD DUP7 DUP7 DUP7 PUSH1 0x40 MLOAD PUSH1 0x24 ADD PUSH2 0x1009 SWAP4 SWAP3 SWAP2 SWAP1 PUSH2 0x203C JUMP JUMPDEST PUSH1 0x40 MLOAD PUSH1 0x20 DUP2 DUP4 SUB SUB DUP2 MSTORE SWAP1 PUSH1 0x40 MSTORE SWAP2 POP PUSH1 0xE0 SHL PUSH1 0x20 DUP3 ADD DUP1 MLOAD PUSH28 0xFFFFFFFFFFFFFFFFFFFFFFFFFFFFFFFFFFFFFFFFFFFFFFFFFFFFFFFF DUP4 DUP2 DUP4 AND OR DUP4 MSTORE POP POP POP POP PUSH2 0x116E JUMP JUMPDEST POP POP POP POP JUMP JUMPDEST PUSH0 DUP4 PUSH20 0xFFFFFFFFFFFFFFFFFFFFFFFFFFFFFFFFFFFFFFFF AND PUSH4 0xDD62ED3E ADDRESS DUP6 PUSH1 0x40 MLOAD DUP4 PUSH4 0xFFFFFFFF AND PUSH1 0xE0 SHL DUP2 MSTORE PUSH1 0x4 ADD PUSH2 0x1092 SWAP3 SWAP2 SWAP1 PUSH2 0x1FEA JUMP JUMPDEST PUSH1 0x20 PUSH1 0x40 MLOAD DUP1 DUP4 SUB DUP2 DUP7 GAS STATICCALL ISZERO DUP1 ISZERO PUSH2 0x10AD JUMPI RETURNDATASIZE PUSH0 DUP1 RETURNDATACOPY RETURNDATASIZE PUSH0 REVERT JUMPDEST POP POP POP POP PUSH1 0x40 MLOAD RETURNDATASIZE PUSH1 0x1F NOT PUSH1 0x1F DUP3 ADD AND DUP3 ADD DUP1 PUSH1 0x40 MSTORE POP DUP2 ADD SWAP1 PUSH2 0x10D1 SWAP2 SWAP1 PUSH2 0x2011 JUMP JUMPDEST SWAP1 POP PUSH2 0x10E9 DUP5 DUP5 DUP5 DUP5 PUSH2 0x10E4 SWAP2 SWAP1 PUSH2 0x1BBB JUMP JUMPDEST PUSH2 0x1203 JUMP JUMPDEST POP POP POP POP JUMP JUMPDEST PUSH2 0x1169 DUP4 DUP5 PUSH20 0xFFFFFFFFFFFFFFFFFFFFFFFFFFFFFFFFFFFFFFFF AND PUSH4 0xA9059CBB DUP6 DUP6 PUSH1 0x40 MLOAD PUSH1 0x24 ADD PUSH2 0x1122 SWAP3 SWAP2 SWAP1 PUSH2 0x2071 JUMP JUMPDEST PUSH1 0x40 MLOAD PUSH1 0x20 DUP2 DUP4 SUB SUB DUP2 MSTORE SWAP1 PUSH1 0x40 MSTORE SWAP2 POP PUSH1 0xE0 SHL PUSH1 0x20 DUP3 ADD DUP1 MLOAD PUSH28 0xFFFFFFFFFFFFFFFFFFFFFFFFFFFFFFFFFFFFFFFFFFFFFFFFFFFFFFFF DUP4 DUP2 DUP4 AND OR DUP4 MSTORE POP POP POP POP PUSH2 0x116E JUMP JUMPDEST POP POP POP JUMP JUMPDEST PUSH0 PUSH2 0x1198 DUP3 DUP5 PUSH20 0xFFFFFFFFFFFFFFFFFFFFFFFFFFFFFFFFFFFFFFFF AND PUSH2 0x1310 SWAP1 SWAP2 SWAP1 PUSH4 0xFFFFFFFF AND JUMP JUMPDEST SWAP1 POP PUSH0 DUP2 MLOAD EQ ISZERO DUP1 ISZERO PUSH2 0x11BC JUMPI POP DUP1 DUP1 PUSH1 0x20 ADD SWAP1 MLOAD DUP2 ADD SWAP1 PUSH2 0x11BA SWAP2 SWAP1 PUSH2 0x20CD JUMP JUMPDEST ISZERO JUMPDEST ISZERO PUSH2 0x11FE JUMPI DUP3 PUSH1 0x40 MLOAD PUSH32 0x5274AFE700000000000000000000000000000000000000000000000000000000 DUP2 MSTORE PUSH1 0x4 ADD PUSH2 0x11F5 SWAP2 SWAP1 PUSH2 0x20F8 JUMP JUMPDEST PUSH1 0x40 MLOAD DUP1 SWAP2 SUB SWAP1 REVERT JUMPDEST POP POP POP JUMP JUMPDEST PUSH0 DUP4 PUSH20 0xFFFFFFFFFFFFFFFFFFFFFFFFFFFFFFFFFFFFFFFF AND PUSH4 0x95EA7B3 DUP5 DUP5 PUSH1 0x40 MLOAD PUSH1 0x24 ADD PUSH2 0x1233 SWAP3 SWAP2 SWAP1 PUSH2 0x2071 JUMP JUMPDEST PUSH1 0x40 MLOAD PUSH1 0x20 DUP2 DUP4 SUB SUB DUP2 MSTORE SWAP1 PUSH1 0x40 MSTORE SWAP2 POP PUSH1 0xE0 SHL PUSH1 0x20 DUP3 ADD DUP1 MLOAD PUSH28 0xFFFFFFFFFFFFFFFFFFFFFFFFFFFFFFFFFFFFFFFFFFFFFFFFFFFFFFFF DUP4 DUP2 DUP4 AND OR DUP4 MSTORE POP POP POP POP SWAP1 POP PUSH2 0x1281 DUP5 DUP3 PUSH2 0x1325 JUMP JUMPDEST PUSH2 0x130A JUMPI PUSH2 0x12FF DUP5 DUP6 PUSH20 0xFFFFFFFFFFFFFFFFFFFFFFFFFFFFFFFFFFFFFFFF AND PUSH4 0x95EA7B3 DUP7 PUSH0 PUSH1 0x40 MLOAD PUSH1 0x24 ADD PUSH2 0x12B8 SWAP3 SWAP2 SWAP1 PUSH2 0x2111 JUMP JUMPDEST PUSH1 0x40 MLOAD PUSH1 0x20 DUP2 DUP4 SUB SUB DUP2 MSTORE SWAP1 PUSH1 0x40 MSTORE SWAP2 POP PUSH1 0xE0 SHL PUSH1 0x20 DUP3 ADD DUP1 MLOAD PUSH28 0xFFFFFFFFFFFFFFFFFFFFFFFFFFFFFFFFFFFFFFFFFFFFFFFFFFFFFFFF DUP4 DUP2 DUP4 AND OR DUP4 MSTORE POP POP POP POP PUSH2 0x116E JUMP JUMPDEST PUSH2 0x1309 DUP5 DUP3 PUSH2 0x116E JUMP JUMPDEST JUMPDEST POP POP POP POP JUMP JUMPDEST PUSH1 0x60 PUSH2 0x131D DUP4 DUP4 PUSH0 PUSH2 0x13E4 JUMP JUMPDEST SWAP1 POP SWAP3 SWAP2 POP POP JUMP JUMPDEST PUSH0 DUP1 PUSH0 DUP5 PUSH20 0xFFFFFFFFFFFFFFFFFFFFFFFFFFFFFFFFFFFFFFFF AND DUP5 PUSH1 0x40 MLOAD PUSH2 0x134D SWAP2 SWAP1 PUSH2 0x21A4 JUMP JUMPDEST PUSH0 PUSH1 0x40 MLOAD DUP1 DUP4 SUB DUP2 PUSH0 DUP7 GAS CALL SWAP2 POP POP RETURNDATASIZE DUP1 PUSH0 DUP2 EQ PUSH2 0x1386 JUMPI PUSH1 0x40 MLOAD SWAP2 POP PUSH1 0x1F NOT PUSH1 0x3F RETURNDATASIZE ADD AND DUP3 ADD PUSH1 0x40 MSTORE RETURNDATASIZE DUP3 MSTORE RETURNDATASIZE PUSH0 PUSH1 0x20 DUP5 ADD RETURNDATACOPY PUSH2 0x138B JUMP JUMPDEST PUSH1 0x60 SWAP2 POP JUMPDEST POP SWAP2 POP SWAP2 POP DUP2 DUP1 ISZERO PUSH2 0x13B8 JUMPI POP PUSH0 DUP2 MLOAD EQ DUP1 PUSH2 0x13B7 JUMPI POP DUP1 DUP1 PUSH1 0x20 ADD SWAP1 MLOAD DUP2 ADD SWAP1 PUSH2 0x13B6 SWAP2 SWAP1 PUSH2 0x20CD JUMP JUMPDEST JUMPDEST JUMPDEST DUP1 ISZERO PUSH2 0x13DA JUMPI POP PUSH0 DUP6 PUSH20 0xFFFFFFFFFFFFFFFFFFFFFFFFFFFFFFFFFFFFFFFF AND EXTCODESIZE GT JUMPDEST SWAP3 POP POP POP SWAP3 SWAP2 POP POP JUMP JUMPDEST PUSH1 0x60 DUP2 SELFBALANCE LT ISZERO PUSH2 0x142B JUMPI ADDRESS PUSH1 0x40 MLOAD PUSH32 0xCD78605900000000000000000000000000000000000000000000000000000000 DUP2 MSTORE PUSH1 0x4 ADD PUSH2 0x1422 SWAP2 SWAP1 PUSH2 0x20F8 JUMP JUMPDEST PUSH1 0x40 MLOAD DUP1 SWAP2 SUB SWAP1 REVERT JUMPDEST PUSH0 DUP1 DUP6 PUSH20 0xFFFFFFFFFFFFFFFFFFFFFFFFFFFFFFFFFFFFFFFF AND DUP5 DUP7 PUSH1 0x40 MLOAD PUSH2 0x1453 SWAP2 SWAP1 PUSH2 0x21A4 JUMP JUMPDEST PUSH0 PUSH1 0x40 MLOAD DUP1 DUP4 SUB DUP2 DUP6 DUP8 GAS CALL SWAP3 POP POP POP RETURNDATASIZE DUP1 PUSH0 DUP2 EQ PUSH2 0x148D JUMPI PUSH1 0x40 MLOAD SWAP2 POP PUSH1 0x1F NOT PUSH1 0x3F RETURNDATASIZE ADD AND DUP3 ADD PUSH1 0x40 MSTORE RETURNDATASIZE DUP3 MSTORE RETURNDATASIZE PUSH0 PUSH1 0x20 DUP5 ADD RETURNDATACOPY PUSH2 0x1492 JUMP JUMPDEST PUSH1 0x60 SWAP2 POP JUMPDEST POP SWAP2 POP SWAP2 POP PUSH2 0x14A2 DUP7 DUP4 DUP4 PUSH2 0x14AD JUMP JUMPDEST SWAP3 POP POP POP SWAP4 SWAP3 POP POP POP JUMP JUMPDEST PUSH1 0x60 DUP3 PUSH2 0x14C2 JUMPI PUSH2 0x14BD DUP3 PUSH2 0x153A JUMP JUMPDEST PUSH2 0x1532 JUMP JUMPDEST PUSH0 DUP3 MLOAD EQ DUP1 ISZERO PUSH2 0x14E8 JUMPI POP PUSH0 DUP5 PUSH20 0xFFFFFFFFFFFFFFFFFFFFFFFFFFFFFFFFFFFFFFFF AND EXTCODESIZE EQ JUMPDEST ISZERO PUSH2 0x152A JUMPI DUP4 PUSH1 0x40 MLOAD PUSH32 0x9996B31500000000000000000000000000000000000000000000000000000000 DUP2 MSTORE PUSH1 0x4 ADD PUSH2 0x1521 SWAP2 SWAP1 PUSH2 0x20F8 JUMP JUMPDEST PUSH1 0x40 MLOAD DUP1 SWAP2 SUB SWAP1 REVERT JUMPDEST DUP2 SWAP1 POP PUSH2 0x1533 JUMP JUMPDEST JUMPDEST SWAP4 SWAP3 POP POP POP JUMP JUMPDEST PUSH0 DUP2 MLOAD GT ISZERO PUSH2 0x154C JUMPI DUP1 MLOAD DUP1 DUP3 PUSH1 0x20 ADD REVERT JUMPDEST PUSH1 0x40 MLOAD PUSH32 0x1425EA4200000000000000000000000000000000000000000000000000000000 DUP2 MSTORE PUSH1 0x4 ADD PUSH1 0x40 MLOAD DUP1 SWAP2 SUB SWAP1 REVERT JUMPDEST PUSH0 PUSH1 0x40 MLOAD SWAP1 POP SWAP1 JUMP JUMPDEST PUSH0 DUP1 REVERT JUMPDEST PUSH0 DUP1 REVERT JUMPDEST PUSH0 DUP2 SWAP1 POP SWAP2 SWAP1 POP JUMP JUMPDEST PUSH2 0x15A1 DUP2 PUSH2 0x158F JUMP JUMPDEST DUP2 EQ PUSH2 0x15AB JUMPI PUSH0 DUP1 REVERT JUMPDEST POP JUMP JUMPDEST PUSH0 DUP2 CALLDATALOAD SWAP1 POP PUSH2 0x15BC DUP2 PUSH2 0x1598 JUMP JUMPDEST SWAP3 SWAP2 POP POP JUMP JUMPDEST PUSH0 DUP1 PUSH1 0x40 DUP4 DUP6 SUB SLT ISZERO PUSH2 0x15D8 JUMPI PUSH2 0x15D7 PUSH2 0x1587 JUMP JUMPDEST JUMPDEST PUSH0 PUSH2 0x15E5 DUP6 DUP3 DUP7 ADD PUSH2 0x15AE JUMP JUMPDEST SWAP3 POP POP PUSH1 0x20 PUSH2 0x15F6 DUP6 DUP3 DUP7 ADD PUSH2 0x15AE JUMP JUMPDEST SWAP2 POP POP SWAP3 POP SWAP3 SWAP1 POP JUMP JUMPDEST PUSH0 PUSH20 0xFFFFFFFFFFFFFFFFFFFFFFFFFFFFFFFFFFFFFFFF DUP3 AND SWAP1 POP SWAP2 SWAP1 POP JUMP JUMPDEST PUSH0 DUP2 SWAP1 POP SWAP2 SWAP1 POP JUMP JUMPDEST PUSH0 PUSH2 0x1642 PUSH2 0x163D PUSH2 0x1638 DUP5 PUSH2 0x1600 JUMP JUMPDEST PUSH2 0x161F JUMP JUMPDEST PUSH2 0x1600 JUMP JUMPDEST SWAP1 POP SWAP2 SWAP1 POP JUMP JUMPDEST PUSH0 PUSH2 0x1653 DUP3 PUSH2 0x1628 JUMP JUMPDEST SWAP1 POP SWAP2 SWAP1 POP JUMP JUMPDEST PUSH0 PUSH2 0x1664 DUP3 PUSH2 0x1649 JUMP JUMPDEST SWAP1 POP SWAP2 SWAP1 POP JUMP JUMPDEST PUSH2 0x1674 DUP2 PUSH2 0x165A JUMP JUMPDEST DUP3 MSTORE POP POP JUMP JUMPDEST PUSH0 PUSH1 0x20 DUP3 ADD SWAP1 POP PUSH2 0x168D PUSH0 DUP4 ADD DUP5 PUSH2 0x166B JUMP JUMPDEST SWAP3 SWAP2 POP POP JUMP JUMPDEST PUSH0 PUSH2 0x169D DUP3 PUSH2 0x1649 JUMP JUMPDEST SWAP1 POP SWAP2 SWAP1 POP JUMP JUMPDEST PUSH2 0x16AD DUP2 PUSH2 0x1693 JUMP JUMPDEST DUP3 MSTORE POP POP JUMP JUMPDEST PUSH0 PUSH1 0x20 DUP3 ADD SWAP1 POP PUSH2 0x16C6 PUSH0 DUP4 ADD DUP5 PUSH2 0x16A4 JUMP JUMPDEST SWAP3 SWAP2 POP POP JUMP JUMPDEST PUSH0 PUSH2 0x16D6 DUP3 PUSH2 0x1600 JUMP JUMPDEST SWAP1 POP SWAP2 SWAP1 POP JUMP JUMPDEST PUSH2 0x16E6 DUP2 PUSH2 0x16CC JUMP JUMPDEST DUP2 EQ PUSH2 0x16F0 JUMPI PUSH0 DUP1 REVERT JUMPDEST POP JUMP JUMPDEST PUSH0 DUP2 CALLDATALOAD SWAP1 POP PUSH2 0x1701 DUP2 PUSH2 0x16DD JUMP JUMPDEST SWAP3 SWAP2 POP POP JUMP JUMPDEST PUSH0 PUSH1 0x20 DUP3 DUP5 SUB SLT ISZERO PUSH2 0x171C JUMPI PUSH2 0x171B PUSH2 0x1587 JUMP JUMPDEST JUMPDEST PUSH0 PUSH2 0x1729 DUP5 DUP3 DUP6 ADD PUSH2 0x16F3 JUMP JUMPDEST SWAP2 POP POP SWAP3 SWAP2 POP POP JUMP JUMPDEST PUSH2 0x173B DUP2 PUSH2 0x158F JUMP JUMPDEST DUP3 MSTORE POP POP JUMP JUMPDEST PUSH0 PUSH1 0xA0 DUP3 ADD SWAP1 POP PUSH2 0x1754 PUSH0 DUP4 ADD DUP9 PUSH2 0x1732 JUMP JUMPDEST PUSH2 0x1761 PUSH1 0x20 DUP4 ADD DUP8 PUSH2 0x1732 JUMP JUMPDEST PUSH2 0x176E PUSH1 0x40 DUP4 ADD DUP7 PUSH2 0x1732 JUMP JUMPDEST PUSH2 0x177B PUSH1 0x60 DUP4 ADD DUP6 PUSH2 0x1732 JUMP JUMPDEST PUSH2 0x1788 PUSH1 0x80 DUP4 ADD DUP5 PUSH2 0x1732 JUMP JUMPDEST SWAP7 SWAP6 POP POP POP POP POP POP JUMP JUMPDEST PUSH0 PUSH1 0x20 DUP3 ADD SWAP1 POP PUSH2 0x17A5 PUSH0 DUP4 ADD DUP5 PUSH2 0x1732 JUMP JUMPDEST SWAP3 SWAP2 POP POP JUMP JUMPDEST PUSH0 DUP3 DUP3 MSTORE PUSH1 0x20 DUP3 ADD SWAP1 POP SWAP3 SWAP2 POP POP JUMP JUMPDEST PUSH32 0x506C616E20697320657869737400000000000000000000000000000000000000 PUSH0 DUP3 ADD MSTORE POP JUMP JUMPDEST PUSH0 PUSH2 0x17EF PUSH1 0xD DUP4 PUSH2 0x17AB JUMP JUMPDEST SWAP2 POP PUSH2 0x17FA DUP3 PUSH2 0x17BB JUMP JUMPDEST PUSH1 0x20 DUP3 ADD SWAP1 POP SWAP2 SWAP1 POP JUMP JUMPDEST PUSH0 PUSH1 0x20 DUP3 ADD SWAP1 POP DUP2 DUP2 SUB PUSH0 DUP4 ADD MSTORE PUSH2 0x181C DUP2 PUSH2 0x17E3 JUMP JUMPDEST SWAP1 POP SWAP2 SWAP1 POP JUMP JUMPDEST PUSH32 0x4672657175656E6379206D7573742062652067726561746572207468616E2030 PUSH0 DUP3 ADD MSTORE POP JUMP JUMPDEST PUSH0 PUSH2 0x1857 PUSH1 0x20 DUP4 PUSH2 0x17AB JUMP JUMPDEST SWAP2 POP PUSH2 0x1862 DUP3 PUSH2 0x1823 JUMP JUMPDEST PUSH1 0x20 DUP3 ADD SWAP1 POP SWAP2 SWAP1 POP JUMP JUMPDEST PUSH0 PUSH1 0x20 DUP3 ADD SWAP1 POP DUP2 DUP2 SUB PUSH0 DUP4 ADD MSTORE PUSH2 0x1884 DUP2 PUSH2 0x184B JUMP JUMPDEST SWAP1 POP SWAP2 SWAP1 POP JUMP JUMPDEST PUSH32 0x416D6F756E74206D7573742062652067726561746572207468616E2030000000 PUSH0 DUP3 ADD MSTORE POP JUMP JUMPDEST PUSH0 PUSH2 0x18BF PUSH1 0x1D DUP4 PUSH2 0x17AB JUMP JUMPDEST SWAP2 POP PUSH2 0x18CA DUP3 PUSH2 0x188B JUMP JUMPDEST PUSH1 0x20 DUP3 ADD SWAP1 POP SWAP2 SWAP1 POP JUMP JUMPDEST PUSH0 PUSH1 0x20 DUP3 ADD SWAP1 POP DUP2 DUP2 SUB PUSH0 DUP4 ADD MSTORE PUSH2 0x18EC DUP2 PUSH2 0x18B3 JUMP JUMPDEST SWAP1 POP SWAP2 SWAP1 POP JUMP JUMPDEST PUSH0 PUSH1 0x40 DUP3 ADD SWAP1 POP PUSH2 0x1906 PUSH0 DUP4 ADD DUP6 PUSH2 0x1732 JUMP JUMPDEST PUSH2 0x1913 PUSH1 0x20 DUP4 ADD DUP5 PUSH2 0x1732 JUMP JUMPDEST SWAP4 SWAP3 POP POP POP JUMP JUMPDEST PUSH32 0x506C616E206973206E6F74206578697374000000000000000000000000000000 PUSH0 DUP3 ADD MSTORE POP JUMP JUMPDEST PUSH0 PUSH2 0x194E PUSH1 0x11 DUP4 PUSH2 0x17AB JUMP JUMPDEST SWAP2 POP PUSH2 0x1959 DUP3 PUSH2 0x191A JUMP JUMPDEST PUSH1 0x20 DUP3 ADD SWAP1 POP SWAP2 SWAP1 POP JUMP JUMPDEST PUSH0 PUSH1 0x20 DUP3 ADD SWAP1 POP DUP2 DUP2 SUB PUSH0 DUP4 ADD MSTORE PUSH2 0x197B DUP2 PUSH2 0x1942 JUMP JUMPDEST SWAP1 POP SWAP2 SWAP1 POP JUMP JUMPDEST PUSH32 0x546F74616C206D7573742062652067726561746572207468616E20616D6F756E PUSH0 DUP3 ADD MSTORE PUSH32 0x7400000000000000000000000000000000000000000000000000000000000000 PUSH1 0x20 DUP3 ADD MSTORE POP JUMP JUMPDEST PUSH0 PUSH2 0x19DC PUSH1 0x21 DUP4 PUSH2 0x17AB JUMP JUMPDEST SWAP2 POP PUSH2 0x19E7 DUP3 PUSH2 0x1982 JUMP JUMPDEST PUSH1 0x40 DUP3 ADD SWAP1 POP SWAP2 SWAP1 POP JUMP JUMPDEST PUSH0 PUSH1 0x20 DUP3 ADD SWAP1 POP DUP2 DUP2 SUB PUSH0 DUP4 ADD MSTORE PUSH2 0x1A09 DUP2 PUSH2 0x19D0 JUMP JUMPDEST SWAP1 POP SWAP2 SWAP1 POP JUMP JUMPDEST PUSH32 0x4E487B7100000000000000000000000000000000000000000000000000000000 PUSH0 MSTORE PUSH1 0x11 PUSH1 0x4 MSTORE PUSH1 0x24 PUSH0 REVERT JUMPDEST PUSH0 PUSH2 0x1A47 DUP3 PUSH2 0x158F JUMP JUMPDEST SWAP2 POP PUSH32 0xFFFFFFFFFFFFFFFFFFFFFFFFFFFFFFFFFFFFFFFFFFFFFFFFFFFFFFFFFFFFFFFF DUP3 SUB PUSH2 0x1A79 JUMPI PUSH2 0x1A78 PUSH2 0x1A10 JUMP JUMPDEST JUMPDEST PUSH1 0x1 DUP3 ADD SWAP1 POP SWAP2 SWAP1 POP JUMP JUMPDEST PUSH32 0x506C616E206973206E6F74206163746976650000000000000000000000000000 PUSH0 DUP3 ADD MSTORE POP JUMP JUMPDEST PUSH0 PUSH2 0x1AB8 PUSH1 0x12 DUP4 PUSH2 0x17AB JUMP JUMPDEST SWAP2 POP PUSH2 0x1AC3 DUP3 PUSH2 0x1A84 JUMP JUMPDEST PUSH1 0x20 DUP3 ADD SWAP1 POP SWAP2 SWAP1 POP JUMP JUMPDEST PUSH0 PUSH1 0x20 DUP3 ADD SWAP1 POP DUP2 DUP2 SUB PUSH0 DUP4 ADD MSTORE PUSH2 0x1AE5 DUP2 PUSH2 0x1AAC JUMP JUMPDEST SWAP1 POP SWAP2 SWAP1 POP JUMP JUMPDEST PUSH32 0x43616E6E6F742074726967676572206D6F7265207468616E2072656D61696E69 PUSH0 DUP3 ADD MSTORE PUSH32 0x6E6720616D6F756E740000000000000000000000000000000000000000000000 PUSH1 0x20 DUP3 ADD MSTORE POP JUMP JUMPDEST PUSH0 PUSH2 0x1B46 PUSH1 0x29 DUP4 PUSH2 0x17AB JUMP JUMPDEST SWAP2 POP PUSH2 0x1B51 DUP3 PUSH2 0x1AEC JUMP JUMPDEST PUSH1 0x40 DUP3 ADD SWAP1 POP SWAP2 SWAP1 POP JUMP JUMPDEST PUSH0 PUSH1 0x20 DUP3 ADD SWAP1 POP DUP2 DUP2 SUB PUSH0 DUP4 ADD MSTORE PUSH2 0x1B73 DUP2 PUSH2 0x1B3A JUMP JUMPDEST SWAP1 POP SWAP2 SWAP1 POP JUMP JUMPDEST PUSH0 PUSH2 0x1B84 DUP3 PUSH2 0x158F JUMP JUMPDEST SWAP2 POP PUSH2 0x1B8F DUP4 PUSH2 0x158F JUMP JUMPDEST SWAP3 POP DUP3 DUP3 MUL PUSH2 0x1B9D DUP2 PUSH2 0x158F JUMP JUMPDEST SWAP2 POP DUP3 DUP3 DIV DUP5 EQ DUP4 ISZERO OR PUSH2 0x1BB4 JUMPI PUSH2 0x1BB3 PUSH2 0x1A10 JUMP JUMPDEST JUMPDEST POP SWAP3 SWAP2 POP POP JUMP JUMPDEST PUSH0 PUSH2 0x1BC5 DUP3 PUSH2 0x158F JUMP JUMPDEST SWAP2 POP PUSH2 0x1BD0 DUP4 PUSH2 0x158F JUMP JUMPDEST SWAP3 POP DUP3 DUP3 ADD SWAP1 POP DUP1 DUP3 GT ISZERO PUSH2 0x1BE8 JUMPI PUSH2 0x1BE7 PUSH2 0x1A10 JUMP JUMPDEST JUMPDEST SWAP3 SWAP2 POP POP JUMP JUMPDEST PUSH32 0x43616E206F6E6C79207472696767657220706C616E206F6E6365207065722064 PUSH0 DUP3 ADD MSTORE PUSH32 0x6179000000000000000000000000000000000000000000000000000000000000 PUSH1 0x20 DUP3 ADD MSTORE POP JUMP JUMPDEST PUSH0 PUSH2 0x1C48 PUSH1 0x22 DUP4 PUSH2 0x17AB JUMP JUMPDEST SWAP2 POP PUSH2 0x1C53 DUP3 PUSH2 0x1BEE JUMP JUMPDEST PUSH1 0x40 DUP3 ADD SWAP1 POP SWAP2 SWAP1 POP JUMP JUMPDEST PUSH0 PUSH1 0x20 DUP3 ADD SWAP1 POP DUP2 DUP2 SUB PUSH0 DUP4 ADD MSTORE PUSH2 0x1C75 DUP2 PUSH2 0x1C3C JUMP JUMPDEST SWAP1 POP SWAP2 SWAP1 POP JUMP JUMPDEST PUSH32 0x4E487B7100000000000000000000000000000000000000000000000000000000 PUSH0 MSTORE PUSH1 0x41 PUSH1 0x4 MSTORE PUSH1 0x24 PUSH0 REVERT JUMPDEST PUSH32 0x4E487B7100000000000000000000000000000000000000000000000000000000 PUSH0 MSTORE PUSH1 0x32 PUSH1 0x4 MSTORE PUSH1 0x24 PUSH0 REVERT JUMPDEST PUSH0 DUP2 MLOAD SWAP1 POP PUSH2 0x1CE4 DUP2 PUSH2 0x16DD JUMP JUMPDEST SWAP3 SWAP2 POP POP JUMP JUMPDEST PUSH0 PUSH1 0x20 DUP3 DUP5 SUB SLT ISZERO PUSH2 0x1CFF JUMPI PUSH2 0x1CFE PUSH2 0x1587 JUMP JUMPDEST JUMPDEST PUSH0 PUSH2 0x1D0C DUP5 DUP3 DUP6 ADD PUSH2 0x1CD6 JUMP JUMPDEST SWAP2 POP POP SWAP3 SWAP2 POP POP JUMP JUMPDEST PUSH0 DUP2 SWAP1 POP SWAP2 SWAP1 POP JUMP JUMPDEST PUSH0 PUSH2 0x1D38 PUSH2 0x1D33 PUSH2 0x1D2E DUP5 PUSH2 0x1D15 JUMP JUMPDEST PUSH2 0x161F JUMP JUMPDEST PUSH2 0x158F JUMP JUMPDEST SWAP1 POP SWAP2 SWAP1 POP JUMP JUMPDEST PUSH2 0x1D48 DUP2 PUSH2 0x1D1E JUMP JUMPDEST DUP3 MSTORE POP POP JUMP JUMPDEST PUSH0 DUP2 MLOAD SWAP1 POP SWAP2 SWAP1 POP JUMP JUMPDEST PUSH0 DUP3 DUP3 MSTORE PUSH1 0x20 DUP3 ADD SWAP1 POP SWAP3 SWAP2 POP POP JUMP JUMPDEST PUSH0 DUP2 SWAP1 POP PUSH1 0x20 DUP3 ADD SWAP1 POP SWAP2 SWAP1 POP JUMP JUMPDEST PUSH2 0x1D80 DUP2 PUSH2 0x16CC JUMP JUMPDEST DUP3 MSTORE POP POP JUMP JUMPDEST PUSH0 PUSH2 0x1D91 DUP4 DUP4 PUSH2 0x1D77 JUMP JUMPDEST PUSH1 0x20 DUP4 ADD SWAP1 POP SWAP3 SWAP2 POP POP JUMP JUMPDEST PUSH0 PUSH1 0x20 DUP3 ADD SWAP1 POP SWAP2 SWAP1 POP JUMP JUMPDEST PUSH0 PUSH2 0x1DB3 DUP3 PUSH2 0x1D4E JUMP JUMPDEST PUSH2 0x1DBD DUP2 DUP6 PUSH2 0x1D58 JUMP JUMPDEST SWAP4 POP PUSH2 0x1DC8 DUP4 PUSH2 0x1D68 JUMP JUMPDEST DUP1 PUSH0 JUMPDEST DUP4 DUP2 LT ISZERO PUSH2 0x1DF8 JUMPI DUP2 MLOAD PUSH2 0x1DDF DUP9 DUP3 PUSH2 0x1D86 JUMP JUMPDEST SWAP8 POP PUSH2 0x1DEA DUP4 PUSH2 0x1D9D JUMP JUMPDEST SWAP3 POP POP PUSH1 0x1 DUP2 ADD SWAP1 POP PUSH2 0x1DCB JUMP JUMPDEST POP DUP6 SWAP4 POP POP POP POP SWAP3 SWAP2 POP POP JUMP JUMPDEST PUSH2 0x1E0E DUP2 PUSH2 0x16CC JUMP JUMPDEST DUP3 MSTORE POP POP JUMP JUMPDEST PUSH0 PUSH1 0xA0 DUP3 ADD SWAP1 POP PUSH2 0x1E27 PUSH0 DUP4 ADD DUP9 PUSH2 0x1732 JUMP JUMPDEST PUSH2 0x1E34 PUSH1 0x20 DUP4 ADD DUP8 PUSH2 0x1D3F JUMP JUMPDEST DUP2 DUP2 SUB PUSH1 0x40 DUP4 ADD MSTORE PUSH2 0x1E46 DUP2 DUP7 PUSH2 0x1DA9 JUMP JUMPDEST SWAP1 POP PUSH2 0x1E55 PUSH1 0x60 DUP4 ADD DUP6 PUSH2 0x1E05 JUMP JUMPDEST PUSH2 0x1E62 PUSH1 0x80 DUP4 ADD DUP5 PUSH2 0x1732 JUMP JUMPDEST SWAP7 SWAP6 POP POP POP POP POP POP JUMP JUMPDEST PUSH0 DUP1 REVERT JUMPDEST PUSH0 PUSH1 0x1F NOT PUSH1 0x1F DUP4 ADD AND SWAP1 POP SWAP2 SWAP1 POP JUMP JUMPDEST PUSH2 0x1E89 DUP3 PUSH2 0x1E70 JUMP JUMPDEST DUP2 ADD DUP2 DUP2 LT PUSH8 0xFFFFFFFFFFFFFFFF DUP3 GT OR ISZERO PUSH2 0x1EA8 JUMPI PUSH2 0x1EA7 PUSH2 0x1C7C JUMP JUMPDEST JUMPDEST DUP1 PUSH1 0x40 MSTORE POP POP POP JUMP JUMPDEST PUSH0 PUSH2 0x1EBA PUSH2 0x157E JUMP JUMPDEST SWAP1 POP PUSH2 0x1EC6 DUP3 DUP3 PUSH2 0x1E80 JUMP JUMPDEST SWAP2 SWAP1 POP JUMP JUMPDEST PUSH0 PUSH8 0xFFFFFFFFFFFFFFFF DUP3 GT ISZERO PUSH2 0x1EE5 JUMPI PUSH2 0x1EE4 PUSH2 0x1C7C JUMP JUMPDEST JUMPDEST PUSH1 0x20 DUP3 MUL SWAP1 POP PUSH1 0x20 DUP2 ADD SWAP1 POP SWAP2 SWAP1 POP JUMP JUMPDEST PUSH0 DUP1 REVERT JUMPDEST PUSH0 DUP2 MLOAD SWAP1 POP PUSH2 0x1F08 DUP2 PUSH2 0x1598 JUMP JUMPDEST SWAP3 SWAP2 POP POP JUMP JUMPDEST PUSH0 PUSH2 0x1F20 PUSH2 0x1F1B DUP5 PUSH2 0x1ECB JUMP JUMPDEST PUSH2 0x1EB1 JUMP JUMPDEST SWAP1 POP DUP1 DUP4 DUP3 MSTORE PUSH1 0x20 DUP3 ADD SWAP1 POP PUSH1 0x20 DUP5 MUL DUP4 ADD DUP6 DUP2 GT ISZERO PUSH2 0x1F43 JUMPI PUSH2 0x1F42 PUSH2 0x1EF6 JUMP JUMPDEST JUMPDEST DUP4 JUMPDEST DUP2 DUP2 LT ISZERO PUSH2 0x1F6C JUMPI DUP1 PUSH2 0x1F58 DUP9 DUP3 PUSH2 0x1EFA JUMP JUMPDEST DUP5 MSTORE PUSH1 0x20 DUP5 ADD SWAP4 POP POP PUSH1 0x20 DUP2 ADD SWAP1 POP PUSH2 0x1F45 JUMP JUMPDEST POP POP POP SWAP4 SWAP3 POP POP POP JUMP JUMPDEST PUSH0 DUP3 PUSH1 0x1F DUP4 ADD SLT PUSH2 0x1F8A JUMPI PUSH2 0x1F89 PUSH2 0x1E6C JUMP JUMPDEST JUMPDEST DUP2 MLOAD PUSH2 0x1F9A DUP5 DUP3 PUSH1 0x20 DUP7 ADD PUSH2 0x1F0E JUMP JUMPDEST SWAP2 POP POP SWAP3 SWAP2 POP POP JUMP JUMPDEST PUSH0 PUSH1 0x20 DUP3 DUP5 SUB SLT ISZERO PUSH2 0x1FB8 JUMPI PUSH2 0x1FB7 PUSH2 0x1587 JUMP JUMPDEST JUMPDEST PUSH0 DUP3 ADD MLOAD PUSH8 0xFFFFFFFFFFFFFFFF DUP2 GT ISZERO PUSH2 0x1FD5 JUMPI PUSH2 0x1FD4 PUSH2 0x158B JUMP JUMPDEST JUMPDEST PUSH2 0x1FE1 DUP5 DUP3 DUP6 ADD PUSH2 0x1F76 JUMP JUMPDEST SWAP2 POP POP SWAP3 SWAP2 POP POP JUMP JUMPDEST PUSH0 PUSH1 0x40 DUP3 ADD SWAP1 POP PUSH2 0x1FFD PUSH0 DUP4 ADD DUP6 PUSH2 0x1E05 JUMP JUMPDEST PUSH2 0x200A PUSH1 0x20 DUP4 ADD DUP5 PUSH2 0x1E05 JUMP JUMPDEST SWAP4 SWAP3 POP POP POP JUMP JUMPDEST PUSH0 PUSH1 0x20 DUP3 DUP5 SUB SLT ISZERO PUSH2 0x2026 JUMPI PUSH2 0x2025 PUSH2 0x1587 JUMP JUMPDEST JUMPDEST PUSH0 PUSH2 0x2033 DUP5 DUP3 DUP6 ADD PUSH2 0x1EFA JUMP JUMPDEST SWAP2 POP POP SWAP3 SWAP2 POP POP JUMP JUMPDEST PUSH0 PUSH1 0x60 DUP3 ADD SWAP1 POP PUSH2 0x204F PUSH0 DUP4 ADD DUP7 PUSH2 0x1E05 JUMP JUMPDEST PUSH2 0x205C PUSH1 0x20 DUP4 ADD DUP6 PUSH2 0x1E05 JUMP JUMPDEST PUSH2 0x2069 PUSH1 0x40 DUP4 ADD DUP5 PUSH2 0x1732 JUMP JUMPDEST SWAP5 SWAP4 POP POP POP POP JUMP JUMPDEST PUSH0 PUSH1 0x40 DUP3 ADD SWAP1 POP PUSH2 0x2084 PUSH0 DUP4 ADD DUP6 PUSH2 0x1E05 JUMP JUMPDEST PUSH2 0x2091 PUSH1 0x20 DUP4 ADD DUP5 PUSH2 0x1732 JUMP JUMPDEST SWAP4 SWAP3 POP POP POP JUMP JUMPDEST PUSH0 DUP2 ISZERO ISZERO SWAP1 POP SWAP2 SWAP1 POP JUMP JUMPDEST PUSH2 0x20AC DUP2 PUSH2 0x2098 JUMP JUMPDEST DUP2 EQ PUSH2 0x20B6 JUMPI PUSH0 DUP1 REVERT JUMPDEST POP JUMP JUMPDEST PUSH0 DUP2 MLOAD SWAP1 POP PUSH2 0x20C7 DUP2 PUSH2 0x20A3 JUMP JUMPDEST SWAP3 SWAP2 POP POP JUMP JUMPDEST PUSH0 PUSH1 0x20 DUP3 DUP5 SUB SLT ISZERO PUSH2 0x20E2 JUMPI PUSH2 0x20E1 PUSH2 0x1587 JUMP JUMPDEST JUMPDEST PUSH0 PUSH2 0x20EF DUP5 DUP3 DUP6 ADD PUSH2 0x20B9 JUMP JUMPDEST SWAP2 POP POP SWAP3 SWAP2 POP POP JUMP JUMPDEST PUSH0 PUSH1 0x20 DUP3 ADD SWAP1 POP PUSH2 0x210B PUSH0 DUP4 ADD DUP5 PUSH2 0x1E05 JUMP JUMPDEST SWAP3 SWAP2 POP POP JUMP JUMPDEST PUSH0 PUSH1 0x40 DUP3 ADD SWAP1 POP PUSH2 0x2124 PUSH0 DUP4 ADD DUP6 PUSH2 0x1E05 JUMP JUMPDEST PUSH2 0x2131 PUSH1 0x20 DUP4 ADD DUP5 PUSH2 0x1D3F JUMP JUMPDEST SWAP4 SWAP3 POP POP POP JUMP JUMPDEST PUSH0 DUP2 MLOAD SWAP1 POP SWAP2 SWAP1 POP JUMP JUMPDEST PUSH0 DUP2 SWAP1 POP SWAP3 SWAP2 POP POP JUMP JUMPDEST PUSH0 JUMPDEST DUP4 DUP2 LT ISZERO PUSH2 0x2169 JUMPI DUP1 DUP3 ADD MLOAD DUP2 DUP5 ADD MSTORE PUSH1 0x20 DUP2 ADD SWAP1 POP PUSH2 0x214E JUMP JUMPDEST PUSH0 DUP5 DUP5 ADD MSTORE POP POP POP POP JUMP JUMPDEST PUSH0 PUSH2 0x217E DUP3 PUSH2 0x2138 JUMP JUMPDEST PUSH2 0x2188 DUP2 DUP6 PUSH2 0x2142 JUMP JUMPDEST SWAP4 POP PUSH2 0x2198 DUP2 DUP6 PUSH1 0x20 DUP7 ADD PUSH2 0x214C JUMP JUMPDEST DUP1 DUP5 ADD SWAP2 POP POP SWAP3 SWAP2 POP POP JUMP JUMPDEST PUSH0 PUSH2 0x21AF DUP3 DUP5 PUSH2 0x2174 JUMP JUMPDEST SWAP2 POP DUP2 SWAP1 POP SWAP3 SWAP2 POP POP JUMP INVALID LOG2 PUSH5 0x6970667358 0x22 SLT KECCAK256 BALANCE 0x1E 0x4C SAR GASLIMIT CHAINID 0xBF SWAP5 0xD2 0xC9 SIGNEXTEND 0xC7 CALL PUSH13 0x1D29ED287FC3DA017696B204DA 0xB0 PUSH19 0x873DD764736F6C634300081600330000000000 "
				},
				"gasEstimates": {
					"creation": {
						"codeDepositCost": "1737600",
						"executionCost": "infinite",
						"totalCost": "infinite"
					},
					"external": {
						"createPlan(uint256,uint256)": "infinite",
						"getAllowance(address)": "infinite",
						"nonce()": "2424",
						"plans(address)": "infinite",
						"startPlan()": "infinite",
						"stopPlan()": "8689",
						"triggerPlan(address)": "infinite",
						"uniswapRouter()": "infinite",
						"updatePlan(uint256,uint256)": "infinite",
						"usdt()": "infinite"
					}
				},
				"methodIdentifiers": {
					"createPlan(uint256,uint256)": "b197df54",
					"getAllowance(address)": "eb5a662e",
					"nonce()": "affed0e0",
					"plans(address)": "86d86d84",
					"startPlan()": "a63661a5",
					"stopPlan()": "d930da60",
					"triggerPlan(address)": "c440fa0f",
					"uniswapRouter()": "735de9f7",
					"updatePlan(uint256,uint256)": "00e1801c",
					"usdt()": "2f48ab7d"
				}
			},
			"storageLayout": {
				"storage": [
					{
						"astId": 1791,
						"contract": "src/DollarCostAveraging.sol:DollarCostAveraging",
						"label": "nonce",
						"offset": 0,
						"slot": "0",
						"type": "t_uint256"
					},
					{
						"astId": 1807,
						"contract": "src/DollarCostAveraging.sol:DollarCostAveraging",
						"label": "plans",
						"offset": 0,
						"slot": "1",
						"type": "t_mapping(t_address,t_struct(Plan)1802_storage)"
					},
					{
						"astId": 1810,
						"contract": "src/DollarCostAveraging.sol:DollarCostAveraging",
						"label": "usdt",
						"offset": 0,
						"slot": "2",
						"type": "t_contract(ERC20)651"
					},
					{
						"astId": 1813,
						"contract": "src/DollarCostAveraging.sol:DollarCostAveraging",
						"label": "uniswapRouter",
						"offset": 0,
						"slot": "3",
						"type": "t_contract(IUniswapV2Router02)1752"
					}
				],
				"types": {
					"t_address": {
						"encoding": "inplace",
						"label": "address",
						"numberOfBytes": "20"
					},
					"t_contract(ERC20)651": {
						"encoding": "inplace",
						"label": "contract ERC20",
						"numberOfBytes": "20"
					},
					"t_contract(IUniswapV2Router02)1752": {
						"encoding": "inplace",
						"label": "contract IUniswapV2Router02",
						"numberOfBytes": "20"
					},
					"t_mapping(t_address,t_struct(Plan)1802_storage)": {
						"encoding": "mapping",
						"key": "t_address",
						"label": "mapping(address => struct DollarCostAveraging.Plan)",
						"numberOfBytes": "32",
						"value": "t_struct(Plan)1802_storage"
					},
					"t_struct(Plan)1802_storage": {
						"encoding": "inplace",
						"label": "struct DollarCostAveraging.Plan",
						"members": [
							{
								"astId": 1793,
								"contract": "src/DollarCostAveraging.sol:DollarCostAveraging",
								"label": "index",
								"offset": 0,
								"slot": "0",
								"type": "t_uint256"
							},
							{
								"astId": 1795,
								"contract": "src/DollarCostAveraging.sol:DollarCostAveraging",
								"label": "frequency",
								"offset": 0,
								"slot": "1",
								"type": "t_uint256"
							},
							{
								"astId": 1797,
								"contract": "src/DollarCostAveraging.sol:DollarCostAveraging",
								"label": "amount",
								"offset": 0,
								"slot": "2",
								"type": "t_uint256"
							},
							{
								"astId": 1799,
								"contract": "src/DollarCostAveraging.sol:DollarCostAveraging",
								"label": "status",
								"offset": 0,
								"slot": "3",
								"type": "t_uint256"
							},
							{
								"astId": 1801,
								"contract": "src/DollarCostAveraging.sol:DollarCostAveraging",
								"label": "lastTriggeredAt",
								"offset": 0,
								"slot": "4",
								"type": "t_uint256"
							}
						],
						"numberOfBytes": "160"
					},
					"t_uint256": {
						"encoding": "inplace",
						"label": "uint256",
						"numberOfBytes": "32"
					}
				}
			},
			"userdoc": {
				"kind": "user",
				"methods": {},
				"version": 1
			}
		}
	}
}